:040000006F10000B72
:100004000000000000000000A0000020180C0020E8
:10001400A9BDF9F3A00000200000000000000000CA
:10002400A0000020A000002000000000000000004C
:10003400A000002000000000A0000020000000003C
:10004400A0000020A0000020A0000020A0000020AC
:10005400A0000020A0000020A0000020000000005C
:10006400A0000020A0000020A0000020A00000208C
:10007400A0000020A0000020A0000020A00000207C
:10008400A0000020A0000020A0000020A00000206C
:10009400A000002004020020A0000020A0000020F6
:1000A40001A0B7170040984B41111367070198CB83
:1000B40003C707011377E70F2388E70013078008B6
:1000C40073370780137787083AC60F1000001307A9
:1000D40070052380E704130780FA2380E7040F10D8
:1000E4000000B847B70600069506558FB8C703C782
:1000F400B7041377F70DA385E70403C7A7001367B5
:1001040027012385E700130750142394E7003727BA
:1001140000408346578093F6F60EA302D7808946A3
:10012400A303D78003C7E7041377C70F1367170028
:100134002387E70403C7F70213672700A387E702AF
:1001440003C70701136717002388E7002380070408
:10015400B247F3A707800F10000041018280EFF03F
:100164005FF413058020970500009385E5091716B1
:1001740000001306E6F363FAC5008322050023A0FA
:10018400550011059105E3EAC5FE173500E0130596
:100194002587971500009385A5F11386C18163FA1D
:1001A400C5008322050023A0550011059105E3EA4B
:1001B400C5FE1385C181938581ED6377B500232046
:1001C40005001105E36DB5FE93025002739002BC65
:1001D4008D42739042808542739012BC93028008D2
:1001E40073900230970200009382C2E193E23200DE
:1001F40073905230972200E0938222CC7390123491
:040204007300203033
:10020800011126CC22CE4ACA4EC852C656C45AC27A
:10021800B794004003C7840083C794009376F70F10
:10022800418B630F076803C7940093F7F70F9D8B03
:10023800418B631C075691CF0D476380E752724488
:10024800E2445249C249324AA24A124B056173003C
:10025800203083C7F409A18B638F074C138781E98A
:100268008347070083562700238CF18483471700B0
:1002780003564700A38CF184835767002399F184C0
:10028800239BD184239AC18403CA8185138681E97B
:10029800137A0A06630C0A0883C78185930600024D
:1002A80093F70706639CD71483C691859307E00FDD
:1002B800639DF6042300070023AEE18483C781858C
:1002C8009397476063DA074403D7218593070004AF
:1002D80063E6E70083D72185B3C7070803D72185DD
:1002E8001D8F334707082399E18437970040231E61
:1002F800F7089947230FF708379700408347F7090E
:1003080093F7F707A30FF7081DBF03C79185930756
:10031800F00F6315F70E238F0182A38E0182238EBF
:1003280001822384018423AC018249BF83C591855E
:100338002D4513F7F50F6363B50C896593854572F1
:100348003347B7201843028703D76185994621832D
:100358007D171377F70F63E9E60E8966938646756E
:100368003347D720184302878D679387079683C43E
:10037800070023AEF18481A0B797004003C7A70008
:10038800131747606354070805472386E18413075A
:1003980000202397E18403C7C1848547631DF706BE
:1003A8008D679387079483C4370003C7270023AE5C
:1003B800F184A204D98C83D7218563F4F4002399AE
:1003C800918403D721859307F0039304000463E61F
:1003D800E70083D42185B3C4040803ABC18526860E
:1003E800138581E9DA85971000E0E78080D6269B9F
:1003F80023AE61859307F00FE312FAECB79700403C
:100408001547238FE708A38FE708FDB523860184E6
:1004180013070004BDBF8D679387079269B783D719
:100428006185094793F7F70F6388E702636BF70065
:1004380085E39387818183C4070023AEF184014A51
:100448009DBF0D47638EE7008144130AF00FA5B7DF
:100458008D679387079121BF8D679387479001BF69
:100468008D679387C78E21B78D679387078E01B7EE
:1004780083C6C1840547639FE6028D679387079209
:1004880083C4370003C727008D65A204D98C3715AC
:1004980000201386E4FF938525921305A51D971068
:1004A80000E0E78000CBB71700209387871D23AEB5
:1004B800F18411B783C7C18413FAF70FD1F78D6799
:1004C8009387079483C4370003C727008D65A20468
:1004D800D98C371500201386E4FF938525941305DE
:1004E800A51F971000E0E780C0C6B71700209387C4
:1004F800871F75BF83D7618593F7F70F2388F1842A
:1005080075BB83C711852300F60003D7218585476E
:10051800E3F6E7DA2399F18455B383D7618593F736
:10052800F70FA388F18405472385E18441BB03C7FE
:1005380081857D8B19EF83D76185054793F7F70F81
:10054800E39EE7EA83C7B18493F7E70FA385F184B5
:10055800B5B303C7818509467D8BE311C7EA83D705
:10056800618593F7F70FE39B07E883D741858D46AD
:1005780093F7F70F6384D70213072008E390E7E89F
:10058800B79700402383070A83C78184918BE38749
:1005980007D2971000E0E78040510DB3B7970040AD
:1005A800A385E70AD5B703C781857D8B41EB03D7C0
:1005B800618505461377F70F631CC70283C7C1849B
:1005C8006398E7008D6783C7779493F7070281EFF5
:1005D80083C7C184E39407E28D6783C7779293F753
:1005E8000702E38D07E083C7B18493E71700B9BF1B
:1005F80083D76185094793F7F70FE391E7E003D7BE
:100608004185930700106304F70203D741859307D8
:100618000020630EF70003D7418593070030630875
:10062800F70003D7418593070040E319F7C883C74C
:10063800018693E707082380F18649B103C78185BE
:1006480009467D8BE31CC7C683D7618593F7F70FEF
:10065800E39607C683D741850D4793F7F70F638164
:10066800E70213072008E39BE7D837970040834742
:10067800670A93F7C70F93E717002303F70A3DB9F3
:10068800379700408347B70A93F7C70F93E71700D8
:10069800A305F70A25B12300060085BD83C7818518
:1006A800239C01E80947FD8B639FE70203D7418537
:1006B8008D461377F70F6303D70293062008631656
:1006C800D704379700400347670A0D8B85466314A4
:1006D800D7002300E60003D721851DBD37970040CA
:1006E8000347B70ADDB783C78185FD8B81CB83D7E5
:1006F8002185E375F7BC2399E184C9B683C7B18422
:10070800858BF5D72300E600DDB703D72185E3F70E
:10071800E7CE2399F184DDB183D7218589EBB7979B
:100728000040239E07081947238FE708F1B6B797BB
:1007380000401947C9B9A38F040883D7C40783C7E2
:10074800818593F7070689C72399018483C7918513
:1007580083D72185E39207BAD9B783C7B40A93F739
:10076800F707A385F40A83C7B40AC18BE38907ACEA
:1007780083D5840883C7B40A138581A993C7470022
:10078800A385F40A83C7B40A93F7C70FA385F40AAD
:10079800971000E0E780804283C7B40A93F7C70F39
:1007A80093E72700A385F40A59BCB9C30947E3981E
:1007B800E7A883C7640A93F7F7072383F40A83C774
:1007C800640A93C747002383F40A83C7640A93F72C
:1007D800C70F2383F40A938781A803C727001377D9
:1007E800E70F2381E700971000E0E780403A81BCDB
:1007F80083D7218581E79947A38FF40883C781852B
:1008080093F70706ADEF83C79185954613F7F70F62
:10081800638AD70899476310F70A03D72185930796
:10082800F0031304000463E6E70003D4218533448E
:10083800040883A4C1852286A685138581E99710BB
:1008480000E0E780009183D72185A29423AE9184AC
:10085800818FB3C707082399F184B7970040239E77
:10086800870803C7E70913474700238FE70803C72B
:10087800E7091377C70F13672700238FE70883C794
:1008880001869397476063D60700971000E0E780DA
:100898002039379700408347E70993F7F707230F75
:1008A800F70871BA83C701853797004093F7F70FA8
:1008B800A301F700E9B7B7970040239E0708C1B71F
:1008C80083C7840093F7070491C793070004238420
:1008D800F400B5B293F7260085CB89472384F4004A
:1008E80003C7A400118B11CB03C7B184136727007A
:1008F800A385E18483C7B18499B203C7B184137710
:10090800D70FA385E18425BA93F716008DC3A38872
:10091800018423880184A385018423850184A3811C
:100928000400971000E0E780A03C85474DB723847A
:10093800D40031B2411122C683A7418691C783A74B
:100948004186829723A201863244410173002030F8
:10095800B7170040984B41111367070198CB03C79D
:1009680007011377E70F2388E70013078008733719
:100978000780137787083AC60F1000001307700521
:100988002380E704130780FA2380E7040F10000090
:100998001307000C6319E50203D787001367070CD8
:1009A8002394E700B717004003C707011367170030
:1009B8002388E70023800704B247F3A707800F10B6
:1009C80000004101828003C7A70093760520C9C2B1
:1009D800118B39E703C7E70403C6E7041377F70F5A
:1009E800136636002387C70403C6A70013664600AC
:1009F8002385C70003D6870083D5870033460608BA
:100A080093E5050C2394B700A5470100FD1793F75C
:100A1800F70FE5FFB71700402394C7002387E704C3
:100A280093770510DDCB371700408347A70093E77E
:100A380007012305F7009377F50185E3B727004001
:100A480003C7578013670701A382E7801D4715A0D6
:100A5800136727002385E700E1B72547636BF70491
:100A6800B727004003C757801377F70EA382E780A4
:100A78000547A383E78033450508B7170040136788
:100A8800050C2394E7002394A700C9C203C75704A1
:100A980083C65704418B858A558F09F703C72701F9
:100AA800418B09D303C7A7001377D70F2385E70026
:100AB800D5BD9377050199EBB727004003C7578049
:100AC8001377F70EA382E780094765B7B727004079
:100AD80003C757801377F70E85BF9377850181EF9A
:100AE800B727004003C757801377F70EA382E78024
:100AF80013071005BDBFB727004003C757801377FA
:100B0800F70EA382E78013077005A5B703C7A700F0
:100B18001377B70F61BF37E700E01C4354437D5696
:100B2800A183E206D58F9306071890C2D0C2B706F4
:100B3800002037160020938506001306869303A825
:100B4800850390DD23A2A1869165130507100CC1CA
:100B5800130707200CC39386060003A7418675FF79
:100B680037E700E011662320C7180F10000023ACF8
:100B78000603939687002320D710E1832322F710DA
:100B88008280170300E0E702C359411181460146FC
:100B980081451145F52A93078008F3B7078093F735
:100BA80087083EC60F100000B717004013077005EE
:100BB8002380E704130780FA2380E7040F1000005E
:100BC80003C76704136717002383E7042380070418
:100BD800B247F3A707800F1000004101170300E098
:100BE8006700635637E700E01C435443A183E206DD
:100BF800D58F1CC1FD572320F7182322F7188280B0
:100C080013178500B7E700E023A0E710618123A24E
:100C1800A7108280411181460146814511458D2AE0
:100C280013078008F337078093F787083EC40F102F
:100C38000000B7170040130670052380C704930609
:100C480080FA2380D7040F100000FD552396B702C1
:100C580023800704A245F3A505800F100000733711
:100C68000780137787083AC60F1000002380C7044F
:100C78002380D7040F10000003C767041367170009
:100C88002383E70423800704B247F3A707800F10E4
:100C9800000001A09307E0043305F502954733559A
:100CA800F50201007D1575FD8280170300E0E7025B
:100CB80043472A841305803E7D14E93F33440408E2
:100CC80075F8170300E0670003482E96AA870F708F
:100CD800B67882802303048015472303E48001004B
:100CE8002302A480828083076480E3CE07FE230367
:100CF8000480828083076480E3CE07FE0345448036
:100D0800828083076480E3CE07FE2302A48082806A
:100D1800411126C44AC24EC006C61377F50BAD472B
:100D2800AA892E8995446306F70019456537653FFA
:100D38008D444E854537FD59FD1463983401B24002
:100D4800A244124982494101828013550901137551
:100D5800F50F453F2209CDB7011126CC06CEB704C1
:100D6800080051371545BD37713769372AC6A53F81
:100D780032459377150089EB136515001375F50F48
:100D8800F240E24405618280FD14E9FC0145CDBFD3
:100D98003971B7F7070006DE26DC4ADA4ED852D694
:100DA80056D45AD25ED062CE03AB47027D57B7E71E
:100DB80000E083AA070022C603AA470023A0E71879
:100DC80023A2E718B71B0040930770052380FB0494
:100DD800930780FA2380FB0483C74B041147AA8931
:100DE80093E7070E2382FB04372400401305F00F16
:100DF8002303E4802E8C3289B684E93DED35938750
:100E080079FF93F7F70F0947137BFB006362F7122B
:100E1800A147370708006307FB00B70707003E9C98
:100E2800378707007955637EEC02B3878401636ACC
:100E3800F702A9476398F90689E481446D35268548
:100E48000DA0E2850945E93505090345F9FFFD14BB
:100E5800050C453D81C49377FC0FFDF7F53D69FD11
:100E68007D55B7170040130770052380E704130763
:100E780080FA2380E70403C74704418B2382E704F1
:100E8800F250B7E700E023A0571123A24711E2541C
:100E980032445259C259325AA25A125B825B724C7E
:100EA80021618280A547639AF906A1478569631D78
:100EB800FB029387F9FFB3869700B374FC00B694DE
:100EC80093C7F7FFFD8C33FC8701416B856B9387D4
:100ED800F9FFB3F7870199E363FF340193D9490018
:100EE800C147E3E637FF91BF9307F00FE9B785677E
:100EF800C169FD17C9B71305800D6388690113051A
:100F080000026384790113051008E2851135A935BB
:100F180021D94E9CB3843441C1B7E2852D45CD3BE0
:100F2800CA94E30C99F00509F133A30FA9FED5BFC4
:100F38009387F9FF93F7F70F636FF70AA1476319D0
:100F4800FB06B70708003E9C83C75B04370707000A
:100F580093F7070299E337870700B70708003E971A
:100F68007955E370ECF0B3079C00E36CF7EE894722
:100F7800639AF9048980D549E38104ECE28509453F
:100F8800413B11090327C9FF91472320E480030748
:100F98006480E34E07FE23033481FD17EDFBFD1447
:100FA800110C81C49377FC0FE9FF7D3371F54DBDBA
:100FB80083C75B043707070093F70702D5F3378722
:100FC800070079BF8547E384F9F2E2852D45893327
:100FD8009389F4FFE38304E6313B93F7390091EBFF
:100FE800832604800327090093074900E398E6E471
:100FF8003E89CE84F1BFB5476396F9001305900B7F
:10100800D13925BDB1471305B00AE38BF9FE9947DD
:101018006394F904A1476315FB00B70708003E9CD9
:10102800E2852D45F53181440D4BA149E1316396A7
:101038006401832704802320F9008504E39834FFA2
:101048008327048013172C01635507002312F90026
:10105800EDB32322F900D5B39D476399F902814581
:101068001305B0047531BD4423200900232209006B
:10107800FD59493193F77400CA9703C70700FD1457
:10108800398D2380A700E39634FF45BB91476399C8
:10109800F900130560063D39B931130590098DB77C
:0810A800E38D09D8F15459BB96
:1010B000971100209381819617F10120130181F48B
:1010C0001305400097F5FF1F9385C5F317F6FF1F23
:1010D0001306861363FAC5008322050023A055007A
:1010E00011059105E3EAC5FE17F5FF1F1305650716
:1010F0000285397101436EC619A0397141536AC81E
:1011000066CA62CC5ECE19A0397101535AD056D24C
:1011100052D44ED64AD826DA22DC06DE33016140AC
:10112000828241114AC026C222C406C68282B24DC2
:101130004101024D924C224CB24B4101024B924A6A
:10114000224AB2494101024992442244B24041013B
:1011500082802A8309CA83830500230073007D16D9
:10116000050385056DFA8280EFF2BFFB8D451D6595
:10117000EF00105985452165EF009058EF00106889
:10118000D9B7B74700402396C70003C70700B74643
:101190000040374800401377F70E2380E7000547EB
:1011A0002383E70081476313F600828003C776003C
:1011B0007DFB3307F500034707002308E8003747A6
:1011C000004083487700E39E08FE8348470033874A
:1011D000F500850723001701F9B7EFF29FF401111D
:1011E000A307A1009305F1011305F1000546A30F24
:1011F0000100413F0345F1010561B1B7F9BF130596
:10120000F00FE1BFEFF25FF0B71400409387C40A1C
:10121000856923A037011305F009CD371305F00FB9
:101220006D3F131905011305F00F453F1314850099
:101230001305F00F5D37336424019384840B23A0DE
:101240003401418DE5BDEFF2DFEDB71700400567D2
:101250002A8423A6E70A0D45553713550401137553
:10126000F50F693F135584001375F50F413F137552
:10127000F40F6937C9BDEFF2DFEA2A84B304B50081
:1012800063139400C9B505049D3FA30FA4FECDBF11
:10129000EFF23FE9853F23A2A18283A54182096540
:1012A00013050577EF10E03F2384018223A001821C
:1012B000239E018083A741823747EF009306970161
:1012C00063E4F6084D07636DF702B736EF00138746
:1012D00026016384E70A636FF704C5063707020037
:1012E0006382D70403A74182FD576305F70083A7F4
:1012F0004182C9EF096513050578EF10A03C01A0F4
:1013000037C710FF2D17BA9791463707100063EBC8
:10131000F60009671307077AB3C7E7209C43828763
:1013200037070002258323A0E18293070020239E34
:10133000F18011BD1385360137070800E384A7FE4D
:10134000D5063707200069BF3767EF00930687018E
:101350006388D70263EBF600930667016385D702C3
:101360009306770137078000A5BF930697013707DB
:101370000002BDB73707800075B7370704005DB7B7
:101380003707000145B73707400069BF370720001E
:1013900051BF83A7818395C303A781839307C003AC
:1013A00063F4E70023ACF18281471387818603A6AB
:1013B000818363E5C70023A6E18282803306F700BC
:1013C000850723000600B3C70708D5B703C7818484
:1013D000058B0DC3B796004003C7660A1377C70F86
:1013E000136717002383E60A03C781841377E70F87
:1013F0002384E18403C78184098B0DC3B796004021
:1014000003C7B60A1377C70F13671700A385E60A49
:1014100003C781841377D70F2384E1848280938765
:10142000818683C61701E20623AAD18283C62701DB
:1014300003A64183C206B29623AAD18283C637018E
:1014400003A64183A206B29623AAD18203A64183B2
:1014500083C64701B29623AAD18283C6670183C798
:101460007701A20623ACD18283A68183B69723ACF1
:10147000F18283A78183A60723ACF182239801829E
:10148000238F0182A38E0182238E01828280EFF25C
:101490005FC983C6818613075005639EE65893870C
:1014A000818683C61700130730056396E65883C606
:1014B0002700130720046390E65883C637001307FC
:1014C0003004639AE65683C647002380D18483C6DE
:1014D000570013870184A300D70083C66700230148
:1014E000D70083C67700A301D70083C6B700E20602
:1014F00023ACD18283C6A70083A58183C206AE96A2
:1015000023ACD18283C6970083A58183A206AE96C1
:1015100023ACD18283A5818383C68700AE9623AC9A
:10152000D18283A6818399CA8386C70063D70604C4
:1015300083C6818493E616002384D18483C6818484
:101540009305F00293E646002384D18483C6F70016
:1015500063E7D504C54563E7D5026380063A8D4845
:10156000638F16351547238FE18213070002A38E80
:10157000E1820547238EE18265A683C6818493E6D6
:1015800026005DBFB91693F6F60FF545E3ECD5FCE2
:1015900089659385457BB3C6B620944282869305C0
:1015A0002005638FB64663E4D5069305A0046380E7
:1015B000B63863EFD502930530046386B63A9307D5
:1015C0006004E391F6FA83A681839307800863F4AD
:1015D000D70023ACF182B71700209387C70C238F65
:1015E0000182A38E018223A6F182238E0182A5A00F
:1015F00093071005E398F6F683A68183F14763F419
:10160000D70023ACF1828D6793874786C9BF9305C6
:10161000C00A638CB60063E6D5029305A005638516
:10162000B61E93075008E39FF6F2A5331547238FA4
:10163000E18213070002A38EE1820547238EE18237
:1016400019A89307B00BE39FF6F0238F0182A38EB6
:101650000182238E0182C5BC83A681839307400249
:1016600063F4D70023ACF18283A64182B717002030
:101670009387C717E1822380D70283A64182C18264
:10168000A380D70283A6418203A74182A182A381BE
:10169000E70215472381D7022380E70023A6F182C2
:1016A0006DB783C69184858A6384061403A68183FB
:1016B000B14663F4C60023ACD182371600208146C0
:1016C0001306061783A5818363E6B60283A64184C9
:1016D000E1822382D70083A64184C182A382D700FE
:1016E00083A6418403A74184A1822383D700A383D7
:1016F000E7006DB73305D60003450500B385D70075
:1017000085062380A50093F6F60F6DBF83C69184EE
:10171000858AF9CE03A68183A14663F4C60023AC73
:10172000D18281461386018183A5818363EAB60253
:1017300003A741847D1761832380E70003A74184C9
:101740007D174183A380E70003A741847D17218390
:101750002381E70003A741847D17A381E7003DBFF4
:101760003305D60003450500B385D70085062380E1
:10177000A50093F6F60F4DBF83C79184858BADCB43
:101780007939D1BD83C69184858ABDC203A6818380
:10179000B14663F4C60023ACD182371600208146DF
:1017A0001306461683A5818363E8B60283A64184A7
:1017B000E1822382D70083A64184C182A382D7001D
:1017C00083A6418403A74184A1822383D700A383F6
:1017D000E70023A6F18241B53305D6000345050095
:1017E000B385D70085062380A50093F6F60F5DBF6D
:1017F0000947238FE1821307A003A38EE1820547E7
:10180000238EE182E13681BD83C617011306F00302
:101810006392C60603A68183C14663F4C60023AC67
:10182000D1823716002081461306461583A5818391
:1018300063E6B60283A64184E1822384D70083A6AF
:101840004184C182A384D70083A6418403A7418435
:10185000A1822385D700A385E700A5BF3305D60065
:1018600003450500B385D70085062380A50093F6C0
:10187000F60F6DBF1306A002639DC60203A6818307
:10188000F14663F4C60023ACD1820D66814613068F
:10189000C68283A58183E3FEB6F23305D6000345F5
:1018A0000500B385D70085062380A50093F6F60FC3
:1018B000CDB71547238FE182130700023DBF930682
:1018C00000072394D18683C6E183A381070023A464
:1018D00007002381D700B706000AD4C383C6D1838B
:1018E000A3860700239707002386D70023980700C5
:1018F00023A6F182238E0182B9BB83C79184858B95
:1019000091C7238F0182A38E0182EDB78947238F70
:10191000F1829307A003A38EF1828547238EF18283
:1019200083C7818493E717002384F184E1BD83C7D3
:10193000370199EB83A68183914763F4D70023ACE9
:10194000F1829387C18061B9C146639FD70A83A69C
:101950008183A14763F4D70023ACF182B71700203D
:101960009387C721ADB983C7870193060004639F9E
:10197000D70283A68183B14763F4D70023ACF182F9
:1019800003A74184B71700209387070C7D17418375
:10199000A384E70003A741847D1721832385E70003
:1019A00003A741847D17A385E70015B995EF83A6AA
:1019B0008183D14763F4D70023ACF18203A741842C
:1019C000B71700209387C70A7D174183A388E700D4
:1019D00003A741847D1721832389E70003A741845E
:1019E0007D17A389E700D1B793060008639ED7004F
:1019F00083A681839307000363F4D70023ACF182AD
:101A00008D6793870788E1BE69329547238FF182FE
:101A100093070002A38EF1828547238EF182DDB306
:101A200083A68183F14763F4D70023ACF1828D67ED
:101A300093878784A5B11547238FE182130700029E
:101A4000A38EE1820947238EE18283C7818493E7D5
:101A500017002384F18483C7818493E72700E9B5C5
:101A6000371700200356872183A681836374D6022B
:101A7000035687218356872103A7818333460608AF
:101A8000158F23ACE18283A5C18285460945334683
:101A9000060891AE03A6818323AC018283C78184AB
:101AA00093F7E70F2384F184F9BF2384018483C66D
:101AB0000184B75742539387573523A4F186138780
:101AC0000184938781862382D70083461700354699
:101AD00093858186A382D70083462700034737007A
:101AE00009452383D700A383E70003C7C183854645
:101AF00023A407002386E700FDA4EFF28FE283D73B
:101B0000018391E703A541832605EFF0CFF3B714D6
:101B1000002083D58421371900201305092AEFF00E
:101B20008FF503D6842185469305092A0945652C3E
:101B300083D701838507B3C707082398F18283D62B
:101B4000842103A78183158F23ACE18283D601838F
:101B500003D68421130700203347C702639EE600A3
:101B6000371700408566232CD70A2398018203A7E4
:101B70004183050723AAE18283A7818399E783C76D
:101B8000818493F7E70F2384F1846FF0CFDBEFF2CA
:101B90004FD983C78184858B81CF03C77187930712
:101BA00080026315F700913F6FF0EFD9553DEDBF0F
:101BB00083C78184918BEDDBCD3DFDB7EFF26FD60E
:101BC00083C78184898BA1E7FD476392F504814730
:101BD000138481867D47B306F50003C60600B386ED
:101BE000870085072380C600E397E7FEEFF03F8A72
:101BF00083C78184898B81EF83C78184858B81CF63
:101C00000347F400930780026315F700FD356FF07A
:101C10008FD3B935EDBF83C7C183F5FB7935C5BF18
:101C200083C7018693F7F7072380F18683D6418522
:101C3000130700106399E602B797004003C75700E7
:101C40001377070FA382E70003C757001367170036
:101C5000A382E700379700408347570093E70708C0
:101C6000A302F700828083D6418513070020639F7B
:101C7000E600B797004003C757001377070FA3820A
:101C8000E70003C7570013672700D9B783D64185FC
:101C900013070030639FE600B797004003C7570063
:101CA0001377070FA382E70003C757001367870066
:101CB00045B703D7418593070040E31DF7F8B79771
:101CC000004003C757001377070FA382E7003717B9
:101CD00000201307071AF8C7130750032396E70AD3
:101CE00009472387E70A03C75700136747008DB7E3
:101CF000B797004015472398E70025472399E70049
:101D000013070004F8CF13070020F8D3B8D71387C0
:101D100081E998D3138781C9F8C3138781A9D8D7DC
:101D2000239E0708238F07080947A38FE7082392FC
:101D3000070A2383070AA385E70A8147138781A837
:101D4000C1463306F700230006008507E39BD7FE54
:101D5000828039C5EFF2EFBC3794004091472300F1
:101D6000F420371700408357A70193E70702231D8C
:101D7000F700A5472300F4009307F0052301F400C2
:101D8000853F8547A300F400930780FB2300F40000
:101D900013070002B7E700E023A2E7106FF0AFBA25
:101DA000B797004003C70720B71600401377B70F57
:101DB0002380E720984E1377F7FD98CE03C70700DE
:101DC000136727002380E70003C707001377D70FA7
:101DD0002380E700B7E700E01307000223A2E7181B
:101DE0000F1000008280EFF22FB29307F5FF2A84D4
:101DF00093F7F70F3945636CF508B797004003D5A3
:101E00000701B317802805481375F50FE98F85443E
:101E1000A9CF138581A8229583440500138981A841
:101E20008588A1E4B289A9E6B72700109387F74017
:101E3000A2978A078CC3B307890003C707001367FB
:101E400017002380E700B7271010938777423E944E
:101E50000A04231034018347240093F7C70F23019A
:101E6000F40093E727002301F40026856FF00FADFF
:101E7000639F0601B72700109387F740A2978A0750
:101E80008843B70700203E95EFF0AFAC6DB78544AF
:101E9000E9BFEFF20FA9B71700401307000823AC02
:101EA000E70C85454145E1288D4513050008C1280B
:101EB000812C6FF04FA9EFF2CFA61305503497F0A5
:101EC000FF1FE78060A9F1370D651305058BEF0053
:101ED000607FEFF06FA9EFF0AFBB03A7018205456C
:101EE00023A2E18483C7918493E71700A384F1843C
:101EF0008D35B7E700E01307000223A2E71001A029
:101F0000914763EAB7048D6793874797B3C5F52078
:101F10009841B71700409387470B028794433717C0
:101F20000040B3F6A64094C39306070B9C42B3F758
:101F3000A74019A8944337170040B3F6A64094C3AE
:101F40009306070B9C42C98F9CC29307070A9843CC
:101F50003377A74098C38280944337170040C98ED7
:101F6000D9B798433377A74098C3B71700409387F2
:101F7000070A9843498FF9BF9843498FF5B79147AE
:101F800063EAB7048D6793878798B3C5F5209841B6
:101F9000B71700409387470D0287944337170040D7
:101FA000B3F6A64094C39306070D9C42B3F7A7402F
:101FB00019A8944337170040B3F6A64094C393067C
:101FC000070D9C42C98F9CC29307070C9843337737
:101FD000A74098C38280944337170040C98ED9B771
:101FE00098433377A74098C3B71700409387070CEF
:101FF0009843498FF9BF9843498FF5B7B7470040D9
:102000001147A381E70009472380E7001307000673
:102010002380E70003C7170013670701A380E700C9
:1020200003C717001377E70FA380E7008280B71775
:10203000004003D787009306000C1377070C630F4B
:10204000D70403D78700137707101DC703D787006E
:1020500083D787007D8B09EB93F70720A1C73755FE
:10206000E80113050580828037C59812FD8B1305A2
:1020700005E03345F502828003D7870083D78700C8
:1020800013770720FD8B11C73755E801130505802D
:10209000CDB73725F40013050540E1BF21651305D1
:1020A00005D082803725F4001305054082803285F3
:1020B000814737370040A14663C3A70082800346AB
:1020C000B700E30ED6FE3386F5000346060085070B
:1020D0002304C700D5B7EFF2CF842A84893F29476C
:1020E000B307E5028D83B3D787029507B3D7E7021D
:1020F00037370040B3C707082316F7006FF0AF84E7
:10210000EFF22F82716513050520F137B7370040D4
:10211000130770F82381E7000D47A381E700130739
:102120000004A380E70005472387E7006FF0AF8135
:10213000011106CE2EC615CD1841AA8705C35841F8
:102140007D5511CB8546631BD700984723000700B8
:1021500023A207000545F240056182809847B246F8
:102160002300D7009847050798C7D8437D17D8C3E1
:10217000D5B705466C00253FF1BF011122CC26CA18
:1021800052C456C25AC006CE4AC84EC62A8AAE8A21
:102190003284BA8413FB1600634A06082E853689FA
:1021A000852BAA8963528508635D9502058C6319A6
:1021B0000B08130B00022289634F20070149336982
:1021C000240B3304244163D99902B3843441A68992
:1021D000930500035285FD19A13FE39B09FE269953
:1021E00021A8098C13792900E30309FCE9F06301B4
:1021F0000B040149130B0003CA84B3872441D6970B
:1022000083850700B1E12289634420058147F240BC
:102210003365F40A62444249B249224A924A024B67
:102220002695D2440561828001446DBF814941B742
:10223000130B000349B7DA855285DD3D7D19ADBF2B
:10224000130B0002014941B75285DD35850475B78E
:10225000DA855285F13D7D1945BF397126DA4ED6B2
:1022600006DE22DC4AD852D456D25AD0BA84BE896D
:1022700085E5930700030147CE8626862C002314AC
:10228000F100E53DF2506254D2544259B259225AFB
:10229000925A025B216182802A893684C28A468BE7
:1022A00091CAA94701446317F60063D50500B30539
:1022B000B0400544A30F01001307F101A5461385A3
:1022C0006AFCB3F7C50263D3F600AA9793870703A6
:1022D000A30FF7FE130AF7FFB3D7C50263F5C504D2
:1022E00011C8A9C493F72900B1C39305D0024A8548
:1022F0008135FD1493F7490099CF93071006930594
:1023000000034A85639CFA022535930580074A85B8
:1023100005350904F9145A87CE862686D2854A8562
:10232000A93D229585B7BE85528761BF9307D0022C
:10233000A30FFAFE0144130AE7FF6DBFD53B9305D7
:102340008005F1B7014582800145828039715AD0FC
:102350000D6B22DC26DA4AD84ED652D456D25ECE47
:1023600066CA6AC806DE62CCAA892E893284014A0E
:102370008144930B5002930AD002A54C294D130BB4
:102380004B9A830509008DE56385090081454E85DB
:102390004533F25062544259B259225A925A025B62
:1023A000F24B624CD24C424D2685D2542161828040
:1023B000638775014E85AD3B85040509D9B7830751
:1023C0001900130C190063997701930550024E858B
:1023D000853385046289D5B7C5DB6386570363CC33
:1023E000FA00130730026387E7041307B002638023
:1023F000E704814721A813070003E39CE7FE130CC1
:102400002900894721A0130C2900854703070C00E8
:10241000630D570363C4EA0293063002630AD702CE
:102420009306B0026308D7026289014625A8130CFF
:102430002900C1B7130C29009147C9BF93060003B7
:10244000E314D7FE93E7270031A0050C8547E9BFC9
:1024500093E74700050CC9BF3306A603131747606F
:1024600005093A9683060900138706FD9375F70F51
:10247000E3F4BCFE1307E0029945639FE6000509FB
:102480008145A546294803070900130707FD137571
:10249000F70F63F9A6022E8A830609001307C00608
:1024A0006380E6046347D70213078006638BE60662
:1024B0001307A006638EE6061307C004638AE606C8
:1024C00001473DA0B3850503131747600509BA9579
:1024D0005DBF13074007638DE6041307A007F9BF2C
:1024E000030519000D476314D500050911470509B7
:1024F0008306090013050006635ED50213058007F5
:10250000E34DD5EA13052006E359D5EA9386D6F9BB
:1025100093F6F60F5545E362D5EAB3C666219442B9
:102520008286030519000147E314D5FC0909C9B7E0
:10253000050979B7130570046345D50213074004F4
:10254000634ED71213073004E399E6E61840130CE4
:102550004400A30601002306E100BE8601476C008B
:1025600099A09305800513081004E398B6E49146FA
:10257000631ED70693057400E19913848500C28811
:102580003E880147B287C146D0418C414E855D3BB4
:10259000AA9425B50C40130C440081E58D65938504
:1025A000C5995287BE864E85C93E1DA89146631EB9
:1025B000D70093057400E1993E8813848500930841
:1025C0001006B2870547A946C1B7130C4400D2884C
:1025D000130810063287854629460C404E85B539CA
:1025E000AA946284D9BB1308100651B7130C440097
:1025F000D288328781464146CDB79146631DD700C8
:1026000093057400E1993E881384850093081006B1
:10261000B28701474DBF130C4400D288130810063F
:102620003287814655BF914693E74700631AD7002A
:1026300093057400E199138485009308100689B707
:10264000130C4400D2881308100665B79146631E28
:10265000D70093057400E1993E88138485009308A0
:102660001006B2870147A14605B73287130C440014
:10267000D288130810068146214685B793081004B6
:102680001305740061993E883287AE8750410C4132
:1026900013048500A9464E854539DDBD9308100613
:1026A000C5B739712ED232D4AA855010014506CE55
:1026B00036D63AD83EDA42DC46DE32C64139F240FE
:1026C00021618280011122CC26CA06CE8307050033
:1026D000AA840144A307F100050485E3A9479305F3
:1026E000F10005460145A307F100EFF05F9CF240C1
:1026F00022856244D2440561828005469305F1003B
:102700000145EFF0DF9AB387840083870700D9B7CC
:10271000AA8703C7070085076DFF3385A7407D158E
:1027200082800000A0060020320500200004002066
:10273000AA05002000040020F80400204C0300201B
:1027400000040020060500201E0500209A06002037
:10275000C00200206C0300207C0300202204002023
:102760004C0400204C0400206C0400207404002061
:10277000466C6173685F49443A20253038780A0016
:1027800045787465726E616C20466C617368206E6A
:102790006F7420636F6E6E65637465640D00000076
:1027A0008C130000861300007413000080130000D7
:1027B0002013000058160000641500006415000086
:1027C0006415000064150000641500006415000025
:1027D00064150000841700004A160000641500000C
:1027E000641500004A16000064150000641500001E
:1027F0006415000064150000A216000064150000B6
:102800000C17000064150000641500007817000024
:1028100064150000781700006415000064150000BE
:1028200064150000781700004A160000001A010025
:10283000000000002A1207077000280056A00000C0
:10284000000056A000000000001A01010004010071
:102850000000000000001F00000000000000000059
:1028600000001F0000200E01010101000000000017
:1028700000000000FFFFFFFFFFFFFFFF0000000060
:10288000002E0101011400A0000000000120000141
:102890001400A100000000010000011400A20000CB
:1028A0000000012F3D0114000100000000000200A3
:1028B000555342442043442D524F4D2044656D6F83
:1028C0000D0A53746F72616765204D656469756D9B
:1028D0003A2053504920464C415348200D000000F7
:1028E0000A060002FFFFFF4001000000160330004F
:1028F0003100320033003400350036003700380034
:10290000390000000C034300480035003800350052
:102910000E037700630068002E0063006E00000065
:1029200009022000010100C032090400000208066B
:102930005000070582024000000705030240000026
:1029400009022000010100C032090400000208064B
:102950005000070582020002000705030200020082
:102960001201000200000040861A11FE010001025F
:10297000000100001C1F0000341F0000581F000051
:10298000621F0000781F00009A1F0000B21F0000A5
:10299000D61F0000E01F0000F61F0000286E756CB7
:1029A0006C2900004C250000AC2500009C2600008E
:1029B0009C2600009C260000BA230000BA230000D9
:1029C000BA230000BA230000BA230000BA23000093
:1029D000BA2300004C26000026260000BA2300007F
:1029E000BA23000094250000BA230000FA25000055
:0C29F000BA230000BA230000E625000016
:1029FC000012010100140100000200000014AA00E2
:102A0C000000003F000A0101001401000000003F1B
:102A1C00000000840000000A0000030C0008000005
:102A2C0000090000000A010000010304000000027C
:102A3C000002030400000000000303042C0000004B
:102A4C00001001080000080000010100001D030037
:102A5C00001E050403000000002101080000000115
:102A6C00070000000023010000260000002D0104D7
:102A7C0017000000002E01042F00200001000300AD
:102A8C0001030004070000FF0108030C4141303131
:102A9C002030303831393720000E0000000000089B
:102AAC000000003F000002000B0000080000003F87
:102ABC0000000200000000080000004002000200BC
:102ACC00058002021F000000466C61736820202004
:102ADC00555342205370656369616C204469736B74
:102AEC00322E4430000000000000000000AAAAAA08
:102AFC00AAAAAAAAAAEEEEEEEEEEEEEEEEFEFFFF0C
:102B0C00FFFFFFFFFFFFFFFFFF7FBFDFEFF7FBFDC7
:102B1C00FC7EBFDFEFF7FBFD7E0000000907000025
:102B2C000000000000000000000000000000000099
:102B3C000000000000000000000000000907000079
:102B4C000000000000000000000000000000000079
:102B5C000000000000000000000000000002000067
:102B6C000006841000000000000204100000003F6A
:082B7C0000000200040309043B
:00000001FF
