:040000006F00101568
:100004000000000000000000A0000020B804002050
:10001400A9BDF9F3A00000200000000000000000CA
:10002400A0000020A000002000000000000000004C
:10003400A000002000000000A0000020000000003C
:10004400A0000020A0000020A0000020A0000020AC
:10005400A0000020A0000020A0000020000000005C
:10006400A0000020A0000020A0000020A00000208C
:10007400A0000020A0000020A0000020A00000207C
:10008400A0000020A0000020A0000020A00000206C
:10009400A0000020A0000020A0000020A00000205C
:1000A40001A0B7170040984B41111367070198CB83
:1000B400982B1377E70F98AB1307800873370780E3
:1000C400137787083AC60F100000130770052380C2
:1000D400E704130780FA2380E7040F100000B847F1
:1000E400B70600069506558FB8C703C7B70413773C
:1000F400F70DA385E704B82713672701B8A71307EB
:1001040050149AA7372700408346578093F6F60E7B
:10011400A302D7808946A303D78003C7E7041377D4
:10012400C70F136717002387E70403C7F702136792
:100134002700A387E702982B1367170098AB238047
:100144000704B247F3A707800F1000004101828023
:10015400EFF03FF513058020970500009385C50A4D
:10016400170600001306C67E63FAC5008322050045
:1001740023A0550011059105E3EAC5FE174500E0EB
:100184001305854C970500009385857C17060000B0
:100194001306467C63FAC5008322050023A055009C
:1001A40011059105E3EAC5FE170500001305857ADC
:1001B40097250000938545E76377B5002320050064
:1001C4001105E36DB5FE93025002739002BC8D429B
:1001D400739042808542739012BC896293828288B4
:1001E40073900230970200009382C2E193E23200DE
:1001F40073905230971200E0938242E1739012346C
:040204007300203033
:10020800411122C683A7818191C783A781818297E3
:1002180023AC01803244410173002030B7170040FD
:10022800984B41111367070198CB982B1377E70F69
:1002380098AB1307800873370780137787083AC687
:100248000F100000130770052380E704130780FAD6
:100258002380E7040F1000001307000C6315E50264
:100268009A271367070C9AA7B7170040982B1367AC
:10027800170098AB23800704B247F3A707800F1035
:10028800000041018280B82793760520ADCA118B02
:1002980029E303C7E70403C6E7041377F70F1366D8
:1002A80036002387C704B02713664600B0A79227F5
:1002B8008E273346060893E5050C8EA7A54701004F
:1002C800FD1793F7F70FE5FFB717004092A72387AD
:1002D800E70493770510DDC3371700403C2793E701
:1002E80007013CA79377F50199EFB727004003C7AB
:1002F800578013670701A382E7801D470DA0136786
:100308002700B8A7F9B725476366F704B727004061
:1003180003C757801377F70EA382E7800547A383A7
:10032800E78033450508B71700401367050C9AA7FF
:100338008AA7B5CE03C7570483C65704418B858A5D
:10034800558F1DF3B82B418B05D3B8271377D70FDB
:10035800B8A719BF9377050199EBB727004003C7E2
:1003680057801377F70EA382E78009474DBFB72759
:10037800004003C757801377F70EB5BF9377850101
:1003880081EFB727004003C757801377F70EA38282
:10039800E7801307100561B7B727004003C75780E8
:1003A8001377F70EA382E780130770058DBFB82770
:1003B8001377B70F71BF37E700E01C4354437D56EE
:1003C800A183E206D58F9306071890C2D0C2B7065C
:1003D800002037060020938506001306462003A850
:1003E800850390DD23ACA1809165130507100CC12E
:1003F800130707200CC39386060003A7818175FFA6
:1004080037E700E011662320C7180F10000023AC5F
:100418000603939687002320D710E1832322F71041
:100428008280170300E0E702C35941118146014663
:1004380081451145ED2A93078008F3B7078093F7A4
:1004480087083EC60F100000B71700401307700555
:100458002380E704130780FA2380E7040F100000C5
:1004680003C76704136717002383E704238007047F
:10047800B247F3A707800F1000004101170300E0FF
:100488006700635637E700E01C435443A183E20644
:10049800D58F1CC1FD572320F7182322F718828017
:1004A80013178500B7E700E023A0E710618123A2B6
:1004B800A710828041118146014681451145852A50
:1004C80013078008F337078093F787083EC40F1097
:1004D8000000B7170040130670052380C704930671
:1004E80080FA2380D7040F100000FD55CEB7238073
:1004F8000704A245F3A505800F1000007337078095
:10050800137787083AC60F1000002380C70423809A
:10051800D7040F10000003C767041367170023836D
:10052800E70423800704B247F3A707800F100000F1
:1005380001A09307E0043305F50295473355F5020A
:1005480001007D1575FD8280170300E0E70263470F
:100558002A841305803E7D14E93F3344040875F866
:10056800170300E0670023482E96AA870F70B67815
:1005780082802303048015472303E48001002302BB
:10058800A480828083076480E3CE07FE230304806F
:10059800828083076480E3CE07FE0345448082801F
:1005A80083076480E3CE07FE2302A4808280411182
:1005B80026C44AC24EC006C61377F50BAD47AA89B2
:1005C8002E8995446306F70019456537653F8D44C4
:1005D8004E854537FD59FD1463983401B240A24455
:1005E8001249824941018280135509011375F50F9B
:1005F800453F2209CDB7011126CC06CEB704080025
:1006080051371545BD37713769372AC6A53F324579
:100618009377150089EB136515001375F50FF240F4
:10062800E24405618280FD14E9FC0145CDBF3971C2
:10063800B7F7070006DE26DC4ADA4ED852D656D47B
:100648005AD25ED062CE03AB47027D57B7E700E0CF
:1006580083AA070022C603AA470023A0E71823A2FB
:10066800E718B71B0040930770052380FB04930726
:1006780080FA2380FB0483C74B041147AA8993E7B8
:10068800070E2382FB04372400401305F00F2303D1
:10069800E4802E8C3289B684E93DED35938779FF65
:1006A80093F7F70F0947137BFB006362F712A14723
:1006B800370708006307FB00B70707003E9C37872A
:1006C80007007955637EEC02B3878401636AF702F9
:1006D800A9476398F90689E481446D3526850DA0FC
:1006E800E2850945E93505090345F9FFFD14050CBF
:1006F800453D81C49377FC0FFDF7F53D69FD7D55B8
:10070800B7170040130770052380E704130780FA22
:100718002380E70403C74704418B2382E704F25090
:10072800B7E700E023A0571123A24711E25432444F
:100738005259C259325AA25A125B825B724C2161D9
:100748008280A547639AF906A1478569631DFB0264
:100758009387F9FFB3869700B374FC00B69493C7E8
:10076800F7FFFD8C33FC8701416B856B9387F9FF9D
:10077800B3F7870199E363FF340193D94900C1476F
:10078800E3E637FF91BF9307F00FE9B78567C169C3
:10079800FD17C9B71305800D6388690113050002A9
:1007A8006384790113051008E2851135A93521D92B
:1007B8004E9CB3843441C1B7E2852D45CD3BCA94E4
:1007C800E30C99F00509F133A30FA9FED5BF938770
:1007D800F9FF93F7F70F636FF70AA1476319FB0651
:1007E800B70708003E9C83C75B043707070093F7E9
:1007F800070299E337870700B70708003E9779553E
:10080800E370ECF0B3079C00E36CF7EE8947639A5A
:10081800F9048980D549E38104ECE2850945413B27
:1008280011090327C9FF91472320E4800307648047
:10083800E34E07FE23033481FD17EDFBFD14110C75
:1008480081C49377FC0FE9FF7D3371F54DBD83C7F4
:100858005B043707070093F70702D5F337870700CC
:1008680079BF8547E384F9F2E2852D458933938979
:10087800F4FFE38304E6313B93F7390091EB8326D9
:1008880004800327090093074900E398E6E43E89BA
:10089800CE84F1BFB5476396F9001305900BD139A3
:1008A80025BDB1471305B00AE38BF9FE9947639458
:1008B800F904A1476315FB00B70708003E9CE285D1
:1008C8002D45F53181440D4BA149E1316396640111
:1008D800832704802320F9008504E39834FF8327C5
:1008E800048013172C01635507002312F900EDB398
:1008F8002322F900D5B39D476399F9028145130571
:10090800B0047531BD442320090023220900FD5994
:10091800493193F77400CA9703C70700FD14398D4E
:100928002380A700E39634FF45BB91476399F900FC
:10093800130560063D39B931130590098DB7E38D6C
:0809480009D8F15459BB00006D
:10095000971100209381018017F101201301816A12
:100960001305400097F5FF1F9385C5691706002002
:100970001306868963FAC5008322050023A055006B
:1009800011059105E3EAC5FE17F5FF1F1305857CE8
:100990000285397101436EC619A0397141536AC885
:1009A00066CA62CC5ECE19A0397101535AD056D2B4
:1009B00052D44ED64AD826DA22DC06DE3301614014
:1009C000828241114AC026C222C406C68282B24D2A
:1009D0004101024D924C224CB24B4101024B924AD2
:1009E000224AB2494101024992442244B2404101A3
:1009F00082802A8309CA83830500230073007D1641
:100A0000050385056DFA82802A8311C62300B30091
:100A10007D16050365FE8280B797004029CD1147FA
:100A20002380E720B7160040BA2E13670702BAAE3C
:100A300025472380E7103717002093868712130776
:100A4000C79698C2938647121387C18598C21387A9
:100A500007129306002014C3130710F82388E71227
:100A60009386471198421317872998C2130780036A
:100A70002380E710828003C70720B7160040137752
:100A8000B70F2380E720984E1377F7FD98CE1D47C8
:100A9000C5B73797004083476713AA8613F5170039
:100AA0000DC18547230BF71283574713858B81CFE1
:100AB00081CE89476387F6008347071093F70702C3
:100AC00081C70945828001458280B797004083D75E
:100AD000471313070020014593F70760638BE70076
:100AE000054581CB1307004009456384E7001305E2
:100AF000F00F8280EFF2FFECB7970040A381071060
:100B00000547636EA7009387C712984313671700C2
:100B100098C309ED2D4597000020E78060A3B797A3
:100B200000409387C7129843799B98C30945970063
:100B30000020E780E0A1B797004003C76713058B4B
:100B400001CB03D74713058B01C70547238BE7125A
:100B500059BD3797004083574713858B8DC783470F
:100B6000071093F7070295E3EFF2BFE52A84B13F40
:100B700008A03797004083470710014593E7070215
:100B80002300F7108DB55945828037970040834781
:100B90000710014593E707022300F7108280EFF268
:100BA0005FDF9374F500A547411132896397F4061E
:100BB00093F50518B335B000139A8500B79D004032
:100BC0003365AA008149938A4D10414C294BF15B52
:100BD000A54C094D1314052923A08A0023848D11E7
:100BE0009307803E03C78D10418B01EF05453EC63C
:100BF00097000020E7806094B247FD17B3C707084D
:100C0000F5F383A70A00C19B23A0FA0083C78D10C8
:100C1000C18B99EB1305E00FBDA88547014AE39FFF
:100C2000F4F893F5051479B703C56D1305890DC55F
:100C30008547238BFD121305800C97000020E78069
:100C4000C08F83D74D13858BC5CF83C70D1093F706
:100C5000070295C7554581A083C78D10C18BD1CFA1
:100C600083C79D1013F7F70FBD8B639694078D46CE
:100C70006395D70263010A021D8B631BF704850984
:100C80003D4593F9F90F97000020E780008BE3952D
:100C900069F51305000241011DBB2D466385C7029E
:100CA00039476381E70629476397E704630F09041F
:100CB000C167F91763E327017D193D4597000020BF
:100CC000E780A08711BFE3180AFC1D8BE309D7FA60
:100CD00013E50702C9B72D8BE30FA7FB39476383E1
:100CE000E702E38567FD35476387E400E36497F235
:100CF0000547E391E4F2C1D7E1BF23847D1141B7F9
:100D0000594551BF1305E00279B71305A00261B739
:100D1000EFF2BFC82A8AB284130540062E899700D5
:100D20000020E780808199C0239004003794004020
:100D3000930784112147BD6998C3138609A681458D
:100D40003545B13D631C0514130444101C40371B8A
:100D5000002093F7F7CF93E707101CC09307CB96BB
:100D6000E223130BCB96630C040E630A090E8387F0
:100D7000070063CB0706B79B0040938909A61305BC
:100D8000400697F0FF1FE780407B13878B11B35716
:100D90008A0ACA8A1CC303A78B11B3872A41138C02
:100DA0008B11B3C70708639AE71083A54B104E86D3
:100DB000054513894B10B3C50508D53365E183A7F5
:100DC0004B1093C7071023A2FB1083A78B11B30707
:100DD000F44033C4070891C403A78B119E20BA972F
:100DE0009EA035CC568961BFB79A0040938909A669
:100DF000138BC1857D1A1305400697F0FF1FE7800E
:100E0000C07383A54A104E862545938B4A10B3C5FF
:100E10000508713341E583A74A101387CA1193C7A8
:100E2000071023A2FA101443A28763F586001C431F
:100E3000B3C707081D8C3344040881C49A203E9729
:100E40009AA00147B3460708639BD7043E9993874E
:100E5000CA11984329EFB797004023AC0710130538
:100E6000400697F0FF1FE780406DB797004083A7CB
:100E70008711054591C325453D66130606A69305D2
:100E80000010313B01EDB7970040138787111843DD
:100E900011C79387C7119C4391C35D451DBEB3061F
:100EA00067019022B306E900050790A261BF9C4349
:100EB000B377FA00CDF321F079BF03C70A00DA97C0
:100EC000850A98A3C9BDEFF2DFAFA1471CA1370780
:100ED0000001B71700209387C7961307076898C3C8
:100EE00037071200D8C32A84082141111306E100F4
:100EF000AE84393D01E9FC3038871CA0C54763E367
:100F0000E7005D454101C5B4EFF21FAA3714002088
:100F1000B709000241111304C496328A9389096803
:100F2000B70A040036862A89AE842320340123229E
:100F3000540136C6F13B1DE532468D475D451A2208
:100F400063F2E702BC30B820A685A207D98FB3D7D9
:100F5000470B1EA223225401232034011E224A855E
:100F60007EA07D3341019DBCEFF2BFA5B7170020E5
:100F70009387C7961307005098C3AEA32E840146EB
:100F8000814523A207006933AA8401ED1374F40795
:100F9000B7970040A3818710154597F0FF1FE780A2
:100FA000205B268589B4B717002005679387C7960D
:100FB0001307079098C3AEA30146814523A20700FB
:100FC00081BBB71700209387C79623A2070013079A
:100FD0002010CEA30146814598C31DBBEFF27F9E32
:100FE000B7170040116723ACE70AC1450545EF007C
:100FF000B04285452165EF00503A8D451165EF00FF
:10100000D039EF00104FC5B2EFF2BF9B130550343B
:1010100097F0FF1FE7800021D137116513050524E4
:10102000EF30601B292EEF00E05FF5BFEFF27F99F4
:1010300041116C00054602C6EF0070343245410193
:101040005DB2B717002083A68795B707871A9387E5
:1010500007F02A876392F604B717002083A6479506
:10106000B757AA559387A75A1305F00F6398F6024E
:10107000E976BA9631658147637CD5001305E00FA8
:101080008280B306F7008822B386F500850788A220
:10109000E319F6FE014582801305F00F8280EFF21E
:1010A0005F922E868566AA85094597F0FF1FE78027
:1010B000805801450DBAEFF23F8FFD72811205672E
:1010C0001691FD7741073E971C08BA973EC623AE9E
:1010D000A7FE131746012A89AE8432849357C600AF
:1010E0000DE73247B7190020232CF7FE03A7899597
:1010F000B707871A938707F0630BF7001305F00F04
:101100008562169105616FF07F8D8507D9BFB7178E
:10111000002083A64795B757AA559387A75AE39F00
:10112000F6FCE977CA97B1661305E00FE3EAF6FC2F
:101130008566FD77C106BE961C08B697014B3EC674
:10114000BA8AB24783A787FF6364FB0001454DBF9E
:1011500083A78995E39457FB85660146CA850545B3
:1011600097F0FF1FE780204D85676371F404B24755
:101170000566334A040803A5C7FFBE85D935324545
:10118000A6852286EFF0FF86B24703A5C7FFBE857E
:101190003937B247B246056783A7C7FF33044441D6
:1011A000050BBA9723AEF6FEBA9461BFB247A68587
:1011B000056A03A5C7FFE535E9BFB717002003A7F8
:1011C0008795B707871A938707F0631AF704EFF23A
:1011D000AFFDB717002003A74795B757AA559387C8
:1011E000A75AAA847D556318F700E977A697316757
:1011F0006373F70201456FF06FFE110433858400BD
:10120000E37A24FF2535B38789009C43E307F5FE85
:1012100013051400CDB7AE8932890144C5B77D5599
:101220008280EFF26FF83759AA55B71400201309DE
:10123000A95AAA892E8AB28A23AA2495AD3D23AA47
:10124000049411C92A84116513058525EF20B0780F
:1012500022856FF0AFF85686D2854E8523AA249555
:10126000A93F23AA04942A8465D511651305452650
:10127000F1BFEFF26FF33759AA551544B7140020A8
:101280001309A95A916941469385C95A196523AA38
:101290002495153523AA049419ED41469385C95A1E
:1012A000196523AA2495113F23AA049409C57D1426
:1012B0001374F40F69F86FF06FF2EFF28FF0B75715
:1012C000AA559165371400209387A75A4146938504
:1012D000C55A1965232AF494CD35232A04946FF056
:1012E0008FF0EFF20FEE116513054527EF20B06E7A
:1012F0009D6782976FF02FEF11C9EFF28FECAA85EF
:10130000116513050528EF20D06A01A08280EFF255
:101310004FEB116513050529EF20F06B793F13752D
:10132000F50F19E511651305052BEF20D06A553F20
:1013300011651305852CEF20106A6FF0CFEAEFF2EC
:101340004FE8B707871A37170020938707F0232C39
:10135000F794753F11651305852FEF20D067116550
:1013600013050532EF2030670545EFF0EFEA7D46C3
:1013700081451385F1ACEFF02FE91306A0108145EC
:101380001385619AEFF04FE8116513054533EF209F
:101390009064EF00007523AA018023A8018023A692
:1013A00001806FF04FE485476315F5002E856FF0DF
:1013B0006FF4828085476316F500138521AD6FF0C9
:1013C0004FF91305B00F828085476317F5009385A9
:1013D00001AF138531ADC5BC1305B00F82808547C1
:1013E000631BF500938701AB03C537020D478D459D
:1013F000A380E70295BE1305B00F82808547631A6C
:10140000F50003C531ADAE861306F00F938541B0EC
:10141000E5BC1305B00F828085476315F50003C551
:1014200031AD51B61305B00F8280EFF28FD60111A6
:101430002AC4116513054535EF20F0590544116B99
:10144000916B9169916A116C138A41B0916C13058B
:10145000400697F0FF1FE780A00F21453315850058
:101460003345050897F0FF1FE780800E2245814530
:101470008144153F014D930D4006194922451D3FFA
:1014800019ED050D137DFD0F6364A90D054597F05A
:10149000FF1FE780E00B8544D5B705044DBF054528
:1014A00097F0FF1FE780C00A93871400B3C40708B2
:1014B000E396B4FD9947E312F4FED94555A8138588
:1014C0008B36EF20104F2245193FAA850DED13856D
:1014D0008A37EF205050154597F0FF1FE7804007EF
:1014E0001305CC37EF20F04C22459305E101393745
:1014F000AA851DC11385C935EF20B04BE31F24F920
:1015000093057004B5A01385C935EF20904AE31602
:1015100024F993056004A9A883455A001385CC38A3
:101520002EC6EF201049B2452245FD35AA8501E9B6
:101530002AC413858A37EF20104AA24515A81385BF
:10154000C935EF201047E31A24F59305B00F0DA01D
:1015500013058B39EF20F0452245BD35AA8525D1ED
:101560001385C935EF20F044E31924F393055004A3
:101570002E8505616FF0AFC5EFF2AFC4138401ABE8
:10158000683C4111EFF0EFD08547AA84631AF50457
:1015900011651305853AEF201044683CEFF06FCFDA
:1015A000054564BC2302940249352A8619ED2AC6F2
:1015B000116585451305453BEF20B03F32468D4709
:1015C0007CBC328541016FF00FC211658545130562
:1015D000053EEF20103E89477CBC1306200FD5B78F
:1015E0001306F00F79FD1165854513050541EF20C0
:1015F000503C034444027D4681451385F1ACEFF035
:10160000AFC09307A0103304F40237150020130570
:10161000C59E1306A01081452295EFF0EFBE13067C
:10162000100F45B7EFF2EFB6813FB724002031E14C
:1016300091472388F4FC2944116A916911691305C3
:10164000CA42EF205039EF102034AA856316050EE8
:10165000116513050544EF20D03583C504FD1165E0
:1016600013058545EF20F034B71700200547238880
:10167000E79403C704FD914763FEE70AB71700200C
:1016800003C7079545CB3704871A91653729002092
:101690009385054AB7140020130404F0130549F597
:1016A0002388079423AC8494EF207037EF10B04167
:1016B0009307300B372B00206306F50093072004B7
:1016C0006314F50A11651305054BEF20D0309164C2
:1016D00011659385444D1305854DEF20902D0144F0
:1016E000FD59130A2004930A30049385444D1305D1
:1016F00049F5EF20D032130549F5EF205033930719
:1017000049F5AA972380370123208BFEEF10B03BC9
:1017100063024503631855051165A285130649F553
:101720001305C54EEF20F0288967050493870771DC
:10173000E31DF4FA6FF0AFA913850947EF20702776
:1017400083C504FD130589487D14EF2090261305F9
:10175000200397F0FF1FE780A0DF33440408E31065
:1017600004EE01BF513EF9B7116513058550EF2016
:101770009026832A0BFE116513058552D685EF202E
:10178000502323AC849423AA018023A80180B71B93
:10179000002023A60180130DF003138C41B0930D9C
:1017A00049F5938B4BD5638F0A02930949F523A220
:1017B0008901B3DCAA0B23909901EF20C0212D3EB3
:1017C00083D7090085668149B38AFA401D6883D7AB
:1017D0000D0063E3F908E3F897FD1165130545541F
:1017E000EF20701FEF20800F03A5418103A6018128
:1017F0009D67B7150020938545D53E95EFF07FA2F4
:101800001375F50FD53C03A7018183A7C1808325FC
:101810000BFE1165BA9723A6F18003A6C1801305BC
:101820004555EF20101983A7C18003270BFE6316CF
:10183000F708EFF01FA4B347050899C71165BE85E7
:101840001305C556EF20F016116513054558EF2016
:101850009018EFF01FA9F9BD03A74D0083A70181E0
:101860004E971823DE9798A383A70181850723A8A5
:10187000F18083A70181639ED70203A5418103A65E
:101880000181DE854295EFF0DF991375F50FEFF0DA
:10189000BFA683A7418185661D68B69723AAF180FC
:1018A00003A7018183A7C180BA9723A6F18023A84B
:1018B00001808509B3C9090819BF116513050559C8
:1018C000EF20701185BD9357450012055D8D13758E
:1018D000F50F6FF0CFACEFF2CF8E9C214111AA85AE
:1018E0007C8703C531AD1306E100EFF06FC2410103
:1018F0006FF06F8FEFF2EF8C03C531AD4111B7156B
:1019000000209306E100130600109385C596EFF0C2
:10191000AFDF41016FF02F8DAA8503C531AD6FF0A8
:101920008FE8AA8503C531AD6FF0AFE9EFF2EF861E
:10193000371400200D6A2A89AE8981441304C496A5
:10194000372B0020930B00F8372C0020130AAA80B5
:10195000B72C0020372D00208D4A83475B014E8530
:1019600023067401B317F9001CC483470C00231726
:101970004401230804005CB483A7CCFCA30A040040
:10198000230B040013D7870118B813D7070138A811
:1019900013D787005CA838B8A30B2401230C0400DC
:1019A000BD2D83478DFD13F5F70F89CF2685EF00F9
:1019B000D03A230CADFC83478DFD99C703458DFDBF
:1019C0001375F50F6FF0EF80850493F4F40FE39631
:1019D00054F9FD47230CFDFC7D45EDB7EFE2FFFB1D
:1019E000371400200D6B2A8AAE8A81441304C496F2
:1019F000372C0020B72C0020130BABA0372D002074
:101A0000B72900208D4B83475C01568523060400CF
:101A1000B317FA001CC483C70C0023176401230802
:101A200004005CB48327CDFCA30A0400230B04004C
:101A300013D7870118B813D7070138A813D7870021
:101A40005CA838B8A30B4401230C0400C92B83C73E
:101A500089FD13F9F70F91EB1305800C97F0FF1F29
:101A6000E780A0AD4A856FE0DFF62685EF00F02E17
:101A7000238CA9FC83C789FD91C703C989FD13790C
:101A8000F90FCDB7850493F4F40FE39E74F7FD4787
:101A9000238CF9FC7D49F9B737970040834737100D
:101AA00093F7F707A301F7108357471383463710BF
:101AB0000D4793F7F70F639EE60013F7170011CB5E
:101AC000918B91C7B727002009472388E7FC014580
:101AD0008280B727002005472388E7FC594582808C
:101AE0008280EFE21FEE192BAA85BD471305F00F88
:101AF00063F5B70811651305C55BEF20806BB72749
:101B00000020938747D537270020232CF7FA372763
:101B100000202320F7FAB72700202547238807FC59
:101B2000B7270020A38AE70093070020372700206B
:101B30002312F7FE37270020232A07FE372700202D
:101B4000231DF7FEB79700409386871237270020A2
:101B5000232AD7FA9386471237270020232ED7004F
:101B60009386871137270020232AD7F89387C71138
:101B7000372700202320F7FC01456FE0DFE60D0644
:101B8000719A81473307F5006393C700828014433D
:101B90003387F500910714C3F5B7914763EAB7049B
:101BA00091679387075DB3C5F5209841B71700404B
:101BB0009387470B0287944337170040B3F6A6403C
:101BC00094C39306070B9C42B3F7A74019A894430C
:101BD00037170040B3F6A64094C39306070B9C4208
:101BE000C98F9CC29307070A98433377A74098C3CD
:101BF0008280944337170040C98ED9B79843337712
:101C0000A74098C3B71700409387070A9843498FA6
:101C1000F9BF9843498FF5B719C5371700401E2FF4
:101C2000CD8F1EAF8280B71700409A2FB375B74093
:101C30008EAF8280B71700409A279306000C137767
:101C4000070C630AD7049A27137707100DC79A2742
:101C50009E277D8B09EB93F70720B1C33755E80129
:101C600013050580828037C59812FD8B130505E0AA
:101C70003345F50282809A279E2713770720FD8B34
:101C800011C73755E80113050580DDB73725F40086
:101C900013050540F1BF2165130505D08280372566
:101CA000F4001305054082803285814737370040B4
:101CB000A14663C3A70082803037E30FD6FE338688
:101CC000F5001022850710A7EDB7EFE29FCF2A8419
:101CD00095372947B307E5028D83B3D78702950768
:101CE000B3D7E70237370040B3C707085EA76FE0F6
:101CF0009FCFEFE21FCD716513050520F937B73788
:101D00000040130770F8B8A30D47B8B313070004D9
:101D100098B30547F8A76FE01FCD4111094506C6E6
:101D200022C426C23724002097F0FF1FE78040829C
:101D3000834784FDB7240020A381F402B13BAA8726
:101D400041E5B727002003C707FD8D4693073008FC
:101D500063FCE606B72700203717002083C607027A
:101D6000130610022306C7967D569307C796A3064F
:101D7000C79623810700A38107002382D700A3828F
:101D8000070023830700A38307008145EFF0BFB45A
:101D9000230CA4FC5947AA876308E502B727002053
:101DA00003C547FC3D89EFF0DFB7B727002003C527
:101DB00047013D8913650508EFF0BFB683C73402BC
:101DC000A3810402230CF4FCB240224492443E85D9
:101DD000410182804111B7270020054706C62388AC
:101DE000E7FC5D3919E113053008B24041018280FA
:101DF000411122C4B72700203724002083A7C7FC45
:101E00000327840006C60145638AE70237270020BE
:101E1000832507FA37270020032787FB2324F400B4
:101E2000630EB7020545EFF07FB0B7270020238C83
:101E3000A7FC09E903C587FD1375F50FB2402244DD
:101E4000410182807D57B726002023ACE600232481
:101E5000E40037270020230207FAE9BF37270020D4
:101E60000545232CF700EFF07FACB7270020238C2B
:101E7000A7FC69D1C1BF411122C4B7270020372474
:101E8000002083A7C7FC0327840106C60145638A97
:101E9000E70237270020832587FB37270020032709
:101EA00007FA232CF400630EB7020545EFF01FA8D4
:101EB000B7270020238CA7FC09E903C587FD13750C
:101EC000F50FB2402244410182807D57B7260020A1
:101ED000232CE40023A4E60037270020230207FA7E
:101EE000E9BF3727002005452324F700EFF01FA4A2
:101EF000B7270020238CA7FC69D1C1BF372700205A
:101F0000B727002083A7C7FC832507FA37270020BF
:101F10004111032787FB22C43724002006C623244F
:101F2000F400630BB7020545EFF05FABB727002065
:101F3000238CA7FC01CD7D57B726002023ACE600FB
:101F40002324E40037270020230207FAB24022446A
:101F500003C587FD4101828037270020232CF7002D
:101F6000D9B737270020B727002083A7C7FC8325D0
:101F700087FB372700204111032707FA22C43724A3
:101F8000002006C6232CF400630BB7020545EFF0D2
:101F9000FFA4B7270020238CA7FC01CD7D57B726CF
:101FA0000020232CE40023A4E6003727002023028E
:101FB00007FAB240224403C587FD410182803727DA
:101FC00000202324F700D9B737270020B7270020A7
:101FD0000346C7F983A7C7FE37270020B72600208E
:101FE0000347170283A6C600F917B397C7003697B1
:101FF000BA97372700202326F7FC8280414582804C
:1020000037270020834707FD93F7F70F63E6A70004
:102010002308B7FC01458280E38EB7FE65BB79716A
:1020200026D213075005B714002056CA2386E4961B
:10203000B72A002013073005A386E49683A74AF940
:10204000130720042387E4961307300422D44AD0D0
:102050004ECE52CCA387E49606D67D475AC85EC6BC
:1020600062C42390E70037290020372A00202A8401
:102070008345390203454AFC37060200B729002090
:10208000EFF07F84238CA9FC59476309E516938BF5
:10209000C49615CD9387C4969384C18398439107C2
:1020A000D8CFE39D97FE9539DE879853910723AEED
:1020B000E7FEE39C97FE8345390203454AFC370659
:1020C0000200EFF05F80238CA9FC6319051883C41C
:1020D0009B0003C68B0083C7AB000347390283C64E
:1020E000BB00A204D18CC207C58F13470704939489
:1020F0008601A301E902DD8C638E04108386CB0088
:10210000372C00208357ACFF372B002063DA0608FA
:10211000138BC185B72A0020372A0020B72B002057
:1021200091A000C38345390203454A0137060200E6
:10213000EFF06FF9238CA9FC6315051603473902EC
:1021400083A60BFC8357ACFF13470708A301E902E2
:1021500083D6060063EAF4189D8C6395D7163E94E7
:102160006382041603A7CA01E3FDF4FA2320670182
:1021700055BF23A088002390F6008357ACFF9D8CA9
:102180003E94EFF04FF4238CA9FC2DE10347390274
:1021900013470704A301E902638B040E8357ACFFC6
:1021A00003484AFCBA853706020083284BFB83A606
:1021B0004AF94285E3FFF4FA23A0780123909600C0
:1021C000814703460400B38677018507C207238051
:1021D000C600C1830504E39697FE37060200BA8560
:1021E0004285EFF04FEE238CA9FC75C103274BFB12
:1021F0009307E002232077016304F508B2502254CC
:1022000092540259F249624AD24A424BB24B224C92
:1022100045618280372A002003454A0137060200C3
:10222000BA85EFF04FEA238CA9FC69F9834739029C
:1022300037270020032707FC93C707F8A301F902FB
:10224000FD47238CF9FC03570700B5476315F702D8
:1022500003C5818621C5854763FFA7002254B2507C
:1022600092540259F249624AD24A424BB24B224C32
:1022700045616FF09FAA03C589FD1375F50FBDBFBA
:1022800003454AFC3D89EFF0CFE903473902832734
:102290004BFB372A002023A07701BDBF238C09FC0C
:1022A000B1BF83A6CA011307E00223A06601E317AA
:1022B000E5F403454A013D8913650508EFF06FE633
:1022C0000347390283A7CA0123A06701B1B70347B7
:1022D000390283274BFB372A002013470704A30149
:1022E000E90223A077010DBF63E5D402E1DE938705
:1022F000F6FFC207C1838507A2975A878346070066
:1023000005040507A30FD4FEE39A87FE03473902AD
:1023100055BF93960401C182D9BF4111294506C614
:1023200097E0FF1FE780C022B727002003C7070000
:10233000B71700209387C796A386E700C9461947B9
:102340002384D7002387E700930600F80D47A3876F
:10235000E700A3840700494723850700A3850700FA
:102360002386D7001385C183A389E700238807004C
:10237000A388070023890700238A0700A38A070090
:10238000238B0700A38B0700238C070049391545D1
:1023900097E0FF1FE780C01B37270020834787FD9A
:1023A000014593F7F70F81CF034587FDD947137593
:1023B000F50F6309F500D5476300F5020145B2400A
:1023C00041018280B727002005472388E7FCB72713
:1023D000002023AA07FEE5B7B72700200947238876
:1023E000E7FCF1BF3971A5473727002022DCA30A9B
:1023F000F70037240020BD472308F4FAB717002060
:1024000026DA4AD84ED652D456D25AD05ECE62CCB4
:1024100066CA6AC86EC606DE938DC796372C002042
:1024200037290020930404FB214B930A00F8130A78
:102430005002A949854C4D4D81A063FBDC0A63091C
:10244000A70BA380E400D13D034504FB03C71400A0
:1024500072057D85137585F71305850C230CE9FC42
:1024600097E0FF1FE780C00E034704FB7D1713773B
:10247000F70F2308E4FA2DCF03470C001385C1831F
:1024800023846D01A386ED00A3840D0023850D0038
:10249000A3850D0023865D01A3874D0123880D00D0
:1024A000A3880D0023890D00238A0D00A38A0D0047
:1024B000238B0D00A38B0D00238C0D0023873D0182
:1024C000A3890D00EFF0BFB5034789FD1377F70F20
:1024D0009306B7FE93F6F60F2DF383C76D021147EF
:1024E0006386E7042147638AE70441476380E70680
:1024F000B727002003C757018547B397E700C207F6
:10250000C183F2506254372700202312F7FE03C51F
:1025100014004259D254B259225A925A025BF24BD9
:10252000624CD24C424DB24D21618280B7270020CF
:10253000A38A370193070040E9B7AD47372700204A
:10254000A30AF70085679387078065BFB1473727E0
:102550000020A30AF70085676DB7411126C2AA843F
:10256000054506C622C497E0FF1FE78060FE854749
:1025700063F7970637270020834707FDC94693F77F
:10258000F70F6388D700C14663F8F6002308D7FC2D
:1025900021A095472308F7FC37240020834784FDBA
:1025A00093F7F70FAD1793F7F70F05476374F7002D
:1025B000AD3305C1094597E0FF1FE78060F903458A
:1025C00084FDD9471375F50F630EF502D5476309EE
:1025D000F504B240224492440145410182803724EF
:1025E0000020834784FD93F7F70FCDFC094597E062
:1025F000FF1FE780E0F5034584FDD9471375F50F0C
:10260000E316F5FCB7270020B24022440547238893
:10261000E7FCB727002023AA07FE924441018280ED
:10262000B2402244B727002009472388E7FC9244A0
:102630004101828039716EC606DE22DC26DA4AD874
:102640004ED652D456D25AD05ECE62CC66CA6AC832
:10265000EFF08FC4AA8D65EDB724002083C704FD79
:102660000D476376F71091472388F4FC3724002048
:10267000EFF04FA8230CA4FCAA8D71E9371A0020B3
:10268000930CCA9683C6EC0021476399E60E03C6F5
:10269000FC0037270020230407FE99466315D60067
:1026A00085462304D7FE03C77C0183C5BC0003C64F
:1026B0006C013725002083C6EC0103C8DC010353FD
:1026C000A5FFB72A0020372900202207A206B72835
:1026D0000020372500202380BA02518F230809FAF1
:1026E000B3E6060103C64C0183C5BC0103C848FC20
:1026F000034E450163106708620661861373F60096
:10270000634606081368030101460543639EE620FD
:102710001397850161879376F700130B09FB6346D6
:10272000070809472308E9FAA300BB0013E80601DC
:10273000631F061A238208FD61A0834684FD1306E9
:10274000E002630FD622034784FD937DF70FF2501A
:1027500062546E85D2544259B259225A925A025B3F
:10276000F24B624CD24C424DB24D21618280930DAE
:102770003008F1BF130909FBA300C900FD47230C72
:10278000F4FC034784FD937DF70FD1B7136E030963
:1027900005460143E38EE6F6930709FB2308C9FAD1
:1027A000A380B700230AC501D1BF93E606F9094704
:1027B0002308E9FAA300BB00230AD500E31C03F6B3
:1027C00003C55C00EFF04F95230CA4FCAA8D41F1EA
:1027D000B729002083C60A02130610FA03A589FB55
:1027E0002306CA96B72500207956A306CA96854ABD
:1027F000938515FB230809FA23810C00A3810C00A3
:102800002382DC00A3820C0023835C01A3830C00E1
:10281000EFF06F8C230CA4FC0DF183461B00639832
:10282000560183A689FB83C606002308D9FA1545FD
:1028300097E0FF1FE780C0D1FD5637260020232CEC
:10284000D600372600202324D60003A589FBB7260F
:102850000020372D0020238206FAB7260020A3810E
:10286000060223000D000146130C4002930B00F8F2
:10287000194BC94A130A4002A386CC0023848C0159
:10288000A3840C0023850C00A3850C0023867C0107
:1028900023876C01A3875C0123880C00A3880C00AC
:1028A00023890C00A3894C01238A0C00A38A0C0005
:1028B000238B0C00A38B0C00238C0C00EFF02FF665
:1028C000834684FD054693F6F60F8DE6834609FBA5
:1028D000B9C283460D00A1E203A589FB9547834653
:1028E0000500639AF60285472300FD0071B7230AAD
:1028F000C50189B5834609FBA9C283460D008947F6
:10290000138616001376F60F63E9D7022300CD0075
:1029100003A589FB95B783C704FD8D4663F2F604D2
:1029200095472388F4FC25B5930709FB230869FA2A
:10293000A380B700238208FD91B5625423000D00E7
:10294000F250D2544259B259225A925A025BF24B77
:10295000624CD24C424DB24D054521616FF0FFBF34
:102960006254F250D2544259B259225A925A025BDE
:10297000F24B624CD24C424DB24D21616FF08FC58B
:102980000145EFE01FFA65B5411126C2B7240020CA
:1029900022C406C623AA04F4EFF00F902A8451E95A
:1029A000B727002083C707FD1147637AF708B717D9
:1029B00000209387C796372700200347070023840A
:1029C0000700A386E7001947A384070023850700B3
:1029D000A3850700238607002387E7001385C183AB
:1029E000A387070023880700A3880700238907001F
:1029F000A3890700238A0700A38A0700238B070007
:102A0000A38B0700238C0700B7240020EFF02FE1F1
:102A100083C784FD93F7F70F89CF83C784FD3724DD
:102A200000202308F4FAEFF05F8F034404FB238CAB
:102A300084FC2285B2402244924441018280EFF01E
:102A40007FBF01CD1305000497E0FF1FE78040B072
:102A5000EFF05FBE19C12A84E9BFEFF0BF9815E51A
:102A6000B71700209387C79603C6170283C50702CE
:102A700083C6270203C7370222064D8EC206D18EB7
:102A80006207558F23AAE4F43DB7B727002003C49B
:102A900087FD1374F40F71BFB727002083C707FDAC
:102AA000397106DE22DC26DA4AD84ED652D456D206
:102AB0005AD05ECE62CC66CA6AC86EC61147637EC3
:102AC000F73EB727002003A747FFB7260020FD5792
:102AD00023ACF600B726002023A4F600B727002079
:102AE000238207FAB7573412937607FF9387076755
:102AF00037290020638AF63C930449FDB72900205A
:102B0000372B0020B72A0020A3800400238C09FE65
:102B1000A3000B0223A00AFEB72C002037240020BC
:102B20002D6A372C0020130A5AA5130D04FB23A687
:102B30000CFC930B900E930D0004EFF0CFB36314D5
:102B4000051283C6140003268CFB99E68347060012
:102B500093F7D70F638B77178357E61F639C47352F
:102B600083CE89FF230AD9FD6383BE359387EE1B8D
:102B7000B29783C5A70003C7B70003C8870003C582
:102B80009700A301ED00230804FBA300AD0023017F
:102B9000BD00832504FB83C74700154723A6BCFC63
:102BA0002308F4FA6389E72E3D476386E72E76878C
:102BB000014F01433545054E1548BD489DA083474B
:102BC00004FBFD1793F7F70F930F07019382F6FFAE
:102BD0006367F500637EDE0E93F6F20F054F13F781
:102BE000FF0F9307E71BB2976306B70B03C3A7005A
:102BF00083C5B70083CF970023016D00A301BD00FB
:102C0000A300FD0183C5870083C747000543230850
:102C1000B4FA832504FB2308F4FA638F0701638D5C
:102C20001701939F870193DF8F4193F7F703E3D851
:102C30000FF82308F4FA71B723A6BCFC63040F0055
:102C4000A380D400230AE9FC83A70AFE83461B0263
:102C5000BE9523A6BCFCE39206EE4107A300EB025F
:102C600023A0BAFEF9B5EFF04F8BEFF0AFF7EFF01E
:102C70008FA0E30805ECF2506254D2544259B25985
:102C8000225A925A025BF24B624CD24C424DB24DE8
:102C9000216182806304030023A6BCFC63040F004F
:102CA000A380D40083471B0213070004230AE9FC16
:102CB000638F071E639D0E1E03C71400238CF9FE4D
:102CC00023A00AFEBD47E314F7E683A5CCFC15A0BC
:102CD0006300032423A6BCFC63040F00A380D4007C
:102CE000230AE9FCB727002083A78701BE9523A606
:102CF000BCFCB727002023AAB7FEEFF0CF9725FD35
:102D0000B727002083A587FB1307900E83C7050014
:102D100093F7D70F6398E71E83C7D50013978701F2
:102D2000238CF9FE61876348071C194786073728FB
:102D30000020230EE8F893F7F70F01451947939603
:102D40008701E1861306F7FF860763C10614137730
:102D5000F60F93F7F70F05457DF38547230E08F827
:102D6000238CF9FE03D5650137280020232EA8FC0B
:102D700001E5C851232EA8FC83C7450103C63501D0
:102D8000B7260020A207D18F23AEF6FA81E79C5127
:102D900023AEF6FA03C62501B726002083C8150125
:102DA00083D646FE372300200343530122063366B1
:102DB0001601958283D8E500B296FD161306B3FF7F
:102DC000B3D6C6403386160103CF05013723002052
:102DD000372E00202A96B72E00202324D3FA23244E
:102DE0001EFD23A8CEFA89466309DF0A232E08FCBC
:102DF00083A6CCFC918F33D7E7003696B727002007
:102E000023A6C700B727002023A2E700C167D11778
:102E100063EFE704B7270020239F07FE8567D117DC
:102E200063E1E708B72700200547A382E7FA638339
:102E30000802832783FA99CF85476305FF0083271C
:102E4000C8FD89CB03C5B50011E503C7C50085479B
:102E500063E5E70C83C71400CDEB8547A380F4003E
:102E6000238C09FEA3000B0223A00AFE45B9DC5502
:102E700003D60503372700202324F3FA231FC7FEB8
:102E8000B72700200D47A382E7FA55B7E30C05ECFE
:102E9000230EE8F8C1BD768745BB2A9623A8CEFA53
:102EA00081BFB72700200947A382E7FA49B7130576
:102EB0002009D1B3130510097DBBEFF0AFF7E31C78
:102EC00005DAEFF02FD2F5BE3D8B930449FDB7290B
:102ED0000020372B0020B72A0020A380E400238C99
:102EE00009FEA3000B0223A00AFEBD47B72C002059
:102EF000E316F7C2D9BB1D47B7270020238EE7F89A
:102F00001D478DB51305100ABDB31305300AA5B3CF
:102F1000E30A0FDCA380D400F1B3372600208347F7
:102F200006FDB69823241EFD11476376F700C147BE
:102F30002308F6FC89B36254F250D2544259B25974
:102F4000225A925A025BF24B624CD24C424DB24D25
:102F500021616FE03FE801114AC83729002083272B
:102F6000890026CAB724002022CC06CE4EC623A64E
:102F7000F4FCEFE0BFF82A8411E9B729002083A709
:102F8000C9FD89EFB7270020238207FA2285F24086
:102F90006244D2444249B2490561828003A7C4FC1D
:102FA000B726002083A506FABA97054523A6F4FCA8
:102FB000EFE0DFA2B726002003A7C4FC238CA6FC09
:102FC00003A6C9FD83C786FD118F23A6E4FC93F7F2
:102FD000F70FCDDB03C486FDFD5737270020232CD8
:102FE000F7002324F900B7270020238207FA13747F
:102FF000F40F69BF797152CC372A002003485AFA7E
:1030000022D426D24AD0B724002006D64ECE56CAA5
:103010005AC85EC689472A89014403A784F9630A0E
:10302000F8148D476305F8149357170013741700AD
:103030003E97372B002083564BFEB7270020B72A38
:10304000002083C757013726002083A50AFA0326EC
:1030500086FCFD16B72B0020F98EB357F70003A7A7
:103060008B00AE96B7290020B29723AAD9FC23ACD7
:10307000F4F86386E70237270020034747FA09C7B9
:10308000D93D79E983A784F9372700202326F7FC67
:10309000EFE01FD671E103485AFA83A649FD6303A6
:1030A000090291476308F9188547630DF910B7279E
:1030B000002083A7C7FE23ACF4F8B72700200547FC
:1030C0002382E7FA372A0020230E0AFE8947630489
:1030D000F80A0D4783A784F96309E80E03C50600C3
:1030E00013F8F70F83554BFE1377F500931848003C
:1030F00003A60AFA372B00203367170193040BFB52
:1031000091831377F70FFD15A380F4002381A400AA
:103110002308EBFAB307B6006382F61283C71600E2
:10312000A381F400631609086301041083D7240007
:10313000918305672391F40059176364F70C0347E3
:10314000CAFF2328FBFA3369E90063110906372710
:1031500000202326F7FE0145B25022549254025912
:10316000F249624AD24A424BB24B456182800A0719
:10317000C9B506077DBD03D70600B727002023A8E1
:10318000E7FAC167D91763FDE7008547230EFAFE0A
:10319000630E090083A784F901452390F6006DBFF3
:1031A000E31A09FEB727002023A6E7FE01456DB705
:1031B00025C02380E60083A749FD03C71400A38030
:1031C000E700ADB723AC04F8CDBD98423706001038
:1031D0001305F6FFB70500F0F98DE98FCD8F698FE4
:1031E000B725002023ACF4F823A8E5FA591663703C
:1031F000E6080547230EEAFEE30A09FA9CC20145E8
:10320000A1BF0547230EEAFE2328FBFA0145A9B713
:103210002380060183C7340003C7140083A649FD39
:10322000C19B1183D98FA380F60083D72400D207D6
:10323000D18301B7FD5723ACF4F841B5631C0902F3
:10324000B727002083C747FA95EB83A78B00372762
:10325000002085072326F7FCEFE09FB9E31E05EE6B
:1032600083A70AFA83C70700A381F40075BDE3179B
:1032700009F80DBF11E042872380E600EFF0BFCDD3
:10328000E31C05EC83A78B00372700208507232646
:10329000F7FCEFE0FFB5E31105EC83A60AFA03C7DC
:1032A0000600A381E400E30109E883C7140001E4F8
:1032B000419B9183D98F2380F6000547B7270020D3
:1032C0002382E7FA95B55D7156DAB72A002083C7E5
:1032D0000AFD86C6A2C4A6C2CAC04EDE52DC5AD8B7
:1032E0005ED662D466D26AD06ECE3D47637AF7323C
:1032F00083C70AFD3D47637BF714C1472388FAFC67
:10330000B727002083C647F537270020230107028F
:10331000638606361307C0056387E6361307F00297
:103320006383E636138747F5034617009307A00328
:103330006300F630B7270020372600203EC483A65E
:10334000C7FA8327C600372A002032C62328EA009E
:1033500037270020B724002037290020372B0020F2
:10336000130407FB638D061E372700208345C7F92A
:1033700037270020034687FF1387E6FF3317B70080
:10338000BA97A380C4022328F9FE63040626B7294E
:103390000020B72C0020372D002023A6F9FCEFE0F9
:1033A0009FAD4DE983D74CFE23130BFE63800722AC
:1033B00083258DFB372C0020232ABCFC83C7050006
:1033C000B9CB930D500E2D45930BC0056381B70308
:1033D00015476394E7009307500E03280A018346BC
:1033E00008006388F6081307A0026384E608835781
:1033F0006BFE03D74CFE93870702C207C1832313DA
:10340000FBFE63F5E71C83258DFBBE95232ABCFCE0
:1034100083C70500C5FF83260A0181471306A00262
:103420009305C0051305F00239A0630EC7006309B8
:10343000B7246307A7243387F600034707008507EF
:1034400093F7F70F7DF31305200429A0EFE09F9871
:10345000E30805EAB640264496440649F259625A02
:10346000D25A425BB25B225C925C025DF24D6161BA
:1034700082809D8E93B6160036872301D400338652
:10348000D500B307E80083C707000346060093088A
:10349000F0021303E002214E930E0002130F1700F7
:1034A000638EC702E9CF638C770D638A170D639330
:1034B000670E6304C701631AD6172301E401A1460E
:1034C000034724003386D50003460600B307E8000F
:1034D00083C70700130F1700E396C7FC050785068F
:1034E0001377F70F2301E40093F6F60FE39AA6FC97
:1034F000429783470700A301F40083C7B500A18B5F
:10350000E39707EEB7290020238E09FE83274CFDA1
:1035100037270020A24583D6A701034657FA0D4757
:1035200023A6D5FA6318E60003D747014207D98ED0
:1035300023A6D5FA03473400630B072C03C7C9FF42
:103540006317072C0347240083270A010507BA974E
:103550002328FA00B24783A7C700E39706E037277E
:103560000020032787FA9376F70F958F1377F70FCD
:10357000A380E4022328F9FEE31B07E069BD1307DB
:1035800000026312E6041D47E367D7F603C7850010
:10359000E303C7F6A301F4001307A002E399E7E4ED
:1035A00083C7B500A18BE39407E4B727002083A766
:1035B00007FE6389071A63C70716FD173727002020
:1035C0002320F7FE2DB5A301F40015B503C714029F
:1035D000832709FF7D1785071377F70F2328F9FE47
:1035E000A380E402E31B07DAA24783A6C7FAE384B9
:1035F00006E2B7270020014523ACD7F8EFF09F9FE4
:10360000E31A05E4B727002083C7C7FFE39507E067
:10361000B727002083A607FBA24723A6D7FA1DBF22
:10362000EFF08FC7E30605CC35B5A3016400C1B345
:1036300093072004E3F0D7D0B7270020138777F54E
:10364000372A00202328EA00938777F5B9A0D84FBE
:10365000B727002023A0E7FE91E67D57A380E40270
:1036600023A007FE83C70AFD3D47637CF71ED147B1
:103670002388FAFC83C7C9FF639D071C0145D9BB9A
:103680001305300BC1BBB7270020138757F5372A26
:1036900000202328EA00938757F537270020834628
:1036A00057FA0D476388E60803C70700B7260020CE
:1036B000B72700203EC436C623A607FA83A7C60054
:1036C0008146E31707C837270020832687FA372764
:1036D000002003465701A24513F7F60F998F3317C1
:1036E000C700094623A6C5FA37260020230CD6FEBC
:1036F000B24623A6F600B727002023A0E7FE89469E
:10370000B727002023A6D7FEB727002023AE07FA4D
:10371000B7270020A3800702C9472388FAFC1305B6
:1037200010040DBBEFE0CFBBB727002083A707FE37
:103730002D4561B537270020832687FA83C7070008
:10374000372700203AC42326D7FA99C7B727002085
:103750003EC683A7C700EDBEB72700207D5723A034
:10376000E7FE79BF37270020230807FA83270A01DD
:103770000147130500022148154E15539308E00236
:10378000AD4589A02300D600B727002083C707FBDB
:1037900083260A0189EF03C60600631AC601238047
:1037A0006600B727002083C707FB83260A01850729
:1037B00093F7F70F372600202308F6FAB697050788
:1037C000630FB70283264CFD3E86BA9683C6060079
:1037D000E387A6FEE31807FB23801701B72E00201E
:1037E00083C70EFB83264CFD03260A01850793F74A
:1037F000F70F2388FEFA83C686003E9661B72380C2
:103800000700B72900208547238EF9FE01B303C7BF
:10381000B700372600202326D6FE37260020232E89
:1038200006FAA3800402418BE30307E283C70AFD83
:1038300037270020FD562320D7FE3D47637EF70043
:10384000CD472388FAFC83C7C9FF13051004E3831F
:1038500007C013053004FDBEEFE0CFD7E31C05BE63
:10386000DDB7EFE02FD7E31705BE29B5B727002056
:1038700083C707FD37270020230107024D476364F4
:10388000F70001458280B727002003A707FF4111F9
:10389000B727002006C623A6E7FCEFE0CFDD1DE139
:1038A000B727002003D767FEB727002083A787FB31
:1038B000B72600200145BA9703C7B70023AAF6FC34
:1038C000418B01C7B2404101828037270020032786
:1038D00007FEB240D8CF41016FE0AFE8411122C4EA
:1038E00037240020834704FD06C6454793F7F70FAA
:1038F000637FF7084947638EE704834704FD4D471C
:1039000093F7F70F6363F702B727002023810702BD
:10391000834704FD3D476379F702C1472308F4FC60
:103920000145B24022444101828051476387E70646
:10393000B727002083C72702E1DF0D3F7DF18347D2
:1039400004FD3D47E36BF7FC2244B24041016FE0C8
:103950006FC8B727002003C757FA8D47E30FF7F862
:10396000B7270020B726002083C5C7F9B727002056
:1039700003A6C60083C787FA05473317B700B29777
:1039800037260020230CE6FE23A6F600BDB7B24082
:1039900022441305400B41018280B727002083C7D2
:1039A00047F5D9F795B7B727002003A7C7FAB72679
:1039B0000020D5459337170023A6E6FE37270020C1
:1039C000B307F040232E07FA514537270020A30004
:1039D000F7026FE0EFE2B727002003C707FD397158
:1039E00006DE22DC26DA4AD84ED652D456D25AD037
:1039F0005ECE62CC66CA6AC86EC6D546638CE600E7
:103A000083C707FD51471305400B631FF714613F40
:103A1000631C051437240020835744F53729002000
:103A200083461902930D44F52394FD00231A04F4F0
:103A30001307F00F6389E612416AB7290020372D7A
:103A40000020130BFAFFB7240020B72B0020B72A61
:103A50000020638A071003A709FE8327CDFB63F4C8
:103A6000E710EFE06FD683A709FE63E34701DA872B
:103A700003D78D00C207C18363F3E7003E8783D776
:103A800044FE0326CDFBBA86938CF7FFB3FCCC0033
:103A9000C20C93DC0C016369F70E63970C0E83561E
:103AA00044F583A54D00B69593F63500E9EEB726AB
:103AB000002003C5560183C78AFF03461902335706
:103AC000A7404207918F418393F7F70F6373F70085
:103AD000BA87939C070193DC0C0113FCFC0F6285F1
:103AE000EFD0DFE451E1B726002083C7560103D6AB
:103AF0008D0003481902B397FC0093960701032534
:103B0000CDFB835544F5C182B3FC6701B307D640B2
:103B100033070C01C20703C68AFF1377F70FAA9C6D
:103B2000C183AE96A300E902232E9DFB2394FD00E2
:103B3000231AD4F4E36FC7F0B727002083A7C7FE8A
:103B4000372700200145232CF7F8EFF0AFCA09ED25
:103B5000B727002083C7C7FFE9EB83D78D00A300F9
:103B60000902E39A07EE0145F2506254D2544259D9
:103B7000B259225A925A025BF24B624CD24C424DDD
:103B8000B24D21618280BE86B38C974193970C0120
:103B9000C18363F3F600B68CC20C93DC0C01EFE03A
:103BA0008FAD79F103D644FE8326CDFB03A78BFBB3
:103BB000835544F583A74D007D163375D6002A97AB
:103BC000AE9763870C021386FCFF4206418205060E
:103BD0003E9605078346F7FF8507A38FD7FEE31AB6
:103BE000F6FE03D644FE8326CDFB835544F57D16B1
:103BF00083D78D00E696E695B3879741C207C183C8
:103C0000232EDDFA2394FD00231AB4F4F18EE392FF
:103C100006E40347190283C68AFF05071377F70FE7
:103C2000A300E902E37AD7F02DB58327CDFB7D57BA
:103C3000A300E90223A0F9FE05BF011106CE2EC69E
:103C40000DCD1841AA8705C358417D5511CB854636
:103C5000631BD70098472300070023A207000545F0
:103C6000F240056182809847B24614A39847050741
:103C700098C7D8437D17D8C3DDB705466C00EFE081
:103C8000AF82F1BF011122CC26CA52C456C25AC01B
:103C900006CE4AC84EC62A8AAE8A3284BA8413FB3C
:103CA0001600634A06082E8536895123AA89635275
:103CB0008508635D9502058C63190B08130B0002E0
:103CC0002289634F200701493369240B33042441BF
:103CD00063D99902B3843441A689930500035285C0
:103CE000FD19A13FE39B09FE269921A8098C1379B0
:103CF0002900E30309FCE9F063010B040149130BFC
:103D00000003CA84B3872441D69783850700B1E1B5
:103D10002289634420058147F2403365F40A6244F6
:103D20004249B249224A924A024B2695D244056141
:103D3000828001446DBF814941B7130B000349B72D
:103D4000DA855285DD3D7D19ADBF130B00020149B7
:103D500041B75285DD35850475B7DA855285F13D69
:103D60007D1945BF397126DA4ED606DE22DC4AD8E7
:103D700052D456D25AD0BA84BE899DE1930700032B
:103D80000147CE8626862C007C84ED3DF25062549D
:103D9000D2544259B259225A925A025B216182800E
:103DA0002A893684C28A468B91CAA947014463177F
:103DB000F60063D50500B305B0400544A30F01002C
:103DC0001307F101A54613856AFCB3F7C50263D357
:103DD000F600AA9793870703A30FF7FE130AF7FFCE
:103DE000B3D7C50263F5C50411C8A9C493F7290068
:103DF000B1C39305D0024A858935FD1493F7490074
:103E000099CF93071006930500034A85639CFA0235
:103E10002D35930580074A850D350904F9145A8715
:103E2000CE862686D2854A85B13D229585B7BE8548
:103E3000528761BF9307D002A30FFAFE0144130A11
:103E4000E7FF6DBFDD3B93058005F1B7014582803B
:103E50000145828039715AD0116B22DC26DA4AD8AA
:103E60004ED652D456D25ECE66CA6AC806DE62CC40
:103E7000AA892E893284014A8144930B5002930A05
:103E8000D002A54C294D130BCB5E830509008DE5AF
:103E90006385090081454E854D33F2506254425985
:103EA000B259225A925A025BF24B624CD24C424DAA
:103EB0002685D25421618280638875014E85EFF09A
:103EC000DFD785040509D1B783071900130C190042
:103ED000639A7701930550024E85EFF01FD6850453
:103EE0006289CDB7D5D76386570363CCFA00130731
:103EF00030026387E7041307B0026380E704814759
:103F000021A813070003E39CE7FE130C290089474F
:103F100021A0130C2900854703070C00630D5703EC
:103F200063C4EA0293063002630AD7029306B00222
:103F30006308D7026289014625A8130C2900C1B77E
:103F4000130C29009147C9BF93060003E314D7FE61
:103F500093E7270031A0050C8547E9BF93E74700A9
:103F6000050CC9BF3306A6031317476005093A9627
:103F700083060900138706FD9375F70FE3F4BCFE73
:103F80001307E0029945639FE60005098145A546B0
:103F9000294803070900130707FD1375F70F63F995
:103FA000A6022E8A830609001307C0066380E60472
:103FB0006347D70213078006638BE6061307A00644
:103FC000638EE6061307C004638AE60601473DA038
:103FD000B3850503131747600509BA955DBF13073D
:103FE0004007638DE6041307A007F9BF0305190016
:103FF0000D476314D500050911470509830609001B
:1040000013050006635ED50213058007E34CD5EA6D
:1040100013052006E358D5EA9386D6F993F6F60FF2
:104020005545E361D5EAB3C666219442828603050D
:1040300019000147E314D5FC0909C9B7050979B787
:10404000130570046344D50213074004634FD7126D
:1040500013073004E398E6E61840130C4400A30667
:1040600001005886BE8601476C0099A09305800523
:1040700013081004E398B6E491466310D70893053B
:104080007400E19913848500C2883E880147B28795
:10409000C146D0418C414E85553BAA9425B50C4074
:1040A000130C440081E591659385455E5287BE8679
:1040B0004E85EFF03FBD25A89146631ED7009305BE
:1040C0007400E1993E881384850093081006B28736
:1040D0000547A9467DBF130C4400D288130810067B
:1040E0003287854629460C404E85EFF0BFC7AA941B
:1040F0006284C9BB1308100641B7130C4400D28870
:10410000328781464146C5B79146631DD700930566
:104110007400E1993E881384850093081006B287E5
:10412000014745BF130C4400D2881308100632879C
:1041300081464DBF914693E74700631AD700930528
:104140007400E19913848500930810063DBF130C99
:104150004400D2881308100665B79146631ED70045
:1041600093057400E1993E88138485009308100636
:10417000B2870147A14631BF3287130C4400D28871
:104180001308100681462146B9BF93081004130591
:10419000740061993E883287AE8750410C41130408
:1041A0008500A9464E85EFF0BFCAC5BD930810062D
:1041B000F9BF39712ED232D4AA855010014506CEEE
:1041C00036D63AD83EDA42DC46DE32C6EFF09FC839
:1041D000F24021618280011122CC26CA06CE8307DB
:1041E0000500AA840144DC87050499EFA9479305DB
:1041F000F10005460145DC87EFD01FABF240228578
:104200006244D2440561828005469305F100014570
:10421000EFD09FA9B387840083870700E9B7AA87F7
:10422000982185078505A38FE7FE7DFB8280AA87FD
:104230009823850775FF3385A7407D158280000090
:10424000555342485320484F53542C2055446973CA
:104250006B204941502E0D0077726974652065729C
:10426000726F7200766572696679206572726F721C
:10427000000000005573657220436F6465210D00D6
:104280004572726F723A253032780D0A00000000D4
:10429000436865636B204966205665726966792DAF
:1042A000436F6465204578697374732E0D000000B8
:1042B0005665726966792D436F6465204578697328
:1042C00074732E0D000000005665726966792D43E7
:1042D0006F6465204E6F74204578697374732C2069
:1042E000476F746F20554469736B204F706572611E
:1042F00074696F6E2E0D000055534220486F737421
:10430000202620554469736B204C696220496E69F0
:104310007469616C697A6174696F6E2E200D00009A
:10432000555342485320486F737420496E69740D89
:1043300000000000554469736B206C696272617201
:104340007920496E697469616C697A6174696F6E0C
:104350002E200D00456E756D3A0D000045727228D5
:1043600025303278290A000053657420446576416F
:104370006464723A200000004F4B000047657420CF
:10438000436667446573633A2000000053657420F8
:104390004366673A20000000476574204465764410
:1043A0006573633A2000000055534220446576202F
:1043B000496E2E0055534220506F727420253032C2
:1043C000782044657669636520456E756D65726118
:1043D00074696F6E20537563636565640D0A000030
:1043E00055534220506F7274202530327820446536
:1043F0007669636520456E756D65726174696F6E6F
:104400002045525220253032782E0D0A000000003F
:1044100055534220506F7274202530327820446505
:1044200076696365204F75742E0D0A0057616974B3
:10443000204469736B2052656164792E2E2E0D0025
:104440004469736B20526561647920436F64653AF7
:10445000253032782E0D0A00434852563344697392
:104460006B5374617475733A253032780A0000001A
:104470004E6F7420526561647920436F6465203A01
:10448000253032782E0D0A00434852563344697362
:104490006B5374617475733A253032782E0A0000BC
:1044A0002F484F53545F4150502E42494E00000058
:1044B0004150502066696C65206E6F7420466F75A0
:1044C0006E642C205374617920496E204941502E2E
:1044D0000D0000002F2A00004C69737420616C6C81
:1044E0002066696C65732025730D0A0020206D61BC
:1044F0007463682066696C652025303464233A2033
:1045000025730D0A0000000046696C6520466F7532
:104510006E642C2053746172742049415020507293
:104520006F636573730D000046696C652073697A6B
:104530006520696E2062797465733A2025642E0DBA
:104540000A0000000D0A46696C6520456E642E0D58
:10455000000000000D0A46696C65537A65203A2018
:1045600025642C25642E0D0A000000005665726932
:1045700066792D436F64652045525220253032788C
:104580000D0A00000D0A49415020456E642E0D00B1
:10459000494150206C656E67746820636865636B81
:1045A00073756D204552522E200D0000303132338C
:1045B0003435363738394142434445466C696220C8
:1045C000766973696F6E3A253032780D0A00000003
:1045D000B61B0000CE1B0000F21B0000FC1B0000FD
:1045E000121C0000286E756C6C29000058400000F9
:1045F000B8400000AC410000AC410000AC410000FC
:10460000C43E0000C43E0000C43E0000C43E0000A2
:10461000C43E0000C43E0000C43E00005A410000F9
:1046200034410000C43E0000C43E00009E40000033
:10463000C43E000008410000C43E0000C43E00002B
:04464000F440000042
:00000001FF
