:040000006F30105DF0
:100004000000000000000000A00000202C040020DC
:10001400A9BDF9F3FC01002000000000000000006D
:10002400FC010020A00000200000000000000000EF
:10003400A000002000000000A0000020000000003C
:10004400A0000020A0000020A0000020A0000020AC
:10005400A0000020AC0400206E0500200000000079
:10006400A0000020A0000020A0000020A00000208C
:1000740058050020A0000020A0000020A0000020BF
:10008400A0000020A0000020A0000020A00000206C
:10009400A0000020A0000020A0000020A00000205C
:1000A40001A0B7170040984B41111367070198CB83
:1000B400982B1377E70F98AB1307800873370780E3
:1000C400137787083AC60F100000130770052380C2
:1000D400E704130780FA2380E7040F100000B847F1
:1000E400B70600069506558FB8C703C7B70413773C
:1000F400F70DA385E704B82713672701B8A71307EB
:1001040050149AA7372700408346578093F6F60E7B
:10011400A302D7808946A303D78003C7E7041377D4
:10012400C70F136717002387E70403C7F702136792
:100134002700A387E702982B1367170098AB238047
:100144000704B247F3A707800F1000004101828023
:10015400EFF03FF513050020970500009385450A4D
:10016400174600001306C6C663FAC50083220500BD
:1001740023A0550011059105E3EAC5FE176502E0C9
:100184001305C50697450000938585C4138681929F
:1001940063FAC5008322050023A0550011059105CB
:1001A400E3EAC5FE13858192977500009385854B1C
:1001B4006377B500232005001105E36DB5FE9302B6
:1001C4005002739002BC8D427390428085427390BA
:1001D40012BC93028008739002309702000093824D
:1001E40062E293E2320073905230976200E09382AD
:0C01F400822D7390123473002030000044
:100200009305000273A04580824573901534924097
:100210002242B2424243D2436244F24402559255D2
:100220002256B2564257D2576258F258064996495A
:10023000264AB64A464BD64B664CF64C065D965D52
:10024000265EB65E465FD65F0961730020304111BD
:10025000B7170040985F3AC6945F3247E39CE6FECA
:10026000324541018280B7170040984B4111136716
:10027000070198CB982B1377E70F98AB13078008EB
:1002800073370780137787083AC60F1000001307EB
:1002900070052380E704130780FA2380E7040F101A
:1002A00000001307000C6315E5029A271367070C7B
:1002B0009AA7B7170040982B1367170098AB2380B5
:1002C0000704B247F3A707800F10000041018280A6
:1002D000B82793760520ADCA118B29E303C7E7043D
:1002E00003C6E7041377F70F136636002387C704A6
:1002F000B02713664600B0A792278E27334606081C
:1003000093E5050C8EA7A5470100FD1793F7F70F9E
:10031000E5FFB717004092A72387E70493770510FE
:10032000DDC3371700403C2793E707013CA79377CD
:10033000F50199EFB727004003C7578013670701FE
:10034000A382E7801D470DA013672700B8A7F9B760
:1003500025476366F704B727004003C75780137724
:10036000F70EA382E7800547A383E780334505089E
:10037000B71700401367050C9AA78AA7B5CE03C725
:10038000570483C65704418B858A558F1DF3B82BBC
:10039000418B05D3B8271377D70FB8A719BF937729
:1003A000050199EBB727004003C757801377F70E75
:1003B000A382E78009474DBFB727004003C7578096
:1003C0001377F70EB5BF9377850181EFB72700400C
:1003D00003C757801377F70EA382E7801307100532
:1003E00061B7B727004003C757801377F70EA38282
:1003F000E780130770058DBFB8271377B70F71BF5C
:1004000037E700E01C435443A183E206D58F1CC1AB
:10041000FD572320F7182322F71882801317850031
:10042000B7E700E023A0E710618123A2A710828034
:100430004111814601468145114529241307800851
:10044000F337078093F787083EC40F100000B717F3
:100450000040130670052380C704930680FA2380AA
:10046000D7040F100000FD55CEB723800704A24526
:10047000F3A505800F1000007337078013778708F6
:100480003AC60F1000002380C7042380D7040F1042
:10049000000003C76704136717002383E704238062
:1004A0000704B247F3A707800F10000001A0000067
:1004B000197106C212C416C61AC81ECA22CC26CE8C
:1004C0002AD02ED232D436D63AD83EDA42DC46DEB4
:1004D000CAC0CEC2D2C4D6C6DAC8DECAE2CCE6CE24
:1004E000EAD0EED2F2D4F6D6FAD8FEDA9385C196E7
:1004F0008841E700050092402242B2424243D24383
:100500006244F244025592552256B2564257D2578F
:100510006258F25806499649264AB64A464BD64B87
:10052000664CF64C065D965D265EB65E465FD65F0F
:100530000961730020304111B7170040985F3AC637
:10054000945F3247E39CE6FE324541018280B7E783
:1005500000E03707001023A0E7208280B717004093
:10056000130700032388E702854723AAF196730047
:100570002030975000E0E780603873002030411150
:1005800006C6EF00701CF5BF230304801547230344
:10059000E48001002302A480828083076480E3CE8C
:1005A00007FE23030480828083076480E3CE07FE76
:1005B00003454480828083076480E3CE07FE2302E4
:1005C000A4808280411126C44AC24EC006C6137759
:1005D000F50BAD47AA892E8995446306F7001945A6
:1005E0006537653F8D444E854537FD59FD14639849
:1005F0003401B240A244124982494101828013551C
:1006000009011375F50F453F2209CDB7011126CC1D
:1006100006CEB704080051371545BD377137693725
:100620002AC6A53F32459377150089EB136515005F
:100630001375F50FF240E24405618280FD14E9FC78
:100640000145CDBF3971B7F7070006DE26DC4ADA6F
:100650004ED852D656D45AD25ED062CE03AB4702A1
:100660007D57B7E700E083AA070022C603AA470028
:1006700023A0E71823A2E718B71B004093077005D3
:100680002380FB04930780FA2380FB0483C74B0479
:100690001147AA8993E7070E2382FB043724004001
:1006A0001305F00F2303E4802E8C3289B684E93DD4
:1006B000ED35938779FF93F7F70F0947137BFB001D
:1006C0006362F712A147370708006307FB00B7070B
:1006D00007003E9C378707007955637EEC02B3879D
:1006E0008401636AF702A9476398F90689E48144A3
:1006F0006D3526850DA0E2850945E93505090345D7
:10070000F9FFFD14050C453D81C49377FC0FFDF7FF
:10071000F53D69FD7D55B71700401307700523802F
:10072000E704130780FA2380E70403C74704418BDB
:100730002382E704F250B7E700E023A0571123A279
:100740004711E25432445259C259325AA25A125BEA
:10075000825B724C21618280A547639AF906A147AA
:100760008569631DFB029387F9FFB3869700B37415
:10077000FC00B69493C7F7FFFD8C33FC8701416BF7
:10078000856B9387F9FFB3F7870199E363FF340122
:1007900093D94900C147E3E637FF91BF9307F00FB4
:1007A000E9B78567C169FD17C9B71305800D63886F
:1007B0006901130500026384790113051008E285BD
:1007C0001135A93521D94E9CB3843441C1B7E28596
:1007D0002D45CD3BCA94E30C99F00509F133A30FE5
:1007E000A9FED5BF9387F9FF93F7F70F636FF70A59
:1007F000A1476319FB06B70708003E9C83C75B044B
:100800003707070093F7070299E337870700B70711
:1008100008003E977955E370ECF0B3079C00E36C59
:10082000F7EE8947639AF9048980D549E38104EC9E
:10083000E2850945413B11090327C9FF9147232060
:10084000E48003076480E34E07FE23033481FD1731
:10085000EDFBFD14110C81C49377FC0FE9FF7D3390
:1008600071F54DBD83C75B043707070093F7070297
:10087000D5F33787070079BF8547E384F9F2E2852E
:100880002D4589339389F4FFE38304E6313B93F7E5
:10089000390091EB83260480032709009307490060
:1008A000E398E6E43E89CE84F1BFB5476396F9004C
:1008B0001305900BD13925BDB1471305B00AE38B61
:1008C000F9FE99476394F904A1476315FB00B70744
:1008D00008003E9CE2852D45F53181440D4BA14930
:1008E000E13163966401832704802320F9008504A5
:1008F000E39834FF8327048013172C016355070006
:100900002312F900EDB32322F900D5B39D47639973
:10091000F90281451305B0047531BD442320090057
:1009200023220900FD59493193F77400CA9703C780
:100930000700FD14398D2380A700E39634FF45BBE3
:1009400091476399F900130560063D39B9311305E4
:1009500090098DB7E38D09D8F15459BB23AC05FE3E
:100960001C4199E30CC182803E8783A787FFEDFF7E
:10097000232CB7FE8280411126C2B7E400E04AC0B2
:1009800003A90400B707200006C622C43379F90082
:1009900023A0F4180F10000009E523A0241101453D
:1009A00035A09565938505D0C98D2A842105B3C5E9
:1009B000050833450508EF10B02065D1FD57232009
:1009C000050042A17CA123A024112105B2402244AC
:1009D00092440249410182804111B7E700E04AC0D8
:1009E00003A9070026C23707200006C622C4AA842E
:1009F0003379E90023A0E7180F10000083A7C199FD
:100A00000144014685E301C8A2851385C199976019
:100A100000E0E780A0B1A1652685976000E0E7804F
:100A200040020DA003C7E7FF6319970205CCA2851A
:100A30001385C199976000E0E78040AFA1652685E6
:100A4000EF20A007B24022852244B7E700E023A0B0
:100A50002711924402494101828011E03E8683A71A
:100A600087FF4DB73E84E5BF37E700E01C43B7067C
:100A700020002320D718F58F0F10000019C191C155
:100A800011E637E700E02320F71082802E960F70E2
:100A9000B650D5BF37E700E01C43B706200023203F
:100AA000D718F58F0F10000019C1014785E137E70E
:100AB00000E02320F7108280B386E50003A806003B
:100AC000B306E5007D1623A00601110775F6C5B72C
:100AD00037E700E01C43B70620002320D718F58F26
:100AE0000F10000001C53307C50011E637E700E02D
:100AF0002320F71082800505A30FB5FEE31DE5FE58
:100B0000F5B7B7E600E09C42370620002A87F18F50
:100B100023A0C6180F1000000145B306A700838666
:100B2000060091E637E700E02320F71082800505F4
:100B3000EDB70111B7E700E026CA84434AC837077A
:100B4000200006CE22CC2A892E86F98C23A0E71815
:100B50000F1000009305F00432C633450608EF106D
:100B600030062A8401C53246CA85FD3DF240228501
:100B70006244B7E700E023A097104249D2440561E0
:100B8000828037E700E01C43B70620002320D718F7
:100B9000F58F0F10000001C599C1014711EA37E731
:100BA00000E02320F710054582800507E309E6FEF3
:100BB0003308E500B386E500034808009422E30605
:100BC000D8FE37E700E02320F7100145828037E7A1
:100BD00000E01C43B70620002320D718F58F0F1024
:100BE00000001307F6FFBA952A966317C50037E78A
:100BF00000E02320F71082809821FD150505A30F42
:100C0000E5FEE5B737E700E01C43B70620002320E8
:100C1000D718F58F0F10000001C53307C50019E67E
:100C200037E700E02320F7100145828014210505F5
:100C3000E398B6FEE31CE5FE37E700E02320F7105B
:100C400005458280797126D29384419B22D48040CD
:100C500006D64AD04ECE52CC56CA5AC85EC662C4D8
:100C60004DC437C9C901814B138BC19A1309F93798
:100C7000176A0000130ACA3B976A0000938ACA38B1
:100C8000976900009389C93F3E2099EF5C44639ABD
:100C90000B009CC0032CC4002285EF10C07E628430
:100CA00089A823A6FB00FDB783270B0082971C446D
:100CB0003307F5406376F50003A789001D8F2A9757
:100CC0006368E9062E200820EF10305F5C4058442E
:100CD000A9CB0C44176600000326063BAE97BE86E0
:100CE00063E4B70063E4C700B386C74014C4A28BB3
:100CF0003A8459F81767000003270732894763E6EB
:100D0000E7009767000023A90730B250225492549D
:100D10000259F249624AD24A424BB24B224C4561D7
:100D2000828063940B0098C0B5B723A6EB009DB7F3
:100D300003274A021DCB63EDA7023385A7401C2081
:100D400099EF03479A0183A689006117B307A700AB
:100D50003E8563E4E70063E4D7003385D74083A78B
:100D60000A016374F50023A8AA00A28B404451B77E
:100D700003A78900BA97D1B7011126CA06CE976496
:100D800000009384E42F22CC4AC84EC652C49C284B
:100D90008844D9CFB7E700E003A907003707200050
:100DA00023A0E7183379E9000F10000003C7419A28
:100DB00019CB23A02711F2406244D2444249B249E0
:100DC000224A05618280176700001307E75C83579A
:100DD000C70AA1CB9C440324870A6304F4049769DF
:100DE00000009389692203A709012285630BF7029A
:100DF000138AC19A83270A0082976368A40C832709
:100E00000A00098C829783A7090198443354F40A95
:100E1000B307A4003E8563E4870063E4E7003385FD
:100E2000E740B7E700E023A027119C44639BA7029B
:100E3000176400001304441D184883A7C19A63195E
:100E4000A70882979444374736FE130707C836979A
:100E5000B307A7003E8563E4E70063E4D70033856A
:100E6000D74017640000130424765C5C89CB83A60A
:100E7000C1AC9C463707CDFF7D17F98F9CC611E1A9
:100E8000884485475CD09767000083A7A71C82979A
:100E900015E15C5C99CF5C5089CF97C001E0E78099
:100EA00020B997B001E0E78020409767000023AFAA
:100EB0000772493B5C5CE38007F003A7C1AC1C47A9
:100EC000B7063300D58F1CC7FDB59C443E9405BFC3
:100ED000829714489844B387A6003E8563E4D70000
:100EE000E3E1E7F83385E740ADBF23A0A19A01C550
:100EF00085472382F19A8280AA8799E517670000C7
:100F00000347071909C7D5B711476369B7001767C2
:100F100000001307A715B3C5E5209CC1828083A7F5
:100F2000019A81CF411106C6829783C7419A99E3FE
:100F300023A0019AB2404101828083C7419A81E790
:100F400023A0019A82808280411122C426C206C653
:100F50004AC0976400009384246783C734021764EF
:100F600000001304A410B9C3176400001304C409DB
:100F70001389819B032709001C2014300146B3A567
:100F8000E7208E21B5C911C21CA00820636DD506CB
:100F900097670000238A070683A7C19AD5E7B24066
:100FA0002244924402494101828082971C40F5FF0D
:100FB0009767000083C7C70D85E3DC48858B89CF21
:100FC000D84C9947631EF7009767000023A8076075
:100FD000EF1020025C4482971C44D9D7829769B7EE
:100FE000D84C9D47E31AF7FE9767000023A8075ED9
:100FF000EF1020001C48C5B7850793F7F70F05468B
:10100000E3EFD7F651B73327E5200E23231007006F
:101010002393019A83A7019BB347F5209C438297B2
:101020001C208326090003D7619A3377E540B3A6D5
:10103000D7209222518F9AA299C385071CA018200D
:101040001C30E36EF7F4A9B79767000083A7C703C6
:101050001CC8CD3E83C73402B9F383C7140299CBB1
:10106000DC4C89EB97670000A380075897B001E03C
:10107000E780E03F9767000083A7C7FD8DD31C483A
:1010800099DF183083260900814763C7E702D84CEF
:101090009147E3E6E7F09767000083C7672E918BDF
:1010A000E39F07EE83C7419AE39B07EE2244B240D9
:1010B000924402494101C9B133A6D7201222E3105C
:1010C00006EE8507D9B7B7C700401387C72014437A
:1010D0001396264910C301000100938787261765E0
:1010E0000000032525F49C436A0514C393C7F7FF4A
:1010F00099835D8D828023A0A19C8280411122C4AE
:10110000176400001304444C1C4426C206C6858B99
:101110009764000083A4842E91EBEF20F0362244E4
:10112000B2402685924441016F10B03298289767EB
:10113000000023AF07488947E301F7FE0146930506
:1011400050020145EF10201B8145174501E01305B2
:1011500065535D33014681450545EF1060005C44F1
:10116000858BC5DFB240224492444101828097675B
:10117000000083A7672C639B0716011122CC2A84E9
:10118000094506CE26CA4AC84EC6EF2010379389B5
:10119000C1AB03A60900930780071389C1AA7CD2BB
:1011A0002382019A832709009384C1ACB7053300D9
:1011B000D8572285719B13671700D8D798431377A8
:1011C000F7CF98C398431377F7CF1367072098C3D7
:1011D00098401447CD8E14C7B70603009386862522
:1011E00034CA5457F59A54D798433424137707F8E0
:1011F00093F6F607558F98C3EF10D03C83A60900ED
:10120000370500827D15DC4293E71700DCC2032618
:101210000900030784065C569375F703E605E98F1A
:10122000CD8F5CD69305A0039C4063D5E508F84FAD
:10123000B70500074D8FF8CFB7C7898E938767ED45
:101240001CC6B7575500938757555CC28347A40601
:1012500083444406DD8C8947176700002324F73850
:101260009767000023A807367C44BCDE9767000020
:1012700083C707E299C7FC52FDFF9767000023A9C7
:10128000073418289D47814517250000130505F3ED
:101290006306F70017050000130585E6B13910381D
:1012A0006244F2404249B249A685D24401450561F3
:1012B0006F00106B9305200263DAE500F84FB70565
:1012C00000F9FD156D8FB7050005ADB7B70500F93D
:1012D0006945FD156357E500F84F6D8FB7050003AD
:1012E00091BFF84F6D8F13178729B1B78280976729
:1012F00000009387670AE853054754256390E60288
:1013000003C747079147631AF700011106CE2AC6A3
:10131000EF1030103245F240056191BD8280832785
:101320008511E5CB411122C406C658258345E50445
:101330009437D2272A841377C70F1395466063F733
:10134000C50663510506882793F6F60794B7054648
:10135000936627006314C5009366170054A4D8430E
:101360000907D8C3032504114CB82E86CC430905C0
:10137000EFF08FEF832784115438D8433697D8C3C2
:10138000DA27158FDAA789473CBC034764039767C0
:10139000000083C707CB6369F706B24022440145CA
:1013A000410182801367170058A46DBF9376F60F32
:1013B0006355050288278545136627006314B50029
:1013C0001366170050A454B8A384070085473CBC9B
:1013D000832784119C43D5FBC9B71367170058A412
:1013E00054B8A384070003250411CC430905EFF08A
:1013F000AFE7832784115438D8433697D8C3DA2708
:10140000158FDAA78D47E1B75C2493E707015CA449
:1014100069B705458280411183A741A922C406C648
:10142000858B2A84C5E74165130525F5976001E0A2
:10143000E78000EF41CD3C253EA583270412ADE3B4
:101440002320A4122322A41285472311F40423206D
:1014500005007C2854415EA5583418A5054718B5E9
:1014600013851702176700000327C71915811C434E
:101470007D151375F50F9CC25C43DCC21C479CC6EE
:101480005C47DCC61C4B9CCA5C4BDCCA1C4F9CCE28
:101490005C4FDCCE0DC19386060213070702C1BF65
:1014A0008327441288C3835724042322A412850768
:1014B000B3C7070859BF176700001307E7ED1E27DA
:1014C00085071EA7B2402244410182805C24230983
:1014D0000400054593C747005CA4EDB7142D85476C
:1014E00063ECD70A1C3D2A870145CDEB5C2713F539
:1014F00007013C2B99CB834667039767000083C79E
:1015000057B463ECF60001E5828049E58280835799
:10151000271E0357671EBA9721A08357271E75F908
:101520000145ADCF9387C71217650000035505B677
:10153000B3B5A70237460F004111130606248146B2
:1015400022C426C206C67D543385A702972002E036
:10155000E780A0639764000083C414AFAA949767E0
:10156000000083A7A7EC03A707099C433354E40AB0
:10157000FDFB83A7C19A829781476364A400B307E8
:10158000A440B240224433B597001345150092445D
:10159000410182808147B5BF01458280828003A7D7
:1015A000C1AB3C5BFDFF01000100828039C9011124
:1015B0006C0022CC06CE2A84EF20E03A15C9FD57F4
:1015C000630DF502B2479765000083C5F5A763EB8D
:1015D000B700034594026244F240B385B740056109
:1015E0006F10005217670000032707AABA97D5B7F4
:1015F0006244F24005616F10907BF24062440561E5
:1016000082808280797152CC176A0000130ACAD88E
:1016100026D283244A0906D622D44AD04ECEC5C843
:1016200097670000938747FAD44F15476384E60411
:10163000DC532A8989CF97B001E0E780603F97B0FB
:1016400001E0E78060C69767000023A107FAFD5913
:101650006C002685EF2020311DE5172500001305BD
:1016600045F5EFF09F8883A7C1AB3707100098C7F7
:101670000547B8DB0D45B250225492540259F24945
:10168000624A45618280637435013244AA8984408C
:10169000E1F0FD571305F00FE38FF9FC914763F17B
:1016A00087029307B4FF2320F9002324FA0A99E75D
:1016B0009767000083A7479D2320F900014565BF78
:1016C0009767000083A7479CED17A297E9BF0945DC
:1016D0005DB7797126D206D622D44AD04ECE52CCEE
:1016E00056CA5AC85EC68347550303447513AA8475
:1016F0003E941374F40F9307400263F687001304BB
:10170000B4FD1374F40F03A9841383A9C413A38B2A
:10171000841222864A85CE85972002E0E7808004E5
:10172000058915E503CBD412014A814A337B640352
:10173000930B500252864A85CE85972002E0E780BF
:10174000600205890DC563916A031374FA0F238B38
:101750008412B250225492540259F249624AD24A37
:10176000424BB24B45618280850A939A4A60050AD2
:10177000E3127AFDE9BF83278509035605047971D1
:1017800093D60701BD8EB3C60608358E93575640D3
:10179000898B135776485D8F93573640918B5D8FB9
:1017A00093571640A18B5D8F93171600C18B5D8FE9
:1017B0009317360093F707025D8F9317560093F740
:1017C00007045D8F9317760093F7F70F22D45D8F90
:1017D0002A849357D6001355B6001189898B9355E7
:1017E0008600C98F1355F6002582C98F218AD18FB3
:1017F00013961500418AD18F139635001376060291
:10180000D18F1396550013760604D18F1396750069
:101810001376F60FD18FA207C5455D8F3307B70248
:1018200026D24AD04ECE032984138329C4135AC822
:1018300006D652CC56CA3697334707081356574038
:10184000098A93577748D18F13563740118AD18F21
:1018500013561740218AD18F13161700418AD18F52
:101860001316370013760602D18F1316570013761E
:101870000604D18F131677001376F60FD18F135805
:10188000B7001356D70013784800098A135587000C
:10189000336606011358F700258333660601218B52
:1018A000518F13161500418A518F13163500137688
:1018B0000602518F1316550013760604518F131626
:1018C00075001376F60F518F2207D98FB387B702B1
:1018D0005EC6B697B3C7070813D55740098913D713
:1018E0007748498F13D537401189498F13D5174051
:1018F0002189498F139517004189498F1395370026
:1019000013750502498F1395570013750504498F08
:10191000139577001375F50F598D13D8B70013D7AA
:10192000D70013784800098B13D687003367070167
:1019300013D8F700A58333670701A18BD98F13173D
:101940001600418BD98F1317360013770702D98FF2
:1019500013175600137707041E06D98F1376F60F58
:10196000D18FA2073367F5003307B7021306500281
:101970004A85CE853697B98EB3C4060833F6C402BD
:10198000137BF60F972002E0E780C0DD058905E9AB
:10199000834AD412014A930B5002B38A9A028144BB
:1019A00093DA0A0126864A85CE85972002E0E780F1
:1019B00060DB05890DC563914A0313FBF40F230B0C
:1019C0006413B250225492540259F249624AD24AE4
:1019D000424BB24B45618280050A137AFA0F8504A7
:1019E000E39274FDE9BF8327C50803568508797122
:1019F00093D60701BD8EB3C60608358E9357564061
:101A0000898B135776485D8F93573640918B5D8F46
:101A100093571640A18B5D8F93171600C18B5D8F76
:101A20009317360093F707025D8F9317560093F7CD
:101A300007045D8F9317760093F7F70F22D45D8F1D
:101A40002A849357D6001355B6001189898B935574
:101A50008600C98F1355F6002582C98F218AD18F40
:101A600013961500418AD18F13963500137606021E
:101A7000D18F1396550013760604D18F13967500F7
:101A80001376F60FD18FA207C5455D8F3307B702D6
:101A900026D24AD04ECE0329040A8329440A5AC8C2
:101AA00006D652CC56CA36973347070813565740C6
:101AB000098A93577748D18F13563740118AD18FAF
:101AC00013561740218AD18F13161700418AD18FE0
:101AD0001316370013760602D18F131657001376AC
:101AE0000604D18F131677001376F60FD18F135893
:101AF000B7001356D70013784800098A135587009A
:101B0000336606011358F700258333660601218BDF
:101B1000518F13161500418A518F13163500137615
:101B20000602518F1316550013760604518F1316B3
:101B300075001376F60F518F2207D98FB387B7023E
:101B40005EC6B697B3C7070813D55740098913D7A0
:101B50007748498F13D537401189498F13D51740DE
:101B60002189498F139517004189498F13953700B3
:101B700013750502498F1395570013750504498F96
:101B8000139577001375F50F598D13D8B70013D738
:101B9000D70013784800098B13D6870033670701F5
:101BA00013D8F700A58333670701A18BD98F1317CB
:101BB0001600418BD98F1317360013770702D98F80
:101BC00013175600137707041E06D98F1376F60FE6
:101BD000D18FA2073367F5003307B702130650020F
:101BE0004A85CE853697B98EB3C4060833F6C4024B
:101BF000137BF60F972002E0E780C0B6058905E960
:101C0000834A1408014A930B5002B38A9A02814412
:101C100093DA0A0126864A85CE85972002E0E7807E
:101C200060B405890DC563914A0313FBF40F230FBC
:101C30006407B250225492540259F249624AD24A7D
:101C4000424BB24B45618280050A137AFA0F850434
:101C5000E39274FDE9BF797122D426D22E84AA843E
:101C60004146973502E09385A5580A8506D6972008
:101C700000E0E780801A4146973502E0938545579A
:101C80000808972000E0E78040193C3010088A855A
:101C9000DC875C2026855C875C30DC8697A001E0D1
:101CA000E780E0380347F1011C200145631EF7007F
:101CB0000347E1011C3001456318F7000345D101DA
:101CC0003C201D8D13351500B250225492544561AD
:101CD0008280011122CC26CA4AC84EC606CEAA84EA
:101CE000175400000324847713092500854905C093
:101CF0009C303830858B6304F700405CCDBF1946BB
:101D0000930544004A85EFE0DFE7E31835FFF24032
:101D100022856244D2444249B24905618280411120
:101D200022C426C24AC006C6175400000324047306
:101D300093042500054901E8B240228522449244DB
:101D4000024941018280A6851305A4022937E305D3
:101D500025FF405CCDB7011122CC26CA06CE2AC48D
:101D60002EC6175400000324E46E854419E0014593
:101D70000DA09C841830858B6304F7000044FDB7E8
:101D800019469305A10013052400EFE09FDFE31738
:101D900095FEF2406244D24405618280EFF02F98B4
:101DA00073000000000000009382419A0383020048
:101DB00023800200630F0300F32510342EC0970523
:101DC00000009385E5FD73901534EF00405B7300D0
:101DD000203086DCEF00A05AE650828000004111DE
:101DE0004AC01389C1AA0327090026C206C61C5F80
:101DF00022C4938481AA93D76748B5CF930700067E
:101E00001CDF175400001304247C184C93070008AF
:101E10006317F7009C409C4393F707041CCC1C40BD
:101E200093F7070489CB83A7C19A829748D81C40AF
:101E300093F7F7FB1CC01C4093F7070289CF1C40A7
:101E400003A7C1ABB706080093F7F7FD1CC05C54AD
:101E500014C786077CD71C4893F7070489EF85478A
:101E60005CC83707020083A7C1AB98C71307000CF3
:101E700018C81854F8D383270900985F13574748A8
:101E800011CF985F1367070198DF83A7C1AB23A227
:101E900007068547175700002320F7749C40D84356
:101EA0001357174819C7D843759BD8C3D843799B94
:101EB000D8C3B2402244924402494101828005378E
:101EC000730020309757000093870770370704008E
:101ED00088DB698F01CF03A7C1ABFD5634D7975676
:101EE000000093866612D84E0507D8CE137785007A
:101EF00019CF984783A6C1AA1367170098C713077D
:101F0000000898CBD856719B13671700D8D6137763
:101F1000150001CFD84383A6C1AA13671700D8C301
:101F2000D856719B13671700D8D61377650019CF61
:101F30001377450059C398431367170098C383A6C6
:101F4000C1AAD856719B13671700D8D64167698F0D
:101F50000DC39756000083C6664BC18A1757000011
:101F600013078743A5C28346470793E60602230A61
:101F7000D70637070200698F01CF984B1377070800
:101F800019C3054798CB83A7C1AB3707020098C791
:101F9000B70708007D8D0DC117570000034717478D
:101FA000058B975700009387273F1DCB03C7570723
:101FB00013672700A38AE7068280D84713671700B4
:101FC000D8C7B5BF834647070946BD8A6388C600A0
:101FD000834647070D46BD8AE39DC6F8914641BF3B
:101FE00003C75707118B69DB03C7570713678700C0
:101FF000D1B783A6C1AB175700001307E75C1C439A
:10200000858B91E75C43858B99E3FC52EDFB9757F9
:10201000000023A5075C82809386C1AA2A87884294
:102020001C5D93D75748D1E781C51C59BD839CA13E
:1020300015C69C42945BC60693D7660163D606001C
:1020400093E707C0B3C70708831606009397576046
:10205000B9C6BE968947B3C6F60216A283A7C1AB1E
:10206000BC4B083393D757488DCF29C597560000EE
:1020700083A6065793F606049307950009459DCA63
:10208000BA979C230547194593F6F7066394E60231
:1020900001459397476063DF0700394582801EA2A0
:1020A00075BF2A9748331375F5077D153335A000A2
:1020B00082800545828083A741AB99CB944BD04B5E
:1020C0009842518F98C294439C479842D98F9CC2A2
:1020D0001386C1AB0548184283A6C1AA97570000D2
:1020E0009387874E6312050503A806001368080846
:1020F00023A0060183C62702B3C5D5205447938584
:10210000A50C13981649232607010F10000018424A
:1021100037060200860510C71306000890CB6CD363
:1021200054C72388A1AA828088421375F5F788C214
:1021300083C62702B3E5D52054479385E50E139552
:10214000164948C70F1000001842370602008605DE
:1021500010C71306000890CB6CD354C70945D1B7FC
:10216000411122C4AA8706C626C22E851384C1AB9C
:10217000B285DDE71C40F8537DFF3707020098C7A2
:102180009757000023A6074497540000938444EA1D
:10219000DC5085C7B7E700E03707200023A0E72819
:1021A000B7F700E0938707D0984B6D9B98CB984B7F
:1021B0001367870398CB73005010F53D83A7C1AA1E
:1021C00098431317772998C3D857719BD8D7975737
:1021D000000023A507409757000023A9073E1C4095
:1021E000094798C3DC5099CB37F700E0832707D124
:1021F00093E787002328F7D0730050101440175737
:1022000000001307673C1C47858B91E75C47858B73
:1022100099E3FC52EDFBB24022449244410182809A
:102220000D47639EE7049757000023A3073A97578B
:10223000000023A1073A97540000938464DFDC5028
:1022400085C7B7E700E03707200023A0E728B7F7E6
:1022500000E0938707D0984B6D9B98CB984B136702
:10226000870398CB73005010B93583A7C1AA984350
:102270001317772998C3D857719BD8D7A5B70547A7
:10228000E39EE7F697560000938686DADC5285C710
:10229000B7E700E03707200023A0E728B7F700E002
:1022A000938707D0984B6D9B98CB984B1367870308
:1022B00098CB730050101C40D04713171649D8C74D
:1022C0000F1000001C403707020098C713070008D2
:1022D0009755000023A2E53003A7C1AA184313575E
:1022E000774819C71307E018F8D3D0C7DC52E5BD0B
:1022F0001307E01AD5BF83A741AB89CFD44303A806
:10230000870098423367070198C2D447DC4B984254
:10231000D98F9CC2054783A7C1AA9505631EE50214
:1023200098431367070898C3984F137707C013673C
:10233000A71398CF13078007B8BB939735009387EF
:10234000C70317570000130727281CD72388A1AA03
:1023500019C2060610D78280984309451377F7F70C
:1023600098C3984F137707C01367271398CF1307A5
:10237000F007B8BB939745009387C703D9B783A7E6
:10238000C1AB8847D847798D11C588C783A781AB72
:1023900091C382878280896703A7C1AB938707F4C3
:1023A0007CD383A6C1AC83A7060993D7A74991C75D
:1023B00083A7060993D7974999E37C53EDF7828069
:1023C0004111B7E700E022C480433707200006C66A
:1023D000798C23A0E7180F10000011C199E5B7E729
:1023E00000E023A08710014549A80D0533450508E5
:1023F000130740037199B34705086362A70203A559
:10240000C1B583A641B5639FA600175700000327F7
:1024100027C571D7C207DD8D05450297C9B703A54A
:1024200081B5C5B77A2131EF5A21636CF704B30641
:10243000F740214817560000130606BD6375D80201
:102440008328050003586600938687001D8FAA968F
:102450006117DAA223A016012393060014C15EA11E
:10246000130788FF7AA27A226EA12105B307F740ED
:102470007EA2B7E700E023A08710B24022444101CA
:102480008280084149B7B7E700E08C433707200056
:1024900023A0E718F98D0F10000001E523A0B71065
:1024A000828003A3C1B583A841B59A87814663F8AA
:1024B000170903A807006367F5086365A808138771
:1024C0008700636EE506F223216705076317E600C0
:1024D000138631A71822050718A217550000130507
:1024E000A5B2D2237A2123930700329733470708F6
:1024F0007AA16383670203A381B5630FF30003D35B
:102500006600631B0300DE2223A0060121073E961E
:102510002106D2A27AA1B68798436302170383A645
:1025200081B5630ED700762399EAD6235223184348
:10253000A106B296D6A398C37E21A1077EA1B7E7D4
:1025400000E0A9BFBE86C2879DB7AA8703A7C1B511
:1025500003A641B5B305B5406314E6003E8529A83E
:10256000930687001843E3E9D7FEE3F7E7FE2E85DD
:10257000E3E4D5FEE3F2E5FE8280411126C206C601
:1025800022C44AC09754000083A484E663830410E5
:1025900003A4C40AAA86054535C03C241307700A63
:1025A0006390E70858301C3417590000130949ADEF
:1025B00003268900B387E7020357C900B387E70200
:1025C0001307003293870719B3D7E70203A744091B
:1025D0003E97BA846364F7006364C700B304C740DE
:1025E00083A7C19A84C28297B387A44063F5A400ED
:1025F00003278900BA9789EB1305F00FB2402244F4
:10260000924402494101828058309306204E33079C
:10261000D702E3F3E7FE930780FA3CA40145F9BF34
:102620001307800AE39AE7FC83A7C19A82972A8955
:102630003545EF10806CAD47175700002324F7FA9B
:1026400058301C3417560000130686A3B387E702E0
:102650005A261046B387E7021307003293870719FB
:10266000B3D7E70203A744093E97BA866364F7002D
:102670006364C700B306C740E310D9F8170502E04A
:10268000130505FDEFE07F8683A7C1AB0947F8D7A7
:10269000A5B70545A5B7397156D2975A0000938A58
:1026A000AAF283A70A033707080026DA06DE22DC2F
:1026B0004AD84ED652D45AD05ECE62CC66CA6AC8C8
:1026C0006EC6F98F9754000083A484D26384071CDC
:1026D00083A9C40A83C7990003A4C90092073E9442
:1026E0002820B14705053305F5025E203E953345A8
:1026F0000508EFE04FA8AA8C6305051A130DC50065
:102700002324A50134203146370B0300B386C602CB
:10271000231304000149138AC1AB938BC1AA938D83
:10272000C1AC130B8B15054CEA9654C483C67900D3
:102730009307D00783250A00B386F602C1679CC5BC
:10274000370833008606B4D183A60B009042137677
:10275000F6CF90C290421376F6CF1366062090C251
:1027600003A50D0010453366060110C503A6090038
:1027700023A865059305500290C672205444B29672
:102780002324DD0014300146CA96A301DD0003C5F1
:1027900004089756000023AB06E2B13E83260A00E8
:1027A000CC4613961549D0C60F10000083260A00A8
:1027B0003706020090C61306000823A8CA0003A625
:1027C0000B00104213567648631F860B1306E01861
:1027D000F0D2CCC617560000232206E017560000A0
:1027E000232606DE23A08601EFF0BF80EF10C0494C
:1027F00083A64A00858AD9CAEA852685971002E011
:10280000E78020EB0DE903465D0049C276204E20AB
:10281000B29663DDB606B428AC4803258D00918ED0
:102820008906B695EFE04FA423020D0003465D0034
:102830007620B29676A003260A00310D3452FDFEB2
:10284000342005091379F90FE362D9EE9C246685DB
:10285000A381FC001C20A3820C002383DC002382C4
:10286000FC006254F250D2544259B259225A925A40
:10287000025BF24B624CD24C424DB24D21611703C8
:1028800001E06700A3631306E01A99B7FD5623021F
:10289000DD0055B783A7C1ABFC5781C785472382AD
:1028A000F19AF2506254D2544259B259225A925A71
:1028B000025BF24B624CD24C424DB24D21618280A0
:1028C000411122C406C626C24AC02E848DCD13F9FA
:1028D00015008147414763020904131745003E97DD
:1028E000B1463307D70283A4C19BB317F02833C97D
:1028F0000708BA949C40C840829723A0040023A2F2
:10290000040033448900B2402285224492440249A3
:1029100041018280B356F448E9F28507E39CE7FE63
:10292000CDB7011126CA06CE22CC4AC84EC6AE8407
:10293000A1C593F7150001444147B1CB931745005A
:10294000A2973147B387E7029389C19B03A9090086
:102950003E998327090081C70325490082973147A3
:102960003307E40283A70900BA979C478DC7331445
:102970008028B3470408BD8CF24062444249B24902
:102980002685D24405618280B3D68448C5FA050401
:10299000E31CE4FECDB72320090023220900C1BFB8
:1029A000AA8703A5419B11E182803A216315B700F4
:1029B0001821E30BF7FE4845FDB77971B7E700E052
:1029C00022D4804352CC06D626D24AD04ECE56CA06
:1029D0005AC85EC662C43A8A37072000798C23A0A1
:1029E000E7180F10000005E123A087100945B25039
:1029F000225492540259F249624AD24A424BB24B93
:102A0000224C4561828083A7C19AB6892A89AE8A01
:102A1000328B938BC19B829703A70B008144B146F5
:102A2000C147338CD40233068701104235EEC165AD
:102A3000938505F04145EFF0BF9819ED97470000E9
:102A400083A7076281C7814511458297B7E700E0F8
:102A500023A087102D4561BF1387419B1C43A1E331
:102A600008C323000500B31790283EA183A70B00DD
:102A7000232605002324650123224501E29723A094
:102A8000270123A2570123A447016384090023805F
:102A90009900B7E700E023A08710014589BF3E8772
:102AA000DC47F5FF48C775BF8504E39CF4F6B7E73C
:102AB00000E023A0871021451DBFB7E700E0984341
:102AC000B706200023A0D718758F0F100000974677
:102AD000000083C676536371D50283A6819B33259C
:102AE000D5201621D58D0EA19746000023A60652AB
:102AF00023A0E7100145828023A0E7100D458280C6
:102B00000111B7E700E022CC80433707200006CE52
:102B100026CA4AC8798C23A0E7180F100000BD47C9
:102B200063E7A70431473307E50283A7C19BBA9740
:102B30009C4395CF3315A0282E89B3450508014540
:102B40002EC6B93DAA8409C9B2450145974000E0A7
:102B5000E78020B523A42401B7E700E023A0871075
:102B60000145F2406244D244424905618280B7E7A0
:102B700000E023A087100945EDB79747000083C701
:102B8000377DAA86850703A541A401471221630763
:102B9000D60005071905E36BF7FE014582802A87F9
:102BA00003A5C1A411E182801C45B227636BC70055
:102BB00003584500B306C8006355D70081466394A7
:102BC00006010841C5B703D3A70093880701631620
:102BD000E30091C192A13E8582808506C687B3C677
:102BE0000608F1BF9746000083C6867683A781A7B3
:102BF00001476394E60001458280AE231386C70334
:102C00006394A5003E85828005071377F70FB2878E
:102C1000CDB7411122C406C6974700002388077E1E
:102C200003A481A805C06C390145B315B028B3C50C
:102C30000508974000E0E780A0F1930710273305CF
:102C4000F50202942244B2408145014541016FE002
:102C5000AFAA411106C6383D19C73425631ED702F5
:102C6000B24041017DB73C2DE5DF3825E30AF7FE90
:102C70003CA5814517E5FFFF1305A567EFE0CFA74A
:102C80009747000083C7C74089C783A7C1AB514797
:102C9000F8D3B240410182803C2D89C7E39AF6FC0B
:102CA00038A5C1BFD5FEEDBF41114AC0175900007C
:102CB000130989918327890022C426C206C6974436
:102CC00000009384646D858BE0509DCB9757000086
:102CD00023A0079083C74407C18B85CFEF00D07A2C
:102CE00083C7440793F70702E5DF83C744072285BC
:102CF00093F7F70C238AF406972001E0E780E0B809
:102D0000EF00907822852244B2409244024941016A
:102D100009B783C75407858B91CBEF00F0768D47B9
:102D2000230EF406BC5822858297D9BF83C7440777
:102D30001547BD8B6395E7048347B4060345340606
:102D40000146930550025D8DEFF0EFDA01468145B3
:102D50000545EFF0EFC08327C900858BD5D32285C9
:102D60009757000023A80786972001E0E780A099E5
:102D700041F9B2402244924402494101828083C712
:102D800044071947BD8BE39DE7F68347B406034527
:102D900034060146930550025D8DEFF0CFD5014614
:102DA00081450545EFF0CFBB8327C900858BA9DBA3
:102DB00022859757000023AF0780971001E0E78036
:102DC000006E7DB7411122C426C206C67C25784517
:102DD0002A84BD8B1CA91CA31D4764456395E73459
:102DE0000547B8A08347F5058D466393D7185E2D38
:102DF000CDE37C491147B18B638DE7083147639878
:102E0000E700034715068347F5076304F70885477E
:102E1000BCB019469305640313854400EFD0DFC4AA
:102E2000BC20990793F7F70FBCA00347040613775C
:102E3000070401CFB83013670704B8B07844BA97D5
:102E40005838B8B3BC208507BCA097470000238F33
:102E5000075ABC2013F7F703050718B80347E40522
:102E60001A07D98FBCA083475403858B91E703478A
:102E7000440389476317F70078441C2393E707044A
:102E80001CA37C44183898B3B240224492444101B8
:102E90008280A147BCB08357C40697450000938544
:102EA000A54F1386C1ABDCA08357C40603471406A5
:102EB0007444A1831207BD8BD98FDCB2B42085473F
:102EC000890693F6F60FB4A017470000034707548E
:102ED000631EF706183C9387E6008E07231AF40654
:102EE0009387C708B387E702794510420948238AC8
:102EF0000507C1650CC6938707FBB3C7070893870F
:102F00007716B3C7A70233C70708B387A702860798
:102F10003CD2BC3093E70701BCB07C44B6978346F3
:102F2000240693E60604B4B3B4207C44B697D8A331
:102F3000B4207C4421837D8BB69783463406960665
:102F4000558FD8B3BC208D07BCA021B71042F947DC
:102F5000385205833357F7023C5268528583FD8B04
:102F6000AA977CD28D47238AF5063347070855B7C1
:102F70001946639BC7125E2DC1E393056503B8B084
:102F800013854400EFD05FAEBC201385A4009907E1
:102F9000BCA0BC3093E72700BCB083475403898BA7
:102FA00095CF0C58BC299DCB1946D105EFD0DFAB8E
:102FB00078441C2393E707F81CA3BC20990793F7D8
:102FC000F70FBCA00347040613770704E30F07E6D7
:102FD000B430784493E60604B4B095B58347D4037F
:102FE00091C778441C2393E707F81CA3194693055F
:102FF000E403EFD07FA7D1B7A147BCB08357C50684
:10300000DCA08357C506034615066C45A18312064E
:10301000BD8BD18FDCB1B020174500001305C5373B
:103020009385C1AB09061376F60FB0A09747000051
:1030300083C7C73D6398E704183C9307E6008E07F3
:10304000231AF4069387C708B387E70279488946AD
:10305000230AD5069441C1658CC6938707FBB3C785
:10306000070893877716B3C7070333C70708B387E3
:1030700007038607BCD2BC3093E70701BCB07C4491
:10308000B29771BD8C41B851F94705833357F702A8
:10309000BC5103A845068583FD8BC297FCD1230A4A
:1030A000D50633470708C1BFA147BCB08357C50643
:1030B000DCA08357C506034615066C45A18312069E
:1030C000BD8BD18FDCB1B020174500001305C52C96
:1030D00009061376F60FB0A09747000083C70733A1
:1030E00083A5C1ABE391E7FA183C9307E6008E078E
:1030F000231AF4069387C708B387E702F9460948FD
:10310000230A0507416588C5938707FBB3C70708EE
:1031100093877716B3C7D70233C70708B387D70299
:103120008607BCD189BF0547639EE706B1471CB936
:1031300083475503898BA1CB0C59BC29A9C71946D4
:10314000D10513858400EFD03F9278441C2393E788
:1031500007F81CA368441946930564030905EFD0DA
:10316000BF9011679747000083A70730F98FE38C62
:1031700007CE7C24B98BE39807CE78441C2393E7D1
:1031800007021CA3CDB18347D40389C79C2093E7D2
:1031900007F89CA0684419469305E4032105EFD085
:1031A000BF8C4DBF522D0C559307660093F7F70364
:1031B0001CB913858400E5B7011126CA97440000A5
:1031C000938484409C4422CC06CE17440000130410
:1031D000A41C858B6850C9C32AC69747000023A941
:1031E000073EEF00702A03474407894732456307CB
:1031F000F700034744078D47631CF70283A6C1AB62
:10320000BC520357450785831307C71263F2E702D1
:10321000BC528583B1C3914703474407E31EF7FEC1
:103220006244F240D2440561172301E06700038E37
:10323000382D3C3D09CF34256309D7026388F60257
:1032400038A56244F240D24405616FD05FF299CF55
:10325000382509EF3CA5F5B72AC6EF00F0226244F5
:103260003245F240D24405616DB2EDF7DC4CEDF72A
:103270000347440789476307F700034744078D471F
:10328000E31CF7FC914703474407E31EF7FE49BFE1
:10329000630E0530011122CC06CE26CA4AC84EC69E
:1032A00052C456C2582585472A846316F72C97477F
:1032B000000093876731D44F1547638AE600D44FE7
:1032C0000D476386E600D84FAD476312F7026C38AE
:1032D0006244F240D2444249B249224A924A0145EC
:1032E0000561B315B028B3C505086FF00FFD1631A1
:1032F00013070064974400009384040A3347D702FD
:103300009C20E8D0850793F7F70F9CA063CAE700DD
:10331000974000E0E780E0C697470000238E07064D
:1033200078249D47631FF70483479406B1C38356EF
:10333000040763ECF6020C24930730041CAC13055D
:10334000300493F6F60F014697C001E0E780A0F63F
:1033500022856244F240D2444249B249224A924A0A
:103360000561172301E06700E32885062318D406CA
:10337000930530020545974000E0E78060B92301DE
:10338000A4060549238A2407183C8D47631CF70EC1
:10339000973000E0E780802A0D89630F05146316DB
:1033A0002517930760023CA4930750023CAC930797
:1033B000700278243CBC85476302F70889659385D1
:1033C000F57013051027174A0000130A6ACB8349CA
:1033D0007401974000E0E78020B60E30835ACA009F
:1033E0002A8913060064B385550381461385053287
:1033F000B335B500970002E0E7802079AA84B335A1
:10340000590337460F001306062481463305590336
:10341000970002E0E780607783270A00AA948297EA
:10342000B307950003278A00BE8563E4A70063E421
:10343000E700B385E7404E85EFF08FEC83475403F8
:10344000898BE9CB8347C403F1C70C58E1C5BC2580
:10345000F1C38947230AF4021946B1051305640331
:10346000EFD08FE00347C407894763E9E70A228565
:103470006244F240D2444249B249224A924A05612A
:103480006FD0FFCE89467C346315D70213F717003F
:1034900019CB898B1307500291EB9307700238A464
:1034A0003CAC814739B713076002C5BF9307600280
:1034B000FDB799CF93F617001307500291E6898B59
:1034C00013B717001307670238A4230D0400D1BFF8
:1034D0003C2C130740026368F700930750023CAC92
:1034E0003C2C3CA47DBF850793F7F70F3CAC13073A
:1034F0007002E364F7FEEDB7130770029307500202
:103500003CAC38A4930760026DB5130750029307D3
:103510007002FDB78547230AF402A9B70327C40A3E
:1035200083A6C19A3C27ADC31C375833974400008B
:10353000938404B59044B387E702DA24B387E702A3
:103540001307003293870719B3D7E702032744090B
:103550003E973A896364F7006364C7003309C74044
:103560008296B307A9406374A9009844BA97035799
:103570006407E3FEE7EEF2406244D2444249B249B6
:10358000224A924A0561828083248409829663E9F3
:10359000A400835764073385A440E37AF5ECE1BFC8
:1035A0009747000083A747AEBE94E5B7828001111C
:1035B0004EC697490000938929DE22CC03A4C9098D
:1035C0004AC8174900001309A9AB0357C90026CA06
:1035D000835464088327040906CEB384E402374782
:1035E0000F009306F7231307072452C456C25AC08C
:1035F000B694B3D4E40263EE9702138AC19AB384FB
:10360000974083270A00829763E9A4023385A44088
:103610006349050283570404A30F040085072310A0
:10362000F40483470414639E07102285EFE06F8A39
:1036300021AA03278900BA97C9B783278900BE94B6
:10364000F1B783270A008297032784086366E50A97
:10365000198D7E3C0357C9008E07B387E702130715
:10366000003293870719B3D7E70263ECA708B74A7C
:103670000F00138BFA23938A0A24835704048507C7
:103680002310F4048347041481E72285EFE06F845C
:103690002285973001E0E780E0DB631305240326F1
:1036A00004090327C408832689003297BA87636414
:1036B000C7006364D700B307D740783C0356C900FE
:1036C0002328F408050778BC035764083307C702AA
:1036D0005A9733575703B384E74063F5E700998E51
:1036E000B384F60083270A00829763E6A404338537
:1036F000A440E34405F839BF83278900998F3E959C
:1037000089BFA1452285973001E0E780C0CCA305A1
:10371000A4029747000083A7A7946383071C624411
:10372000F240D2444249B249224A924A024B894568
:1037300015450561828783278900A6973385A740B1
:103740004DBF2285EFE02F832285973001E0E7808F
:1037500060D0631705180355C90083576408B7463E
:103760000F001386F623B387A70293860624032748
:103770000409230B0402832A8900B297B3D7D70226
:10378000636AF716B307F7408326C4082324F408B6
:10379000014BB387E600BE8463E4D70063E45701BE
:1037A000B38457411E3023289408A1CB83560404C8
:1037B0005A3037460F0056B03387E640B387E702EA
:1037C0003A301306062481468145BA97B3C70708E5
:1037D0003385A7023EB0970002E0E780003B11CDA1
:1037E0002695B3349500A695AA876314BB0063643D
:1037F0005501B30755412328F40883270A0082970F
:10380000AA8483270A008297E30D95FE83270A0086
:1038100083248408829763E4A40E3385A440630B59
:10382000050E035AC90083576408B7440F00138775
:10383000F423B387470393840424BA97B3D797023A
:103840001747000003475780BA9763E5A70CB335C5
:103850009502835A240252868146330595029700C9
:1038600002E0E78080323389AA0033854A03374675
:103870000F001306062481468145970002E0E78089
:10388000C03015C1B337950252868146B385B40264
:103890003385A402BE95970002E0E780002FB38A2B
:1038A000AA40231154033545892923AE89083834A9
:1038B0008547631AF704930700FD7CA4814503A59F
:1038C00001AAEFD06FE3954717470000232CF7D0EC
:1038D0003707100083A7C1AB98C7060923A827079D
:1038E000F2406244D2444249B249224A924A024BCF
:1038F00005618280B3065701B387F64071B583270F
:103900008900BE9419BF930710FC7CA4814503A5D0
:1039100081A945BF9747000023AE07B0834709013F
:103920008DC303A5C1A8EFD00FFD624483274900D2
:10393000F240D2444249B249224A924A024B0561BE
:103940008287834594026244F240D2444249B2499C
:10395000224A924A024B01450561B315B028B3C50E
:1039600005086FF08F95011122CC26CA4EC606CEEF
:103970004AC852C456C25AC03835854783240509FF
:103980002A84AE896314F70C83570508835AC5034C
:10399000173A0000130ACA6E035BCA0063FC57198A
:1039A00014296399E618032785116315071803275F
:1039B000450A6311071874351D47639DE6162A3DB5
:1039C000B38AFA409307204E33055503032944096F
:1039D00037460F001306062481463305F502973754
:1039E000000083C7676633592503B335AB023E99A0
:1039F00033490908231324093305AB02970002E079
:103A0000E780A018B307950033B5A7002E950327CC
:103A10008A00BE8419E163E4E700B384E740B3079A
:103A2000690337470F009306F7231307072423A0E2
:103A30009900B697B3D7E702D69763E4F4009D8C5C
:103A400031A003278A00B307F740BE941389C19AB7
:103A50008327090023A09900829763E2A41033858D
:103A6000A440635D050A83270900173B0000130B80
:103A70002B61829703A709006369E50E198D7E3CCF
:103A80000357CB008E07B387E702130700329387F3
:103A90000719B3D7E70263EFA70C374A0F00930A61
:103AA000FA23130A0A248357040485072310F40415
:103AB0008347041481E72285EFD0BFC12285973068
:103AC00001E0E780209961E5832604098327C40883
:103AD00003278B00B697BE8463E4D70063E4E70056
:103AE000B384E7407C3C8356CB00232894088507A9
:103AF0007CBC83576408B387D702D697B3D74703F4
:103B000063E6F40A9D8C8327090023A0990082971D
:103B100063E1A40A3385A440E34705F89737000022
:103B200083C7975263E6A7069747000023A48790B0
:103B30000145B9A88357640837470F009306F72358
:103B4000B387670313070724B697B3D7E702E3F8F1
:103B5000F4EE03278A002697B304F740C5BD9737D4
:103B6000000083A76752BE94DDBD83278B00998F29
:103B70003E9531B7A1452285973001E0E780A085C9
:103B8000A305A4029737000083A7874D81EF7D55D9
:103B9000F2406244D2444249B249224A924A024B1C
:103BA00005618280894515458297D5B71D8FBA94E6
:103BB00099BF83278B00BE94B1BF83A7C1AA984346
:103BC0003706CEFF7D161377F7CF1367071098C31C
:103BD00003A7C1AC1447370803001375F51FF18E16
:103BE00014C783A6C1AB23A8060523A40700904BE6
:103BF00093F5F507130888151366F60390CB9043E9
:103C00001366060890C3F04F137606E0498EF0CF96
:103C100023AC070423A007065057759A50D790434A
:103C2000137606F84D8E90C31306401FF0D2174648
:103C300000002325069A174600002329069805460A
:103C400090C29043B70533001376F6CF90C39043EC
:103C50001376F6CF1366062090C310474D8E10C71B
:103C600023A80605D8531317F728D8D32547F052B1
:103C700001C6B04FE37DC7FED8531317F748D8D31A
:103C8000A8531335450082809386C1AB9C42B84B44
:103C90001377F78FB8CB98431367870098C39C437B
:103CA00093D7374889C7010001000100010003A72D
:103CB000C1AA1C4393F7F7CF93E707101CC303A6D1
:103CC000C1AC1C463707CEFF7D17F98F1CC69C423E
:103CD00037070300B8CB83A741AB99CBD4439047B8
:103CE0009842518F98C2944BDC4B9842D98F9CC21A
:103CF0009747000023A8078E828083A7C1AB9C430F
:103D00008D8BE9C74111B7E700E04AC003A907005E
:103D100026C23707200006C622C4AA843379E900E8
:103D200023A0E7180F100000174400001304C489F3
:103D3000584C8D47631AF7009737000083A78762B6
:103D4000014681454545829719476391E4048347BD
:103D5000140289CB834704026396970097470000BB
:103D6000A3840788584CA1476315F7009307801078
:103D70001EB02382019A093FB2402244B7E700E017
:103D800023A0271192440249410182809D47639BF1
:103D9000F40083471402F9D7034704028D47E31365
:103DA000F7FC6DBF544C6389E600584C6306F7007E
:103DB000584CA147E31FF7FA83471402DDFB5C4C24
:103DC0002300F4028547A300F40265B78280000057
:103DD00097110020938181C117C101201301812215
:103DE0001305400097C5FF1F9385C52117C6FF1F08
:103DF0001306064163FAC5008322050023A055007F
:103E000011059105E3EAC5FE17C5FF1F13058534AB
:103E100002852A8309CA83830500230073007D1667
:103E2000050385056DFA82802A8311C62300B3003D
:103E30007D16050365FE8280B717004003C777052E
:103E40001377E70FA38BE704130700F8A38DE704AC
:103E50003D47238CE70413075003A38CE70403C7F3
:103E6000A7051377D70F238DE7048280371700400B
:103E70008347E70412054111BD8BC98F93F7F70FF4
:103E800093068008F3B6068093F6860836C60F10B0
:103E90000000930670052300D704930680FA2300E0
:103EA000D7040F1000002307F70423000704B247CC
:103EB000F3A707800F10000041018280B717004070
:103EC00003C7E7020D8941111377C70F498F930686
:103ED0008008F3B6068093F6860836C60F100000F9
:103EE000930670052380D704930680FA2380D704B5
:103EF0000F1000002387E70223800704B247F3A7CF
:103F000007800F1000004101828041112A8301487F
:103F1000930E407E130F0019930F4006B348030819
:103F200063EF1E0113030019337365028542FD43DD
:103F300063F6B2088D4F214F930E4006A1A07D136A
:103F4000336EE3039308E016630E0E00336EF30343
:103F50009308D01663080E009378330093B81800C6
:103F60009388D816C29833C808084DBF93F8150037
:103F7000138EF5FF637CBF02F908C29833C80808A6
:103F8000B3450E08E394F5FF8545630B0300B37852
:103F9000D5038145638608009375350093B51500F8
:103FA000F105C29533C805088945E9BFB3881341B7
:103FB000C29833C80808B3450E089DBF7D163298D5
:103FC00079463307C70213D61700BE0733480808DF
:103FD00032976146B3F6C60213068070B386C602F6
:103FE0003697A166F58F4207D98FB716004003C7F1
:103FF000F60213770708D883908303C7F602137776
:104000000708E316E6FE9883B71600404DCF130766
:10401000800873370780137787083AC40F100000B1
:1040200037170040930670052300D704930680FAE3
:104030002300D7040F100000232A07038346170329
:1040400093E60608A308D702230007042247732734
:1040500007800F1000001166371700407D16545B73
:104060004C5FAD8EF18EE5FE93068008F3B60680B8
:1040700093F6860836C60F100000930670052300DD
:10408000D704930680FA2300D7040F1000005CDBEE
:104090008347170393E70704A308F70223000704E5
:1040A000B247F3A707800F1000004101828003C7C9
:1040B000F60213770708D883908303C7F6021377B5
:1040C0000708E316E6FE98837DD391B755714EDF5E
:1040D00086C7A2C5A6C3CAC152DD56DB5AD95ED770
:1040E00062D566D36AD16ECFAA8982C0EF00B015BF
:1040F00093078008F3B7078093F78708BEC20F10B5
:104100000000B7170040130770052380E70413076A
:1041100080FA2380E7040F10000003C7F70213772B
:10412000770FA387E70203C7F70213678700A38708
:10413000E702238007049647F3A707800F100000CB
:10414000130B80C1334B65039167938707E8130A0C
:1041500030029546B347F502330A4B033EC8FD874C
:104160003ED2BD67938707A6334AFA021357FA4136
:104170003ACA330740413AD47D873ACC1307A0FBB3
:104180003307EB02B347F7020567130707FA3ECE82
:10419000FD873ED6938729003319F70063E4360183
:1041A0003319370161671307076A3345E5021307BF
:1041B0000010B317F0288D873EC495473309A90234
:1041C0003349E902130740063309E9021307D00710
:1041D0003349E9021357F9413AD8331730290D878B
:1041E0003AC663EF374993075047B307F7023D6775
:1041F000130707A6116C814A814B13048008371DF1
:104200000040930480FA7D1CB3876703B307F04036
:10421000B3C7E7023ED0FD873EDA733704801377D9
:104220008708BAC40F100000130770052300ED04BF
:10423000930D0D0423009D040F10000003473D055E
:104240001377870FA309ED0403473D051367170094
:10425000A309ED0423000D042647732707800F10E0
:104260000000930C70057337048013778708BAC673
:104270000F100000930770052380FD0023809D0030
:104280000F10000003473D0513670702A309ED0463
:1042900003570D051317E7282318ED0403570D05E1
:1042A0001317F7282318ED0423800D0036477327D2
:1042B00007800F10000003473D05137707026305D1
:1042C000073C03473D05218B6DDF880097C0FF1F2A
:1042D000E78000137337048013778708BACA0F107A
:1042E000000023809D0123809D000F1000000347E4
:1042F0003D051377F70DA309ED0403473D0513674B
:104300000702A309ED0403570D051317E728231827
:10431000ED0403570D051317F7282318ED04238028
:104320000D005647732707800F10000003473D0517
:10433000137707026301073803473D05218B6DFFA3
:1043400097C0FF1FE780A0F02A873ADC97C0FF1FC5
:10435000E780E0EF6257E30AE5FE03570D050645E7
:104360001317E7282318ED0497C0FF1FE780000B01
:1043700003473D05218B6DDF03570D0583462D0552
:10438000C24733778701B386860313D6F641BA96C0
:10439000B388F640925733B7E60032971D8FD24765
:1043A000B3B61601158F63C6E700631CF700637A86
:1043B0001A01E2476348F7326395E700A25763E3C7
:1043C000F832894663F276337337048013778708AF
:1043D000BAD00F100000130770052300ED0423006E
:1043E0009D040F10000003473D0593F6F90F137766
:1043F000870FA309ED0403473D05558FA309ED047D
:1044000023000D040657732707800F1000001306C2
:10441000700503473D051D8B6310373773370480E4
:1044200013778708BAD40F10000013077005230014
:10443000ED0423009D040F10000003473D05137792
:10444000F70DA309ED0403473D0513670702A30910
:10445000ED0403570D051317E7282318ED04035740
:104460000D051317F7282318ED0423000D04265714
:10447000732707800F1000009306700503473D0562
:10448000137707026304073203473D05218B6DDF75
:10449000880097C0FF1FE780A0F67337048013776A
:1044A0008708BAD80F100000130770052300ED0429
:1044B00023009D040F10000003473D051377F70DFF
:1044C000A309ED0403473D0513670702A309ED04A3
:1044D00003570D051317E7282318ED0403570D059F
:1044E0001317F7282318ED0423000D0446577327EC
:1044F00007800F1000009306700503473D051377F2
:1045000007026300072E03473D05218B6DFF97C00F
:10451000FF1FE780C0D3AA8C97C0FF1FE78020D37E
:10452000E30C95FF03570D0506451317E7282318DD
:10453000ED0497C0FF1FE78060EE03473D05218B28
:104540006DDF7337048013778708BADC0F10000023
:10455000130770052300ED0423009D040F100000D5
:1045600003473D051377F70DA309ED0423000D0460
:104570006657732707800F10000003570D05834609
:104580002D05C25733778701B386860313D6F641CC
:10459000BA9633B7E600329733882641B3B60601A0
:1045A0001D8F158F6346E0006318072663060826F3
:1045B0001305800C3307E5020256D256B3350503C6
:1045C00033050503BA95EFF0211E9306150033B5A8
:1045D000A6002E951357F501BA9633B7E6002A9731
:1045E0001316F70185820587D18E6346E000631FAD
:1045F000072C638D062C0356CD021582B305D60019
:1046000033B6C50032976348E000631007361307DE
:10461000F00F637CB734094763715727930780080D
:10462000F3B7078093F78708BEDE0F100000B717B7
:104630000040130770052380E704130780FA2380E6
:10464000E7040F100000DA3789668116558F33476B
:104650000708DAB723800704F657F3A707800F107F
:104660000000BE402E449E440E49FA596A5ADA5A56
:104670004A5BBA5B2A5C9A5C0A5DFA4D696182808A
:1046800022479307504795B67337048013778708FE
:10469000BAC80F10000023809D0123809D000F10D9
:1046A000000003473D0513670702A309ED042380BB
:1046B0000D004647EDBE7337048013778708BACCE8
:1046C0000F10000023809D0123809D000F1000002B
:1046D00003473D0513670702A309ED0423800D007E
:1046E000664789B1E3920BCE7246B2569315170016
:1046F00013D3F80113951800B365B3003ADE46DC16
:10470000EFF0810A7257850B93FBFB0F6346E000C5
:1047100031EFE258638C08049306150033B5A60008
:10472000AA9513D7F501BA9633B7E6002E9785827E
:104730007E07558FF336048093F68608B6CE0F10A9
:10474000000023809D0123809D000F1000008356F0
:10475000CD023697334707082316ED0223800D005C
:104760007647732707800F100000F5BC9306F5FF0E
:1047700013351500898D75B7733704801377870853
:10478000BAD20F1000002300CD0423009D040F10A7
:10479000000003473D05558FA309ED0423000D04D8
:1047A0001657732707800F100000A5B173370480D8
:1047B00013778708BAD60F1000002300DD0423000A
:1047C0009D040F10000003473D0513670702A3096E
:1047D000ED0423000D043657732707800F100000E7
:1047E00071B97337048013778708BADA0F100000A5
:1047F0002300DD0423009D040F10000003473D0546
:1048000013670702A309ED0423000D04565773270D
:1048100007800F100000D5B19305800C3387E502A7
:1048200033850503B3B50503BA951547637337059B
:10483000A247130750473387E70233066041330628
:10484000E6023D67130707A63346E6029356F64194
:10485000EFE091751306F5FF13351500898D13D719
:10486000F5013A963337E6002E979316F701058245
:104870009DBBB247130750477DBF130780087337AE
:104880000780137787083AC10F100000B716004061
:10489000130770052380E604130780FA2380E604DB
:1048A0000F100000DA36056601161377F70F518FE7
:1048B00033470708DAB6238006040A4773270780C0
:1048C0000F100000850A93FAFA0F81BA33E6E6006A
:1048D00049CE0356CD02B335D0003307E0400D8FEB
:1048E0003305D04015826345E00041E3637FA606AF
:1048F0000947637E570393078008F3B7078093F750
:1049000087083EC30F100000B7170040130770055B
:104910002380E704130780FA2380E7040F100000C8
:10492000DA377D8BDAB7238007049A473DB37337B4
:104930000480137787083AC50F100000130770052D
:104940002300ED0423009D040F1000000357CD0247
:10495000856681161377F70F558F3347070823169F
:10496000ED0223000D042A4791BF93078008F3B797
:10497000078093F787083EC70F100000B717004065
:10498000130770052380E704130780FA2380E704E8
:104990000F100000DA379606369733470708DAB764
:1049A00023800704BA4755B9914763ECB7049717BA
:1049B00002009387A785B3C5F52098413E97B717A6
:1049C00000409387470B0287944337170040B3F6A4
:1049D000A64094C39306070B9C42B3F7A74019A8BF
:1049E000944337170040B3F6A64094C39306070BD1
:1049F0009C42C98F9CC29307070A98433377A7400C
:104A000098C38280944337170040C98ED9B7984322
:104A10003377A74098C3B71700409387070A984396
:104A2000498FF9BF9843498FF5B719C5371700402B
:104A30001E2FCD8F1EAF8280B71700409A2FB375FF
:104A4000B7408EAF8280B71700409A279306000CBC
:104A50001377070C630AD7049A27137707100DC73B
:104A60009A279E277D8B09EB93F70720B1C3375513
:104A7000E80113050580828037C59812FD8B130568
:104A800005E03345F50282809A279E271377072099
:104A9000FD8B11C73755E80113050580DDB73725B4
:104AA000F40013050540F1BF2165130505D0828090
:104AB0003725F400130505408280B7F700E08847EA
:104AC00082803285814737370040A14663C3A70003
:104AD00082803037E30FD6FE3386F500102285073B
:104AE00010A7EDB797F6FF1F93864670AA878842F6
:104AF00017370020130707B7AA9763E9E7000A876B
:104B0000130707FC6364F7009CC282807D55828096
:104B1000411122C406C62A843D372947B307E5025E
:104B2000B2408D83B3D7870222449507B3D7E702FB
:104B300037370040B3C707085EA74101828071651F
:104B400041111305052006C6E137B73700401307AA
:104B500070F8B8A30D47B8B31307000498B305471E
:104B6000F8A7B24041018280B78700402380070048
:104B70001307C0FCD8A7D8B703A7419398CB03A7C6
:104B80000193D8CB03A7C19298CF03A78192D8CF26
:104B900089462381D70249472383E7022385E70219
:104BA0002387E7022389D702A38107001307900216
:104BB00098A3B7160040BA2E1367070CBAAE7D57FC
:104BC000F8A3130710F898B31D47B8A38280B787DE
:104BD00000402384A70203C7A7021377C70F2385CA
:104BE000E7028280797122D406D626D24AD04ECEF0
:104BF00052CC9C2513F4070259E483C805000948E8
:104C0000AE8463990807DC41AA89328903C807008A
:104C10009C33368AA207B3E707010D681308289072
:104C2000639707038547EF7000012A8415E103A706
:104C3000019411CF83471900834609004C00A20755
:104C4000D58FB337F00085073EC24E8502970144E9
:104C5000BA2497F7FF1F83D7071E631DF70083A7AA
:104C6000019489CB0D473AC2231641014AC44C0036
:104C70004E858297B2502285225492540259F249AD
:104C8000624A456182802144F5B7C167F917630C18
:104C9000F502411122C406C685472A84639AF500AD
:104CA00022852244B240938541B841016F80D018DB
:104CB00089476396F5008545EFA0100D75D1B24088
:104CC00022444101828082804111170502001305B0
:104CD000255522C426C24AC02E84368906C6B2840F
:104CE000EFF0A137142089476395F6025C409823C2
:104CF0009C33A207D98F0D6713072790639BE700AA
:104D00004C4409462310D900268597C0FF1FE78031
:104D1000A0D5B2402244924402490145410182801B
:104D2000411126C2AA844165938541B87D1506C606
:104D300022C4EF80701017050000130545F5EFA0A1
:104D4000C07B97F6FF1F9386A6084146994517F545
:104D5000FF1F1305A508EF8030042A8419C5170525
:104D600002001305A54CEFF0412FB24022852244EA
:104D700023A09194924441018280411122C42E8447
:104D8000938541B826C206C6AA84EF60D06505891E
:104D900019CD97F7FF1F83D707071EA0A2852244CE
:104DA000B24026859244014641016F701029B240FD
:104DB000224492444945410182803285D0414111CB
:104DC00006C60C32034806000D66A205B3E50501D0
:104DD0009308A6A21398556063C80803130626A279
:104DE0006358060375761306C65DB2951946B3C5BA
:104DF00005086363B602170802001308E844B3C548
:104E00000521904142960286130606A5630DC80E41
:104E100023900600A94515A01D469D45636FE60039
:104E20002146198E3356F60A9385419492A2BA957B
:104E300097C0FF1FE78040C38145B2402E854101E6
:104E400082802D469D45E36AE6FE3146198E335633
:104E5000F60A970502009385E54792A2C9BF31463D
:104E60009D45E36CE6FC3546198E3356F60A9705E8
:104E700002009385254592A25DBF41469D45E36EA4
:104E8000E6FA4546198E3356F60A970502009385D1
:104E9000254292A269BF41469D45E360E6FA454638
:104EA000198E3356F60A970502009385253F92A284
:104EB000BDBF41469D45E362E6F84546198E33562F
:104EC000F60A970502009385253C92A28DB74146CC
:104ED0009D45E364E6F64546198E3356F60A970576
:104EE00002009385253992A299B735469D45E36620
:104EF000E6F43946198E3356F60A97050200938573
:104F0000653692A22DB719469D45E368E6F2998D64
:104F100033D6F50A97F5FF1F9385C52D92A201BFE1
:104F200097F6FF1F938686F14146CD4517F5FF1F83
:104F3000130585F16F8040662D4825E73285902165
:104F40000947631DE604D841411106C610231833F2
:104F50002207518F4166130846FE63030703636C03
:104F6000E8007D07054633470708637BE60023908A
:104F70000600294805A01516E31BC7FE154711A01A
:104F80000547CC4533D6E70A92A297C0FF1FE780BA
:104F9000A0AD0148B24042854101828023900600C5
:104FA000054842858280011106CE22CC26CA4AC815
:104FB0004EC680251374040255E083C905000948D4
:104FC000AE87639F090903A84500B284368903436D
:104FD0000800034818002208336868004163130E74
:104FE00013FE6304C8030D13630E68048D67938773
:104FF000279029446310F8046244F240D2444249A5
:10500000B249854705616F60104329EF0547636D1D
:10501000D704C8470546A68597C0FF1FE780C0A4F0
:10502000814983A7819699C79C4389C74A86A685EB
:105030004E858297F24022856244D2444249B24969
:105040000561828005E305476360D702C8470546CE
:10505000A68597C0FF1FE78020A1E1B72144D9BFF3
:105060000544C9BF2D44F9B73544E9B7C167F917FD
:10507000630CF502411122C406C685472A84639A4F
:10508000F50022852244B2409385419541016F800D
:10509000A05A89476396F5008545EFA0E04E75D18B
:1050A000B2402244410182808280411122C42A847C
:1050B0004165938541957D1506C6EF80E05717053C
:1050C00000001305E5FA0588EFA0204305C022443F
:1050D000B24097F6FF1F938626EA4146C54517F56D
:1050E000FF1F130525EA41016F80004BB2402244A7
:1050F00001454101828009C523A4A1960145828012
:10510000454582801147636EA70697060200938685
:10511000661D3345D52018414111AE87369706C626
:10512000B285028705476145639AE7000546138506
:10513000419697C0FF1FE78020930145B24041018F
:10514000828005476145E39BE7FE0546138501968E
:10515000CDB705476145E393E7FE05461385C19545
:10516000C9BF05476145E39BE7FC0546138581956B
:10517000C9B715476145E393E7FC15461385C1940C
:105180004DBF09458280411122C42E8493854195EB
:1051900026C206C6AA84EF601025058919CD97F7A7
:1051A000FF1F83D7C7E91EA0A2852244B2402685EF
:1051B0009244014641016F704068B24022449244DB
:1051C00049454101828011456FE05FF0411193969E
:1051D0002500AA852D4506C697B0FF1FE7808046AB
:1051E000B240014541018280011122CC06CE371424
:1051F000004026CA4AC84EC652C483447405034AB6
:10520000B4058349840503499405EFE0FFC2834751
:10521000A40593F4F40F137AFA0F93E71700230D04
:10522000F40493F9F90F1379F90FB717004003C786
:10523000A705058B6DFF03D5C705A38D4705238CF7
:105240003705A38C2705A38B9704F2406244D24410
:105250004249B249224A05618280411122C406C6F0
:105260002E849397556063DF070097B0FF1FE78098
:10527000A07619C1EF10E02C1315F468B240224457
:105280004101828093F7150013C51500E5FB89677E
:10529000ED8F85C3EF7061613D3737F6020013066D
:1052A00006E0896503C50197EF1080501315D46897
:1052B000F1B711656D8D79D1170502001305C5038E
:1052C000EFE0B15913060064916503C50197EF1033
:1052D000204E1315E4685DB72D71232A9110FD74DB
:1052E000E98C232C811023282111232631112A84B3
:1052F000AE893289930600100A86A6852D45232E95
:10530000111097B0FF1FE780E03313154401498166
:1053100013962900CA850A9597B0FF1FE780C074CD
:10532000A68585660146254597B0FF1FE780803139
:105330000A86A68593060010294597B0FF1FE780CF
:1053400060308320C111032481118324411103297A
:1053500001118329C11015618280B7F70700DC5362
:10536000011106CE22CC26CABD8B21476399E700E6
:10537000A537F2406244D24401450561828093968C
:1053800025002A84B284AA850146254536C697B0F1
:10539000FF1FE780202BB2462686A285294597B0BD
:1053A000FF1FE780202AF1B71D71494697050200CB
:1053B0009385C5F4171502001305C59586CEA2CCBA
:1053C00097B0FF1FE780E07B01E917050200130596
:1053D00025F4EFE0914801A037F700E0232407000F
:1053E000F9571CCB0564B7E700E023A08710BD4642
:1053F00014C323A087180F10000017D7FF1F13072F
:10540000A79A23A6E196130700F8A38AE74013069C
:10541000C0038145480897B0FF1FE780606B97077E
:1054200000209387273E3ECA896793870780FC84C4
:105430009D673ECEB7070105938707103ED0ED4725
:105440002312F10285472303F10297070000938797
:1054500027D8BEC497070000938767F0BEC693079E
:1054600054D12314F10297F7FFFF938747653EDA83
:10547000B7F5070097070000938747D73EDE8146C0
:1054800097070000938767D47000E1051945BEC0F7
:1054900097B0FF1FE780001B19466C001305E1025F
:1054A000EFE03F97D24781C7BC8463F3870001A038
:1054B0004808EF10D005AA8501C917050200130599
:1054C00065E6EFE0B12501A0F640664425618280E3
:1054D000411117050000130585D806C622C4EF1038
:1054E00070001384019708A0112808202244B240BC
:1054F00013060032896541016F10802B397106DE79
:1055000013078008F337078093F787083EC20F1010
:105510000000B7170040930570052380B7041306F9
:1055200080FA2380C7040F10000083C6F70293F6A9
:10553000A60FA387D702238007049246F3A606800E
:105540000F10000073370780137787083AC40F10D5
:1055500000002380B7042380C7040F10000003C796
:10556000F70213672700A387E70223800704A247F7
:10557000F3A707800F1000000545EFE03F94A1312D
:10558000814701478146054685451305407EEFE08A
:10559000DF97680013064002814597B0FF1FE78040
:1055A0002053B707C0A83ECAB787E803938707D040
:1055B0003ECC97B7FF1F938707F83EC6680097B7A2
:1055C000FF1F9387C7F83EC8EF10F020F25021610B
:1055D000828010C90CC14CC10CC5232A0500B295AC
:1055E0004CC510CD23ACD196828001114EC6938953
:1055F000819783A7090022CC26CA4AC806CE2A84EE
:10560000AE84328999C3054582971C48054563E7F6
:10561000270758445C401D8F63692707338724019F
:105620006383E4045C4085049386170054C083C6FA
:10563000F4FF94A3F5B750408506930516004CC0BF
:105640009C231CA2B387D400E397E6FE1840CA94BB
:1056500058C0584085079306170054C083C6F7FF0B
:1056600014A3E398F4FE1C48B38727411CC85C4888
:10567000CA975CC883A7090099EB0145F2406244D0
:10568000D2444249B24905618280814665BF0145E5
:105690008297E5B701114EC69389819783A70900C8
:1056A00022CC26CA4AC806CE2A84AE84328999C33F
:1056B000054582975C48054563E7270758441C4425
:1056C0001D8F63692707338724016383E4041C4427
:1056D00085049386170014C49C23A38FF4FEF5B7AA
:1056E00010448506930516000CC4102290A3B387BE
:1056F000D400E397E6FE1840CA9418C418448507FE
:105700009306170014C41823A38FE7FEE398F4FE52
:105710001C48CA971CC85C48B38727415CC883A74C
:10572000090099EB0145F2406244D2444249B24932
:1057300005618280814665BF01458297E5B7011109
:105740004EC69389819783A7090022CC26CA4AC8EE
:1057500006CEAA842E89328499C305458297DC48F7
:10576000054563EC87049444DC44958F63EE87041D
:1057700081473387F600638E870210233307F900D1
:10578000850710A3FDB70C223306E90005070CA21C
:105790003386E600E319F7FE8C401D8C0147B38683
:1057A000E5009022B386E700CA9690A20507E318A9
:1057B00087FE83A7090099EB0145F2406244D24479
:1057C0004249B249056182800147D9B701458297B4
:1057D000E5B741114AC0138981978327090022C484
:1057E00026C206C62A84AE8499C3054582975C48C2
:1057F000054563E797021C4458441D8FA6976376BE
:1058000097001C403387E440BA971CC41C48A697F5
:105810001CC85C48858F5CC88327090081EB014563
:10582000B24022449244024941018280014582975C
:10583000FDB7938741D123AAF192938741C923A849
:10584000F192938741C1411123A6F192938741B907
:1058500006C623A4F192EFF02FB1B240B7E700E003
:105860003707400023A0E71041018280B78700403E
:1058700083C7A7028D8BB1C31385015E58494111BF
:1058800083A5C19206C622C493070002938505042E
:1058900063FEE70013060002F53B13050002EFF07C
:1058A0000FB3B24022440145410182804049137642
:1058B000F40FCD331375F40FDDB705458280411128
:1058C0002A8683A5C192170500201305E5F106C6B7
:1058D000293B19C5170502001305C5A6EFE0E177BE
:1058E000B24003C5F1821306000293050002410194
:1058F0006F00106C011122CC06CE26CA4AC84EC6D3
:1059000052C4378400407C2013F7F70F898B6382E1
:1059100007407C301307000393F707036383E70610
:105920007C30914693F7F70363E3F604FD1793F792
:10593000F70F0D47636AF71217070200130787A1D5
:10594000B3C7E7209C43BA9782879387F7FD93F705
:10595000F70F0D476360F70A17070200130787A0C8
:10596000B3C7E7209C43BA973787004082871387E5
:1059700007FE1377F70FE3FAE6FCB7870040094705
:10598000F8A3378700407C339397476063D507249B
:10599000930720FC2301F702138641930842938466
:1059A000019874317C21A206DD8E96A018312381E6
:1059B000E1988349050093F7090663840718930764
:1059C000000C6396F92A9307F005631DF71293877D
:1059D000418D23AEF196930710031CA1A30005008F
:1059E0009E201307000433D7E70A998F9376F70FA9
:1059F0009EA059A483C721981547638BE7041947D4
:105A00006391E706938901981389C19783D40900AC
:105A10008325090093070004B3D4F40A03A5419336
:105A20002686EFE00FBF83D7090013FAF40F858FA6
:105A30002390F90083270900A6972320F90023006B
:105A400044038347240293C707042301F40235B7B4
:105A50003C3003C7019893F70708D98F3CB08947BA
:105A6000EDB723000402E5BF1C2401BF8347670292
:105A700093F7C70F93E727002303F702FDBD37878E
:105A800000407C3393F70704E38907EE0827053DC0
:105A9000EDB58347A70293F7C70F93E727002305C8
:105AA000F702E1BD378700407C3393F70704E386B4
:105AB00007EC1C27D9B58347E70293F7C70F93E795
:105AC00027002307F70255BDB7870040F833137747
:105AD0000704E30407EA03C72703134707082389DA
