:040000006F00D018A5
:100004000000000000000000A0000020F604002012
:10001400A9BDF9F3A00000200000000000000000CA
:10002400A0000020A000002000000000000000004C
:10003400A000002000000000A0000020000000003C
:1000440004020020A0000020A0000020A000002046
:10005400A0000020A0000020A0000020000000005C
:10006400A0000020A0000020A0000020A00000208C
:10007400A0000020A0000020A0000020A00000207C
:10008400A0000020A0000020A0000020A00000206C
:10009400A0000020A0000020A0000020A00000205C
:1000A40001A0B7170040984B41111367070198CB83
:1000B40003C707011377E70F2388E70013078008B6
:1000C40073370780137787083AC60F1000001307A9
:1000D40070052380E704130780FA2380E7040F10D8
:1000E4000000B847B70600069506558FB8C703C782
:1000F400B7041377F70DA385E70403C7A7001367B5
:1001040027012385E700130750142394E7003727BA
:1001140000408346578093F6F60EA302D7808946A3
:10012400A303D78003C7E7041377C70F1367170028
:100134002387E70403C7F70213672700A387E702AF
:1001440003C70701136717002388E7002380070408
:10015400B247F3A707800F10000041018280EFF03F
:100164005FF413058020970500009385E5091716B1
:1001740000001306A68163FAC5008322050023A0AC
:10018400550011059105E3EAC5FE174500E0130586
:10019400659E970500009385657F1386818263FAC7
:1001A400C5008322050023A0550011059105E3EA4B
:1001B400C5FE13858182938581A46377B5002320CE
:1001C40005001105E36DB5FE93025002739002BC65
:1001D4008D42739042808542739012BC93028008D2
:1001E40073900230970200009382C2E193E23200DE
:1001F40073905230971200E0938262C57390123468
:040204007300203033
:100208003727004083476700858B89CF85472303BD
:10021800F700238FF18283C7918289C7971000E086
:10022800E780808B730020309387C184984309C787
:100238009C43829723A6018473002030B71700409F
:10024800984B41111367070198CB03C70701137730
:10025800E70F2388E70013078008733707801377B1
:1002680087083AC60F100000130770052380E704BB
:10027800130780FA2380E7040F1000001307000C0F
:100288006319E50203D787001367070C2394E70077
:10029800B717004003C70701136717002388E70053
:1002A80023800704B247F3A707800F10000041011D
:1002B800828003C7A70093760520C9C2118B39E74E
:1002C80003C7E70403C6E7041377F70F136636007E
:1002D8002387C70403C6A700136646002385C70003
:1002E80003D6870083D58700420693E5050C23943F
:1002F800B7004182A5470100FD1793F7F70FE5FF07
:10030800B71700402394C7002387E70493770510A5
:10031800DDCB371700408347A70093E70701230584
:10032800F7009377F50185E3B727004003C75780A7
:1003380013670701A382E7801D4715A013672700ED
:100348002385E700E1B72547636BF704B72700402B
:1003580003C757801377F70EA382E7800547420546
:100368004181A383E780B71700401367050C2394E6
:10037800E7002394A700C9C203C7570483C65704DC
:10038800418B858A558F09F703C72701418B09D30C
:1003980003C7A7001377D70F2385E700D5BD937749
:1003A800050199EBB727004003C757801377F70E6D
:1003B800A382E780094765B7B727004003C757807E
:1003C8001377F70E85BF9377850181EFB727004034
:1003D80003C757801377F70EA382E780130710052A
:1003E800BDBFB727004003C757801377F70EA38216
:1003F800E78013077005A5B703C7A7001377B70FE2
:1004080061BF37E700E01C4354437D56A183E206F1
:10041800D58F9306071890C2D0C21706000013069E
:10042800E6E0970600009386A6BD8C5E90DE23A6C4
:10043800A18411661305071010C11307072013883C
:10044800C18410C30327080075FF37E700E0116671
:100458002320C7180F1000008CDE939687002320F6
:10046800D710E1832322F7108280011181460146CB
:100478008145114506CEDD2A93078008F3B707802A
:1004880093F787083EC60F100000B7170040130700
:1004980070052380E704130780FA2380E7040F1010
:1004A800000003C76704136717002383E70423804A
:1004B8000704B247F3A707800F100000F240056158
:1004C800828037E700E01C435443A183E206D58FBE
:1004D8001CC1FD572320F7182322F7188280131711
:1004E8008500B7E700E023A0E710618123A2A710E9
:1004F800828041118146014681451145852A1307AD
:100508008008F337078093F787083EC40F10000070
:10051800B7170040130670052380C704930680FAB6
:100528002380D7040F100000FD552396B7022380BF
:100538000704A245F3A505800F1000007337078054
:10054800137787083AC60F1000002380C70423805A
:10055800D7040F10000003C767041367170023832D
:10056800E70423800704B247F3A707800F100000B1
:1005780001A09307E0043305F50295473355F502CA
:1005880001007D1575FD8280411122C406C62A84AA
:100598007D1442041305803E4180E13F75F8B24066
:1005A8002244410182802E96AA870F70B6788280F5
:1005B8002303048015472303E48001002302A48059
:1005C800828083076480E3CE07FE23030480828051
:1005D80083076480E3CE07FE034544808280830757
:1005E8006480E3CE07FE2302A4808280411126C4E2
:1005F8004AC24EC006C61377F50BAD47AA892E89A5
:1006080095446306F70019456537653F8D444E8567
:100618004537FD59FD1463983401B240A24412498C
:10062800824941018280135509011375F50F453F31
:100638002209CDB7011126CC06CEB70408005137E0
:100648001545BD37713769372AC6A53F32459377B7
:10065800150089EB136515001375F50FF240E24498
:1006680005618280FD14E9FC0145CDBF3971B7F7FA
:10067800070006DE26DC4ADA4ED852D656D45AD2BD
:100688005ED062CE03AB47027D57B7E700E083AA8E
:10069800070022C603AA470023A0E71823A2E718E9
:1006A800B71B0040930770052380FB04930780FA6B
:1006B8002380FB0483C74B041147AA8993E7070EDD
:1006C8002382FB04372400401305F00F2303E48042
:1006D8002E8C3289B684E93DED35938779FF93F7FF
:1006E800F70F0947137BFB006362F712A14737072F
:1006F80008006307FB00B70707003E9C3787070021
:100708007955637EEC02B3878401636AF702A947CF
:100718006398F90689E481446D3526850DA0E28544
:100728000945E93505090345F9FFFD14050C453D63
:1007380081C49377FC0FFDF7F53D69FD7D55B7172B
:100748000040130770052380E704130780FA23800D
:10075800E70403C74704418B2382E704F250B7E755
:1007680000E023A0571123A24711E2543244525902
:10077800C259325AA25A125B825B724C2161828042
:10078800A547639AF906A1478569631DFB0293870C
:10079800F9FFB3869700B374FC00B69493C7F7FFCC
:1007A800FD8C33FC8701416B856B9387F9FFB3F7A9
:1007B800870199E363FF340193D94900C147E3E610
:1007C80037FF91BF9307F00FE9B78567C169FD1738
:1007D800C9B71305800D6388690113050002638496
:1007E800790113051008E2851135A93521D94E9CE8
:1007F800B3843441C1B7E2852D45CD3BCA94E30C9F
:1008080099F00509F133A30FA9FED5BF9387F9FF26
:1008180093F7F70F636FF70AA1476319FB06B7074A
:1008280008003E9C83C75B043707070093F707025D
:1008380099E337870700B70708003E977955E370B3
:10084800ECF0B3079C00E36CF7EE8947639AF90470
:100858008980D549E38104ECE2850945413B1109CA
:100868000327C9FF91472320E48003076480E34EF0
:1008780007FE23033481FD17EDFBFD14110C81C421
:100888009377FC0FE9FF7D3371F54DBD83C75B049A
:100898003707070093F70702D5F33787070079BFB3
:1008A8008547E384F9F2E2852D4589339389F4FF7E
:1008B800E38304E6313B93F7390091EB8326048008
:1008C8000327090093074900E398E6E43E89CE84AC
:1008D800F1BFB5476396F9001305900BD13925BDD3
:1008E800B1471305B00AE38BF9FE99476394F904FD
:1008F800A1476315FB00B70708003E9CE2852D451C
:10090800F53181440D4BA149E13163966401832798
:1009180004802320F9008504E39834FF83270480AA
:1009280013172C01635507002312F900EDB3232296
:10093800F900D5B39D476399F90281451305B004C1
:100948007531BD442320090023220900FD5949318E
:1009580093F77400CA9703C70700FD14398D2380E5
:10096800A700E39634FF45BB91476399F900130547
:1009780060063D39B931130590098DB7E38D09D863
:04098800F15459BB12
:10098C00971100209381418917F101201301C16651
:10099C001305400097F5FF1F938505661706002089
:1009AC001306C68563FAC5008322050023A05500F3
:1009BC0011059105E3EAC5FE17F5FF1F1305A5798F
:1009CC0002852A8309CA83830500230073007D16E0
:1009DC00050385056DFA82802A8311C62300B300B6
:1009EC007D16050365FE8280B71700401387870DBF
:1009FC00896614C3B706020014C3B706080014C3F3
:100A0C00B706200014C39387C70C3707100098C390
:100A1C003707040098C3416798C3056798C3130749
:100A2C00001098C38280411106C67D3FB2408547B5
:100A3C00A384F18241018280411106C6938701870C
:100A4C001387018C23900700238107009107E39BF8
:100A5C00E7FE37353F008D4513050510EF00F038E4
:100A6C00B2404101C9B70A0593870187AA97B335EC
:100A7C00B0002381B70082800A0593870187AA976B
:100A8C0003C52700828089476305F50263EAA70046
:100A9C0001EDB717004009679DC523ACE70C8280B8
:100AAC008D47630DF5008280B717004037070200B1
:100ABC00E5B7B717004037070800F9BFB717004074
:100ACC0037072000D1BF23A6E70C828013878182D1
:100ADC00834707008DEBB71700409387870DB70648
:100AEC00100094C3B706040094C3C16694C3856612
:100AFC0094C39306001094C39707002083C7C7F1D3
:100B0C002300F7008280011122CC1384F7FF4AC81E
:100B1C001319240026CA4EC652C406CE1379F90FF7
:100B2C00939427008149138A018713F5F90FB307B2
:100B3C00250193F7F70F63C897021374F40F9147CD
:100B4C0063E28704973700009387C7CB0A043E946F
:100B5C00144017070020130727ECBE96B717004068
:100B6C009387C70C82868A07D29783C5270085098D
:100B7C00193F65BFB706100094C3238401828947CF
:100B8C002300F700F2406244D2444249B249224A5F
:100B9C0005618280B706040094C3238401828D47CB
:100BAC00C5B7C16694C3238401829147D1BF8566C2
:100BBC0094C3238401829547E1B79306001094C334
:100BCC002384018285476DBF411106C6B5351705D3
:100BDC0000201305E5DA652C03D501841345F5FFD8
:100BEC0042054181EF00D0533D651305053CEF00F4
:100BFC007036372700408347270017350000130550
:100C0C00A5C193E717002301F700B240B7E700E056
:100C1C00416723A0E71041016F10F0200111C1675B
:100C2C0006CE22CC26CA4AC84EC6FD17630DF50463
:100C3C00D147AA841304C5FE63E6A7001304450636
:100C4C00420441803344F40205499D490504137460
:100C5C00F40F631724038545228505091379F90FD1
:100C6C001935E31839FF6244F2404249B249A6856E
:100C7C00D244173500001305A5BB05616F10007831
:100C8C0081454A85D9BF05449D442285050481458B
:100C9C001374F40FC93BE31A94FEF2406244D2443D
:100CAC004249B249056182804111C16706C622C41E
:100CBC0026C24AC0FD176305F504A947130465FF56
:100CCC0063E6A7001304E506420441803344F402B2
:100CDC00A144514921041374F40F63109402854507
:100CEC002285850493F4F40FBD3BE39824FFB240B6
:100CFC002244924402494101828081452685D5B720
:100D0C002144D1442285050481451374F40FA13B81
:100D1C00E31A94FEE9BF411106C622C483C7E183DE
:100D2C008DC3238F018239211387C182835707001A
:100D3C009306401F8507C207C1836386D702231021
:100D4C00F700C9267D151375F50F95471384A182FD
:100D5C0063ECA702173700001307C7AD0A053A95D5
:100D6C001C41BA97828723960182EF006074D1BF31
:100D7C0083470400014593E717002300F400ED3985
:100D8C00933515000145C53183470400A98B85E3D4
:100D9C00EF00100083460400C167FD1713F7B60F70
:100DAC006304F50013E746002300E400F53D834798
:100DBC000400998BA5E3EF00007D83460400C16716
:100DCC00FD1713F7760F6304F50013E78600230075
:100DDC00E4002244B240410191B58347040013F76B
:100DEC00C7005DF393E727001D452300F40069312C
:100DFC00933515001D4541BF834704008145F99B80
:100E0C002300F40041B7834704008145F59B230080
:100E1C00F400CDB7B240224441018280411106C694
:100E2C00B71700401307000823ACE70C8D451305DA
:100E3C000008EF00807BB24041016F00F0154111BA
:100E4C00114506C6EF0060751305503497F0FF1F6F
:100E5C00E780803EE137173500001305259FEF1022
:100E6C00807C9D334D3DFDBF1387418D8347170417
:100E7C00B306F70085072380A60093F7F70F9306B8
:100E8C00F00363F3F6008147A300F70482807571C9
:100E9C0006C722C526C34AC1CEDED2DCB717004036
:100EAC00D6DADAD8DED6E2D4E6D2EAD0EECE130722
:100EBC003002A38CE70403C7A7052A8A01441377E1
:100ECC00D70C238DE70403C7A705173900001309B6
:100EDC00A9AEB94913670703238DE7040D47A38B0C
:100EEC00E70403C77705A14413674700A38BE70406
:100EFC00EF00F07E9387018483D50700173500003F
:100F0C001305C59593E5F50F2390B700EF10004F2F
:100F1C00B7070103A1073EDE9147BEC085679387E3
:100F2C0087BB51466C18BEC4080893878191BEC616
:100F3C0082C2413C0808EF005009AA851735000011
:100F4C0013058592EF10804BB305340339460A859F
:100F5C000504CA95BD340A85EF00900DE31694FE86
:100F6C00973A0000938A4AA57D79D6848149014439
:100F7C0013098944930B0032214B83D5240003D6EB
:100F8C00440003C514009306803EEF108008B3079D
:100F9C002501C207C183AA8563EDFB042285EF00FE
:100FAC00301605041374F40FB904E31864FD63944C
:100FBC000904EF00F07583260A0023A24185239AC9
:100FCC00019003C686000147A94505459377F70FA5
:100FDC0063ECC710BA402A449A440A49F659665A37
:100FEC00D65A465BB65B265C965C065DF64D49614F
:100FFC00828085497DB78569173500001305058802
:10100C007D7B938C79EDEF1000620149014C130B41
:10101C007B44938989ED937BF90F8144130DE03167
:10102C00930D000203C51A009306803E0D46A6855B
:10103C00EF00307E2A8485EC63F0A902AA854A86EB
:10104C001735000013058587EF10403B0509A147B4
:10105C00B90AE312F9FCB1BFB3076501C207C1833A
:10106C00637DFD00630035058544228C65BFB307A5
:10107C006501C207C1836365FD02A2855E85EF0031
:10108C0030080D46A6855E85EF00300CA2862686BC
:10109C00CA851735000013052586EF1020367DB75D
:1010AC0063F6AC02E2855E85EF0090059385F4FF54
:1010BC00C2050D46C1815E85EF003009A2862686E9
:1010CC00CA85173500001305A585C1BF8504C20468
:1010DC00C180E39CB4F9CA851735000013058588D7
:1010EC00EF10C031228C9DB73308B702DC420507E4
:1010FC00C2972380A7002392070023930700238421
:10110C000700E9B51387418D83470704834617040D
:10111C0001456380F602B306F700850703C5060098
:10112C0093F7F70F9306F00363F3F6008147230060
:10113C00F7048280797106D626D252CC56CA5AC888
:10114C0022D44AD04ECE5EC662C4EF00B063EF002C
:10115C00307F138B8184938441842310AB00EF0088
:10116C00305B03AA0400832A0A0063990A0E8329C0
:10117C008A00639A090E41667D1697070020239F0B
:10118C00C7889C4003A947006313092041667D165C
:10119C00B2502254970700202391C78892540259C9
:1011AC00F249624AD24A424BB24B224C4561828090
:1011BC000347740011CB83478400850793F7F70F1F
:1011CC0063FDE7062304F40085090D0993F9F90F73
:1011DC001379F90F83C78A00E3FBF9F8B387790316
:1011EC0003270A00404303A70A004E970347070052
:1011FC003E9483570B0083466400B3D7E740858B3E
:10120C00A9C389E6230384014A85B93903574400ED
:10121C0045DF83572400E3FDE7F88507C207C18348
:10122C002311F400E312F7FA89471305290023036D
:10123C00F4001375F50F0D3941BF230404004A85E2
:10124C00DDBF81CA13051900230304001375F50FC4
:10125C0021392311040023040400BDB70549814939
:10126C00A94B054C85BF03C94900894783DA69003E
:10127C0003A4C900014AE3F027F183C74900636660
:10128C00FA0A1306F9FF81478145850713F7F70F13
:10129C009317170093961500A297A29603D50700F3
:1012AC0083D60600BA8763F3A600BA85E34FC7FC62
:1012BC00C1ED93171900A2970356040083D7E7FFDB
:1012CC0003552400B306F640C206C1823307A6407C
:1012DC002A96B297C2074207C1834183E3FDFAE81D
:1012EC0003D6A90003D58900368833492603330772
:1012FC00A702B307250391E20548420813580801D9
:10130C00334707033A9542054181B3C7A702B3851A
:10131C002503AE97C207C183E38107E613071600C6
:10132C000546E34CF7E43E8689BD83A70900131BF1
:10133C001A00229BD29703C50700050A137AFA0FED
:10134C002D252310AB0015BF6313B602931719009C
:10135C00F917A29703D6070003D5E7FF83570400BC
:10136C00B306A640C206C1823307F64095B79397E1
:10137C0015003E94835704000356E4FF03552400E4
:10138C00B386C740C206C1823387A74091B7834456
:10139C0049008947835969000324C900E3F897DEA3
:1013AC00014A83270900D29703C507007D2B9317A9
:1013BC001A00A297050A2390A7009377FA0FE3E28D
:1013CC0097FE1386F4FF81478145850713F7F70FC6
:1013DC009317170093961500A297A29603D50700B2
:1013EC0083D60600BA8763F3A600BA85E34FC7FC21
:1013FC00ADED93971400A2970356040083D7E7FF33
:10140C0003552400B306F640C206C1823307A6403A
:10141C002A96B297C2074207C1834183E3F8F9D6F3
:10142C000356A900035589003688B3449602330746
:10143C00A702B307950291E2054842081358080128
:10144C00334707033A9542054181B3C7A702B385D9
:10145C009502AE97C207C183E38C07D2130716001F
:10146C000546E347F7D23E8625B36393C5029397AF
:10147C001400F917A29703D6070003D5E7FF83578B
:10148C000400B306A640C206C1823307F64049B732
:10149C00939715003E94835704000356E4FF0355BD
:1014AC002400B386C740C206C1823387A7408DB7DC
:1014BC00797122D40A8426D24AD04ECE06D652CC8A
:1014CC0002C002C202C402C622898144A1492685F7
:1014DC00692985042310A90093F4F40F0909E398F2
:1014EC0034FF93090401A284172900001309094C45
:1014FC00839504004A858904EF005070E39A34FF09
:10150C002945EF00507322898144214A26850921FF
:10151C0085042310A90093F4F40F0909E39844FF00
:10152C0097240000938484488315040026850904BD
:10153C00EF00D06CE31A34FF2945EF00D06F014463
:10154C001729000013098946A14422852D29050479
:10155C00AA851374F40F4A85EF00506AE31794FEC2
:10156C001725000013050545EF10E00B2254B2506F
:10157C0092540259F249624A17250000130585431B
:10158C0045616F10400A17F5FF1F0355054982800E
:10159C0017F5FF1F03558548828037170040834796
:1015AC00E70412054111BD8BC98F93F7F70F930612
:1015BC008008F3B6068093F6860836C60F10000036
:1015CC00930670052300D704930680FA2300D704F2
:1015DC000F1000002307F70423000704B247F3A7FA
:1015EC0007800F10000041018280914763EAB70821
:1015FC0097270000938747438A05BE9598413E97ED
:10160C00B71700409387470D028794431345F5FFA6
:10161C0037170040E98E94C39306070D9C42E98F5F
:10162C009CC29307070C9843798D88C382809043A2
:10163C009346F5FF37170040758E90C31306070DC0
:10164C001C42C98F1CC29307070C9843F98E94C394
:10165C008280944337170040C98E94C39306070DBC
:10166C009C421345F5FF65BF94431347F5FF758FF7
:10167C0098C3B71700409387070C9843498F98C3BA
:10168C0082809843498FEDB7B717004003D7870086
:10169C009306000C1377070C630FD70403D787004E
:1016AC00137707101DC703D7870083D787007D8B5F
:1016BC0009EB93F70720A1C73755E80113050580FF
:1016CC00828037C59812FD8B130505E03345F50272
:1016DC00828003D7870083D7870013770720FD8B81
:1016EC0011C73755E80113050580CDB73725F40030
:1016FC0013050540E1BF2165130505D08280372510
:10170C00F40013050540828032858147373700404D
:10171C00A14663C3A70082800346B700E30ED6FE42
:10172C003386F5000346060085072304C700D5B7AA
:10173C0093868180AA878842138781A4AA9763E93C
:10174C00E7000A87130707FC6364F7009CC28280DA
:10175C007D558280B7270040C8C709472380E70022
:10176C0011472380E7008280411122C406C62A84D7
:10177C00213F2947B307E502B2408D83B3D78702D7
:10178C0022449507B3D7E70237370040C207C1831D
:10179C002316F70041018280716541111305052064
:1017AC0006C6D937B7370040130770F82381E70016
:1017BC000D47A381E70013070004A380E70005474A
:1017CC002387E700B2404101828034310C3113870A
:1017DC0001A274AFA300B7024C455021AA870CC7D5
:1017EC006C314CBF0C250CA30C350CB34C312CB309
:1017FC006C214CA32C2109452300B702C14563E49D
:10180C00C50070BF014590239C4B50AF238101A4B0
:10181C00239C01A223A601A2239B01A2A38101A4C4
:10182C0023A8F18423A801A2239201A474AF82807F
:10183C001421056703C8C1A36E211225938701A249
:10184C00791763F80601636CB7006362B602014551
:10185C0021A809456366B7006378B600828001450C
:10186C0013654500636DB608136585008280714869
:10187C00338806038348150003A70185172300004E
:10188C001303C31B33C3682003230300B316D028F0
:10189C00429713E808F82300070103A807013368EF
:1018AC00680023A8070103D84702331818293348C6
:1018BC0008082392070303582500A30407006EA30E
:1018CC0023110701035845002328070023120701A1
:1018DC00EC3F3316B60050CBEC3F32253316B60036
:1018EC0010CF582501CBBA2F558F33470708BAAF05
:1018FC0001458280BA2FB376D740B6AFD5BF828070
:10190C0071473305E50283A70185AA97EEA3828070
:10191C0071473305E50283A70185AA97EA238280E4
:10192C002A87814781464146B355F74899C193F6BA
:10193C00F70F8507E39AC7FE83C7C1A3054563F577
:10194C00F600239DE1A20145828083C7C1A3637C7D
:10195C00F500F1473305F50283A70185AA97AEA3DD
:10196C00D2A30145828005458280F1463305D5021C
:10197C0083A7018503C7F1A3AA97884B3355E5408C
:10198C0033450508828071473305E50283A701853D
:10199C00AA97CA27828003C531A479153335A000D4
:1019AC00828001007D153345050865FD8280938793
:1019BC0001A2D84745EB984755C7D83F01E7D83F18
:1019CC00598D4DE183C5270203C62702F146B38525
:1019DC00D50203A701853306D602BA95CE253A96D1
:1019EC0072226373B606902321CA882383C527020B
:1019FC0003C62702B385D5023306D602BA95CE2587
:101A0C003A9672223386C540635CC500902383C727
:101A1C002702B387D702BA97FA233297FAA38280A8
:101A2C0003C6270283C72702B387D702B306D602A1
:101A3C00BA9736975A27DDB783C72702B387D702E1
:101A4C00BA97FA230507D9BFF22B11EE03C627026A
:101A5C00B306D60236977623FD1676A39833137702
:101A6C00F70FFAAB8280FA2B7D1733470708D5BFE7
:101A7C0003C721A4714833070703938601859C4251
:101A8C00411122C406C6138401A23E970307070026
:101A9C006358074203472402834534023307070384
:101AAC003E97102305471376F6076390E50A8347A4
:101ABC0004029DEBB71700409385070B184888412B
:101ACC003377E54098C19385470B184888413377A5
:101ADC00E54098C19385070A084898419387C70A3F
:101AEC00498F98C1184898C3371700409305070AC7
:101AFC0097270000938787F48841B347F6209C43CF
:101B0C00B377F5409CC1230CC704834724020346DA
:101B1C002402F145B387B70294423306B602B69756
:101B2C00DE239607B296B622FD8AD58F93F7F70F70
:101B3C00230AF7048547230BF7048947A301F40212
:101B4C000A2CB24022444101828083463402094768
:101B5C00E398E6FEB716004083C566058589EDF16E
:101B6C0003D7C6050345240297280000938808ED87
:101B7C0052073305050351833346162110423E9517
:101B8C005AA51385060A032805009386C60A3368EE
:101B9C00C8002320050190C2034804026319080001
:101BAC0003280500336806012320050190C2034673
:101BBC002402F1463306D6023E9672226378E6166C
:101BCC00034624023306D6023E966A2203462402BA
:101BDC003306D6023E96034896001306900F636AAE
:101BEC00060103462402B306D602BE9690360506BD
:101BFC0090B6834624027146B386C602BE9603880D
:101C0C0086009306C00763DA0611098F0345240288
:101C1C008348F4018346240271463305C502B3861A
:101C2C00C6023E950328050133581841BE96884AD2
:101C3C003305054188CA83462402B386C602BE9684
:101C4C00884A2A9798CA0547A301E402742C0947CD
:101C5C006398E6028346240203472402B386C60235
:101C6C003307C702BE96944A3E97584B6377D712F8
:101C7C00834624025A283317D728334707085AA813
:101C8C00584429EB184439C7583C11EB583C39E3FC
:101C9C001A2C834624023357D740058B05EF834615
:101CAC0024027147B386E602BE960386860093062D
:101CBC00200363DAC60E83462402B386E602BE9680
:101CCC00F2220506F2A2834624023387E6023E97EF
:101CDC00230407000347240205071377F70F23019A
:101CEC00E40283462402582C63F2E6149386C180E6
:101CFC009C42374703001307D73FB387E70237A748
:101D0C002600130737ECBA978607C5839CC293F756
:101D1C00F70F3CA02820713125B583462402B386E9
:101D2C00C602BE969026050690A6C5B503462402AB
:101D3C003306D6023E966A22034624023306D602A6
:101D4C003E96034896000546637106050346240239
:101D5C00B306D602BE969036791690B68346240208
:101D6C007146B386C602BE9603888600930640F879
:101D7C00634AD80083462402B386C602BE969026D8
:101D8C007D1690A63307E54051B503462402B306F1
:101D9C00D602BE96A3840600D1B7834624025A28E5
:101DAC003317D748E9BD83462402B386E602BE96B4
:101DBC00038686009306E0FCE35ED6F0834624029D
:101DCC00B386E602BE96F2227D16EDBDB306A702DF
:101DDC00BE96B22619C27D16B2A605071377F70F69
:101DEC00542CE365D7FE5A2855EB239C01A271466F
:101DFC001305201213085009582C63FDE500338796
:101E0C00C5023E9736273317B028637FD508334772
:101E1C0007081AAC5C4485075CC4238101A45844B0
:101E2C001C44E365F7EC23A601A2C9B50147714533
:101E3C0045BF330816033E9803280801636E070557
:101E4C003375A80A3A882A8705063A851376F60F61
:101E5C0042870348C401E36E06FD3030631FD60091
:101E6C0050200348F401331606016378E600502035
:101E7C000348F40133160601118F0583E377E5F669
:101E8C007147B386E6021306B012BE96BA26E36E0D
:101E9C00E6F40907BAA691BFB2867DB78146014622
:101EAC0001450147F14875B7835884016396E800F2
:101EBC006364D800239C01A2850593F5F50F2DBF13
:101ECC0083472402850793F7F70F2301F402034796
:101EDC0024025C2CE366F7C6238101A495B1371765
:101EEC000040744B9387819F94C3344FD4C33453B5
:101EFC0094C77453D4C7345794CB7457D4CB345B36
:101F0C0094CF745BD4CF345F94D3785FD8D3828072
:101F1C00411106C603C7E1A389476302F706B71749
:101F2C000040B44FF04B1387819FB70533FF10C3AC
:101F3C00B04FFD156D8E50C3B05310C7F05350C742
:101F4C00B05710CBF05750CBB05B10CFF05B50CFED
:101F5C00B05F10D3F05F50D33707CD00758F83A6D9
:101F6C004185558FB8CF03C777051377E70FA38B40
:101F7C00E704B240A38101A441018280D53C213CFD
:101F8C0075DD71BFB7170040B44FB84F370633FF3C
:101F9C007D16718F23AAE1843707CD00F98E138744
:101FAC00819F5043D18EB4CF1447B4D35447F4D34C
:101FBC00144BB4D7544BF4D7144FB4DB544FF4DB5D
:101FCC001453B4DF5453F4DF1843F8CB8547A38183
:101FDC00F1A4828096057D89C98DB717004093F5D1
:101FEC00F50F238AB7040547238BE704B716004087
:101FFC009307F00F03C76605058B09C7FD1793F709
:10200C00F70FEDFBB717004003D5C70552055181FB
:10201C008280011126CA4AC806CE22CC4EC652C4B2
:10202C0056C236898144F1CAB717004083C601A451
:10203C00AE89328A138401A21387070BE1CE1448B0
:10204C001043B376D64014C39386470B184890427E
:10205C009387070A3377E64098C21848944333F7BE
:10206C00E64098C38347040291CF371700407C5F4A
:10207C00BA07B9837CDF5E30745FB397A748CA0791
:10208C00D58F7CDF371700409306070A972700008F
:10209C009387C79A9042B347F5209C43D2858144DD
:1020AC00B377F6409CC2230CA7044E852537814A92
:1020BC00D2854E850537850AAA94B3CA0A08E31956
:1020CC0059FFB7170040834604021387070B1448C7
:1020DC001043B376D64014C39386470B18489042EE
:1020EC003377E64098C29386070A10489842938744
:1020FC00C70A518F98C2184898C333D52403F240AD
:10210C006244D2444249B249224A924A056133455B
:10211C000508828014481043B376D64014C39386C6
:10212C00470B184890423377E64098C29386070ACB
:10213C00104898429387C70A518F98C2184815B710
:10214C00011183D7A1A322CC03D781A326CA4AC8E5
:10215C0006CE4EC6138401A2B377F7401EAC238182
:10216C0001A413890185F144034724025C2C8326C6
:10217C0009006369F70483471402054613F7F70F48
:10218C006389C71C894781446307F72263050714D9
:10219C00238101A4034724025C2C636FF7225C4467
:1021AC0085075CC458441C446364F70023A601A251
:1021BC00238101A40A2CF2406244D2444249B24920
:1021CC00056182803E2C03472402B3D7E740858B00
:1021DC00D5EF83472402B3879702B697838707000E
:1021EC0063D6070A034624028347240203472402CA
:1021FC008349240233069602B38999023307970266
:10220C00B699B38797023697B697B296882252231F
:10221C00AE2389461375F507ED3B2396A90083463B
:10222C0024020347240283270900B3869602014641
:10223C0033079702BE96F6223E975A27637FD70044
:10224C008346240203472402B3869602330797027F
:10225C00BE96F2223E975A27198E83462402683C7A
:10226C0003472402B386960233079702BE968C4A24
:10227C00B3D5A5403E97144B8D8E14CB0347240247
:10228C0033079702BA97984B329798CB834724021F
:10229C00850793F7F70F2301F402F9B5B307B702DB
:1022AC00B697904BC84B6370C5021E2C8544B397F0
:1022BC00E728B3C707081EAC05071377F70F5C2C8C
:1022CC00E36EF7FCF1B59C4FE378F6FE1E2CB3974A
:1022DC00E7481EACD5B7F145DDB7B3070603B69793
:1022EC00884BCC4B63FFA5041E2CB315C02881EF83
:1022FC00B3C505080EACBA8405061376F60F5C2C34
:10230C00E36DF6FC71B51E2CE387B7FE814783485D
:10231C00C40163EE17018348C401E3FE17FDF148C5
:10232C00B3871703B6979C4BE3F8A7FCD1B70353BD
:10233C008401B318F028E30013FF850793F7F70F18
:10234C00F9B79C4FE37AF5FA1E2CB397C7481EAC2D
:10235C0065B78144014671485DB7B3051703B6955F
:10236C00884903A345016370A304B397E728854408
:10237C00B3C707086374A8003A862A880507137741
:10238C00F70F4C2CE36BB7FC93860181A9C3982201
:10239C00B3D7E740858B95E790A23316C028334618
:1023AC00060812ACF5B38C4DE37AB5FCB397E7484D
:1023BC00B3C70708E1B78147014601470148F14817
:1023CC00C9B73317E028334707081AACD1B3FD5708
:1023DC009CA2239C01A26DBB3E2C03472402B3D7C5
:1023EC00E740858B81E72685EFF06FDC834724027D
:1023FC00850793F7F70F2301F40269BB5D7122D4B3
:10240C0006D62A842EDA32DC36DEBAC0BEC2C2C48C
:10241C00C6C603A5418111C51C4D81E72AC6B12D45
:10242C0032450C455418228636CEEF003033B2506C
:10243C00225461618280AA8503A5418111CD1C4D76
:10244C0081EF011106CE2EC62AC4052D2245B245B8
:10245C00F2401045056119A01045F5BF411122C489
:10246C0026C24AC006C62A89AE84328401C51C4DD8
:10247C0091E32125971700009387C7636316F40631
:10248C00032449007C50858B89EB8357C40093F758
:10249C00072081E7284CEF00E0751C44FD171CC495
:1024AC0063DA0700184C63C3E70693F7F40F294768
:1024BC00638EE7041C401387170018C02380970015
:1024CC0093F4F40F7C50858B89EB8357C40093F7FE
:1024DC00072081E7284CEF000072B24022440249E9
:1024EC002685924441018280971700009387875A72
:1024FC006315F4000324890071B7971700009387C4
:10250C006757E311F4F80324C900ADBFA6852286F2
:10251C004A85312AAA847DB7011126CA06CE22CC5F
:10252C004AC84EC652C4AA8419E11C4502901C4DDF
:10253C002E89A5E799239C4C8044B5C397170000BE
:10254C00938747576310F406C0407C50858B81EB12
:10255C008357C40093F7072099E3284C612D8357C8
:10256C00C400A18B99C31C48C5E7A28526854122CE
:10257C0045C1FD547C50858B81EB8357C40093F788
:10258C00072099E3284C852DF24062444249B24918
:10259C00224A2685D24405618280004545B72685AE
:1025AC00E92969BF971700009387C74E6314F4009D
:1025BC00804461BF971700009387C74BE317F4F86B
:1025CC00C04461B71CC4050963C907021C401387CA
:1025DC00170018C02380B7001C4483450900FD1761
:1025EC00F5F11CC463D907022286A94526858120F2
:1025FC00FD57E300F5F8A944B5BF184C63C4E700D8
:10260C00E39645FD228626851D20E31735FD95B7FB
:10261C00FD59294AD1B71C401387170018C0294708
:10262C002380E700C9BFAA8503A54181F5B5011137
:10263C0022CC26CA4AC806CE4EC6AA842E8932841B
:10264C0001C51C4D91E31529971700009387874608
:10265C006318F402C0401C4C1CC48357C400A18BEB
:10266C0099C31C4895EFA2852685512015C97D5923
:10267C00F2406244D244B2494A85424905618280A3
:10268C0097170000938707416314F4008044E1B767
:10269C00971700009387073EE31FF4FAC04465BF09
:1026AC001C4808409379F90F1379F90F1D8D5C487C
:1026BC006346F500A2852685A52455F91C4405051D
:1026CC00FD171CC41C401387170018C0238037014A
:1026DC005C486389A7008357C400858BD1DBA9476D
:1026EC00E318F9F8A2852685252C59D149B7411153
:1026FC0022C426C24AC006C683A441812A892E84DC
:10270C0089C49C4C99E326858D2E971700009387DE
:10271C00673A6314F402C0408317C40013F78700B0
:10272C002DEB13F7070115EB25472320E90093E761
:10273C0007042316F4007D5559A8971700009387BA
:10274C0067356314F4008044C1BF9717000093876A
:10275C006732E313F4FCC044C1B7918B8DC74C585E
:10276C0089C9930744046384F5004A856923232AA5
:10277C0004028357C4002322040093F7B7FD2316E9
:10278C00F4001C481CC08357C40093E78700231631
:10279C00F4001C4881EF8357C4001307002093F703
:1027AC0007286385E700A2854A856D218317C4003D
:1027BC0013F717001DC35848232404003307E040C7
:1027CC0018CC1848014501E713F707082DF3B24060
:1027DC002244924402494101828013F7270081462A
:1027EC0011E3544814C4F1BF8397C500011122CCE6
:1027FC0026CA06CE4AC84EC613F78700AA842E8472
:10280C0069E7D8416345E000B8416358E008585483
:10281C0049C7B18303A90400858B23A004000C5085
:10282C00B9CB70488357C400918B99C75C401D8EFF
:10283C005C5899C33C401D8E5C540C5081462685D7
:10284C008297FD57630DF5041C480567232204008D
:10285C001CC08357C400F98F91C368C84C5823A07F
:10286C00240185CD930744046384F50026856121FA
:10287C00232A04021DA00146854626850297FD5792
:10288C002A86E311F5FA9C40D1DF75476385E70092
:10289C0059476395E70623A024010145BDA0984044
:1028AC008317C40001CFF5466305D700D9466319D9
:1028BC00D7041C48232204001CC04DB71848B18310
:1028CC002322040018C0858B41BF83A90501E38630
:1028DC0009FC03A905008D8B23A03501330939416F
:1028EC00014791E3D84918C4E35920FB1C540C5000
:1028FC00CA864E86268582976340A0028317C40041
:10290C0093E707042316F4007D55F2406244D24449
:10291C004249B24905618280AA993309A940E9B7B5
:10292C009C49411106C622C426C281EB8144B240A7
:10293C0022442685924441018280AA842E8401C5BA
:10294C001C4D91E31D2A971700009387A716631D52
:10295C00F402C0408317C400F1DB7850058B11E7FB
:10296C0093F7072099E3284C71242685A285AD3D69
:10297C007C50AA84858BC5FF8357C40093F707202E
:10298C00DDF7284C8D2C65B79717000093878710BF
:10299C006314F40080447DBF971700009387870D64
:1029AC00E31AF4FAC0447DB7411122C406C62A8446
:1029BC002316B5002317C50023200500232205008C
:1029CC00232405002322050623280500232A0500BD
:1029DC00232C0500214681451305C505EFD0DFFFEB
:1029EC0097170000938787875CD097170000938711
:1029FC00E7891CD4971700009387278E5CD4971710
:102A0C0000009387E790B24000D01CD822444101CB
:102A1C008280970500009385E5F0BDA2411126C286
:102A2C00930780069384F5FFB384F4024AC02E8981
:102A3C0022C406C693854407452E2A8401CD232043
:102A4C00050023222501310508C41386840681451F
:102A5C00EFD09FF8B24022852244924402494101B2
:102A6C0082801385C18579A21385C18569A21385DE
:102A7C00018649A213850186BDAA411122C406C64E
:102A8C002A84F5371C4C89C72244B2404101DDB77A
:102A9C0097070000938727F81CD4232404042326CB
:102AAC0004042328040483A7418263948700854788
:102ABC001CCC22853D2048C02285252008C42285B7
:102ACC000D2048C4484001469145F93D084405464F
:102ADC00A545D93D48440946C945F93585471CCC1F
:102AEC0065B7411126C24AC006C622C42A89953F41
:102AFC0083A441829C4C99E32685413793848404BA
:102B0C008044DC40FD1763D607009C40BDC3844065
:102B1C00C5BF0317C40039EBC17785075CC4130527
:102B2C00840523220406F12081372146232004004A
:102B3C00232404002322040023280400232A040055
:102B4C00232C040081451305C405EFD0FFE8232A8C
:102B5C000402232C04022324040423260404B2407C
:102B6C002285224492440249410182801304840646
:102B7C0051BF91454A855D3588C02A8449F9ED35A8
:102B8C00B1472320F900E1BF797122D44AD04ECE4F
:102B9C0052CC5AC85EC606D626D256CA2A892E8A66
:102BAC00130485048149054BFD5B0444832A4400CE
:102BBC00FD1A63D00A0200406DF8B25022549254B0
:102BCC000259624AD24A424BB24B4E85F249456198
:102BDC00828083D7C400637BFB008397E400638708
:102BEC007701A6854A85029AB3E9A90093848406E5
:102BFC00C1B78280828082805971A2D42E84839541
:102C0C00E500A6D2CAD086D6B284368963D3050233
:102C1C008357C40093F7070895EB13070040B65091
:102C2C0026542320F90098C0065996540145656135
:102C3C0082803000EF000073E34C05FC3247BD6727
:102C4C00F98F7977BA9793B71700C1BF81471307EC
:102C5C000004F1B783D7C500797122D406D626D2E9
:102C6C004AD04ECE898B2E8491CF930774041CC00E
:102C7C001CC885475CC8B250225492540259F24980
:102C8C004561828074003000AA84BD37A2492A892C
:102C9C002685CE85912A01ED8317C40013F70720F2
:102CAC0079FBF19B93E727002316F4007DBF970770
:102CBC000000938747D69CD48357C40008C008C82B
:102CCC0093E707082316F400B247232A340189CF6F
:102CDC008315E40026855D2D01C98357C400F19B43
:102CEC0093E717002316F4008357C40033E527013C
:102CFC002316A40049B7D1CD83A7C5FF011122CC5F
:102D0C0006CE1384C5FF63D307003E942AC6E5257F
:102D1C00138781861C43324581EB2322040000C3B8
:102D2C006244F2400561E1AD637DF4001040B306EE
:102D3C00C4006396D7009443DC43B29614C05CC0C5
:102D4C00F9BF3E87DC4399C3E37DF4FE144333069D
:102D5C00D700631F86001040B29614C33306D70009
:102D6C00E390C7FC9043DC43B29614C35CC34DBFE5
:102D7C006375C400B1471CC165B71040B306C400ED
:102D8C006396D7009443DC43B29614C05CC040C336
:102D9C0041BF828041114AC01389418683270900B3
:102DAC0022C426C206C6AA842E8489E781454921FD
:102DBC002320A900A2852685A5297D59631A250102
:102DCC007D54B240228522449244024941018280C2
:102DDC00130435007198E30685FEB305A4402685DF
:102DEC008129E31025FFE9BF011126CA9384350020
:102DFC00F1984AC806CE22CC4EC6A104B1472A8906
:102E0C0063F3F406B14463E2B4064A85ED23938977
:102E1C00818683A709003E8425E4A6854A859D3FCB
:102E2C00FD572A846314F50C03A40900A287D5E787
:102E3C008329040081454A85A299DD2E6392A90A53
:102E4C001C408D049D8CF198A104B14763F3F400F0
:102E5C00B144A6854A853D3FFD576303F5081C40E8
:102E6C00A6971CC03DA8E3D004FAB1472320F90073
:102E7C000145F2406244D2444249B2490561828024
:102E8C001440858E63C806042D47637DD70204C0A9
:102E9C00330794006396870223A0E9005C4014C3B7
:102EAC005CC34A85A92B1305B400930744006199B0
:102EBC003307F540E30FF5FA3A94898F1CC055BFE0
:102ECC00D8C3E9BF58406395870023A0E900D1BF60
:102EDC00D8C3C1BFA287404081B73E84DC4381BFC9
:102EEC00B1472320F9004A85192B59B704C155BFA6
:102EFC001C46FD171CC663DA0700184E63C5E700B5
:102F0C00A9476394F5006FF08FF21C422E8513874E
:102F1C00170018C22380B7008280011122CC26CA68
:102F2C004AC84EC652C406CE2A89AE893284B3042E
:102F3C00D6007D5A63149400014509A8834504000A
:102F4C004E864A8575370504E31645FFF240624408
:102F5C00D2444249B249224A05618280357122CD60
:102F6C0026CB4AC94EC706CF52C556C35AC1DEDE60
:102F7C00E2DCE6DAAA892E843289B68409C51C4DB6
:102F8C0099E3EFF09FAF971700009387A7B2631AEE
:102F9C00F40403A449007C50858B81EB8357C40057
:102FAC0093F7072099E3284CB1318357C400A18BC8
:102FBC0099C31C48ADE3A2854E85EFF04FF321CDAC
:102FCC007C50858BA9C37D55FA406A44DA444A4942
:102FDC00BA492A4A9A4A0A4BF65B665CD65C0D6182
:102FEC008280971700009387E7AA6315F40003A467
:102FFC00890055B7971700009387C7A7E31DF4F80E
:10300C0003A4C90049BF8357C40093F70720C5FF29
:10301C00284CD5364DBF93070002A304F102930749
:10302C00000302D22305F10226C6930B5002971A15
:10303C000000938A2AAA054C294BCA8483C7040032
:10304C0099C3639B7709B38C2441638D2401E68675
:10305C004A86A2854E85D135FD57630EF5189257D9
:10306C00E6973ED283C7040063870718FD57138980
:10307C00140002C802CE3ECA02CCA309010482D4B9
:10308C008345090015465685912EC24793041900B5
:10309C0031E513F7070109C713070002A309E1047F
:1030AC0013F7870009C71307B002A309E10483468D
:1030BC0009001307A002638BE602F247CA8481461B
:1030CC00254603C7040093851400130707FD637599
:1030DC00E6068DC63ECE1DA085048DB73305554141
:1030EC003315AC00C98F3EC8268959BF32479306A9
:1030FC004700184336C6634A07023ACE03C704009A
:10310C009307E002631EF70403C714009307A002A1
:10311C00631AF702B2478904138747009C433AC6E7
:10312C0063D30700FD573ECA25A83307E04093E759
:10313C0027003ACE3EC8D9B7B3876703AE8485461D
:10314C00BA9741B7850402CA81468147254603C711
:10315C00040093851400130707FD6374E606E1F67B
:10316C0083C504000D461715000013052597BD24D3
:10317C0011CD97170000938767961D8DC2471307D3
:10318C0000043317A700D98F85043EC883C50400FB
:10319C001946171500001305A59413891400230470
:1031AC00B1022D2C25CD9307000095E74247B2477D
:1031BC001377071009CF91073EC69257D2973ED28C
:1031CC00ADBDB3876703AE848546BA9749B79D07F3
:1031DC00E19BA107D5B7780097060000938626D40B
:1031EC0022860C084E8597000000E7000000FD5772
:1031FC002A8AE314F5FC7C50858B89EB8357C40039
:10320C0093F7072081E7284CEFF0FF9E8357C4000B
:10321C0093F70704E39907DA12557DB37800970604
:10322C0000009386C6CF22860C084E85ED24C1B7CC
:10323C00411122C42A842E8523A6018606C6EFE0FE
:10324C002FCFFD576316F50083A7C18691C31CC011
:10325C00B240224441018280411122C42E848395C4
:10326C00E50006C6152B634905007C48AA977CC867
:10327C00B2402244410182808357C4007D777D1780
:10328C00F98F2316F400EDB783D7C500011122CCBA
:10329C0026CA4AC84EC606CE93F70710AA842E84B7
:1032AC003289B68991C78395E5008946014611227A
:1032BC008357C4007D777D17F98F8315E40023169F
:1032CC00F4006244F240CE864A86B24942492685D1
:1032DC00D24405613DA8411122C42E848395E5009A
:1032EC0006C6C1287D578357C400631BE5007D7754
:1032FC007D17F98F2316F400B240224441018280DD
:10330C000567D98F2316F40068C8FDB78395E500CF
:10331C003DA0411122C42A842E85B285368623A66F
:10332C00018606C6EFE04FBEFD576316F50083A776
:10333C00C18691C31CC0B24022444101828041111C
:10334C0022C42A842E8523A6018606C69D29FD57F4
:10335C006316F50083A7C18691C31CC0B2402244FA
:10336C0041018280411122C42A842E85B28523A674
:10337C00018606C6A929FD576316F50083A7C186E9
:10338C0091C31CC0B240224441018280411122C42D
:10339C002A842E8523A6018606C68121FD57631635
:1033AC00F50083A7C18691C31CC0B24022444101E1
:1033BC008280411122C42A842E85B285368623A6AA
:1033CC00018606C60D21FD576316F50083A7C1863D
:1033DC0091C31CC0B24022444101828093F5F50F89
:1033EC002A966314C5000145828083470500E38D4E
:1033FC00B7FE0505FDB7138581856FF0AFFF13850B
:10340C0081856FF04FFF797156CA9C49BA8A9845ED
:10341C0022D44AD04ECE52CC06D626D25AC85EC63C
:10342C00AA892E843289368A63D3E700BA8723208F
:10343C00F9000347340401C785072320F9001C4019
:10344C0093F7070291C78327090089072320F90006
:10345C000440998891E8130B9401FD5B5C440327AD
:10346C000900998F63CCF40483473404B336F0001D
:10347C001C4093F70702A5EB13063404D2854E8546
:10348C00829AFD576303F5041C4011478144998BC4
:10349C006399E7004444832709009D8C63D304009F
:1034AC0081441C4418486354F700998FBE94014919
:1034BC0069047D5B63982405014509A885465A86F5
:1034CC00D2854E85829A631E75017D55B250225469
:1034DC0092540259F249624AD24A424BB24B45616C
:1034EC0082808504A5BF3307D40013060003A30113
:1034FC00C7040347540493871600A2978906A38137
:10350C00E7049DBF85462286D2854E85829AE30EBE
:10351C0065FB050945B7797122D44AD04ECE52CC01
:10352C0006D626D256CA5AC803C885019307800707
:10353C002A892E84B289368A63E207039307200610
:10354C009386350463E107036300081E9307800527
:10355C001706000013064659630AF8149304240452
:10356C002301040515A89307D8F993F7F70F5546CF
:10357C00E366F6FE17060000130686598A07B29713
:10358C009C43B29782871C439384250493864700FF
:10359C009C4314C32381F504854745AA90411C43E1
:1035AC00137506089385470039C19C430CC35840DA
:1035BC0063D207149305D002A301B40418C463505A
:1035CC000704B307F040170600001306E65129481C
:1035DC00B68433F70703FD143297034707002380A3
:1035EC00E4003E87B3D70703E37507FF8DA09C4328
:1035FC00137506040CC345DDC207C1874DBF6D9A18
:10360C0010C0C1B790411C43137506089385470041
:10361C0001C50CC39C4339A0137606040CC37DDA98
:10362C0083D707001307F006170600001306C64BD6
:10363C006310E80C2148A3010404584018C4E34962
:10364C0007F80C40ED990CC0C1F7B68451F3A147B3
:10365C00631EF8001C40858B91CB58401C4863C7F7
:10366C00E70093070003A38FF4FEFD14858E14C8A6
:10367C005287CE867000A2854A857133FD5A631A33
:10368C00550D7D55B250225492540259F249624A5A
:10369C00D24A424B456182809C4193E707029CC110
:1036AC00130880071706000013064645A3020405FD
:1036BC000C401C4313F805081385470063050800EC
:1036CC0008C39C4301A813F8050408C3E30B08FEC8
:1036DC0083D7070013F7150001C793E505020CC04B
:1036EC0099C3414889BF18401377F7FD18C0D5BF5F
:1036FC00294891B7170600001306063F294835BF25
:10370C0090411C43CC491378060813854700630687
:10371C00080008C39C438CC301A808C31376060495
:10372C009C4375DA2390B70023280400B68489B72C
:10373C001C43D04181459386470014C3844326859E
:10374C00713919C1058D48C05C401CC8A301040423
:10375C0005B714482686CE854A85029AE30355F3AD
:10376C001C40898B8DE7B2474844E35DF5F03E85FC
:10377C0011BF85465686CE854A85029AE30365F1CC
:10378C0085045C443247998FE3C5F4FEE9BF81445C
:10379C00930A94017D5BF5B7411122C42A842E85CE
:1037AC00B285368623A6018606C6A120FD57631670
:1037BC00F50083A7C18691C31CC0B24022444101CD
:1037CC0082809307800523A6F1867D55828093071E
:1037DC00800523A6F1867D5582809307800523A65C
:1037EC00F186014582809307800523A6F1867D55DD
:1037FC0082809307800523A6F1867D558280000088
:10380C0074D3FFFF94D3FFFFA2D3FFFFAED3FFFF10
:10381C00BAD3FFFF546F756368204B657920696ECE
:10382C0069742046696E69736821000025640A007A
:10383C0040D5FFFFC8D5FFFF40D5FFFFAAD5FFFF3E
:10384C00D6D5FFFFAAD5FFFF546F7563682055745A
:10385C00696C6974790000007451203A2025303469
:10386C00780A0000544B595F42617365496E697464
:10387C003A253032580D0A000A0A436861726769AA
:10388C006E6720706172616D65746572732065720C
:10389C00726F722C20707265706172696E6720662F
:1038AC006F7220726563616C6962726174696F6EAC
:1038BC00202E2E2E0A0000004572726F722C2025CD
:1038CC0075204B4559257520546F6F20736D616CB5
:1038DC006C204361702C506C656173652063686566
:1038EC00636B20746865206861726477617265200F
:1038FC00210D0A006368616E6E656C3A25752C208B
:10390C0063686172676574696D653A25752C4261EF
:10391C0073654C696E653A25750D0A005761726EB8
:10392C00696E672C6368616E6E656C3A2575205400
:10393C006F6F206C617267652043757272656E746F
:10394C002C2063686172676574696D653A25752C06
:10395C00426173654C696E653A25750D0A0000006D
:10396C004572726F722C2043686172676574696D61
:10397C0065204D61782C4B4559257520546F6F206F
:10398C006C61726765204361702C506C6561736566
:10399C0020636865636B2074686520686172647766
:1039AC0061726520210D0A00253034642C00000062
:1039BC000D000000000001000300360D2D00190061
:1039CC000000010702000300970C82006400000055
:1039DC00020502000300250E1E0014000000030661
:1039EC0002000300100E1E00140000000408010069
:1039FC000300200D1E00140000000501020003004E
:103A0C00A10C1E0014000000060902000300140E95
:103A1C001E0014000000070A020003008E0C1E009A
:103A2C0014000000E6DBFFFF0ADCFFFF2EDCFFFFCB
:103A3C0044DCFFFF5EDCFFFF1000000020000000F4
:103A4C00001000000020000000400000008000007A
:103A5C00080000000400000002000000010000004B
:103A6C004000000080000000000100000002000087
:103A7C00000000000000000000000000000000003A
:103A8C00000000000000000000000000000000002A
:103A9C00000000000000000000000000000000001A
:103AAC00000000000000000000000000000000000A
:103ABC0000000000000000000000000000000000FA
:103ACC0000000000000000000000000000000000EA
:103ADC00232D302B20000000686C4C006566674578
:103AEC0046470000303132333435363738394142AD
:103AFC00434445460000000030313233343536370C
:103B0C003839616263646566000000007AFAFFFF71
:103B1C0090FAFFFF50FAFFFF50FAFFFF50FAFFFF39
:103B2C0050FAFFFF90FAFFFF50FAFFFF50FAFFFF29
:103B3C0050FAFFFF50FAFFFFF4FBFFFFF8FAFFFF0C
:103B4C008CFBFFFF50FAFFFF50FAFFFF24FCFFFF36
:103B5C0050FAFFFFF8FAFFFF50FAFFFF50FAFFFF91
:043B6C0094FBFFFFC8
:103B7000B409002094090020A4090020380A00207C
:103B80000300640064007800500A00203C0A002012
:103B90000300C80064007800580A0020400A002092
:103BA000E00A00200200000000000000BC3A000013
:103BB0009C3A00007C3A0000000000000000000079
:103BC00000000000000000000000000000000000F5
:103BD00000000000000000000000000000000000E5
:103BE00000000000000000000000000000000000D5
:103BF00000000000000000000000000000000000C5
:103C000000000000000000000100FFFFFFFF0000B7
:103C1000680C002001000000FF000000C009002027
:103C2000050607000203040000010000C00900208F
:00000001FF
