:081000006F00501FC85D0020C5
:101008000000000000000000A050002090540020C4
:10101800A9BDF9F3085200200000000000000000FC
:1010280008520020A050002000000000000000002E
:10103800A050002000000000A05000200000000088
:10104800A0500020A0500020A0500020A050002058
:10105800A050002044550020A050002000000000AF
:10106800A0500020A0500020A0500020A050002038
:10107800F0550020A0500020A0500020A0500020D3
:10108800A0500020A0500020A0500020A050002018
:10109800A0500020A0500020A0500020A050002008
:1010A80001A0B7170040984B41111367070198CB6F
:1010B800982B1377E70F98AB1307800873370780CF
:1010C800137787083AC60F100000130770052380AE
:1010D800E704130780FA2380E7040F100000B847DD
:1010E800B70600069506558FB8C703C7B704137728
:1010F800F70DA385E704B82713672701B8A71307D7
:1011080050149AA7372700408346578093F6F60E67
:10111800A302D7808946A303D78003C7E7041377C0
:10112800C70F136717002387E70403C7F70213677E
:101138002700A387E702982B1367170098AB238033
:101148000704B247F3A707800F100000410182800F
:10115800EFF03FF517C5FFDF1305C50B9705000036
:101168009385C50A171600001306868863FAC5001A
:101178008322050023A0550011059105E3EAC5FE69
:10118800170500E01305C5FC9715000093854586F3
:101198001386818863FAC5008322050023A05500C1
:1011A80011059105E3EAC5FE13858188972500009E
:1011B8009385054A6377B500232005001105E36D83
:1011C800B5FE93025002739002BC8D427390428028
:1011D8008542739012BC8962938282887390023030
:1011E80097020000938202E293E232007390523039
:1011F80097E2FFDF9382A23F739012343705040011
:08120800028573002030000094
:101210009305000273A04580824573901534924077
:101220002242B2424243D2436244F24402559255B2
:101230002256B2564257D2576258F258064996493A
:10124000264AB64A464BD64B664CF64C065D965D32
:10125000265EB65E465FD65F09617300203041119D
:10126000B7170040985F3AC6945F3247E39CE6FEAA
:10127000324541018280B7170040984B41111367F6
:10128000070198CB982B1377E70F98AB13078008CB
:1012900073370780137787083AC60F1000001307CB
:1012A00070052380E704130780FA2380E7040F10FA
:1012B00000001307000C6315E5029A271367070C5B
:1012C0009AA7B7170040982B1367170098AB238095
:1012D0000704B247F3A707800F1000004101828086
:1012E000B82793760520ADCA118B29E303C7E7041D
:1012F00003C6E7041377F70F136636002387C70486
:10130000B02713664600B0A792278E2733460608FB
:1013100093E5050C8EA7A5470100FD1793F7F70F7E
:10132000E5FFB717004092A72387E70493770510DE
:10133000DDC3371700403C2793E707013CA79377AD
:10134000F50199EFB727004003C7578013670701DE
:10135000A382E7801D470DA013672700B8A7F9B740
:1013600025476366F704B727004003C75780137704
:10137000F70EA382E7800547A383E780334505087E
:10138000B71700401367050C9AA78AA7B5CE03C705
:10139000570483C65704418B858A558F1DF3B82B9C
:1013A000418B05D3B8271377D70FB8A719BF937709
:1013B000050199EBB727004003C757801377F70E55
:1013C000A382E78009474DBFB727004003C7578076
:1013D0001377F70EB5BF9377850181EFB7270040EC
:1013E00003C757801377F70EA382E7801307100512
:1013F00061B7B727004003C757801377F70EA38262
:10140000E780130770058DBFB8271377B70F71BF3B
:101410000111814601468145114506CE7D2C930779
:101420008008F3B7078093F787083EC60F100000C7
:10143000B7170040130770052380E704130780FAED
:101440002380E7040F10000003C767041367170029
:101450002383E70423800704B247F3A707800F1014
:101460000000F2400561828037E700E01C435443EE
:10147000A183E206D58F1CC1FD572320F718232234
:10148000F718828013178500B7E700E023A0E71064
:10149000618123A2A71082804111814601468145C6
:1014A0001145252C13078008F337078093F7870829
:1014B0003EC40F100000B7170040130670052380CC
:1014C000C704930680FA2380D7040F100000FD554F
:1014D000CEB723800704A245F3A505800F100000B6
:1014E00073370780137787083AC60F1000002380F0
:1014F000C7042380D7040F10000003C767041367D5
:1015000017002383E70423800704B247F3A707806B
:101510000F10000001A09307E0043305F502954782
:101520003355F50201007D1575FD8280411122C4FD
:1015300006C62A841305803E7D14F13F3344040817
:1015400075F8B2402244410182800000197106C240
:1015500012C416C61AC81ECA22CC26CE2AD02ED233
:1015600032D436D63AD83EDA42DC46DECAC0CEC2E3
:10157000D2C4D6C6DAC8DECAE2CCE6CEEAD0EED213
:10158000F2D4F6D6FAD8FEDA9385018B8841E700CB
:10159000050092402242B2424243D2436244F244A6
:1015A000025592552256B2564257D2576258F258B7
:1015B00006499649264AB64A464BD64B664CF64CE7
:1015C000065D965D265EB65E465FD65F0961730076
:1015D00020304111B7170040985F3AC6945F3247F8
:1015E000E39CE6FE324541018280B7E700E0370721
:1015F000001023A0E7208280B717004013070003E4
:101600002388E702854723ACF18A7300203041111B
:1016100022C406C6370400201C408297F5BF23036E
:10162000048015472303E48001002302A480828004
:1016300083076480E3CE07FE230304808280830750
:101640006480E3CE07FE0345448082808307648084
:10165000E3CE07FE2302A4808280411126C44AC241
:101660004EC006C61377F50BAD47AA892E8995445F
:101670006306F70019456537653F8D444E8545374C
:10168000FD59FD1463983401B240A24412498249C5
:1016900041018280135509011375F50F453F220959
:1016A000CDB7011126CC06CEB70408005137154539
:1016B000BD37713769372AC6A53F32459377150084
:1016C00089EB136515001375F50FF240E2440561CF
:1016D0008280FD14E9FC0145CDBF3971B7F70700E1
:1016E00006DE26DC4ADA4ED852D656D45AD25ED01E
:1016F00062CE03AB47027D57B7E700E083AA07003D
:1017000022C603AA470023A0E71823A2E718B71BA5
:101710000040930770052380FB04930780FA238021
:10172000FB0483C74B041147AA8993E7070E238262
:10173000FB04372400401305F00F2303E4802E8CB4
:101740003289B684E93DED35938779FF93F7F70F3A
:101750000947137BFB006362F712A14737070800B4
:101760006307FB00B70707003E9C378707007955E2
:10177000637EEC02B3878401636AF702A94763982A
:10178000F90689E481446D3526850DA0E285094579
:10179000E93505090345F9FFFD14050C453D81C4F4
:1017A0009377FC0FFDF7F53D69FD7D55B7170040B8
:1017B000130770052380E704130780FA2380E704EA
:1017C00003C74704418B2382E704F250B7E700E0E8
:1017D00023A0571123A24711E25432445259C2594F
:1017E000325AA25A125B825B724C21618280A547F9
:1017F000639AF906A1478569631DFB029387F9FF88
:10180000B3869700B374FC00B69493C7F7FFFD8CC2
:1018100033FC8701416B856B9387F9FFB3F7870131
:1018200099E363FF340193D94900C147E3E637FFE9
:1018300091BF9307F00FE9B78567C169FD17C9B775
:101840001305800D63886901130500026384790123
:1018500013051008E2851135A93521D94E9CB384B2
:101860003441C1B7E2852D45CD3BCA94E30C99F0D4
:101870000509F133A30FA9FED5BF9387F9FF93F7AD
:10188000F70F636FF70AA1476319FB06B707080054
:101890003E9C83C75B043707070093F7070299E371
:1018A00037870700B70708003E977955E370ECF0DB
:1018B000B3079C00E36CF7EE8947639AF9048980CB
:1018C000D549E38104ECE2850945413B1109032731
:1018D000C9FF91472320E48003076480E34E07FE9D
:1018E00023033481FD17EDFBFD14110C81C49377A4
:1018F000FC0FE9FF7D3371F54DBD83C75B043707EE
:10190000070093F70702D5F33787070079BF8547AC
:10191000E384F9F2E2852D4589339389F4FFE3836B
:1019200004E6313B93F7390091EB832604800327CB
:10193000090093074900E398E6E43E89CE84F1BFAD
:10194000B5476396F9001305900BD13925BDB14712
:101950001305B00AE38BF9FE99476394F904A14794
:101960006315FB00B70708003E9CE2852D45F53165
:1019700081440D4BA149E1316396640183270480C2
:101980002320F9008504E39834FF8327048013178C
:101990002C01635507002312F900EDB32322F9004F
:1019A000D5B39D476399F90281451305B00475319C
:1019B000BD442320090023220900FD59493193F732
:1019C0007400CA9703C70700FD14398D2380A70050
:1019D000E39634FF45BB91476399F9001305600610
:1019E0003D39B931130590098DB7E38D09D8F1540C
:0419F00059BB0000DF
:1019F40097510020938141B517E101201301416003
:101A040017F5FFFF13054560973500209385455F63
:101A1400173600201306467F63FAC50083220500AB
:101A240023A0550011059105E3EAC5FE17350020F2
:101A34001305057202852A8309CA838305002300DE
:101A440073007D16050385056DFA82802A8311C60D
:101A54002300B3007D16050365FE8280B71700409E
:101A640003C777051377E70FA38BE704130700F881
:101A7400A38DE7043D47238CE70413075003A38C8D
:101A8400E70403C7A7051377D70F238DE7048280E4
:101A9400371700408347E70412054111BD8BC98FF6
:101AA40093F7F70F93068008F3B6068093F686083B
:101AB40036C60F100000930670052300D704930662
:101AC40080FA2300D7040F1000002307F704230033
:101AD4000704B247F3A707800F100000410182807A
:101AE400B717004003C7E7020D8941111377C70FE9
:101AF400498F93068008F3B6068093F6860836C6A7
:101B04000F100000930670052380D704930680FA13
:101B14002380D7040F1000002387E70223800704E3
:101B2400B247F3A707800F100000410182804111E2
:101B34002A830148930E407E130F0019930F400629
:101B4400B348030863EF1E011303001933736502DE
:101B54008542FD4363F6B2088D4F214F930E400634
:101B6400A1A07D13336EE3039308E016630E0E0009
:101B7400336EF3039308D01663080E009378330092
:101B840093B818009388D816C29833C808084DBF74
:101B940093F81500138EF5FF637CBF02F908C29811
:101BA40033C80808B3450E08E394F5FF8545630B75
:101BB4000300B378D5038145638608009375350027
:101BC40093B51500F105C29533C805088945E9BFE9
:101BD400B3881341C29833C80808B3450E089DBFA3
:101BE4007D16329879463307C70213D61700BE070D
:101BF4003348080832976146B3F6C602130680706C
:101C0400B386C6023697A166F58F4207D98FB716F9
:101C1400004003C7F60213770708D883908303C7ED
:101C2400F60213770708E316E6FE9883B71600401A
:101C34004DCF1307800873370780137787083AC49A
:101C44000F10000037170040930670052300D704D7
:101C5400930680FA2300D7040F100000232A0703F9
:101C64008346170393E60608A308D7022300070454
:101C74002247732707800F100000116637170040B2
:101C84007D16545B4C5FAD8EF18EE5FE93068008A5
:101C9400F3B6068093F6860836C60F100000930646
:101CA40070052300D704930680FA2300D7040F108D
:101CB40000005CDB8347170393E70704A308F702DC
:101CC40023000704B247F3A707800F100000410167
:101CD400828003C7F60213770708D883908303C76B
:101CE400F60213770708E316E6FE98837DD391B7CF
:101CF40055714EDF86C7A2C5A6C3CAC152DD56DBE5
:101D04005AD95ED762D566D36AD16ECFAA8982C00A
:101D1400EF00B01593078008F3B7078093F787089F
:101D2400BEC20F100000B7170040130770052380D0
:101D3400E704130780FA2380E7040F10000003C7A9
:101D4400F7021377770FA387E70203C7F702136736
:101D54008700A387E702238007049647F3A7078039
:101D64000F100000130B80C1334B650391679387F9
:101D740007E8130A30029546B347F502330A4B03CA
:101D84003EC8FD873ED2BD67938707A6334AFA0251
:101D94001357FA413ACA330740413AD47D873ACCC3
:101DA4001307A0FB3307EB02B347F70205671307DA
:101DB40007FA3ECEFD873ED6938729003319F700F4
:101DC40063E436013319370161671307076A334542
:101DD400E50213070010B317F0288D873EC495471A
:101DE4003309A9023349E902130740063309E9021A
:101DF4001307D0073349E9021357F9413AD8331787
:101E040030290D873AC663EF374993075047B30724
:101E1400F7023D67130707A6116C814A814B13042F
:101E24008008371D0040930480FA7D1CB387670344
:101E3400B307F040B3C7E7023ED0FD873EDA7337FD
:101E4400048013778708BAC40F10000013077005C5
:101E54002300ED04930D0D0423009D040F100000D6
:101E640003473D051377870FA309ED0403473D0599
:101E740013671700A309ED0423000D0426477327F5
:101E840007800F100000930C7005733704801377DC
:101E94008708BAC60F100000930770052380FD0061
:101EA40023809D000F10000003473D0513670702C0
:101EB400A309ED0403570D051317E7282318ED04B0
:101EC40003570D051317F7282318ED0423800D007D
:101ED4003647732707800F10000003473D0513772B
:101EE40007026305073C03473D05218B6DDF88002E
:101EF40097300020E780C056733704801377870833
:101F0400BACA0F10000023809D0123809D000F108A
:101F1400000003473D051377F70DA309ED040347BC
:101F24003D0513670702A309ED0403570D051317B5
:101F3400E7282318ED0403570D051317F728231872
:101F4400ED0423800D005647732707800F1000000F
:101F540003473D05137707026301073803473D052F
:101F6400218B6DFF97300020E780E02E2A873ADC32
:101F740097300020E780202E6257E30AE5FE0357DE
:101F84000D0506451317E7282318ED0497300020A4
:101F9400E780C04E03473D05218B6DDF03570D05D8
:101FA40083462D05C24733778701B386860313D64C
:101FB400F641BA96B388F640925733B7E6003297A3
:101FC4001D8FD247B3B61601158F63C6E700631C95
:101FD400F700637A1A01E2476348F7326395E70032
:101FE400A25763E3F832894663F276337337048089
:101FF40013778708BAD00F10000013077005230069
:10200400ED0423009D040F10000003473D0593F6E3
:10201400F90F1377870FA309ED0403473D05558F87
:10202400A309ED0423000D040657732707800F103E
:1020340000001306700503473D051D8B63103737F9
:102044007337048013778708BAD40F10000013077E
:1020540070052300ED0423009D040F1000000347C6
:102064003D051377F70DA309ED0403473D051367F9
:102074000702A309ED0403570D051317E7282318D6
:10208400ED0403570D051317F7282318ED04230057
:102094000D042657732707800F1000009306700560
:1020A40003473D05137707026304073203473D05E1
:1020B400218B6DDF880097300020E780603A73370A
:1020C400048013778708BAD80F100000130770052F
:1020D4002300ED0423009D040F10000003473D0579
:1020E4001377F70DA309ED0403473D0513670702B2
:1020F400A309ED0403570D051317E7282318ED046E
:1021040003570D051317F7282318ED0423000D04B6
:102114004657732707800F10000093067005034786
:102124003D05137707026300072E03473D05218B06
:102134006DFF97300020E7800012AA8C97300020B2
:10214400E7806011E30C95FF03570D05064513174F
:10215400E7282318ED0497300020E7802032034756
:102164003D05218B6DDF7337048013778708BADC54
:102174000F100000130770052300ED0423009D04D5
:102184000F10000003473D051377F70DA309ED0475
:1021940023000D046657732707800F1000000357B0
:1021A4000D0583462D05C25733778701B386860311
:1021B40013D6F641BA9633B7E600329733882641F0
:1021C400B3B606011D8F158F6346E000631807261A
:1021D400630608261305800C3307E5020256D2561F
:1021E400B335050333050503BA95EF10A0459306EF
:1021F400150033B5A6002E951357F501BA9633B7DB
:10220400E6002A971316F70185820587D18E634667
:10221400E000631F072C638D062C0356CD02158244
:10222400B305D60033B6C50032976348E0006310A7
:1022340007361307F00F637CB734094763715727D8
:1022440093078008F3B7078093F78708BEDE0F1063
:102254000000B7170040130770052380E704130735
:1022640080FA2380E7040F100000DA3789668116AC
:10227400558F33470708DAB723800704F657F3A7C7
:1022840007800F100000BE402E449E440E49FA59A8
:102294006A5ADA5A4A5BBA5B2A5C9A5C0A5DFA4D5E
:1022A4006961828022479307504795B6733704804B
:1022B40013778708BAC80F10000023809D0123807C
:1022C4009D000F10000003473D0513670702A30993
:1022D400ED0423800D004647EDBE73370480137769
:1022E4008708BACC0F10000023809D0123809D0035
:1022F4000F10000003473D0513670702A309ED040F
:1023040023800D00664789B1E3920BCE7246B25624
:102314009315170013D3F80113951800B365B30090
:102324003ADE46DCEF1000327257850B93FBFB0F4D
:102334006346E00031EFE258638C0804930615000D
:1023440033B5A600AA9513D7F501BA9633B7E600BC
:102354002E9785827E07558FF336048093F6860880
:10236400B6CE0F10000023809D0123809D000F1026
:1023740000008356CD023697334707082316ED0233
:1023840023800D007647732707800F100000F5BCEB
:102394009306F5FF13351500898D75B773370480DF
:1023A40013778708BAD20F1000002300CD0423004E
:1023B4009D040F10000003473D05558FA309ED044C
:1023C40023000D041657732707800F100000A5B1D2
:1023D4007337048013778708BAD60F1000002300E0
:1023E400DD0423009D040F10000003473D0513671F
:1023F4000702A309ED0423000D0436577327078051
:102404000F10000071B97337048013778708BADAA4
:102414000F1000002300DD0423009D040F100000B2
:1024240003473D0513670702A309ED0423000D04C8
:102434005657732707800F100000D5B19305800C01
:102444003387E50233850503B3B50503BA9515470C
:1024540063733705A247130750473387E7023306F0
:1024640060413306E6023D67130707A63346E602DA
:102474009356F641EF10001D1306F5FF13351500B2
:10248400898D13D7F5013A963337E6002E979316C4
:10249400F70105829DBBB247130750477DBF130761
:1024A400800873370780137787083AC10F1000003C
:1024B400B7160040130770052380E604130780FA5B
:1024C4002380E6040F100000DA3605660116137740
:1024D400F70F518F33470708DAB6238006040A47FB
:1024E400732707800F100000850A93FAFA0F81BA48
:1024F40033E6E60049CE0356CD02B335D0003307A8
:10250400E0400D8F3305D04015826345E00041E380
:10251400637FA6060947637E570393078008F3B7D2
:10252400078093F787083EC30F100000B7170040D9
:10253400130770052380E704130780FA2380E70458
:102544000F100000DA377D8BDAB7238007049A472F
:102554003DB373370480137787083AC50F10000022
:10256400130770052300ED0423009D040F100000E1
:102574000357CD02856681161377F70F558F3347BE
:1025840007082316ED0223000D042A4791BF930781
:102594008008F3B7078093F787083EC70F10000041
:1025A400B7170040130770052380E704130780FA68
:1025B4002380E7040F100000DA3796063697334776
:1025C4000708DAB723800704BA4755B9914763EC83
:1025D400B704972700009387A76DB3C5F5209841EA
:1025E4003E97B71700409387470B028794433717EA
:1025F4000040B3F6A64094C39306070B9C42B3F77E
:10260400A74019A8944337170040B3F6A64094C3D3
:102614009306070B9C42C98F9CC29307070A9843F1
:102624003377A74098C38280944337170040C98EFC
:10263400D9B798433377A74098C3B7170040938717
:10264400070A9843498FF9BF9843498FF5B719C5CD
:10265400371700401E2FCD8F1EAF8280B717004062
:102664009A2FB375B7408EAF8280B71700409A2770
:102674009306000C1377070C630AD7049A27137781
:1026840007100DC79A279E277D8B09EB93F7072028
:10269400B1C33755E80113050580828037C5981208
:1026A400FD8B130505E03345F50282809A279E27AA
:1026B40013770720FD8B11C73755E80113050580F3
:1026C400DDB73725F40013050540F1BF2165130577
:1026D40005D082803725F400130505408280B7F7C2
:1026E40000E0884782803285814737370040A14621
:1026F40063C3A70082803037E30FD6FE3386F5002C
:102704001022850710A7EDB7973600209386C6637D
:10271400AA87884217570020130747F3AA9763E94B
:10272400E7000A87130707FC6364F7009CC28280F2
:102734007D558280411122C406C62A843D3729472B
:10274400B307E502B2408D83B3D7870222449507CD
:10275400B3D7E70237370040B3C707085EA7410184
:102764008280716541111305052006C6E137B7372C
:102774000040130770F8B8A30D47B8B3130700045B
:1027840098B30547F8A7B240410182803285D04111
:10279400411106C60C32034806000D66A205B3E5D6
:1027A40005019308A6A21398556063C8080313068D
:1027B40026A26358060375761306C65DB2951946BC
:1027C400B3C505086363B602172800001308884FD1
:1027D400B3C50521904142960286130606A56302FD
:1027E400C81223900600A94515A01D469D45636F98
:1027F400E6002146198E3356F60AB7070400FC4753
:1028040092A293858188BA9582978145B2402E859C
:10281400410182802D469D45E36AE6FE3146198ECC
:102824003356F60AB7070400FC4792A29725000026
:1028340093850552C9BF31469D45E369E6FC35469B
:10284400198E3356F60AB7070400FC4792A297255F
:1028540000009385E54E45BF41469D45E368E6FA91
:102864004546198E3356F60AB7070400FC4792A270
:10287400972500009385854B79B741469D45E367CD
:10288400E6F84546198E3356F60AB7070400FC47A6
:1028940092A29725000093852548B5B741469D45EA
:1028A400E366E6F64546198E3356F60AB707040082
:1028B400FC4792A2972500009385C544A9B74146D9
:1028C4009D45E365E6F44546198E3356F60AB70787
:1028D4000400FC4792A2972500009385654125B723
:1028E40035469D45E364E6F23946198E3356F60AB9
:1028F400B7070400FC4792A2972500009385453E44
:1029040019B719469D45E363E6F01D46198E335603
:10291400F60AB7070400FC4792A297350020938576
:10292400E542D5B5B707040083A7071397360020FF
:102934009386C60B4146CD45173500201305C50BBC
:10294400828732852D4625E790210947631EE604D8
:10295400D841411106C61023183341682207518F0C
:10296400130648FE6304C702636DE600130618FEEF
:10297400630EC7000918630B07012390060029465C
:1029840005A01518E31B07FF154711A0054733D60B
:10299400E70AB7070400FC47CC4592A28297014698
:1029A400B24032854101828023900600054632857B
:1029B4008280011106CE22CC26CA4AC84EC6802582
:1029C400137404024DE483C905000948AE87639279
:1029D400090B03A84500B284368903430800034861
:1029E40018002208336868004163130E13FE63075E
:1029F400C8030D13630168068D67938727902944E4
:102A04006313F8046244B707040003A84714F240B0
:102A1400D2444249B24985470561028829EF0547F6
:102A2400636DD704370704007847C8470546A68571
:102A34000297814983A7C18A99C79C4389C74A865B
:102A4400A6854E858297F24022856244D24442494B
:102A5400B2490561828005E305476360D702370701
:102A640004007847C8470546A6850297E1B7214484
:102A7400D9BF0544C9BF2D44F9B73544E9B7C16787
:102A8400F9176302F504411122C406C685472A8456
:102A9400639DF500B707040022852244B24083A752
:102AA4008713938581894101828789476399F5005A
:102AB400B707040083A7070B8545829761DDB24001
:102AC4002244410182808280411126C2B70404005D
:102AD40083A7841322C42A84416506C69385818909
:102AE4007D15829783A7C40A17050000130565F9AD
:102AF4000588829715C0224483A70413B2409244E8
:102B040097360020938646024146C5451735002076
:102B14001305450241018287B24022449244014593
:102B24004101828009C523A6A18A014582804545C9
:102B340082801147636AA70897260000938646227D
:102B44003345D52018414111AE87369706C6B28564
:102B5400028705476145639AE700B7070400FC470D
:102B640005461385818A82970145B24041018280DE
:102B740005476145E39BE7FEB7070400FC470546AC
:102B84001385418ACDB705476145E390E7FEB70752
:102B94000400FC4705461385018AF1B705476145E2
:102BA400E395E7FCB7070400FC4705461385C18994
:102BB4005DBF15476145E39AE7FAB7070400FC4790
:102BC40015461385018945B70945828041114AC0DC
:102BD400370904008327C91322C426C206C62E84DB
:102BE40093858189AA84829705890DC1973700202E
:102BF40083D7E7FF1EA0A28522448327490DB24054
:102C0400024926859244014641018287B24022440A
:102C14009244024949454101828011456FF04F8D2C
:102C2400411193962500AA852D4506C697300020AC
:102C3400E78020AAB240014541018280011122CCE3
:102C440006CE3714004026CA4AC84EC652C483442E
:102C54007405034AB4058349840503499405EFE0E8
:102C6400FFDF8347A40593F4F40F137AFA0F93E775
:102C74001700230DF40493F9F90F1379F90FB7171B
:102C8400004003C7A705058B6DFF03D5C705A38DBA
:102C94004705238C3705A38C2705A38B9704F240A3
:102CA4006244D2444249B249224A056182804111B8
:102CB40022C406C626C22E849397556063D00702A9
:102CC400B7040400FC54829719C1BC5482971315AD
:102CD400F468B240224492444101828093F7150083
:102CE40013C51500FDF78967ED8F9DC3B704040074
:102CF40083A7C41E82971537BC4C37F6020013060F
:102D040006E0896503C5418B82971315D468D1B752
:102D140011656D8D5DDD172500001305A505EF0018
:102D2400F063B7070400BC4F13060064916503C544
:102D3400418B82971315E46869BF2D71232A911082
:102D4400FD74E98C232C81102328211123263111B1
:102D54002A84AE893289930600100A86A6852D45F9
:102D6400232E111097300020E780A096B7070400A7
:102D7400FC4713154401498113962900CA850A9515
:102D84008297A68585660146254597300020E78011
:102D940040940A86A68593060010294597300020A2
:102DA400E78020938320C1110324811183244111DE
:102DB400032901118329C11015618280B7F7070027
:102DC400DC53011106CE22CC26CABD8B2147639960
:102DD400E700A537F2406244D24401450561828090
:102DE400939625002A84B284AA850146254536C6D1
:102DF40097300020E780E08DB2462686A2852945DB
:102E040097300020E780E08CF1B71D71A2CC370425
:102E140004005C5C485886CEA6CA49469725000043
:102E2400938585F5829701E917250000130505F6BA
:102E3400EF00D05201A037F700E023240700F95730
:102E44001CCB8564B7E700E023A09710BD4614C3EC
:102E540023A097180F100000370700201847130607
:102E6400C003814523A8E18A130700F8A38AE74039
:102E74003C444808829797370020938727FD3ECA31
:102E8400896793870780FC849D673ECEB707010559
:102E9400938707103ED0ED472312F10285472303A1
:102EA400F102970700009387E7D7BEC49707000095
:102EB400938707F1BEC6938754D12314F102970771
:102EC4000000938707823EDAB7F5070097070000F2
:102ED400938707D73EDE814697070000938727D460
:102EE4007000E1051945BEC097200020E780607E90
:102EF40019466C001305E102EFE0FFB3D24781C726
:102F0400BC8463F3970001A08327440A480882978E
:102F1400AA8501C917250000130585E8EF003030A4
:102F240001A0F6406644D64425618280411126C240
:102F3400B704040083A7040806C622C417050000CA
:102F4400130525D782971384418B08A019280820DC
:102F54002244BC4CB24092441306003289654101BC
:102F64008287397106DE22DC13078008F337078075
:102F740093F787083EC20F100000B717004093056F
:102F840070052380B704130680FA2380C7040F104A
:102F9400000083C6F70293F6A60FA387D702238007
:102FA40007049246F3A606800F10000073370780CB
:102FB400137787083AC40F1000002380B7042380D6
:102FC400C7040F10000003C7F70213672700A38785
:102FD400E70223800704A247F3A707800F1000002D
:102FE4000545EFE0FFAF15390147814681470546A6
:102FF40085451305407EEFE09FB3370404003C444D
:1030040068001306400281458297B707C0A83ECAEC
:10301400B787E803938707D03ECC97270020938790
:10302400C75A3EC6972700209387A75B3EC87C58A3
:1030340068008297F2506254216182802A86B30527
:10304400B040172500001305A5D76F00501D138746
:10305400418C56211E236396F6040111C16706CEE6
:1030640022CC26CAF9171CC3370404009384718246
:1030740023A4018C7C4C8820894582977C4C882031
:10308400914582978547DC87832744171306F1000F
:103094008545130550308297F2406244D24405615D
:1030A400828017250000130525D36F00302B3D893E
:1030B4007D15954763E3A714172700001307C7DDA1
:1030C4003345E5201C41411122C4BA9706C626C2E5
:1030D4004AC02E84828717250000130565D0224438
:1030E400B2409244024941016F005027B8219947E8
:1030F400631BF7002E85A13F6C20172500001305E4
:1031040025CFEF00D01117250000130525D0C1BF2E
:10311400B82195476315F7029387418C962341673D
:103124007917AA256382E602B707040083A7C717A5
:10313400829717250000130565CEEF00302217256E
:103144000000130525D061BFFA25938471823709E5
:103154000400BAA39A298AA38820DAA3BA291306F9
:1031640000648945FAA38327890582978327890503
:103174008820096613060690A1458297832789054E
:1031840088200566130606C89145829772242E246A
:10319400172500001305C5C9EF0070084DB71725A2
:1031A40000001305E5CA25BFAC2191476397F500DC
:1031B40017250000130545CB1DB799476390F50209
:1031C400228571356C2017250000130565C2224441
:1031D400B2409244024941016F00700495476399DB
:1031E400F5001C30F1F7172500001305A5C9C5BD6E
:1031F40017250000130585C9D9BF82801387418C28
:10320400AE870E23639CA50052A317250000130567
:1032140025CA3E863EA376A36F00700017250000E2
:10322400130585BB6F009013011126CA06CE22CC6C
:103234004AC8AE849397556063D90706B70704005C
:10324400FC5703C5718282972A841DCD18219307E8
:10325400000D6316F7023C214547638FE70265477B
:10326400639FE7000348A5001C35182574317021BD
:103274004C3117250000130525C5EF00407AB70728
:103284000400BC57228582971395F468F240624487
:10329400D24442490561828070216C3117250000B7
:1032A400130585C5EF00A077D9BF93F715008DC32B
:1032B400B707040083A7471A173600201306C69ED3
:1032C4009385818F03C57182829713C514007DBFD6
:1032D40093F72500A9CF370404003C4C130600647F
:1032E400894503C571828297930780F85C821389AC
:1032F400418C85477C850355090083278412014747
:1033040081460546ED4582977C4430852AC64C00AB
:103314008297035509002C00EFF05F8B11C58327BA
:10332400C412ED452800829713C5240085B793F78E
:1033340085009DC3B707040003A8871A1307400636
:1033440083C77182814613064006994503D5418C93
:10335400029813C584001DBF13F5450005D9370431
:1033640004008327041803D5418C82973C4C0566DE
:10337400130606C8914503C57182829713C544009C
:1033840031B7397122DC370404008327040806DED0
:1033940026DA4ED64AD817050000130525E9829788
:1033A40085449389718299472380A9002308910059
:1033B400FC8293074006FC84832744171008854544
:1033C40013055030829783274417173600201306BD
:1033D400E68FF145130570308297832744171386CF
:1033E40001829D4513056030829783274417500856
:1033F400894513051031829783274417300889457E
:1034040013052031829783274415930500050D4544
:1034140082978327441593050005114582978327D6
:103424004415854579458297448444862308910050
:1034340002CC230A01008327841630089145130522
:103444007040829783278416300085451305004019
:103454008297832784167000854513051040829750
:1034640083278416500885451305204082978327B7
:103474008416100885451305504082978327041548
:10348400130530038297832744131305300382976F
:10349400EFF04FC913053003EFF00FE383278414D3
:1034A4001736002013060681D545014582978947C2
:1034B4005C868D472308F1009147230AF100B70782
:1034C4000304938717203ECC30009547854501457A
:1034D400230EF1004484EFF0CFE5700085450545E7
:1034E400EFF02FE5100885450945EFF08FE450080B
:1034F40085450D45EFF0EFE3300895451145EFF0B4
:103504004FE3C1671387418CF9171385C1811CC32D
:1035140023220700EFF00FE18327C41D1385C18B1D
:1035240082973C48625403C50900F250D254425970
:10353400B259854521618287411191461386818E56
:103544009D652D4506C697200020E7808018B7F7B3
:103554000700DC532147BD8B6393E70001A093066A
:10356400001001469D65254597200020E7806016E0
:103574001386818E8D4791469D6529451CA297200F
:103584000020E7800015B2404101172300206700A6
:10359400A3E7011106CE19C589476300F502F2407D
:1035A40005618280B7070400FC47680082971725ED
:1035B4000000130525965D23DDB7B7070400FC471B
:1035C400680082971725000013058596412B17255F
:1035D40000001305A5975923154597200020E7807F
:1035E40060F4993F6DBF4111114506C622C4EFE056
:1035F4002FCA1305503497200020E78040C7116775
:10360400B717004023ACE70AC1450545EFF02F8406
:1036140085452165EFE09FFB8D451165EFE01FFBBC
:1036240037040400EFF0EF9348580D2BEFF0EFFD53
:10363400EFF0DF8F8327041A8297A13397200020AD
:10364400E78060FC014863C8050E63DB0600B337FE
:10365400C000B306D0401348F8FF9D8E3306C04027
:10366400B2882A872E83F9E263F2C512C167636CBC
:10367400F61AB7070001B337F600B307F040E19B31
:10368400E107335EF600972600009386E68CF296F7
:103694009422130E0002B697B306FE40630CFE009C
:1036A4003393D500B357F500B318D60033E367005E
:1036B4003317D50013D608013355C302B3C608081F
:1036C400935707013373C302B385A6024203B3E7DA
:1036D400670063FAB700C6971303F5FF63E41701A5
:1036E40063E8B7321A858D8FB3D5C702334707080D
:1036F400B3F7C702B386B602C2075D8F637BD700F8
:1037040046979387F5FF63651701F9156363D7003F
:10371400BE8542054D8D814563090800B337A0007D
:10372400B305B0409D8D3305A040828063FED50073
:1037340081450145D5B7B337A000B305B0409D8D91
:103744003305A0407D5811B7C16763E4F618B70785
:103754000001B3B7F600B307F040E19BE107B3D82B
:10376400F600171700001307277F46971823130343
:1037740000023E97B308E3406311E31863ECB626F6
:103784003335C50013451500814579B75DC2C1675E
:10379400637AF62413330610134313000E03B3564F
:1037A4006600971700009387277BB69794239307A7
:1037B40000029A96B38ED740639CD708B386C5405F
:1037C4008545135306013346060833D566029357DD
:1037D4000701B3F66602330EC502C206D58F63FA3B
:1037E400C701C6979306F5FF63E4170163EFC7218A
:1037F4003685B387C741B3D6670233470708B3F7A3
:1038040067023386C602C2075D8F637BC700469793
:103814009387F6FF63651701F9166363C700BE86D5
:103824004205558DD5BD9337061093C717008E07F3
:1038340089BD81469717000093870772B697942332
:103844000143930700029A96B38ED740E388D7F6D4
:10385400B318D60133DED50013D30801B3576E0273
:10386400B356D5003317D50133C60808B395D5012F
:10387400CD8E93D50601337E6E023305F602420ED9
:10388400B3E5C50163FBA500C695138EF7FF63EA94
:10389400151763F8A516F917C695898D33D56502F2
:1038A400B3C60608B3F56502330EA602C205CD8E73
:1038B40063FBC601C6969305F5FF63E0161563FE28
:1038C400C6137915C69693950701B386C641C98D6B
:1038D400EDBD93B7061093C717008E07B3D8F60053
:1038E40017170000130747674697182313030002AE
:1038F4003E97B308E340E303E3E8B35EE600B39620
:103904001601B3EEDE0033D3E50013DF0E01B35727
:10391400E303B39515013357E5004D8F33CE0E08FD
:1039240093560701331616013373E303B305FE02FE
:103934004203B3E6660063FBB600F6961383F7FF13
:1039440063E3D60D63F1B60CF917F6968D8EB3D5F5
:10395400E60333470708B3F6E6033303BE02C206A1
:10396400558F637B670076979386F5FF6369D70964
:1039740063776708F9157697C207416FCD8F930671
:10398400FFFFB3F5D70013DE0701F18E4182B38E3A
:10399400D50233076740B306DE0213D30E01B385A5
:1039A400C502B6959A95330ECE0263F3D5007A9E7E
:1039B40093D60501F2966363D7026305D7003E856B
:1039C400814599BBC166FD1633F7D5004207B3FEA6
:1039D400DE00331515017697E373E5FE1385F7FFD3
:1039E40081451DBBB70700016377F60293560601B4
:1039F400414345BB8145054505B32E85E9B5B685EB
:103A0400A5BFF28759BD9A8791B77915C697D5B3E3
:103A14007915C697C9B993568601614359B35D7147
:103A240022D406D62A842EDA32DC36DEBAC0BEC2EE
:103A3400C2C4C6C603A5818211C51C4D81E72AC62E
:103A4400912B32450C455418228636CEEF00B02017
:103A5400B250225461618280011126CA06CE22CC62
:103A64004AC84EC652C4AA8419E11C4502901C4D92
:103A74002E89ADE305239C4C8044B9CF97170000F1
:103A840093878761631DF404C0407C50858B99E75C
:103A94005E2493F7072099E3284C8D2D5E24A18B97
:103AA40099C31C48D5E3A28526859D2A51CDFD5492
:103AB4007C50858B99E75E2493F7072099E3284C83
:103AC400B925F24062444249B249224A2685D24489
:103AD4000561828000455DB726856D2945B7971736
:103AE4000000938767596314F400804479BF9717E3
:103AF400000093876756E31AF4F8C04479B71CC4EE
:103B0400050963C807021C401387170018C08CA35B
:103B14001C4483450900FD17FDF11CC463D9070249
:103B24002286A94526853D28FD57E302F5F8A944D8
:103B340041B7184C63C4E700E39745FD2286268508
:103B44001520E31735FDA5B7FD59294AD1B71C4007
:103B54001387170018C0294798A3D1BFAA8503A5C6
:103B64008182DDBD011122CC26CA4AC806CE4EC6CA
:103B7400AA842E89328401C51C4D91E3212997170B
:103B84000000938767516317F402C0401C4C1CC4A7
:103B94005E24A18B99C31C4895EFA28526854920F4
:103BA40015C97D59F2406244D244B2494A8542491A
:103BB40005618280971700009387074C6314F40013
:103BC4008044E9B79717000093870749E310F4FC92
:103BD400C0446DBF1C4808409379F90F1379F90F5D
:103BE4001D8D5C486346F500A2852685912C55F908
:103BF4001C440505FD171CC41C401387170018C07E
:103C0400238037015C486388A7005E24858BD9DB59
:103C1400A947E319F9F8A28526851D2441D551B792
:103C2400411122C426C24AC006C683A481822A89BD
:103C34002E8489C49C4C99E32685A92E97170000ED
:103C4400938787456313F402C0408317C40013F7B6
:103C5400870025E713F707010DEB25472320E9002B
:103C640093E707045EA47D5571A09717000093871E
:103C7400A7406314F4008044C9BF971700009387DA
:103C8400A73DE314F4FCC044C9B7918B9DC34C58C1
:103C940089C9930744046384F5004A85B92B232A10
:103CA40004025E242322040093F7B7FD5EA41C489B
:103CB4001CC05E2493E787005EA41C4899EB5E2435
:103CC4001307002093F707286385E700A2854A8538
:103CD40061298317C40013F717001DC35848232410
:103CE40004003307E04018CC1848014501E713F7F6
:103CF40007083DF7B24022449244024941018280C0
:103D040013F72700814611E3544814C4F1BF839785
:103D1400C500011122CC26CA06CE4AC84EC613F7E6
:103D24008700AA842E8479E3D8416345E000B84132
:103D34006356E008585459C303A9040023A004009F
:103D44000C5093D7C748A9CB70485E24918B99C770
:103D54005C401D8E5C5899C33C401D8E5C540C50D5
:103D6400814626858297FD57630CF5041C48056738
:103D7400232204001CC05E24F98F91C368C84C58E8
:103D840023A0240185CD930744046384F50026858C
:103D9400AD21232A04021DA00146854626850297EB
:103DA400FD572A86E313F5FA9C40C5D3754763850E
:103DB400E70059476395E70623A024010145B5A010
:103DC40098408317C40001CFF5466305D700D94650
:103DD4006319D7041C48232204001CC04DB718489B
:103DE4002322040093D7C74818C041BF83A9050103
:103DF400E38609FC03A905008D8B23A03501330953
:103E04003941014791E3D84918C4E35920FB1C54B4
:103E14000C50CA864E8626858297634FA00083176E
:103E2400C40093E707045EA47D55F2406244D24483
:103E34004249B24905618280AA993309A940F1B780
:103E44009C49411106C622C426C281EB8144B2407A
:103E540022442685924441018280AA842E8401C58D
:103E64001C4D91E3052A971700009387E722631CF2
:103E7400F402C0408317C400F1DB7850058B11E7CE
:103E840093F7072099E3284C51242685A2854135D0
:103E94007C50AA84858BC5FF5E2493F70720C5FB5D
:103EA400284CB5246DB7971700009387E71C63145B
:103EB400F4008044C1B7971700009387E719E31B08
:103EC400F4FAC04445BF411122C406C62A844EA553
:103ED40072A52320050023220500232405002322A4
:103EE400050623280500232A0500232C0500214666
:103EF40081451305C505EFD07FB59717000093875B
:103F040047835CD097170000938747851CD4971785
:103F14000000938707895CD4971700009387478B29
:103F2400B24000D01CD82244410182809705000091
:103F3400938545F1BDA2411126C29307800693845F
:103F4400F5FFB384F4024AC02E8922C406C69385C1
:103F54004407692E2A8401CD23200500232225014C
:103F6400310508C4138684068145EFD03FAEB240C4
:103F74002285224492440249410182801385018DA5
:103F840071A21385018D61A21385418D41A2138510
:103F9400418DB5AA411122C406C62A84F5371C4CAA
:103FA40089C72244B2404101DDB7970700009387D7
:103FB40027F81CD4232404042326040423280404FB
:103FC40083A741886394870085471CCC22853D20C4
:103FD40048C02285252008C422850D2048C44840B5
:103FE40001469145CD3508440546A545E93D48447B
:103FF4000946C945C93D85471CCC65B7411126C250
:104004004AC006C622C42A89953F83A441889C4C91
:1040140099E326854137938484048044DC40FD176A
:1040240063D607009C40BDC38440C5BF0317C400CA
:1040340039EBC17785075CC4130584052322040684
:10404400E92081372146232004002324040023226D
:10405400040023280400232A0400232C040081459F
:104064001305C405EFD09F9E232A0402232C0402C7
:104074002324040423260404B240228522449244C7
:104084000249410182801304840651BF91454A8547
:104094005D3588C02A8449F9ED35B1472320F900FC
:1040A400E1BF797122D44AD04ECE52CC5AC85EC6F2
:1040B40006D626D256CA2A892E8A13048504814933
:1040C400054BFD5B0444832A4400FD1A63D00A02B5
:1040D40000406DF8B250225492540259624AD24AB6
:1040E400424BB24B4E85F24945618280DE24637BAC
:1040F400FB008397E40063877701A6854A85029ACB
:10410400B3E9A90093848406C9B78280828082803F
:104114005971A2D42E848395E500A6D2CAD086D63E
:10412400B284368963D205025E2493F707088DEBC7
:1041340013070040B65026542320F90098C00659AE
:1041440096540145656182803000E92DE34E05FCFB
:104154003247BD67F98F7977BA9793B71700C9BF0C
:10416400814713070004F9B7DE25797122D406D6F6
:1041740026D24AD04ECE898B2E8491CF93077404D5
:104184001CC01CC885475CC8B250225492540259C2
:10419400F2494561828074003000AA84953FA249A7
:1041A4002A892685CE85992219E98317C40013F735
:1041B400072079FBF19B93E727005EA4C1B797071B
:1041C40000009387E7D69CD45E2408C008C893E710
:1041D40007085EA4B247232A340199CB8315E4006F
:1041E4002685AD2511C55E24F19B93E717005EA4D7
:1041F4005E2433E527014AA441BFD1CD83A7C5FF7F
:10420400011122CC06CE1384C5FF63D307003E946C
:104214002AC64D251387C18D1C43324581EB2322C9
:10422400040000C36244F240056149AD637DF400BB
:104234001040B306C4006396D7009443DC43B2969F
:1042440014C05CC0F9BF3E87DC4399C3E37DF4FE30
:1042540014433306D700631F86001040B29614C37C
:104264003306D700E390C7FC9043DC43B29614C3F3
:104274005CC34DBF6375C400B1471CC165B7104032
:10428400B306C4006396D7009443DC43B29614C0CB
:104294005CC040C341BF828041114AC01389818DF3
:1042A4008327090022C426C206C6AA842E8489E76D
:1042B400814591292320A900A2852685A9217D591C
:1042C400631A25017D54B240228522449244024956
:1042D40041018280130435007198E30685FEB3051D
:1042E400A44026850D21E31025FFE9BF011126CA4C
:1042F40093843500F1984AC8A104B14706CE22CC74
:104304004EC62A89B3F4F40A63C4040063FDB400FE
:10431400B1472320F9000145F2406244D2444249A6
:10432400B2490561828079239389C18D83A70900ED
:104334003E8431E4A6854A858537FD572A84631671
:10434400F50A03A40900A287C1EB8329040081456F
:104354004A85A2994D2E6394A9081C408D044A8570
:104364009D8CF198B147A104B3F4F40AA6852D37C6
:10437400FD576306F5061C40A6971CC015A0144003
:10438400858E63C806042D47637DD70204C03307B6
:1043940094006396870223A0E9005C4014C35CC3C5
:1043A4004A85292B1305B400930744006199330708
:1043B400F540E303F5F63A94898F1CC0B1BFD8C326
:1043C400E9BF58406395870023A0E900D1BFD8C353
:1043D400C1BFA2874040B1BF3E84DC43B5B7B147FB
:1043E4002320F9004A85D9293DB704C155BF1C468D
:1043F400FD171CC663DA0700184E63C5E700A9471A
:104404006394F5006FF00FF61C422E851387170096
:1044140018C28CA38280011122CC26CA4AC84EC677
:1044240052C406CE2A89AE893284B304D6007D5A9A
:1044340063149400014501A80C204E864A85453F2B
:104444000504E31745FFF2406244D2444249B249AD
:10445400224A05618280357122CD26CB4AC94EC7D6
:1044640006CF52C556C35AC1DEDEE2DCAA892E84C9
:104474003289B68401C51C4D91E3293E971700008B
:10448400938787C16317F40403A449007C50858B88
:1044940099E75E2493F7072099E3284C85395E2435
:1044A400A18B99C31C48B9EFA2854E85EFF04FF755
:1044B40031C97C50858BA1C37D55FA406A44DA44E6
:1044C4004A49BA492A4A9A4A0A4BF65B665C0D6124
:1044D400828097170000938727BA6315F40003A41A
:1044E40089006DB797170000938707B7E310F4FAB4
:1044F40003A4C90061BF5E2493F70720D5FF284CAD
:1045040039315DBF93070002A304F102930700034E
:1045140002D22305F10226C6930B5002971A00001B
:10452400938A8AB9294BCA849C2099C363997709D1
:10453400338C2441638D2401E2864A86A2854E850C
:10454400D93DFD576306F5189257E2973ED29C2059
:1045540063800718FD571389140002C802CE3ECAAF
:1045640002CCA309010482D483450900154656856B
:104574003526C2479304190029E513F7070109C733
:1045840013070002A309E10413F7870009C71307FF
:10459400B002A309E104834609001307A00263895A
:1045A400E602F247CA848146254698209385140082
:1045B400130707FD6372E60685C63ECE15A0850483
:1045C400A5B733055541B397A72826893EC869BFC7
:1045D400324793064700184336C6634807023ACE6B
:1045E40098209307E002631CF70498309307A00215
:1045F400631AF702B2478904138747009C433AC6FB
:104604007D57B3E7E70A3ECA1DA83307E04093E7A6
:1046140027003ACE3EC8E9B7B3876703AE84854620
:10462400BA9761B7850402CA814681472546982016
:1046340093851400130707FD6372E606E9F68C20E0
:104644000D46171500001305A5A7892C11CD971742
:1046540000009387E7A61D8DC24713070004331794
:10466400A700D98F85043EC88C2019461715000071
:10467400130545A5138914002304B102052435C983
:104684009307000095E74247B2471377071009CF15
:1046940091073EC69257D2973ED271B5B38767034E
:1046A400AE848546BA9761B79D07E19BA107D5B74C
:1046B400780097060000938646D622860C084E851D
:1046C40097000000E7000000FD572A8AE314F5FC78
:1046D4007C50858B81EB5E2493F7072081E7284C7F
:1046E400EFF0FFA25E2493F70704E39707DC12556B
:1046F400E9B3780097060000938626D222860C0838
:104704004E85F124D1B7411122C42A842E8523A0D9
:10471400018E06C6EFD05FFFFD576316F50083A731
:10472400018E91C31CC0B2402244410182804111D8
:1047340022C42E848395E50006C63123634905000F
:104744007C48AA977CC8B2402244410182805E24FE
:104754009397C7485EA4C5BFDE25011122CC26CAA3
:104764004AC84EC606CE93F70710AA842E8432890F
:10477400B68991C78395E50089460146DD285E2404
:104784008315E400F2409397C7485EA46244CE8642
:104794004A86B24942492685D24405611DA8411181
:1047A40022C42E848395E50006C6E1207D575E244D
:1047B4006319E5009397C7485EA4B24022444101BF
:1047C40082809397C72868C85EA4C5BF8395E50017
:1047D4003DA0411122C42A842E85B285368623A0A9
:1047E400018E06C6EFD03FF0FD576316F50083A790
:1047F400018E91C31CC0B240224441018280411108
:1048040022C42A842E8523A0018E06C69521FD5735
:104814006316F50083A7018E91C31CC0B2402244E5
:1048240041018280411122C42A842E85B28523A0AD
:10483400018E06C6A121FD576316F50083A7018EDC
:1048440091C31CC0B240224441018280411122C460
:104854002A842E8523A0018E06C63D21FD576316AA
:10486400F50083A7018E91C31CC0B24022444101CC
:104874008280411122C42A842E85B285368623A0E3
:10488400018E06C60129FD576316F50083A7018E24
:1048940091C31CC0B24022444101828093F5F50FBC
:1048A4002A966314C500014582801C21E38EB7FE5D
:1048B4000505C5BF1385C18C6FF05F851385C18C59
:1048C4006FF0FF84797156CA9C49BA8A984522D4FC
:1048D4004AD04ECE52CC06D626D25AC85EC6B3E7CC
:1048E400E70A1CC203C73504AA892E843289368A92
:1048F40019C385071CC21C4093F7070291C783277D
:10490400090089072320F9000440998891E8130BD2
:104914009401FD5B5C4403270900998F63CCF40484
:1049240083473404B336F0001C4093F70702A5EB29
:1049340013063404D2854E85829AFD576303F50429
:104944001C4011478144998B6399E7008327090030
:1049540044449D8C8147B3E4F40A1C4418486354CE
:10496400F700998FBE94014969047D5B639824051F
:10497400014509A885465A86D2854E85829A631ECA
:1049840075017D55B250225492540259F249624A3B
:10499400D24A424BB24B456182808504A5BF33079E
:1049A400D40013060003A301C704034754049387E8
:1049B4001600A2978906A381E7049DBF8546228637
:1049C400D2854E85829AE30E65FB050945B7797158
:1049D40022D44AD04ECE52CC06D626D256CA5AC873
:1049E40003C88501930780072A892E84B289368AF1
:1049F40063E20703930720069386350463E1070304
:104A0400630B081C93078005170600001306066C49
:104A14006307F814930424042301040515A89307D9
:104A2400D8F993F7F70F5546E366F6FE170600002C
:104A34001306466CB3C7C7209C43B29782871C43B6
:104A440093842504938647009C4314C32381F5046F
:104A5400854765A290411C4313750608938547005A
:104A640029C19C430CC3584063DE07129305D0024E
:104A7400A301B40418C4635E0702B307F040170629
:104A840000001306A6642948B68433F70703FD140F
:104A94003297182398A03E87B3D70703E37707FF1D
:104AA40085A09C43137506040CC355DD939757608A
:104AB4005DBF6D9A10C0D1B790411C4313750608B1
:104AC4009385470001C50CC39C4331A013760604AB
:104AD4000CC37DDA9E231307F006170600001306A5
:104AE400E65E631FE80A2148A3010404584018C481
:104AF400E34C07F80C40ED990CC0D9F7B68449F79C
:104B0400A147631EF8001C40858B91CB58401C487C
:104B140063C7E70093070003A38FF4FEFD14858E9B
:104B240014C85287CE867000A2854A85613BFD5A1F
:104B34006319550D7D55B250225492540259F249CD
:104B4400624AD24A424B456182809C4193E7070204
:104B54009CC1130880071706000013066658A302B9
:104B640004050C401C4313F805081385470063052E
:104B7400080008C39C4339A013F8050408C3E30BD9
:104B840008FE9E2313F7150001C793E505020CC028
:104B940099C3414891BF18401377F7FD18C0D5BF9A
:104BA400294899B7170600001306465229483DBF05
:104BB40090411C43CC4913780608138547006306CB
:104BC400080008C39C438CC339A008C313760604A9
:104BD4009C4375DA8EA323280400B68499B71C433A
:104BE400D04181459386470014C3844326857D3193
:104BF40001C5B30795405CC05C401CC8A301040414
:104C04000DB714482686CE854A85029AE30455F3E7
:104C14001C40898B85E74844B2473365F50A21BFB8
:104C240085465686CE854A85029AE30565F1850454
:104C34005C443247998FE3C5F4FEF1BF8144930A83
:104C440094017D5BF5B7411122C42A842E85B28577
:104C5400368623A0018E06C6A120FD576316F500F3
:104C640083A7018E91C31CC0B240224441018280BB
:104C74009307800523A0F18E7D55828093078005DC
:104C840023A0F18E7D5582809307800523A0F18EA9
:104C9400014582809307800523A0F18E7D55828093
:104CA4009307800523A0F18E7D55828040D9FFFFB4
:104CB40058D9FFFF7CD9FFFF86D9FFFF9CD9FFFF9E
:104CC40054DBFFFF76DBFFFF98DBFFFFBADBFFFF60
:104CD400DCDBFFFFFEDBFFFF20DCFFFFFE0065786F
:104CE400706572696D656E74616C00004D616E75FE
:104CF4006661637475726572204E616D65000000B3
:104D0400536F667477617265205265766973696F53
:104D14006E000000486172647761726520526576A6
:104D24006973696F6E0000004669726D7761726520
:104D3400205265766973696F6E000000536572696D
:104D4400616C204E756D6265720000004D6F646584
:104D54006C204E756D62657200000000F6DDFFFF89
:104D640014DEFFFF2ADEFFFF40DEFFFF56DEFFFFFB
:104D74002A20000043483538355F424C455F4C4992
:104D8400425F56312E330000686561642066696CA9
:104D940065206572726F722E2E2E00004C494220DF
:104DA400696E6974206572726F7220636F64653A0C
:104DB400202578202E2E2E0A00000000525353493D
:104DC400202D256420644220436F6E6E20202578B8
:104DD400200A00004552522E2E000000496E6974CC
:104DE40069616C697A65642E2E00000044697363FE
:104DF4006F6E6E65637465642E2E20526561736FE9
:104E04006E3A25780A00000041647665727469730D
:104E1400696E672E2E000000436F6E6E65637469C1
:104E24006F6E206D61782E2E2E000000436F6E6E23
:104E3400202578202D20496E74202578200A000032
:104E4400436F6E6E65637465642E2E00436F6E6EE1
:104E54006563746564204164766572746973696E10
:104E6400672E2E0057616974696E6720666F722021
:104E74006164766572746973696E672E2E00000032
:104E84004572726F722E2E004572726F722E2E252D
:104E9400780A000042E2FFFF58E2FFFF14E3FFFF3D
:104EA4007CE2FFFF0AE3FFFF52E3FFFF55706461FA
:104EB4007465202578202D20496E74202578200AD9
:104EC4000000000052656365697665207363616E56
:104ED400207265712066726F6D20257820257820F8
:104EE400257820257820257820257820202E2E0A44
:104EF4000000000050687920757064617465205268
:104F0400783A25782054783A2578202E2E0A000005
:104F140070726F66696C65204368616E67654342B1
:104F24002043484152312E2E2000000070726F66DB
:104F3400696C65204368616E67654342204348415C
:104F440052332E2E000000006A756D70204F5441BC
:104F5400200000000001020203030303040404040C
:104F640004040404050505050505050505050505F1
:104F740005050505060606060606060606060606D1
:104F840006060606060606060606060606060606BD
:104F940006060606070707070707070707070707A1
:104FA400070707070707070707070707070707078D
:104FB400070707070707070707070707070707077D
:104FC400070707070707070707070707070707076D
:104FD4000707070708080808080808080808080851
:104FE400080808080808080808080808080808083D
:104FF400080808080808080808080808080808082D
:10500400080808080808080808080808080808081C
:10501400080808080808080808080808080808080C
:1050240008080808080808080808080808080808FC
:1050340008080808080808080808080808080808EC
:1050440008080808080808080808080808080808DC
:10505400080808080000000000000000000000002C
:10506400000000000000000000000000000000003C
:10507400000000000000000000000000000000002C
:10508400000000000000000000000000000000001C
:10509400000000000000000000000000000000000C
:1050A40000000000000000000000000000000000FC
:1050B40000000000232D302B20000000686C4C0001
:1050C400656667454647000030313233343536373C
:1050D4003839414243444546000000003031323300
:1050E4003435363738396162636465660000000020
:1050F4004EF9FFFF64F9FFFF24F9FFFF24F9FFFFD6
:1051040024F9FFFF24F9FFFF64F9FFFF24F9FFFFEF
:1051140024F9FFFF24F9FFFF24F9FFFFC0FAFFFF82
:10512400C8F9FFFF5AFAFFFF24F9FFFF24F9FFFF34
:10513400EEFAFFFF24F9FFFFC8F9FFFF24F9FFFF90
:0851440024F9FFFF62FAFFFFEE
:10514C00902700000000000000000000020000009A
:10515C000C00040001000000785D0020020000003B
:10516C0012000400010000005B5D00200200000042
:10517C00A05D002001000000D05D002002000000B6
:10518C0012000400010000005A5D00200200000023
:10519C009C5D002001000000504D0000020000004A
:1051AC001200040001000000595D00200200000004
:1051BC00985D002001000000404D0000020000003E
:1051CC001200040001000000585D002002000000E5
:1051DC00945D0020010000002C4D00000200000036
:1051EC001200040001000000575D002002000000C6
:1051FC00905D002001000000184D0000020000002E
:10520C001200040001000000565D002002000000A6
:10521C008C5D002001000000044D00000200000025
:10522C001200040001000000555D00200200000087
:10523C00885D002001000000F04C0000020000001E
:10524C001200040001000000545D00200200000068
:10525C00845D002001000000E04C00000200000012
:10526C001200040001000000535D00200200000049
:10527C00805D0020010000004C5D002046290000EC
:10528C00B629000000000000020000000C00040021
:10529C0001000000A85D00200200000012000400C4
:1052AC0001000000605D002002000000C05D0020D5
:1052BC0003000000F05D0020020000001600040056
:1052CC0001000000945C00200200000012000400A9
:1052DC00010000005F5D002002000000BC5D0020AA
:1052EC0001000000EC5D002002000000160004002C
:1052FC0001000000805C002002000000120004008D
:10530C00010000005E5D002002000000B85D00207E
:10531C0002000000E85D00200200000016000400FE
:10532C00010000006C5C0020020000001200040070
:10533C00010000005D5D002002000000B45D002053
:10534C0000000000E45D00200200000018000400D2
:10535C0003000000E05D00200200000016000400C5
:10536C0001000000585C0020020000001200040044
:10537C00010000005C5D002002000000B05D002018
:10538C0004000000D85D002002000000160004009C
:10539C0001000000445C0020436861726163746525
:1053AC007269737469632035000000004368617290
:1053BC006163746572697374696320340000000062
:1053CC0043686172616374657269737469632033D5
:1053DC0000000000436861726163746572697374E4
:1053EC006963203200000000436861726163746578
:1053FC00726973746963203100000000B2300000E0
:10540C00403000000032000053696D706C65205014
:10541C0065726970686572616C00000000000000C4
:10542C00120953696D706C652050657269706865FE
:10543C0072616C051206006400020A000000000094
:10544C0098500000785000005850000000000000F8
:10545C000000000000000000000000000000000040
:10546C000000000000000000000000000000000030
:10547C000000000000000000000000000000000020
:10548C000000000000000000000000000000000010
:10549C000000000000000000000000004C7600201E
:1054AC0001D70700001001020202020202020202EE
:1054BC00021008020A0000009635000002010603E3
:1054CC0002E0FFFFE85C002000000000020000008A
:1054DC00A45D0020502A00002A2A0000292A00007E
:1054EC00282A0000272A0000262A0000252A00006E
:1054FC00242A0000232A00000A18000002000000E1
:10550C00C45D0020E5FF0000E4FF0000E3FF0000A5
:10551C00E2FF0000E1FF0000E0FF0000FFFFFFFFE3
:04552C00E85C002017
:0400000300001000E9
:00000001FF
