:040000006F2000234A
:100004000000000000000000A00000202C040020DC
:10001400A9BDF9F3FC01002000000000000000006D
:10002400FC010020A00000200000000000000000EF
:10003400A000002000000000A0000020000000003C
:1000440078060020A0000020A0000020A0000020CE
:10005400A0000020AC040020A0000020000000004C
:10006400A0000020A0000020A0000020A00000208C
:10007400C2050020A0000020A0000020A000002055
:100084007C050020A0000020A0000020A00000208B
:10009400A0000020A0000020A0000020A00000205C
:1000A40001A0B7170040984B41111367070198CB83
:1000B400982B1377E70F98AB1307800873370780E3
:1000C400137787083AC60F100000130770052380C2
:1000D400E704130780FA2380E7040F100000B847F1
:1000E400B70600069506558FB8C703C7B70413773C
:1000F400F70DA385E704B82713672701B8A71307EB
:1001040050149AA7372700408346578093F6F60E7B
:10011400A302D7808946A303D78003C7E7041377D4
:10012400C70F136717002387E70403C7F702136792
:100134002700A387E702982B1367170098AB238047
:100144000704B247F3A707800F1000004101828023
:10015400EFF03FF513050020970500009385450A4D
:10016400172600001306C60C63FAC5008322050097
:1001740023A0550011059105E3EAC5FE177500E0BB
:100184001305C51A972500009385850A1386C18037
:1001940063FAC5008322050023A0550011059105CB
:1001A400E3EAC5FE13850181974500009385450068
:1001B4006377B500232005001105E36DB5FE9302B6
:1001C4005002739002BC8D427390428085427390BA
:1001D40012BC93028008739002309702000093824D
:1001E40062E293E2320073905230973200E09382DD
:0C01F400623C7390123473002030000055
:100200009305000273A04580824573901534924097
:100210002242B2424243D2436244F24402559255D2
:100220002256B2564257D2576258F258064996495A
:10023000264AB64A464BD64B664CF64C065D965D52
:10024000265EB65E465FD65F0961730020304111BD
:10025000B7170040985F3AC6945F3247E39CE6FECA
:10026000324541018280B7170040984B4111136716
:10027000070198CB982B1377E70F98AB13078008EB
:1002800073370780137787083AC60F1000001307EB
:1002900070052380E704130780FA2380E7040F101A
:1002A00000001307000C6315E5029A271367070C7B
:1002B0009AA7B7170040982B1367170098AB2380B5
:1002C0000704B247F3A707800F10000041018280A6
:1002D000B82793760520ADCA118B29E303C7E7043D
:1002E00003C6E7041377F70F136636002387C704A6
:1002F000B02713664600B0A792278E27334606081C
:1003000093E5050C8EA7A5470100FD1793F7F70F9E
:10031000E5FFB717004092A72387E70493770510FE
:10032000DDC3371700403C2793E707013CA79377CD
:10033000F50199EFB727004003C7578013670701FE
:10034000A382E7801D470DA013672700B8A7F9B760
:1003500025476366F704B727004003C75780137724
:10036000F70EA382E7800547A383E780334505089E
:10037000B71700401367050C9AA78AA7B5CE03C725
:10038000570483C65704418B858A558F1DF3B82BBC
:10039000418B05D3B8271377D70FB8A719BF937729
:1003A000050199EBB727004003C757801377F70E75
:1003B000A382E78009474DBFB727004003C7578096
:1003C0001377F70EB5BF9377850181EFB72700400C
:1003D00003C757801377F70EA382E7801307100532
:1003E00061B7B727004003C757801377F70EA38282
:1003F000E780130770058DBFB8271377B70F71BF5C
:1004000037E700E01C435443A183E206D58F1CC1AB
:10041000FD572320F7182322F71882801317850031
:10042000B7E700E023A0E710618123A2A710828034
:10043000411181460146814511450D2E1307800863
:10044000F337078093F787083EC40F100000B717F3
:100450000040130670052380C704930680FA2380AA
:10046000D7040F100000FD55CEB723800704A24526
:10047000F3A505800F1000007337078013778708F6
:100480003AC60F1000002380C7042380D7040F1042
:10049000000003C76704136717002383E704238062
:1004A0000704B247F3A707800F10000001A0000067
:1004B000197106C212C416C61AC81ECA22CC26CE8C
:1004C0002AD02ED232D436D63AD83EDA42DC46DEB4
:1004D000CAC0CEC2D2C4D6C6DAC8DECAE2CCE6CE24
:1004E000EAD0EED2F2D4F6D6FAD8FEDA93850181BC
:1004F0008841E700050092402242B2424243D24383
:100500006244F244025592552256B2564257D2578F
:100510006258F25806499649264AB64A464BD64B87
:10052000664CF64C065D965D265EB65E465FD65F0F
:10053000096173002030B7F700E088478280B7E791
:1005400000E0054723A2E7208280B7370040938769
:10055000C7C098433A9588C382804111B7170040BD
:10056000985F3AC6945F3247E39CE6FE324541010C
:100570008280B7E700E03707001023A0E7208280E1
:10058000011122CE8547373400402303F4C06800B0
:10059000EF00B02F01EDB24791CF1307C4C01CC3C9
:1005A00089472300F4C091472300F4C072440561D9
:1005B00073002030177500E0130585AF976000E0E9
:1005C000E7804093E5B7B71700401307000323887F
:1005D000E702854723ACF18073002030411122C42B
:1005E00006C62A84EF00D0541385C1A100C9224455
:1005F000B240C1471CC541016F00102A138501A0FC
:10060000C1471CC5231C05006F00D06B411106C6F5
:10061000EF104026A382A1829387418203870700BF
:1006200019C73A9509473345E50213154560138705
:10063000C18188A31C43B24085071CC3410182804D
:10064000411122C406C6937715002A8491C37D3FC9
:100650009377840089CB177500E01305E5A79760B1
:1006600000E0E7802089418811C4138701821C4380
:1006700085071CC3B24022444101828037270040D5
:100680007C23858B99CF85477CA31385019C930799
:1006900050451EA13C2185073CA183C751823CB136
:1006A000353F73002030411106C6EF003003F5BF1F
:1006B0002303048015472303E48001002302A48060
:1006C000828083076480E3CE07FE23030480828058
:1006D00083076480E3CE07FE03454480828083075E
:1006E0006480E3CE07FE2302A4808280411126C4E9
:1006F0004AC24EC006C61377F50BAD47AA892E89AC
:1007000095446306F70019456537653F8D444E856E
:100710004537FD59FD1463983401B240A244124993
:10072000824941018280135509011375F50F453F38
:100730002209CDB7011126CC06CEB70408005137E7
:100740001545BD37713769372AC6A53F32459377BE
:10075000150089EB136515001375F50FF240E2449F
:1007600005618280FD14E9FC0145CDBF3971B7F701
:10077000070006DE26DC4ADA4ED852D656D45AD2C4
:100780005ED062CE03AB47027D57B7E700E083AA95
:10079000070022C603AA470023A0E71823A2E718F0
:1007A000B71B0040930770052380FB04930780FA72
:1007B0002380FB0483C74B041147AA8993E7070EE4
:1007C0002382FB04372400401305F00F2303E48049
:1007D0002E8C3289B684E93DED35938779FF93F706
:1007E000F70F0947137BFB006362F712A147370736
:1007F00008006307FB00B70707003E9C3787070028
:100800007955637EEC02B3878401636AF702A947D6
:100810006398F90689E481446D3526850DA0E2854B
:100820000945E93505090345F9FFFD14050C453D6A
:1008300081C49377FC0FFDF7F53D69FD7D55B71732
:100840000040130770052380E704130780FA238014
:10085000E70403C74704418B2382E704F250B7E75C
:1008600000E023A0571123A24711E2543244525909
:10087000C259325AA25A125B825B724C2161828049
:10088000A547639AF906A1478569631DFB02938713
:10089000F9FFB3869700B374FC00B69493C7F7FFD3
:1008A000FD8C33FC8701416B856B9387F9FFB3F7B0
:1008B000870199E363FF340193D94900C147E3E617
:1008C00037FF91BF9307F00FE9B78567C169FD173F
:1008D000C9B71305800D638869011305000263849D
:1008E000790113051008E2851135A93521D94E9CEF
:1008F000B3843441C1B7E2852D45CD3BCA94E30CA6
:1009000099F00509F133A30FA9FED5BF9387F9FF2D
:1009100093F7F70F636FF70AA1476319FB06B70751
:1009200008003E9C83C75B043707070093F7070264
:1009300099E337870700B70708003E977955E370BA
:10094000ECF0B3079C00E36CF7EE8947639AF90477
:100950008980D549E38104ECE2850945413B1109D1
:100960000327C9FF91472320E48003076480E34EF7
:1009700007FE23033481FD17EDFBFD14110C81C428
:100980009377FC0FE9FF7D3371F54DBD83C75B04A1
:100990003707070093F70702D5F33787070079BFBA
:1009A0008547E384F9F2E2852D4589339389F4FF85
:1009B000E38304E6313B93F7390091EB832604800F
:1009C0000327090093074900E398E6E43E89CE84B3
:1009D000F1BFB5476396F9001305900BD13925BDDA
:1009E000B1471305B00AE38BF9FE99476394F90404
:1009F000A1476315FB00B70708003E9CE2852D4523
:100A0000F53181440D4BA149E1316396640183279F
:100A100004802320F9008504E39834FF83270480B1
:100A200013172C01635507002312F900EDB323229D
:100A3000F900D5B39D476399F90281451305B004C8
:100A40007531BD442320090023220900FD59493195
:100A500093F77400CA9703C70700FD14398D2380EC
:100A6000A700E39634FF45BB91476399F90013054E
:100A700060063D39B931130590098DB7E38D09D86A
:100A8000F15459BB4111B7E700E04AC003A9070080
:100A900026C23707200006C622C4AA843379E9009B
:100AA00023A0E7180F10000083A7818201440146AC
:100AB00085E301C8A28513858182973000E0E78035
:100AC00000B6A1652685973000E0E78060DD0DA0C7
:100AD00003C7E7FF6319970205CCA28513858182BE
:100AE000973000E0E780A0B3A1652685EF100047AE
:100AF000B24022852244B7E700E023A027119244A8
:100B000002494101828011E03E8683A787FF4DB7ED
:100B10003E84E5BF37E700E01C43B70620002320F2
:100B2000D718F58F0F10000019C191C111E637E7F2
:100B300000E02320F71082802E960F70B650D5BFAC
:100B400037E700E01C43B70620002320D718F58FB5
:100B50000F10000001C53307C50011E637E700E0BC
:100B60002320F71082800505A30FB5FEE31DE5FEE7
:100B7000F5B737E700E01C43B70620002320D7185D
:100B8000F58F0F10000001C599C1014711EA37E741
:100B900000E02320F710054582800507E309E6FE03
:100BA0003308E500B386E500034808009422E30615
:100BB000D8FE37E700E02320F7100145828037E7B1
:100BC00000E01C43B70620002320D718F58F0F1034
:100BD000000001C53307C50019E637E700E0232010
:100BE000F7100145828014210505E398B6FEE31C49
:100BF000E5FE37E700E02320F71005458280797194
:100C000026D29384018422D4804006D64AD04ECE88
:100C100052CC56CA5AC85EC662C44DC437C9C9014F
:100C2000814B138B81831309F937173A0000130A9C
:100C3000EA0D973A0000938AEA0A973900009389EF
:100C4000E9113E2099EF5C44639A0B009CC0032C91
:100C5000C4002285EF10C004628489A823A6FB008B
:100C6000FDB783270B0082971C443307F54063765A
:100C7000F50003A789001D8F2A976368E9062E20D7
:100C80000820EF10A02D5C405844A9CB0C44173627
:100C900000000326260DAE97BE8663E4B70063E42A
:100CA000C700B386C74014C4A28B3A8459F81737DB
:100CB000000003272704894763E6E7009737000011
:100CC00023AA0702B250225492540259F249624AAE
:100CD000D24A424BB24B224C4561828063940B0056
:100CE00098C0B5B723A6EB009DB703274A021DCBDA
:100CF00063EDA7023385A7401C2099EF03479A01B3
:100D000083A689006117B307A7003E8563E4E70067
:100D100063E4D7003385D74083A70A016374F500E5
:100D200023A8AA00A28B404451B703A78900BA9711
:100D3000D1B7011126CA06CE97340000938404026D
:100D400022CC4AC84EC652C49C288844D9CFB7E7A3
:100D500000E003A907003707200023A0E718337934
:100D6000E9000F10000003C7018319CB23A027114E
:100D7000F2406244D2444249B249224A056182802B
:100D8000173700001307C7198357C70AA1CB9C4424
:100D90000324870A6304F40497390000938989F4D3
:100DA00003A709012285630BF702138A8183832736
:100DB0000A0082976368A40C83270A00098C829733
:100DC00083A7090198443354F40AB307A4003E856D
:100DD00063E4870063E4E7003385E740B7E700E0BA
:100DE00023A027119C44639BA7021734000013041F
:100DF00064EF184883A781836319A70882979444F6
:100E0000374736FE130707C83697B307A7003E8556
:100E100063E4E70063E4D7003385D740173400006C
:100E2000130404335C5C89CB83A641889C46370756
:100E3000CDFF7D17F98F9CC611E1884485475CD0B2
:100E40009737000083A7C7EE829715E15C5C99CFC6
:100E50005C5089CF974000E0E78040D2974000E0A7
:100E6000E78080B69737000023A60730493B5C5CDB
:100E7000E38007F003A741881C47B7063300D58FEE
:100E80001CC7FDB59C443E9405BF82971448984406
:100E9000B387A6003E8563E4D700E3E1E7F8338536
:100EA000E740ADBF23A6A18201C585472388F18213
:100EB000828083A7C18281CF411106C6829783C7F2
:100EC000018399E323A60182B2404101828083C756
:100ED000018381E723A6018282808280411122C49E
:100EE00026C206C64AC0973400009384642683C78E
:100EF000340217340000130424E5B9C3173400008A
:100F0000130444DE13894184032709001C20143094
:100F10000146B3A5E7208E21B5C911C21CA0082047
:100F2000636DD50697370000238E07DA83A7818388
:100F3000D5E7B2402244924402494101828082971F
:100F40001C40F5FF9737000083C747E285E3DC4884
:100F5000858B89CFD84C9947631EF70097370000DF
:100F600023A20720EF00D0045C4482971C44D9D709
:100F7000829769B7D84C9D47E31AF7FE9737000070
:100F800023A2071EEF00D0021C48C5B7850793F7C0
:100F9000F70F0546E3EFD7F651B73327E5200E23C9
:100FA000231007002399018283A7C183B347F5204B
:100FB0009C4382971C208326090003D72183337723
:100FC000E540B3A6D7209222518F9AA299C38507F4
:100FD0001CA018201C30E36EF7F4A9B79737000067
:100FE00083A747D81CC8213983C73402B9F383C704
:100FF000140299CBDC4C89EB97370000A38A0716C3
:10100000974000E0E780E0AE9737000083A747D223
:101010008DD31C4899DF183083260900814763C7A8
:10102000E702D84C9147E3E6E7F09737000083C723
:10103000E7D7918BE39F07EE83C70183E39B07EE1E
:101040002244B240924402494101E5B133A6D7207F
:101050001222E31006EE8507D9B7B7C70040138701
:10106000C72014431396264910C30100010093873B
:101070008726173500000325A5C89C436A0514C3BD
:1010800093C7F7FF99835D8D828083A7C18491C345
:1010900082871305F00F8280173700000347770D12
:1010A0008547631DF70C011122CC06CE2A8426CA7F
:1010B0004AC84EC6094551CC1C48C1CF23A88184DB
:1010C0005C389389418781C703A709007EA31389F0
:1010D000418603270900973400009384A4CE5C570F
:1010E000F19B93E717005CD708449C406396A700E8
:1010F000D8208D476306F70089454D2C8D47DCA02D
:1011000048448947DCB0137715008327090029CBB1
:101110009443984393F6F60393E60604137707F88F
:10112000558F98C3184011810D8998C75840D8C36E
:101130001C4803A709008C333CDFEF008074832731
:101140000900014598431317772998C3D857719B15
:10115000D8D7F2406244D2444249B2490561828004
:101160001377450061D39843542813770704558FAC
:1011700094431377F70793F606F85DB70545828029
:10118000411126C206C622C44AC097340000938487
:1011900064C3DC3063880718B7072000E98F2A840E
:1011A000ADC703A5018535C117360000130646D427
:1011B0003A2A83A7418783A64186F8DB9842B70580
:1011C00033001377F7CF98C298421377F7CF13679E
:1011D000072098C283A6418898464D8F98C6370746
:1011E000030013078725B8CB98431367870098C37C
:1011F0005A2AFAA317370000232607F617370000EC
:10120000232A07F4094798C3413D9377240095CFDB
:1012100003A74187B70702002322070683A601859B
:101220001CC7FE2AF1E3232A0706B70720001CC7C4
:1012300017370000130747CD1C4BC18B89C75C478C
:101240008145414582971314144993771400B1CB1B
:1012500013894187832709003707020023A2070665
:1012600098C783A74185884B35229737000093871D
:10127000A7C9984B41E1058B09C7DC478145054566
:10128000829783A70185DC47898B91CBDC3081EB8A
:10129000832709003707200023AA070698C71314DD
:1012A0001449B70702007D8C35CCDC3009476390C8
:1012B000E70603A701857E2BA9E783A7418723AA19
:1012C00007063707200098C7173700001307C7C362
:1012D0001C4B918BA1CB2244B240924402495C4703
:1012E0008145114541018287FD17B3C70708FEAA52
:1012F000A1F315BF218B45D7DC4781452145829756
:1013000079BFFD17B3C707087EABDDFF7DB7114777
:10131000E39CE7FA092E83A74187FC5BD5D7854775
:10132000DCB05DB7B2402244924402494101828060
:10133000173600001306C6BB3A2A83A7418783A647
:101340004186F8DB9842B705330001451377F7CFA4
:1013500098C298421377F7CF1367072098C283A6E5
:10136000418898464D8F98C6370703001307872595
:10137000B8CB98431367870098C35A2AFAA3173744
:1013800000001307E7DC232A070023220700094790
:1013900098C3828083A74186985F1C3113575748B2
:1013A0003E955C31C18B3365F7008280372723007F
:1013B0009737000023A8A7A01307078683A64188B4
:1013C00083A741866375A70E37B724001307F7E993
:1013D0006364A7069843137707F81367570298C307
:1013E00093F7150081CB93F50503C147639EF50A7A
:1013F00013050583DC56B70510FEFD1593E727009E
:10140000DCD6C167938707A03356F502F8426D8F8B
:10141000B377F5027D8A5206518FF8C21307A00FE9
:101420003706FCFFAA07B3D7E702F842718FBA0765
:10143000B983D98FFCC28280370725001306F7488D
:101440006363A6023767DBFF130707932A97130628
:10145000007D3357C7027D1790431377F707137644
:1014600006F8518FADBF130707496318E50098438D
:10147000137707F8136767029DB737D7250013075F
:10148000F777636DA7003767DBFF130707932A978A
:101490001306007D3357C70279177DBF9843137732
:1014A00007F81367770225BF130585C1A1B7D85682
:1014B0001375F507759BD8D69843137707F8498FAE
:1014C00098C38280630F0514011152C4138A4187A7
:1014D0004AC803290A0023AAA18422CC994706CE30
:1014E00026CA4EC62313F900832709002A848D8B50
:1014F00099C78327090093E787002320F90083A475
:1015000041869C40B7063300973900009389898B48
:1015100093F7F7CF9CC09C4093F7F7CF93E7072052
:101520009CC003A741881C470844D58F1CC7B70738
:101530000300938787152328F90483A7090063977D
:10154000A70003C74900A147630BF7004C4493F57C
:10155000050393E51500993DA1472382F90048440E
:101560009147A382F90093771500BDCB98409C402A
:101570001377F7031367070493F707F8D98F9CC015
:101580001C409CC45C40DCC01C4891E797370000BD
:10159000938707AB1CC81C486E28B7040200232E93
:1015A000F9062322090611812324990001460D8999
:1015B000092B03270A009737000023A507BA97379E
:1015C000000023A907B885471CC31E2C85EBF240F9
:1015D0006244D2444249B249224A014505618280AF
:1015E00093774500D1DF9C40582893F70704D98FA3
:1015F000984093F7F707137707F849B754471396BE
:10160000164950C70F10000003270A0013060008F0
:10161000860704C79735000023A4C5B47CD354C7FC
:101620007DB705458280411126C2938441879C4045
:1016300022C406C623A207063707020017240000AB
:101640001304447898C7A3020400012303A741862A
:101650001C43014593F7F7CF93E707101CC383A6FC
:1016600041889C463707CEFF7D17F98F9CC69C406A
:101670003707030023020400B8CBFD57B2401CC05B
:101680002244924441018280EFF0BF827300000047
:101690000000000093820183038302002380020084
:1016A000630F0300F32510342EC0970500009385C7
:1016B000E5FD73901534EF00804C7300203086DC1C
:1016C000EF00E04BE6508280000041114AC01389D0
:1016D00041860327090026C206C61C5F22C49384E4
:1016E000018693D76748B5CF930700061CDF1734F0
:1016F00000001304E4A5184C930700086317F700D3
:101700009C409C4393F707041CCC1C4093F70704B0
:1017100089CB83A78183829748D81C4093F7F7FB36
:101720001CC01C4093F7070289CF1C4003A74187C8
:10173000B706080093F7F7FD1CC05C5414C7860772
:101740007CD71C4893F7070489EF85475CC83707A7
:10175000020083A7418798C71307000C18C81854C4
:10176000F8D383270900985F1357474811CF985F34
:101770001367070198DF83A7418723A207068547E0
:1017800017370000232EF79C9C40D8431357174867
:1017900019C7D843759BD8C3D843799BD8C3B240E7
:1017A000224492440249410182800537730020306F
:1017B00083A6418717370000130787991C43858B41
:1017C00091E75C43858B99E3FC52EDFB9737000072
:1017D00023AA07988280938641862A8788421C5DC7
:1017E00093D75748D1E781C51C59BD839CA115C625
:1017F0009C42945BC60693D7660163D6060093E7C6
:1018000007C0B3C707088316060093975760B9C689
:10181000BE968947B3C6F60216A283A74187BC4B82
:10182000083393D757488DCF29C59736000083A634
:10183000A69393F606049307950009459DCABA97A7
:101840009C230547194593F6F7066394E602014584
:101850009397476063DF0700394582801EA275BFFA
:101860002A9748331375F5077D153335A00082801C
:101870000545828083A74186885B3D8113154560BD
:10188000828083A7C18699CB944BD04B9842518FCD
:1018900098C294439C479842D98F9CC21386418733
:1018A0000548184283A64186973700009387478AE8
:1018B0006312050503A806001368080823A00601A3
:1018C00083C62702B3C5D52054479385A50C13982A
:1018D0001649232607010F100000184237060200A0
:1018E000860510C71306000890CB6CD354C7238419
:1018F000A186828088421375F5F788C283C62702C5
:10190000B3E5D52054479385E50E1395164948C78E
:101910000F100000184237060200860510C7130694
:10192000000890CB6CD354C70945D1B7411122C4EC
:10193000AA8706C626C22E8513844187B285DDE7B5
:101940001C40F8537DFF3707020098C79737000007
:1019500023A40780972400009384443BDC5085C770
:10196000B7E700E03707200023A0E728B7F700E03B
:10197000938707D0984B6D9B98CB984B1367870341
:1019800098CB73005010F53D83A7418698431317F9
:10199000772998C3D857719BD8D79727000023A3DE
:1019A000077C9727000023A7077A1C40094798C3A4
:1019B000DC5099CB37F700E0832707D193E7870006
:1019C0002328F7D073005010144017270000130786
:1019D00027781C47858B91E75C47858B99E3FC5200
:1019E000EDFBB24022449244410182800D47639E48
:1019F000E7049727000023A107769727000023AF6D
:101A000007749724000093846430DC5085C7B7E7DF
:101A100000E03707200023A0E728B7F700E093870E
:101A200007D0984B6D9B98CB984B1367870398CB47
:101A300073005010B93583A741869843131777294F
:101A400098C3D857719BD8D7A5B70547E39EE7F64B
:101A5000972600009386862BDC5285C7B7E700E007
:101A60003707200023A0E728B7F700E0938707D0C7
:101A7000984B6D9B98CB984B1367870398CB73005B
:101A800050101C40D04713171649D8C70F1000003C
:101A90001C403707020098C713070008972500006D
:101AA00023A0E56C03A7418618431357774819C74D
:101AB0001307E018F8D3D0C7DC52E5BD1307E01ACE
:101AC000D5BF83A7C18689CFD44303A88700984296
:101AD0003367070198C2D447DC4B9842D98F9CC228
:101AE000054783A741869505631EE5029843136762
:101AF000070898C3984F137707C01367A71398CFA9
:101B000013078007B8BB939735009387C703172740
:101B100000001307E7631CD72384A18619C20606B9
:101B200010D78280984309451377F7F798C3984FE9
:101B3000137707C01367271398CF1307F007B8BBB5
:101B4000939745009387C703D9B783A74187B84BBD
:101B50003D9BB8CB98430D8B09C79843136787000B
:101B600098C383A7C18699CBD44390479842518F9D
:101B700098C2944BDC4B9842D98F9CC2828083A739
:101B800041878847D847798D11C588C783A70187C2
:101B900091C38287828083A741878847D847798D00
:101BA00011C588C783A7018791C38297730020302E
:101BB000896703A74187938707F47CD383A641886D
:101BC00083A7060993D7A74991C783A7060993D787
:101BD000974999E37C53EDF782804111B7E700E024
:101BE00022C480433707200006C6798C23A0E7185B
:101BF0000F10000011C199E5B7E700E023A087109E
:101C0000014549A80D05334505081307400371999F
:101C1000B34705086362A70203A5418983A6C1886B
:101C2000639FA600172700000327471171D7C2073B
:101C3000DD8D05450297C9B703A50189C5B77A218E
:101C400031EF5A21636CF704B306F7402148172699
:101C50000000130626096375D8028328050003587F
:101C60006600938687001D8FAA966117DAA223A0CB
:101C700016012393060014C15EA1130788FF7AA200
:101C80007A226EA12105B307F7407EA2B7E700E0F4
:101C900023A08710B240224441018280084149B705
:101CA000B7E700E08C433707200023A0E718F98D41
:101CB0000F10000001E523A0B710828003A3418923
:101CC00083A8C1889A87814663F8170903A807008B
:101CD0006367F5086365A80813878700636EE506E8
:101CE000F223216705076317E6001386818918220E
:101CF000050718A2172500001305C5FED2237A2177
:101D0000239307003297334707087AA1638367025A
:101D100003A30189630FF30003D36600631B030071
:101D2000DE2223A0060121073E962106D2A27AA137
:101D3000B68798436302170383A60189630ED70011
:101D4000762399EAD62352231843A106B296D6A346
:101D500098C37E21A1077EA1B7E700E0A9BFBE8698
:101D6000C2879DB7411122C406C626C24AC02E842E
:101D70008DCD13F9150081474147630209041317FC
:101D800045003E97B1463307D70283A48184B31739
:101D9000F02833C90708BA949C40C840829723A012
:101DA000040023A2040033448900B2402285224467
:101DB0009244024941018280B356F448E9F2850712
:101DC000E39CE7FECDB7011126CA06CE22CC4AC855
:101DD0004EC6AE84A1C593F7150001444147B1CB6F
:101DE00093174500A2973147B387E702938981840F
:101DF00003A909003E998327090081C703254900EB
:101E0000829731473307E40283A70900BA979C47BA
:101E10008DC733148028B3470408BD8CF240624458
:101E20004249B2492685D24405618280B3D68448AE
:101E3000C5FA0504E31CE4FECDB7232009002322E4
:101E40000900C1BFAA8703A5018411E182803A215C
:101E50006315B7001821E30BF7FE4845FDB779710C
:101E6000B7E700E022D4804352CC06D626D24AD02F
:101E70004ECE56CA5AC85EC662C43A8A3707200098
:101E8000798C23A0E7180F10000005E123A087102C
:101E90000945B250225492540259F249624AD24A38
:101EA000424BB24B224C4561828083A78183B68925
:101EB0002A89AE8A328B938B8184829703A70B0089
:101EC0008144B146C147338CD402330687011042A6
:101ED0002DEEC165938505F04145013319ED972736
:101EE000000083A7A7E581C7814511458297B7E721
:101EF00000E023A087102D4569BF138701841C4390
:101F0000A1E308C323000500B31790283EA183A7CF
:101F10000B00232605002324650123224501E297B7
:101F200023A0270123A2570123A4470163840900AA
:101F300023809900B7E700E023A08710014591BFF7
:101F40003E87DC47F5FF48C775BF8504E39DF4F67F
:101F5000B7E700E023A08710214525BFB7E700E0E1
:101F60009843B706200023A0D718758F0F100000E4
:101F70009726000083C616D76371D50283A64184D5
:101F80003325D5201621D58D0EA19726000023A339
:101F900006D623A0E7100145828023A0E7100D4557
:101FA00082800111B7E700E022CC80433707200090
:101FB00006CE26CA4AC8798C23A0E7180F10000065
:101FC000BD4763E7A70431473307E50283A7818450
:101FD000BA979C4395CF3315A0282E89B3450508A1
:101FE00001452EC68535AA8409C9B2450145971019
:101FF00000E0E780206A23A42401B7E700E023A0E3
:1020000087100145F2406244D24442490561828012
:10201000B7E700E023A087100945EDB783A7418605
:1020200098433706CEFF7D161377F7CF1367071057
:1020300098C303A741881447370803001375F51F99
:10204000F18E14C783A6418723A8060523A40700A1
:10205000904B93F5F507130888151366F60390CB9C
:1020600090431366060890C3F04F137606E0498E3E
:10207000F0CF23AC070423A007065057759A50D71A
:102080009043137606F84D8E90C31306401FF0D28E
:10209000172600002328060C17260000232C060A0A
:1020A000054690C29043B70533001376F6CF90C330
:1020B00090431376F6CF1366062090C310474D8EDB
:1020C00010C723A80605D8531317F728D8D32547D8
:1020D000F05201C6B04FE37DC7FED8531317F7483F
:1020E000D8D3A853133545008280938641879C42FC
:1020F000B84B1377F78FB8CB98431367870098C313
:102100009C4393D7374889C70100010001000100B3
:1021100003A741861C4393F7F7CF93E707101CC32F
:1021200003A641881C463707CEFF7D17F98F1CC6D2
:102130009C4237070300B8CB83A7C18699CBD44311
:1021400090479842518F98C2944BDC4B9842D98F5C
:102150009CC29727000023AB0700828083A741879A
:102160009C438D8BE9C74111B7E700E04AC003A942
:10217000070026C23707200006C622C4AA84337986
:10218000E90023A0E7180F10000017240000130433
:1021900024FC584C8D47631AF7009727000083A74B
:1021A00027BF014681454545829719476391E4045D
:1021B0008347140289CB83470402639697009727CD
:1021C0000000A38707FA584CA1476315F70093074F
:1021D00080101EB023880182093FB2402244B7E735
:1021E00000E023A0271192440249410182809D47CB
:1021F000639BF40083471402F9D7034704028D4719
:10220000E313F7FC6DBF544C6389E600584C63063A
:10221000F700584CA147E31FF7FA83471402DDFB90
:102220005C4C2300F4028547A300F40265B782806A
:10223000971100209381018617E10120130181DCB1
:102240001305400097E5FF1F9385C5DB17E6FF1FC9
:10225000130606FB63FAC5008322050023A0550080
:1022600011059105E3EAC5FE17E5FF1F130585EE8D
:1022700002852A8309CA83830500230073007D1623
:10228000050385056DFA82802A8311C62300B300F9
:102290007D16050365FE8280B717004003C77705EA
:1022A0001377E70FA38BE704130700F8A38DE70468
:1022B0003D47238CE70413075003A38CE70403C7AF
:1022C000A7051377D70F238DE704828037170040C7
:1022D0008347E70412054111BD8BC98F93F7F70FB0
:1022E00093068008F3B6068093F6860836C60F106C
:1022F0000000930670052300D704930680FA23009C
:10230000D7040F1000002307F70423000704B24787
:10231000F3A707800F10000041018280B71700402B
:1023200003C7E7020D8941111377C70F498F930641
:102330008008F3B6068093F6860836C60F100000B4
:10234000930670052380D704930680FA2380D70470
:102350000F1000002387E70223800704B247F3A78A
:1023600007800F1000004101828041112A8301483B
:10237000930E407E130F0019930F4006B3480308D5
:1023800063EF1E0113030019337365028542FD4399
:1023900063F6B2088D4F214F930E4006A1A07D1326
:1023A000336EE3039308E016630E0E00336EF303FF
:1023B0009308D01663080E009378330093B8180082
:1023C0009388D816C29833C808084DBF93F81500F3
:1023D000138EF5FF637CBF02F908C29833C8080862
:1023E000B3450E08E394F5FF8545630B0300B3780E
:1023F000D5038145638608009375350093B51500B4
:10240000F105C29533C805088945E9BFB388134172
:10241000C29833C80808B3450E089DBF7D16329890
:1024200079463307C70213D61700BE07334808089A
:1024300032976146B3F6C60213068070B386C602B1
:102440003697A166F58F4207D98FB716004003C7AC
:10245000F60213770708D883908303C7F602137731
:102460000708E316E6FE9883B71600404DCF130722
:10247000800873370780137787083AC40F1000006D
:1024800037170040930670052300D704930680FA9F
:102490002300D7040F100000232A070383461703E5
:1024A00093E60608A308D7022300070422477327F0
:1024B00007800F1000001166371700407D16545B2F
:1024C0004C5FAD8EF18EE5FE93068008F3B6068074
:1024D00093F6860836C60F10000093067005230099
:1024E000D704930680FA2300D7040F1000005CDBAA
:1024F0008347170393E70704A308F70223000704A1
:10250000B247F3A707800F1000004101828003C784
:10251000F60213770708D883908303C7F602137770
:102520000708E316E6FE98837DD391B755714EDF19
:1025300086C7A2C5A6C3CAC152DD56DB5AD95ED72B
:1025400062D566D36AD16ECFAA8982C0EF003015FA
:1025500093078008F3B7078093F78708BEC20F1070
:102560000000B7170040130770052380E704130726
:1025700080FA2380E7040F10000003C7F7021377E7
:10258000770FA387E70203C7F70213678700A387C4
:10259000E702238007049647F3A707800F10000087
:1025A000130A803E334A45039307007D2167930A4F
:1025B000D0FD9546B307FA02B3C7E702B30A5A0340
:1025C0003EC8FD873ED2BD67938707A6B3CAFA020D
:1025D00013D7FA413ACA330750413AD47D873ACCEF
:1025E000130760043307EA02B347F70205671307CE
:1025F00007FA3ECEFD873ED6938729003319F700B0
:1026000063E436013319370161671307076A3345FD
:10261000E50213070010B317F0288D873EC49547D5
:102620003309A9023349E902130740063309E902D5
:10263000130700083349E9021357F9413AD8331711
:1026400030290D873AC663ED374993075047B307E2
:10265000F7023D67130707A6116C014B814B13046A
:102660008008371D0040930480FA7D1CB387470320
:10267000B3C7E7023ED0FD873EDA73370480137795
:102680008708BAC40F100000130770052300ED047B
:10269000930D0D0423009D040F10000003473D051A
:1026A0001377870FA309ED0403473D051367170050
:1026B000A309ED0423000D042647732707800F109C
:1026C0000000930C70057337048013778708BAC62F
:1026D0000F100000930770052380FD0023809D00EC
:1026E0000F10000003473D0513670702A309ED041F
:1026F00003570D051317E7282318ED0403570D059D
:102700001317F7282318ED0423800D00364773278D
:1027100007800F10000003473D051377070263058C
:10272000073C03473D05218B6DDF880097E0FF1FC5
:10273000E78000CD7337048013778708BACA0F107B
:10274000000023809D0123809D000F10000003479F
:102750003D051377F70DA309ED0403473D05136706
:102760000702A309ED0403570D051317E7282318E3
:10277000ED0403570D051317F7282318ED042380E4
:102780000D005647732707800F10000003473D05D3
:10279000137707026301073803473D05218B6DFF5F
:1027A00097E0FF1FE780A0AA2A873ADC97E0FF1F87
:1027B000E780E0A96257E30AE5FE03570D050645E9
:1027C0001317E7282318ED0497E0FF1FE78000C5E3
:1027D00003473D05218B6DDF03570D0583462D050E
:1027E000C24733778701B386860313D6F641BA967C
:1027F000B388F640925733B7E60032971D8FD24721
:10280000B3B61601158F63C6E700631CF70063FAC1
:102810001A01E2476348F7326395E700A25763E382
:10282000F832894663F2763373370480137787086A
:10283000BAD00F100000130770052300ED04230029
:102840009D040F10000003473D0593F6F90F137721
:10285000870FA309ED0403473D05558FA309ED0438
:1028600023000D040657732707800F10000013067E
:10287000700503473D051D8B6310373773370480A0
:1028800013778708BAD40F100000130770052300D0
:10289000ED0423009D040F10000003473D0513774E
:1028A000F70DA309ED0403473D0513670702A309CC
:1028B000ED0403570D051317E7282318ED040357FC
:1028C0000D051317F7282318ED0423000D042657D0
:1028D000732707800F1000009306700503473D051E
:1028E000137707026304073203473D05218B6DDF31
:1028F000880097E0FF1FE780A0B07337048013774C
:102900008708BAD80F100000130770052300ED04E4
:1029100023009D040F10000003473D051377F70DBA
:10292000A309ED0403473D0513670702A309ED045E
:1029300003570D051317E7282318ED0403570D055A
:102940001317F7282318ED0423000D0446577327A7
:1029500007800F1000009306700503473D051377AD
:1029600007026300072E03473D05218B6DFF97E0AB
:10297000FF1FE780C08DAA8C97E0FF1FE780208DA6
:10298000E30C95FF03570D0506451317E728231899
:10299000ED0497E0FF1FE78060A803473D05218B0A
:1029A0006DDF7337048013778708BADC0F100000DF
:1029B000130770052300ED0423009D040F10000091
:1029C00003473D051377F70DA309ED0423000D041C
:1029D0006657732707800F10000003570D058346C5
:1029E0002D05C25733778701B386860313D6F64188
:1029F000BA9633B7E600329733882641B3B606015C
:102A00001D8F158F6346E0006318072663060826AE
:102A10001305800C3307E5020256D256B335050381
:102A200033050503BA95EF2010419306150033B521
:102A3000A6002E951357F501BA9633B7E6002A97EC
:102A40001316F70185820587D18E6346E000631B6C
:102A5000072C6389062C0356CD021582B305D600D8
:102A600033B6C50032976348E000631C0734130790
:102A7000F00F6378B7340947637D672593078008B3
:102A8000F3B7078093F78708BEDE0F100000B71773
:102A90000040130770052380E704130780FA2380A2
:102AA000E7040F100000DA3789668116558F334727
:102AB0000708DAB723800704F657F3A707800F103B
:102AC0000000BE402E449E440E49FA596A5ADA5A12
:102AD0004A5BBA5B2A5C9A5C0A5DFA4D6961828046
:102AE000224793075047A5B67337048013778708AA
:102AF000BAC80F10000023809D0123809D000F1095
:102B0000000003473D0513670702A309ED04238076
:102B10000D004647EDBE7337048013778708BACCA3
:102B20000F10000023809D0123809D000F100000E6
:102B300003473D0513670702A309ED0423800D0039
:102B4000664789B1E3920BCE7246B25693151700D1
:102B500013D3F80113951800B365B3003ADE46DCD1
:102B6000EF20702D7257850B93FBFB0F6346E0003F
:102B700031EFE258638C08049306150033B5A600C4
:102B8000AA9513D7F501BA9633B7E6002E9785823A
:102B90007E07558FF336048093F68608B6CE0F1065
:102BA000000023809D0123809D000F1000008356AC
:102BB000CD023697334707082316ED0223800D0018
:102BC0007647732707800F100000F5BC9306F5FFCA
:102BD00013351500898D75B773370480137787080F
:102BE000BAD20F1000002300CD0423009D040F1063
:102BF000000003473D05558FA309ED0423000D0494
:102C00001657732707800F100000A5B17337048093
:102C100013778708BAD60F1000002300DD042300C5
:102C20009D040F10000003473D0513670702A30929
:102C3000ED0423000D043657732707800F100000A2
:102C400071B97337048013778708BADA0F10000060
:102C50002300DD0423009D040F10000003473D0501
:102C600013670702A309ED0423000D0456577327C9
:102C700007800F100000D5B19305800C3387E50263
:102C80001306504733850503B3B50503BA951547B9
:102C9000637F3703A2473386C7023D67130707A642
:102CA0003306CA023346E6029356F641EF20B018C7
:102CB0001306F5FF13351500898D13D7F5013A96E4
:102CC0003337E6002E979316F7010582ADBBB24766
:102CD000D9B71307800873370780137787083AC17D
:102CE0000F100000B7160040130770052380E6049C
:102CF000130780FA2380E6040F100000DA36056619
:102D000001161377F70F518F33470708DAB6238080
:102D100006040A47732707800F100000050B137B7A
:102D2000FB0FA1BA33E6E60049CE0356CD02B33518
:102D3000D0003307E0400D8F3305D0401582634546
:102D4000E00041E3637FA6060947637E67039307BC
:102D50008008F3B7078093F787083EC30F10000081
:102D6000B7170040130770052380E704130780FAA4
:102D70002380E7040F100000DA377D8BDAB7238059
:102D800007049A471DBB73370480137787083AC539
:102D90000F100000130770052300ED0423009D04AD
:102DA0000F1000000357CD02856681161377F70FC9
:102DB000558F334707082316ED0223000D042A47D9
:102DC00091BF93078008F3B7078093F787083EC742
:102DD0000F100000B7170040130770052380E704A9
:102DE000130780FA2380E7040F100000DA379606F5
:102DF000369733470708DAB723800704BA4775B90F
:102E0000914763ECB7049747000093872724B3C525
:102E1000F52098413E97B71700409387470B0287EC
:102E2000944337170040B3F6A64094C39306070BAC
:102E30009C42B3F7A74019A8944337170040B3F654
:102E4000A64094C39306070B9C42C98F9CC293076C
:102E5000070A98433377A74098C382809443371773
:102E60000040C98ED9B798433377A74098C3B717A6
:102E700000409387070A9843498FF9BF9843498FC9
:102E8000F5B719C5371700401E2FCD8F1EAF8280B2
:102E9000B71700409A2FB375B7408EAF8280B7172F
:102EA00000409A279306000C21651377070C630EE8
:102EB000D7049A27137707100DC79A279E277D8B73
:102EC00009EB93F7072095CF3755E80113050580E7
:102ED000828037C59812FD8B130505E03345F50256
:102EE00082809A279E2713770720FD8B11C73755BD
:102EF000E80113050580DDB73725F400130505400B
:102F0000F1BF3725F400130505408280B7F700E0D4
:102F1000884782803285814737370040A14663C3A6
:102F2000A70082803037E30FD6FE3386F5001022EB
:102F3000850710A7EDB797F6FF1F9386A635AA87DA
:102F40008842171700201307A726AA9763E9E7000E
:102F50000A87130707FC6364F7009CC282807D55D3
:102F60008280B7270040C8C7094798A3114798A394
:102F70008280411122C406C62A8415372947B30727
:102F8000E502B2408D83B3D7870222449507B3D7B9
:102F9000E70237370040B3C707085EA741018280C8
:102FA000716541111305052006C6E137B7370040AA
:102FB000130770F8B8A30D47B8B31307000498B30C
:102FC0000547F8A7B2404101828011456FF00FD646
:102FD000411193962500AA852D4506C697D0FF1F5F
:102FE000E780C078B240014541018280011122CCC6
:102FF00006CE3714004026CA4AC84EC652C483447F
:103000007405034AB4058349840503499405EFF028
:10301000AFA88347A40593F4F40F137AFA0F93E74C
:103020001700230DF40493F9F90F1379F90FB7176B
:10303000004003C7A705058B6DFF03D5C705A38D0A
:103040004705238C3705A38C2705A38B9704F240F3
:103050006244D2444249B249224A05618280411108
:1030600022C406C62E849397556063DE070097E05E
:10307000FF1FE78020A111C1752B1315F468B24022
:1030800022444101828093F7150013C51500E5FB2A
:103090008967ED8F89CF153F37F60200130606E0EA
:1030A000896503C541811D251315D468C9BF116504
:1030B0006D8D71D517450000130585FAEF2010635B
:1030C00013060064916503C5418109251315E46861
:1030D0007DB72D71232A9110FD74E98C232C81106A
:1030E00023282111232631112A84AE89328993069F
:1030F00000100A86A6852D45232E111097D0FF1F9C
:10310000E780C06613154401498113962900CA85DA
:103110000A9597E0FF1FE780E09FA6858566014638
:10312000254597D0FF1FE78060640A86A685930631
:103130000010294597D0FF1FE78040638320C1110D
:103140000324811183244111032901118329C11012
:1031500015618280B7F70700DC53011106CE22CC3F
:1031600026CABD8B21476399E700A537F240624428
:10317000D244014505618280939625002A84B28459
:10318000AA850146254536C697D0FF1FE780005E19
:10319000B2462686A285294597D0FF1FE780005DAD
:1031A000F1B71D714946974500009385A5EB17457A
:1031B00000001305E5F686CEA2CC97E0FF1FE7805E
:1031C000409B01E917450000130505EBEF20105265
:1031D00001A037F700E023240700F9571CCB056452
:1031E000B7E700E023A08710BD4614C323A08718CB
:1031F0000F10000017E7FF1F1307C74923A8E1803E
:10320000130700F8A38AE7401306C0038145480866
:1032100097E0FF1FE780C09297F7FF1F9387472C27
:103220003ECA896793870780FC849D673ECEB707B7
:103230000105938707103ED0ED472312F102854721
:103240002303F102970700009387C7D8BEC49707EE
:103250000000938767F0BEC6930754D12314F10290
:10326000970700009387C7CA3EDAB7F507009707AC
:1032700000009387E7D73EDE8146970700009387DB
:1032800007D57000E1051945BEC097D0FF1FE78044
:10329000E04D19466C001305E102EFE09FFDD247B7
:1032A00081C7BC8463F3870001A04808EF00407C1D
:1032B000AA8501C917450000130545DDEF20F02E52
:1032C00001A0F64066442561828041111705000087
:1032D000130525D906C622C4EF00E0761384418188
:1032E00008A0092808202244B2401306003289654C
:1032F0004101E9AE397106DE13078008F337078014
:1033000093F787083EC20F100000B71700409305DF
:1033100070052380B704130680FA2380C7040F10BA
:10332000000083C6F70293F6A60FA387D702238077
:1033300007049246F3A606800F100000733707803B
:10334000137787083AC40F1000002380B704238046
:10335000C7040F10000003C7F70213672700A387F5
:10336000E70223800704A247F3A707800F1000009D
:103370000545EFE0BFFA913901478146814705468F
:1033800085451305407EEFE05FFE13064002814550
:10339000680097D0FF1FE780A07AB707C0A83ECA91
:1033A000B787E8033ECC97D7FF1F9387071B3EC61E
:1033B00097D7FF1F9387E71B3EC8D5349307803EFE
:1033C0003355F50297D7FF1F9387E7163ED297D75D
:1033D000FF1F9387C7163ED497D7FF1F9387E71623
:1033E0003ED6373700402AD0834727C0680093E78E
:1033F00017002301F7C0B7E700E0054723A2E71055
:10340000EF00407EF25021618280411122C406C645
:103410002E849397556063DE070097D0FF1FE780E7
:10342000606611C1012C1315F468B24022444101B9
:10343000828093F7250089C797D0FF1FE780001C83
:103440009167E18F95C78386418203A6C18183A5D9
:10345000018217450000130525C7EF20101513152D
:10346000E46823A0018223AE01802382018275BF1C
:103470000965618D5DD98386418203A6C18183A5DB
:10348000018217450000130525C4EF201012131503
:10349000D46823A0018223AE01802382018271B708
:1034A000797117050000130585F606D622D426D2B9
:1034B000592B9307B00302C6938461825C8697D729
:1034C000FF1F9387E71788A03ECC6800F5473ECEE4
:1034D00002C802CAEF007009B7277671138441A3AE
:1034E000938757341CC0B7575500938757555CC016
:1034F000C1475CC485679387E7F93EA82285930797
:1035000080025EA8EF10C0305440104058449387AA
:10351000C1A18545EEAB9385019CD4C390C3D8C7A8
:103520008CCB938701A0D8C717F7FF1F130707E2BB
:1035300098CB1147FAABD4C390C337E400E0B70788
:1035400010002320F410B70720002320F4108C2053
:1035500017450000130585B8EF203005174500001A
:10356000130505B9EF2090188820130600649165B3
:103570002382018223A0018223AE0180712C0532B7
:103580008967938707F43355F502E13A37270040FE
:103590003C2393E717003CA3930700F82308F4406B
:1035A000C167B2502320F4102254925445618280A6
:1035B0004111114506C6EFE07FD11305503497D075
:1035C000FF1FE78040CAB7170040116723ACE70A26
:1035D000C1450545EFF0FF8A85452165EFF05F8223
:1035E0008D451165EFF0DF81653A37150E005132D8
:1035F00017450000130545B2EF20500F1745000096
:10360000130505B2EF20900E693EC131513D97D0B0
:10361000FF1FE7804009184183A785FF6319B700A2
:103620001CC1FD5723AC05FE238FF5FE8280232CA1
:10363000F6FEC5BF411122C437E400E026C20440B3
:103640003707200006C6F98C2320E4180F1000006D
:1036500009E9232094101545B240224492444101C7
:1036600082800347E5FF9307F00F6306F7002320EE
:1036700094101145D5B797E0FF1FE78060620145C0
:1036800023209410D1BF23A401828280B7E700E0F9
:103690009843B706200023A0D718758F0F1000009D
:1036A0009706002083C6D663637ED50083A6418437
:1036B0003325D5201621B3F5B6400EA123A0E7107F
:1036C0000145828023A0E7100D458280797122D4C4
:1036D00037E400E04AD003290400B707200006D6EB
:1036E00026D24ECE52CC56CA5AC85EC63379F9009D
:1036F0002320F4180F1000009707002083C7575E9F
:103700006376F50083AB818363970B00B7E700E036
:1037100023A0271199A0970A0020938AEA6303AB9C
:103720008A00B74736FE938707C83E9B83D7CA00F7
:103730002E8AAA84B385C702B2898146B3B7C7026D
:1037400013850532B335B50013060064BE95EF202E
:10375000202C6370AB02232024110145B250225467
:1037600092540259F249624AD24A424BB24B4561E5
:103770008280829B83D7CA002A8413060064B385A3
:1037800037038146B3B7370313850532B335B50028
:10379000BE95EF20E027B307850003A78A003E848B
:1037A00063E4A70063E4E7003384E740D28526851D
:1037B00097E0FF1FE780006901C900C5B7E700E097
:1037C00023A02711054559BF93E504F04145B3C532
:1037D000050897E0FF1FE780404011E997070020A8
:1037E00083A7875585D7A6851145829705B7138787
:1037F00001841C4389EF08C385472326050000C5C3
:103800002311450104A11CB12322050045BF3E87B9
:10381000DC47F5FF48C7CDB7011122CC37E400E003
:1038200026CA04404AC84EC652C406CEB707200076
:103830002A892E8AB289FD8C2320F4180F100000EB
:103840007135D2854A8597E0FF1FE780A05F01EDC3
:10385000232094102145F2406244D2444249B249A7
:10386000224A056182809707002083D7A74FB3853E
:1038700037032A89130600648146B3B737031385DB
:103880000532B335B500BE95EF2080182322A9007C
:10389000232094100145C1B7011126CAB7E400E006
:1038A0004AC803A9040022CC4EC6B707200006CEA2
:1038B00052C4AA892E843379F90023A0F4180F107A
:1038C000000097E0FF1FE780E057170A0020130A67
:1038D0002A411DE1A2854E85553B83470A0063803E
:1038E000370523A024111945F2406244D2444249CD
:1038F000B249224A0561828023110500A2854E85C6
:10390000713383470A006386370123A024110145E0
:10391000E1BF138721831E23C18F1EA3FDB79387A9
:1039200021839A23598C82A36DBF411106C623AA15
:10393000A1820295B2409707002023AFA73A014524
:103940004101828041115146814517050020130530
:10395000653F06C622C426C223A0018423AA018291
:1039600023AC01822388018223A6018297D0FF1F06
:10397000E780001D1306800281451705002013050E
:10398000253697D0FF1FE780A01BEF1090319707D7
:10399000002093876737E82BFC3B170400201304B3
:1039A000243485453E958D473305F5029947938428
:1039B000818439051375F50F28A03305F502130529
:1039C00005243345050897E0FF1FE780002188C0E4
:1039D00035C53020994781453306F6021306062483
:1039E00097D0FF1FE780C0159C4038209384C18387
:1039F000938707249CC0B347F72023A2F184613149
:103A0000D1241C30944017E6FF1F1306C63B33C772
:103A1000D72010C3138717001377F70F17E6FF1F80
:103A2000130646343347D72010C31387370089075E
:103A300018B093F7F70FB3C7D72090C3B240224412
:103A400092444101828097060020938666292A8746
:103A5000BC228832637BF5001306150083A7C1835F
:103A600090B2B347F52098C382801305F00F82808F
:103A70001C41F5C7370700F07D8FB7060020894746
:103A80006310D70E5A21411122C406C62A8479C375
:103A900019469305F00F690597D0FF1FE7802012A4
:103AA00005478D476308E50A1C4491C75858994754
:103AB00055C3185C45C31306C00381451705002094
:103AC0001305852497D0FF1FE78080071306C003E6
:103AD000A285170500201305252397D0FF1FE78037
:103AE00060039707002093872722DA2701E713074F
:103AF0000010DAA7F82719E30547F8A79A2B19E36E
:103B00006D479AABF83719E31547F8B7B82B19E3A7
:103B10000547B8ABB83B19E3F837B8BBD83B11C77A
:103B2000937637000983F4ABF8BBD82B19E35547DC
:103B3000D8AB182C01E71307C00398AF9C5791C767
:103B40008297970700202391A71AFD572384F188B5
:103B5000D53B8147B24022443E854101828089475E
:103B60003E85828079714ECE970900209389C91EC7
:103B700083A7090006D622D426D24AD052CC8297F7
:103B800013090064B335250303D6C9008146170A1B
:103B90000020130AEA1432C633052503EF105067DC
:103BA00083248A012A8401456386840232463305D0
:103BB000944063EF840003A589008146B335A902D0
:103BC0003305A902EF10D064B30795403385870011
:103BD000232C8A00B250225492540259F249624A6C
:103BE00045618280011122CC23A6018417040020A4
:103BF000130484115C5406CEAA8581C72AC6829715
:103C0000B245C1C59C410545ADCF9C45BDCBDE2528
:103C1000ADCBFE25BDC79C2981CB7C287838BA97CF
:103C20006341F506DC41B1CF1306400217050020C1
:103C30001305851297D0FF1FE780C0ED970700207E
:103C400093878711984323ACE182183C19EFCA2768
:103C50009307805737460F003305F50213060624F5
:103C600081468145EF10D05A08BC183C9D4763E45B
:103C7000E700A1471CBC170500001305E5EE7531F0
:103C80000145F2406244056182809707002023A726
:103C90000706970700209387270C17D7FF1F1307E6
:103CA000C73B98C337873200FD56130727A194C737
:103CB000D8C7970700202389070AB7C7004023A465
:103CC000D726ADBF011122CC170400201304C40372
:103CD000084406CE26CA4AC801E90545F2406244B6
:103CE000D2444249056182805C58E5DB185C75D797
:103CF0007000854582971844B247E300F7FE4A24D6
:103D00009305E00417090020130989FD97E0FF1FC0
:103D1000E780A0EC2320A90269D152249305F00F7B
:103D2000814497D0FF1FE780A0E17C24032609028D
:103D300063C1F402328597E0FF1FE78060F601451A
:103D40009707002023AE07FA9707002023AC07FA55
:103D500071B74E241844B387950289818504338551
:103D6000E7001C5C08C28297C9B7B767AA5593875A
:103D7000976923ACF1845C45A1C74111AA855146DE
:103D8000170500201305051806C697D0FF1FE7800A
:103D900060D89707002083C7E71617070020230580
:103DA000F70217D5FF1F1305A53D8547170700200C
:103DB000A30FF73AEF00F020B240014541018280A5
:103DC0000545828017080020130848FB03451800AA
:103DD00003A7418883A641861375F507D1C5904294
:103DE00083274800137606F8498E90C213F6150013
:103DF00001CA93F5050341466385C506938787C1CC
:103E00004165130505A0B3D5A7025057B70810FEAA
:103E1000FD181366260050D7704333761601B3F7AA
:103E2000A702FD89D2054D8E70C31306A00FB705FA
:103E3000FCFFAA07B3D7C70270436D8EBA07B983D8
:103E4000D18F7CC383470800898B99CB98429C42D1
:103E50001377F7071367070493F707F8D98F9CC206
:103E600082809387078369BF5C57F59B5CD79C4230
:103E700093F707F8C98F9CC2F1B7411106C697079F
:103E80000020238407F297E0FF1FE7800026B2405E
:103E90000145410182807971B7E700E026D2844371
:103EA0003707200006D622D44AD04ECE52CC56CA6E
:103EB0005AC85EC6F98C23A0E7180F10000017043B
:103EC00000201304A4EB184419EF23A09710054514
:103ED000B250225492540259F249624AD24A424B99
:103EE000B24B45618280170700200327270D09C7C1
:103EF00023A097100945E9BF1C20328BB68A858B19
:103F0000ADC317090020130969E9832749002A8AEC
:103F1000AE8999EB483C93059004090597E0FF1F93
:103F2000E780A0CB2322A9008327490099E7B7E7C0
:103F300000E023A097100D4561BF0347290098A317
:103F400083274900630D0A04638B0904A3803701AA
:103F5000032549004E86D285090597D0FF1FE780CB
:103F600060BB970900209389691E03A7C901954783
:103F7000630AF70083C7090219476385E7000D4705
:103F80006392E70283C7190289E7930780102390A1
:103F9000F902B7E700E023A09710014515BFA38001
:103FA0000700C1B7138A418783270A0098430D8B06
:103FB0001DC323880182B84B1377F78FB8CB984382
:103FC0001367870098C39C4393D7374889C701007C
:103FD00001000100010083270A0037070200834B1C
:103FE000040023A2070698C79707002023A80716F6
:103FF0009707002083C747DB918B1709002013091F
:10400000E9D989E793F70B046398070E08308145D7
:10401000553B4C2C13D54B4001460D8997E0FF1FB3
:10402000E78020AA938B418683A70B0018441420B5
:1040300098C75844858AD8C303270A005C43F99B74
:10404000D58F5CC383274900A3016901230159016E
:104050003CDF8347E90093E747002307F900930714
:10406000000423A0F9009707002023A9070EA14709
:1040700023AEF9009707002083A787CB81CB0345A8
:10408000090113060064C145EFF04FE483270A00DD
:10409000170500001305052CDC43858B89E7170500
:1040A00000001305650697D0FF1FE780A0DF03A778
:1040B0000B00B70633001C4393F7F7CF1CC31C4318
:1040C00093F7F7CF93E707201CC303A741881C474A
:1040D000D58F1CC703270A00B707030093878715EE
:1040E0003CCB9707002023AD07069707002023A1AC
:1040F000070685471CC371BD93F50B03484093E544
:10410000150039B7797122D4170400201304040470
:104110005C4006D626D24AD04ECE858B6385071EDC
:104120009707002023A607028329C403A3070100E1
:10413000A9339707002083C727C7918B97040020D6
:104140009384C4C517090020130949C36383071664
:1041500083C71900CE979823930700086318F700C8
:104160008347090093E787002300F9005C580D4757
:104170006376F70EF1175CD85C58984463E6E70E57
:104180003387E74083C71900D424CE979C33939696
:1041900046608E0763D9060E63FEE70C1D8F9306FB
:1041A000000263E8E60058586369F70CB307F7406C
:1041B0009CC48828894597E0FF1FE78020DA834563
:1041C000090093F78500EDC383A641879307800C10
:1041D000FCD21C5C1307F00F3706330098C3970717
:1041E000002023A907F69707002023A707F69707C3
:1041F000002023A507F69707002023A307F603A7AF
:1042000041861C4391858D8993F7F7CF1CC31C43CE
:10421000014593F7F7CF93E707201CC303A7418815
:104220001C47D18F1CC7B707030093878725BCCADB
:10423000054697D0FF1FE780606F83470900B420D1
:10424000B030DD9B814501452300F900A931B25012
:10425000225492540259F249456182801707002086
:10426000032707B0BA9739B79706002083A646AF51
:10427000B69739B73387E7401DB79706002083A666
:1042800026AE369725B75858636AF700B307F7404C
:104290009CC4DC2493E70708DCA421BF9706002018
:1042A00083A606AC3697DDB783C71900F917A3803C
:1042B000F900485C01469305F10097D0FF1FE780A5
:1042C00080515C5C9306F00F98236303D702BC30E7
:1042D0006380D702630EF7009365250093954560D0
:1042E00083270901505C93F5F50F0D45829785B73B
:1042F0008307090093154560E3C407FEF5F19C8729
:104300002380F900F1BF83A74187FC5395EBB536B5
:104310009707002083A747A289C785451305100882
:104320008297225497070020938747A7B250925450
:104330000259F249B423B033814501454561A1BE1C
:10434000584CA147E315F7F085472388F18201B760
:10435000797126D297040020938444DF9C4006D6CE
:1043600022D44AD04ECE52CC858B6382072083A9BB
:10437000C40301469305F1004E85A307010097078A
:10438000002023A507DC97D0FF1FE780C044170457
:1043900000201304A4A0170900201309299E131A52
:1043A0004560631F0A123C309306F00F6389D70003
:1043B000D85C18236305D700094A6313F7128307F3
:1043C000090063C507009C872380F9005C24918B5A
:1043D000ADCFDC580D476372F714F117DCD8DC5809
:1043E000184463E2E7143387E74083C71900542475
:1043F000CE979C33939646608E0763D5061463FA76
:10440000E7121D8F9306000263E8E600D858636543
:10441000F712B307F7401CC40828894597E0FF1F2F
:10442000E780C0B383C719003387F900142313074B
:104430000008639AE6129C5C1307F00F98C3834749
:10444000090093E787002300F90003A741885C5720
:1044500093D71748A1C383274900C165938505A059
:1044600033D6B7027443370510FE7D15E98EB3F7D6
:10447000B7027D8A5206D18E74C39306A00F370609
:10448000FCFFAA07B3D7D7027443F18EBA07B983EA
:10449000D58F7CC35C40034509008C3311850D89A1
:1044A00097D0FF1FE780E03D1705000013050512B8
:1044B00097D0FF1FE780009F83A74186984313177B
:1044C000772998C3D857719BD8D783470900A18B08
:1044D00095EB83270901D05C81450D4582971DA08E
:1044E00097E0FF1FE78060C0D05C832709010D457E
:1044F0009375FA0F829748403420303001CD0C314B
:104500000905513AB250225492540259F249624A72
:104510004561828081450145EDB7170700200327DB
:104520002784BA975DBD9706002083A66683B69759
:104530005DBD3387E740F9B59706002083A6468224
:104540003697C1BDD858636AF700B307F7401CC45B
:104550005C2493E707085CA4C1B59706002083A6F6
:1045600026803697DDB7F917A380F900F9BD83A738
:104570004187FC53B1E3EFF05F9097F7FF1F83A7EC
:10458000A77B89C7894513051008829797070020E4
:104590009387C780C843B033B42301CD0C310905DC
:1045A0002254B25092540259F249624A45616FF066
:1045B0009F8E81450145EDB7D84CA147E314F7F430
:1045C00085472388F1823DBF41119707002083A7CB
:1045D00027B806C622C4858B95C79707002023A954
:1045E00007B617F4FF1F13046479EFF01F891C202E
:1045F000A18B8DEF1C480146814511452244B240F4
:104600004101828783A74187FC53B9E797070020C0
:1046100023A607B417F4FF1F130444761C20A18BB4
:1046200091E71C48014681455145C9BF97F7FF1FD7
:104630009387C776C843B033B42301CD0C31090545
:10464000EFF07F851C20DD9B1CA0B240224441017D
:10465000828081450145EDB785472388F182F5B712
:10466000011122CC37E400E026CA044006CE4AC835
:104670004EC652C456C2B7072000FD8C2320F41842
:104680000F1000001389418783270900B84B137767
:10469000F78FB8CB98431367870098C301000100D8
:1046A00001000100938A418683A70A00138A41888A
:1046B000B70633009843B70903001367070898C388
:1046C00098431377F7CF98C398431377F7CF1367BF
:1046D000072098C303270A001C47D58F1CC78327D0
:1046E000090013878955B8CB392DEF00F058852381
:1046F000C5238326090003A70A00B70702009CC64A
:104700001C4393F7F7CF93E707101CC303260A0057
:104710003707CEFF7D171C46F2404249F98F1CC671
:1047200023A83605232094106244D244B249224A79
:10473000924A0561828083A741878946D4CB194775
:10474000D8CFD4D3D8D7D4DBD8DFF4C3F8C7D84375
:10475000799BD8C3D8431367E701D8C323AA0704BA
:104760007D5798C7370707000D07D8C737E700E020
:10477000D5472309F70497D7FF1F9387C74193E7CE
:1047800017003CD78280411106C622C4854717F422
:10479000FF1F1304E462170700201307278A5CA099
:1047A00083A74187F8DF413F212C0824B707020087
:1047B0002244B24003A74186938787205CDF4101F2
:1047C0007DAC23A8A186B7C700401387073023A07C
:1047D000E1861387072041119387071023AAE186FA
:1047E00037D7004006C623A2E18823A2F186F1262E
:1047F000593FBD35B240B7E700E03707100023A0AE
:10480000E7103707200023A0E7100145410182800F
:104810009707002083C7B795A9CF4111AA856146A4
:1048200017F5FF1F1305856C06C697C0FF1FE780AD
:10483000602E97F7FF1F9387676BF82B19E30947E3
:10484000F8ABCC47170600200346569417F7FF1F16
:104850001307C75781479D463355F64811C10CCB06
:10486000850713074702E399D7FEB240014541018E
:10487000828005458280011122CC17040020130498
:10488000E48C584C26CA06CE4AC84EC6954797F4C3
:10489000FF1F83A424706306F700584C8D47631FE5
:1048A000F7008347140281E7930760101EB0F240BF
:1048B0006244D2444249B249056182805C4C13890A
:1048C00041878327090037070200194523A20706FD
:1048D00098C79707002023A307889389418697E00C
:1048E000FF1FE780A08703A70900B7C7898E9387BA
:1048F00067ED1CC7B7575500938757555CC383C7EF
:1049000024021307F00F6387E700A380F402FD572A
:104910002381F4020327090001469305F00F5C434D
:10492000014593E717005CC3930710FABCA49947AD
:104930005CCC9707002023AB07801384418897D075
:10494000FF1FE780001818405C57F59B5CD783A6D3
:10495000090098349C421377F70793F707F8D98F2B
:104960009CC297F7FF1F83C7274099C703A5C1853E
:1049700097C0FF1FE780005303A70900B706330065
:104980001C4393F7F7CF1CC31C4393F7F7CF93E770
:1049900007201CC318401C47D58F1CC703270900DC
:1049A000B7070300938787153CCB97F7FF1F23A911
:1049B000077A97F7FF1F23AD077885471CC3C5BD4E
:1049C00083A741869843370600827D1613177729FF
:1049D00098C31307F03F98DF13070005D8DBD857BB
:1049E0001317F729D8D7D45717F7FF1F03470733F3
:1049F000931547601377F703F18E6607558FD8D765
:104A00009306A00303A7418863DFB602744F3706FD
:104A10000007D18E74CF370702001307C720D8DFF5
:104A2000984B137707FC1367E70098CB37E700E054
:104A3000D147A309F70497D7FF1F938707D793E7B9
:104A400017007CD782809306200263DAB600744F89
:104A5000370600F97D16F18E370600055DBF370673
:104A600000F9E9467D1663D7B600744FF18E37061C
:104A7000000345B7744FF18E9396862961BF03A654
:104A800041865C56B7060082FD1613174560137504
:104A9000F503F58F6605C98F5CD69306A00383A73F
:104AA000418863D8E600F84FB7060007558FF8CF66
:104AB00082809306200263DAE600F84FB70600F919
:104AC000FD16758FB7060005D5B7B70600F969461C
:104AD000FD166357E600F84F758FB7060003F9B768
:104AE000F84F758F13178729D9B7411122C406C60D
:104AF00017F4FF1F1304846503470402A1476318DA
:104B0000F70217F7FF1F0347672797F7FF1F9387E2
:104B1000E728058BB033B42339C7C84329C50C3106
:104B20000905EFF04FB701C58547A300F40203471D
:104B3000040299476319F70097F7FF1F83A787457A
:104B4000BC378DC70D3B034704029D476310F70236
:104B500097F7FF1F83A74745FC3389CB2244B24018
:104B600041016F00F0198145014565BFB240224403
:104B70004101828083A741871307C008D8CB9306E1
:104B80006007D4CFD8D31306E006D0D7D8DBD0DF68
:104B9000F8C3F4C7D843059BD8C30547FAA323AA93
:104BA000070417F7FF1F0327275EF8DF7D5798C715
:104BB00037071F003D07D8C7828083A741881307A6
:104BC000004898D7D85FB70600F9FD16758F131700
:104BD0009729D8DFD85F9D663706FDFF0E070D8346
:104BE0001317E729D8DF985B7D161367077098DBEA
:104BF000985B558F98DB985BB7060700558F98DB5D
:104C0000985BB7060090FD16758F1317C72998DBC0
:104C1000B4473707F9FF7D17F98EB4C7F447E19A17
:104C2000F4C7F44793F6F6F8F4C7F447F18EF4C7E7
:104C3000F44F758FF8CFF84FB70690FFFD16758FBC
:104C4000F8CF930740060100FD17F5FF8280138718
:104C500041881C43B44B93960649B4CB9447939632
:104C6000562994C7D44793E60601D4C7D447BD9AC2
:104C7000D4C701000100010001001C43D44793E6A2
:104C80000601D4C7D4439396C628D4C303A641874C
:104C90009306400674D2745291C683A6C70993D670
:104CA0008648F5DA01000100010001001C4313876A
:104CB0000708544FB84BFD8A13170729B8CBB84BD8
:104CC000019B558FB8CB98471317574998C78280D7
:104CD00083A74188B44F41777D17F98EB4CF9447AD
:104CE0009396062994C7D44793F6F6EFD4C7D443D6
:104CF000758FD8C3D84713670710D8C7D843131781
:104D00000729D8C38280397122DC4ED652D406DE00
:104D100026DA4AD856D25AD05ECE62CC66CA6AC863
:104D20006EC603A441885C4093893188138A118838
:104D300093F7F7EF5CC01C549397C7481CD45C549E
:104D4000BD9B5CD41C44939717291CC45C4093E71B
:104D500007015CC0B757341203A781879387876721
:104D60006309F7705C4001791309F90FF99B5CC086
:104D70001C5C3167130707F0B3F72701D98F1CDCE0
:104D80005C409304040893E717005CC097D0FF1FB2
:104D9000E78000E29C4893F7F7032380F900DC48A2
:104DA000A98393F7F7072381F1885C403D671307D8
:104DB0000780F99B5CC01C5CB3F72701D98F1CDC12
:104DC0005C4093E717005CC097D0FF1FE78040DE90
:104DD0009C4893F7F703A38FF186DC48A98393F7E8
:104DE000F707238FF1865C40356713070740F99B6F
:104DF0005CC01C5CB3F72701D98F1CDC5C4093E7D7
:104E000017005CC097D0FF1FE78080DA9C4893F7BB
:104E1000F7032300FA00DC48A98393F7F707238000
:104E2000F1885C404167130707C0F99B5CC01C5CBC
:104E3000B3F72701D98F1CDC5C4093E717005CC0F7
:104E400097D0FF1FE780C0D69C4893F7F703A38E47
:104E5000F186DC48A98393F7F707238EF186834C0C
:104E60000A0003C7090093076002130650023307C4
:104E70009741B307F70293067002930540021305AA
:104E8000300213082002130E1002F94E754FFD4F29
:104E9000F14A3306C7026D4BE94B654CD942D54305
:104EA000DD48D14DCD444949B3C7D7023D43B94947
:104EB000294D354A3346D60292072206D18F330652
:104EC000B702D98F95453346D6023206D18F3306C5
:104ED000A702130504083346D6024206D18F3306D3
:104EE00007033346D6025206D18F3306C703254E39
:104EF0003346D6026206D18F131657003346D602C8
:104F00007206D18F1CD13306E703194FB307D703BD
:104F10009D4EB3C7D7023346D60292072206D18FE1
:104F20003306F7038D4F3346D602D18F330657032E
:104F3000B14A3346D6023206D18F330667032D4B72
:104F40003346D6024206D18F33067703E14B334610
:104F5000D6025206D18F33068703454C3346D6021C
:104F60006206D18F330677033346D6027206D18F9D
:104F70005CD133067702B30757023346D602B3C774
:104F8000D70222069207D18F330617033346D60283
:104F9000D18F3306B7033346D6023206D18F33069C
:104FA00097023346D6024206D18F33062703334693
:104FB000D6025206D18F330687033346D6026206E5
:104FC000D18F131647003346D6027206D18F1CD5F7
:104FD000B30767023346F703B3C7D7022206D18F60
:104FE000330637033346D6021206D18F33065703F2
:104FF0003346D6023206D18F330667033346D602D4
:105000004206D18F3306A7033346D6025206D18F0C
:105010003306C7033346D6026206D18F1316370014
:105020003346D6027206D18F5CD5B307D703334619
:105030004703B3C7D7024206D18F3346D702620671
:10504000D18F3306E7033346D6021206D18F3306DB
:10505000B7023346D6022206D18F131627003346F5
:10506000D6023206D18F131617003346D6025206E7
:10507000D18F1CD983C7F187B387FC4033C6A70300
:1050800093FCFC03B3CDB7033206920DB3EDCD0014
:105090001306800233C8C702B3ED0D01214833C89F
:1050A0000703420833E80D01B3CDB702F20D3368B0
:1050B000B801B38DF703B3CDCD02A20D3368B801AB
:1050C000B38DE703B3CDCD02D20D3368B801B38DF4
:1050D000D703B3CDCD02E20D3368B801338B67033C
:1050E000232A05031148B38DC703B38A5703338AB4
:1050F0004703B389370333C80703B3CDCD02120882
:10510000334BCB0233E80D01B3CACA02220B336B17
:105110006801334ACA02B20AB36A5B016D4BB3C974
:10512000C902420A33EA4A01F14AD20933683A0114
:10513000B3896702754A13034002B3C9C902E20981
:10514000B3693801139847003348C802338C87038A
:105150007208B3E909010948232C3503F949338959
:105160002703B3849702B3837702B3825702B388CD
:105170001703B38B770333C80703334CCC023208D1
:105180003349C90233680C01654CB3C4C402120927
:1051900033692801B3C3C302A204B364990013099D
:1051A0001002B3C2C202C203B3E3740093046002EC
:1051B000B3C8C802D202B3E2530093032002B3CBB8
:1051C000CB02E208B3E8120193023002F20BB3E81B
:1051D0007801E94B232E150333887703B3886703DF
:1051E0003348C802B3C8C8021208A20833681801BD
:1051F000B3888703B3C8C80233681801B38857035C
:10520000B3C8C802B20833681801B3884703B3C8EB
:10521000C802C20833681801B3883703FD49B3C810
:10522000C802D20833681801B3883703B3C8C8026C
:10523000E2083368180193985700B3C8C802F2080F
:105240003368180123200505338827039398C70185
:105250003348C80233681801B3887702B3C8C8025C
:10526000920833681801B3885702B3C8C802A2086D
:1052700033681801B3886702B3C8C802B20833683C
:10528000180193085002B3881703B3C8C802C208B4
:1052900033681801B3889702B386D702B3C8C8022F
:1052A000B3C6C602D20833681801E206B366D80056
:1052B00074C193069002B386D7020328850413783D
:1052C00008FFB3C6C602BD8AB366D80034C59306CC
:1052D000A002B386D702B3C6C60230451376F6F0F5
:1052E000BD8A9206D18E34C503C6018803C8E18702
:1052F00033080641B306A80303238504B308B802A4
:10530000B3C6F602B3C8F802A206F208B3E6160165
:10531000B308C803B3C8F802B208B3E6160193187D
:105320003800B3C8F802C208B3E61601B308D803C0
:10533000B3C8F802D208B3E61601B308E803B3C84D
:10534000F802E208B3E61601B798888893880880C7
:10535000B3E61601B3E66600931828003343F8025B
:1053600034C583C62188918E1376F6076206B3C8CA
:10537000F8023203B3E868003383F6033343E302F1
:10538000B30FF8037203B3E86800060833C3E602FC
:10539000B3CFFF025203B3E868003348F802920F1C
:1053A000B3E8F8012208B3E7080113981600334860
:1053B000E8026208B3E70701256813088888B3E7A5
:1053C00007017CC5338FE603B387B60293952600A9
:1053D000B3C7E702334FEF029207B3C5E502220FCE
:1053E000B3E7E701B38ED603CD8F93953600338EA6
:1053F000C603B386A603B3CEEE02B3C5E502B20E72
:10540000B3E7D701334EEE02C205CD8FB3C6E60235
:10541000520EB3E7C701370700817D17E206D58F2B
:105420003CC95C40BD9B5CC05C40F99B5CC01C54AB
:105430009397C7281CD45C5493E707015CD41C5C89
:1054400093F707FCB3EC9701232C94031C5CF98FB2
:10545000D18F1CDCF2506254D2544259B259225AB4
:10546000925A025BF24B624CD24C424DB24D2161DA
:10547000828023AC0186E5B203A741885C4393E7B1
:1054800007105CC3828083A7418903A7C1880145B7
:105490006313F7008280F62399E2D62336959C4366
:1054A000C5BF17F7FF1F130727861C435A23411157
:1054B00093860711E117BA97856523AAD18823A699
:1054C000F18806C69D051356370063F4E500130600
:1054D00000203387C60023A8E188611698C2D2A2B3
:1054E000239306001CC3998FE1175EA323130700C3
:1054F000593FB24097E7FF1F2397A77E4101828063
:10550000011126CA97F4FF1F938444C4D84C22CCBF
:1055100006CE4AC84EC6954717F4FF1F0324C4A8F9
:105520006306F700D84C8D47631FF70083C714024A
:1055300081E7930770109EB0F2406244D244424922
:10554000B249056182800D4597D0FF1FE78000C1F9
:105550009389418603A70900B7C7898E938767EDB2
:105560001CC7B7575500938757555CC30347A4031F
:105570009307F00F6305F700FD57230DF40213891D
:105580004187032709008547A30CF4025C430145CA
:10559000014693E717005CC3930720FB7CA09D475F
:1055A000DCCC9305500297F7FF1F23A107BA938421
:1055B000418897C0FF1FE780C050984001455C5765
:1055C000F59B5CD783A6090058309C421377F707F8
:1055D00093F707F8D98F9CC297E7FF1F83C7C77857
:1055E00099C303A5C18997C0FF1FE780A08B03A7BC
:1055F0000900B70633001C4393F7F7CF1CC31C43C5
:1056000093F7F7CF93E707201CC398401C47D58F2B
:105610001CC703270900B7070300938787153CCBF6
:1056200097F7FF1F23AE07B297F7FF1F23A207B21A
:1056300085471CC311B7014863C8050E63DB06002C
:10564000B337C000B306D0401348F8FF9D8E330631
:10565000C040B2882A872E83F9E263F2C512C1677F
:10566000636CF61AB7070001B337F600B307F040D2
:10567000E19BE107335EF600972600009386C6ABF8
:10568000F2969422130E0002B697B306FE40630C06
:10569000FE003393D500B357F500B318D60033E3BB
:1056A00067003317D50013D608013355C302B3C6BC
:1056B0000808935707013373C302B385A602420358
:1056C000B3E7670063FAB700C6971303F5FF63E417
:1056D000170163E8B7321A858D8FB3D5C7023347F8
:1056E0000708B3F7C702B386B602C2075D8F637BB4
:1056F000D70046979387F5FF63651701F915636334
:10570000D700BE8542054D8D814563090800B3373A
:10571000A000B305B0409D8D3305A040828063FE9C
:10572000D50081450145D5B7B337A000B305B040DA
:105730009D8D3305A0407D5811B7C16763E4F6180D
:10574000B7070001B3B7F600B307F040E19BE107EC
:10575000B3D8F600172700001307079E46971823B3
:10576000130300023E97B308E3406311E31863ECB0
:10577000B6263335C50013451500814579B75DC29E
:10578000C167637AF62413330610134313000E0324
:10579000B3566600972700009387079AB69794231D
:1057A000930700029A96B38ED740639CD708B386BE
:1057B000C5408545135306013346060833D56602B6
:1057C00093570701B3F66602330EC502C206D58FA2
:1057D00063FAC701C6979306F5FF63E4170163EF09
:1057E000C7213685B387C741B3D667023347070859
:1057F000B3F767023386C602C2075D8F637BC700BB
:1058000046979387F6FF63651701F9166363C70030
:10581000BE864205558DD5BD9337061093C7170038
:105820008E0789BD8146972700009387E790B6973A
:1058300094230143930700029A96B38ED740E388DE
:10584000D7F6B318D60133DED50013D30801B3570A
:105850006E02B356D5003317D50133C60808B39589
:10586000D501CD8E93D50601337E6E023305F60247
:10587000420EB3E5C50163FBA500C695138EF7FF85
:1058800063EA151763F8A516F917C695898D33D500
:105890006502B3C60608B3F56502330EA602C2055B
:1058A000CD8E63FBC601C6969305F5FF63E0161522
:1058B00063FEC6137915C69693950701B386C64154
:1058C000C98DEDBD93B7061093C717008E07B3D8E7
:1058D000F60017270000130727864697182313039F
:1058E00000023E97B308E340E303E3E8B35EE6005B
:1058F000B3961601B3EEDE0033D3E50013DF0E01DD
:10590000B357E303B39515013357E5004D8F33CEFD
:105910000E0893560701331616013373E303B305DC
:10592000FE024203B3E6660063FBB600F6961383FD
:10593000F7FF63E3D60D63F1B60CF917F6968D8E7B
:10594000B3D5E60333470708B3F6E6033303BE02D5
:10595000C206558F637B670076979386F5FF636970
:10596000D70963776708F9157697C207416FCD8F1E
:105970009306FFFFB3F5D70013DE0701F18E4182D6
:10598000B38ED50233076740B306DE0213D30E0190
:10599000B385C502B6959A95330ECE0263F3D50052
:1059A0007A9E93D60501F2966363D7026305D7000A
:1059B0003E85814599BBC166FD1633F7D500420788
:1059C000B3FEDE00331515017697E373E5FE13850C
:1059D000F7FF81451DBBB70700016377F6029356B9
:1059E0000601414345BB8145054505B32E85E9B513
:1059F000B685A5BFF28759BD9A8791B77915C69725
:105A0000D5B37915C697C9B993568601614359B381
:105A10003288AA882E87CDEA63FFC50EC167636A04
:105A2000F618B7070001B337F600B307F040E19B63
:105A3000E1073353F600971600009386E66F9A96B7
:105A4000942213030002B697B306F340630BF300EE
:105A50003397D500B357F5003318D6005D8FB318D0
:105A6000D500135608013355C702B346080893D72B
:105A700008013377C702B385A6024207D98F63FABC
:105A8000B700C2971307F5FF63E4070163E8B73077
:105A90003A858D8F33D7C702B3C80808B3F7C7025A
:105AA000B386E602C207B3E8F80063FBD800C298E9
:105AB0009307F7FF63E50801791763E3D8003E8792
:105AC0004205598D8145828063F5D50081450145A8
:105AD0008280C16763E5F618B7070001B3B7F60027
