:040000006F40801FAE
:100004000000000000000000A0000020760700208F
:10001400A9BDF9F3FC01002000000000000000006D
:10002400FC010020A00000200000000000000000EF
:10003400A000002000000000A0000020000000003C
:10004400A0000020A0000020A0000020A0000020AC
:10005400A0000020F4070020A00000200000000001
:10006400A0000020A0000020A0000020A00000208C
:10007400A0080020A0000020A0000020A000002074
:10008400A0000020A0000020A0000020A00000206C
:10009400A0000020A0000020A0000020A00000205C
:1000A40001A0B7170040984B41111367070198CB83
:1000B400982B1377E70F98AB1307800873370780E3
:1000C400137787083AC60F100000130770052380C2
:1000D400E704130780FA2380E7040F100000B847F1
:1000E400B70600069506558FB8C703C7B70413773C
:1000F400F70DA385E704B82713672701B8A71307EB
:1001040050149AA7372700408346578093F6F60E7B
:10011400A302D7808946A303D78003C7E7041377D4
:10012400C70F136717002387E70403C7F702136792
:100134002700A387E702982B1367170098AB238047
:100144000704B247F3A707800F1000004101828023
:10015400EFF03FF513050020970500009385450A4D
:10016400174600001306460963FAC50083220500FA
:1001740023A0550011059105E3EAC5FE17B503E078
:100184001305C58797450000938545071386818E1F
:1001940063FAC5008322050023A0550011059105CB
:1001A400E3EAC5FE1385818E97850000938505A833
:1001B4006377B500232005001105E36DB5FE9302B6
:1001C4005002739002BC8D427390428085427390BA
:1001D40012BC93028008739002309702000093824D
:1001E40062E293E2320073905230976200E09382AD
:0C01F40082407390123473002030000031
:100200009305000273A04580824573901534924097
:100210002242B2424243D2436244F24402559255D2
:100220002256B2564257D2576258F258064996495A
:10023000264AB64A464BD64B664CF64C065D965D52
:10024000265EB65E465FD65F096173002030BD66EC
:10025000014717760000130666EB938606A68545D0
:100260008347060093F7F70F91C382800507E3F9F0
:10027000E6FE97770000238BB7E8DDB77D166206B0
:10028000618693178601E18763D407000145828068
:10029000931726003307F500AE9718439C4363E796
:1002A000E7007D16E37FF7FC7D558280054582805F
:1002B000FD15E205E18513978501618793F7F50F39
:1002C00063480700FD15139725002A97584365D703
:1002D000138517006205618582803308B5021C42D0
:1002E00083A80600B335B502C29733B50701AE98AF
:1002F000469585486367B5006394A50063E30701ED
:1003000081480C43C6950CC388C21CC282808147B9
:100310001397870161876343B70082801397270093
:100320002A97232007008507E5B781470147939661
:100330008701E18663C5B600133517008280939666
:100340002700AA9694428507558FD5B793D7554075
:100350008A07AA979C4305453315B5007D8D828099
:10036000174300E0E702E3F02A84993705C59317A5
:1003700025003E940327C4FF814711EB7D15160528
:100380003E9542054185174300E06700C3F00583B1
:100390008507E5B70145C5BF814713978701618789
:1003A0006343C700828013972700B386E500944219
:1003B0002A97850714C3D5B77D1662066186014763
:1003C00093178601E18763D50700133517008280F4
:1003D00093172600B306F500AE9794429C437D1612
:1003E000B58F5D8FF1BF8A05AA9501476363B5009C
:1003F000828083A6C5FFF11593D71600D98F9CC1C3
:100400001397F601E5B72A83014801470145634385
:10041000D7008280B387050183A80700B3070601D0
:100420009C43C697AA976384F80033B51701050764
:10043000B3080301620723A0F80061871108C1BF58
:100440002A8301478147014563C3D70082803388EF
:10045000E50083280800330EE600032E0E003388E3
:10046000A8403308C8416384080133B508018507F3
:10047000B308E300E20723A00801E1871107E9B709
:10048000174300E0E702E3DE0111B286B2842E8654
:10049000AA850A8575372A84A6850A857935333475
:1004A0008000060413351500018D0561174300E037
:1004B000670063DE174300E0E70223D94111AA89F0
:1004C000AE8A328BB68402C202C402C60144131C37
:1004D0008401135C8C4163499C02939B1400FD1BB7
:1004E0000549138CF4FFF15C3304890162046184D3
:1004F000634D740592478E04CE9423AEF4FE410101
:10050000174300E06700E3D713192400B30B2B0156
:10051000014A93172A00D69783A50B0088437800D9
:10052000340050005D3B050A93178A01E187F11BF7
:10053000E351FCFE92474E9905042320F900A2479F
:100540003EC2B24702C63EC459B7131A8901135AB4
:100550008A41131D240093178A01E18763CF970016
:1005600092470A044E941CC0A24705091379F90F5B
:100570003EC2B24702C63EC485BFB3079A031315F5
:100580002A0056950841780034005000050AEA9781
:10059000DA978C439933C1B74111B7170040985F80
:1005A0003AC6945F3247E39CE6FE324541018280C1
:1005B000B7170040984B41111367070198CB982B50
:1005C0001377E70F98AB130780087337078013770B
:1005D00087083AC60F100000130770052380E70450
:1005E000130780FA2380E7040F1000001307000CA4
:1005F0006315E5029A271367070C9AA7B7170040FF
:10060000982B1367170098AB23800704B247F3A712
:1006100007800F10000041018280B82793760520E3
:10062000ADCA118B29E303C7E70403C6E7041377B8
:10063000F70F136636002387C704B02713664600FA
:10064000B0A792278E273346060893E5050C8EA7A0
:10065000A5470100FD1793F7F70FE5FFB717004017
:1006600092A72387E70493770510DDC3371700406F
:100670003C2793E707013CA79377F50199EFB7274C
:10068000004003C7578013670701A382E7801D4717
:100690000DA013672700B8A7F9B725476366F704CD
:1006A000B727004003C757801377F70EA382E78070
:1006B0000547A383E78033450508B7170040136754
:1006C000050C9AA78AA7B5CE03C7570483C657045B
:1006D000418B858A558F1DF3B82B418B05D3B827E5
:1006E0001377D70FB8A719BF9377050199EBB727F1
:1006F000004003C757801377F70EA382E7800947AE
:100700004DBFB727004003C757801377F70EB5BF1B
:100710009377850181EFB727004003C75780137790
:10072000F70EA382E7801307100561B7B7270040D3
:1007300003C757801377F70EA382E780130770056E
:100740008DBFB8271377B70F71BF37E700E01C43A1
:100750005443A183E206D58F1CC1FD572320F7180F
:100760002322F718828013178500B7E700E023A043
:10077000E710618123A2A7108280411181460146C2
:1007800081451145F52A13078008F337078093F751
:1007900087083EC40F100000B7170040130670050D
:1007A0002380C704930680FA2380D7040F1000002B
:1007B000FD55CEB723800704A245F3A505800F1091
:1007C000000073370780137787083AC60F100000C0
:1007D0002380C7042380D7040F10000003C76704D9
:1007E000136717002383E70423800704B247F3A7A6
:1007F00007800F10000001A0197106C212C416C6AE
:100800001AC81ECA22CC26CE2AD02ED232D436D630
:100810003AD83EDA42DC46DECAC0CEC2D2C4D6C620
:10082000DAC8DECAE2CCE6CEEAD0EED2F2D4F6D610
:10083000FAD8FEDA938541908841E700050092409E
:100840002242B2424243D2436244F244025592559C
:100850002256B2564257D2576258F2580649964924
:10086000264AB64A464BD64B664CF64C065D965D1C
:10087000265EB65E465FD65F096173002030411187
:10088000B7170040985F3AC6945F3247E39CE6FE94
:10089000324541018280B7E700E03707001023A00E
:1008A000E7208280B7170040130700032388E70280
:1008B000854723A6F19073002030411106C6EF0052
:1008C000701CF5BF2303048015472303E480010057
:1008D0002302A480828083076480E3CE07FE230383
:1008E0000480828083076480E3CE07FE0345448052
:1008F000828083076480E3CE07FE2302A480828087
:10090000411126C44AC24EC006C61377F50BAD4747
:10091000AA892E8995446306F70019456537653F16
:100920008D444E854537FD59FD1463983401B2401E
:10093000A24412498249410182801355090113756D
:10094000F50F453F2209CDB7011126CC06CEB704DD
:10095000080051371545BD37713769372AC6A53F9D
:1009600032459377150089EB136515001375F50F64
:10097000F240E24405618280FD14E9FC0145CDBFEF
:100980003971B7F7070006DE26DC4ADA4ED852D6B0
:1009900056D45AD25ED062CE03AB47027D57B7E73A
:1009A00000E083AA070022C603AA470023A0E71895
:1009B00023A2E718B71B0040930770052380FB04B0
:1009C000930780FA2380FB0483C74B041147AA894D
:1009D00093E7070E2382FB04372400401305F00F32
:1009E0002303E4802E8C3289B684E93DED3593876C
:1009F00079FF93F7F70F0947137BFB006362F71248
:100A0000A147370708006307FB00B70707003E9CB4
:100A1000378707007955637EEC02B3878401636AE8
:100A2000F702A9476398F90689E481446D35268564
:100A30000DA0E2850945E93505090345F9FFFD14D7
:100A4000050C453D81C49377FC0FFDF7F53D69FD2D
:100A50007D55B7170040130770052380E70413077F
:100A600080FA2380E70403C74704418B2382E7040D
:100A7000F250B7E700E023A0571123A24711E25438
:100A800032445259C259325AA25A125B825B724C9A
:100A900021618280A547639AF906A1478569631D94
:100AA000FB029387F9FFB3869700B374FC00B694FA
:100AB00093C7F7FFFD8C33FC8701416B856B9387F0
:100AC000F9FFB3F7870199E363FF340193D9490034
:100AD000C147E3E637FF91BF9307F00FE9B785679A
:100AE000C169FD17C9B71305800D63886901130536
:100AF00000026384790113051008E2851135A935D8
:100B000021D94E9CB3843441C1B7E2852D45CD3BFC
:100B1000CA94E30C99F00509F133A30FA9FED5BFE0
:100B20009387F9FF93F7F70F636FF70AA1476319EC
:100B3000FB06B70708003E9C83C75B043707070026
:100B400093F7070299E337870700B70708003E9736
:100B50007955E370ECF0B3079C00E36CF7EE89473E
:100B6000639AF9048980D549E38104ECE28509455B
:100B7000413B11090327C9FF91472320E480030764
:100B80006480E34E07FE23033481FD17EDFBFD1463
:100B9000110C81C49377FC0FE9FF7D3371F54DBDD6
:100BA00083C75B043707070093F70702D5F337873E
:100BB000070079BF8547E384F9F2E2852D45893343
:100BC0009389F4FFE38304E6313B93F7390091EB1B
:100BD000832604800327090093074900E398E6E48D
:100BE0003E89CE84F1BFB5476396F9001305900B9B
:100BF000D13925BDB1471305B00AE38BF9FE9947FA
:100C00006394F904A1476315FB00B70708003E9CF5
:100C1000E2852D45F53181440D4BA149E1316396C3
:100C20006401832704802320F9008504E39834FFBE
:100C30008327048013172C01635507002312F90042
:100C4000EDB32322F900D5B39D476399F90281459D
:100C50001305B0047531BD44232009002322090087
:100C6000FD59493193F77400CA9703C70700FD1473
:100C7000398D2380A700E39634FF45BB91476399E4
:100C8000F900130560063D39B931130590098DB798
:100C9000E38D09D8F15459BB23AC05FE1C4199E3FF
:100CA0000CC182803E8783A787FFEDFF232CB7FE10
:100CB0008280411126C2B7E400E04AC003A90400C3
:100CC000B707200006C622C43379F90023A0F41820
:100CD0000F10000009E523A02411014535A09565FA
:100CE000938505D0C98D2A842105B3C505083345F0
:100CF0000508EF10702F65D1FD572320050042A194
:100D00007CA123A024112105B2402244924402492F
:100D1000410182804111B7E700E04AC003A9070002
:100D200026C23707200006C622C4AA843379E90008
:100D300023A0E7180F10000083A741930144014648
:100D400085E301C8A28513854193978001E0E78080
:100D5000802BA1652685978001E0E780207F0DA08C
:100D600003C7E7FF6319970205CCA285138541935A
:100D7000978001E0E7802029A1652685EF20601695
:100D8000B24022852244B7E700E023A02711924415
:100D900002494101828011E03E8683A787FF4DB75B
:100DA0003E84E5BF37E700E01C43B7062000232060
:100DB000D718F58F0F10000019C191C111E637E760
:100DC00000E02320F71082802E960F70B650D5BF1A
:100DD00037E700E01C43B70620002320D718F58F23
:100DE0000F10000019C1014785E137E700E023201B
:100DF000F7108280B386E50003A80600B306E5007D
:100E00007D1623A00601110775F6C5B737E700E088
:100E10001C43B70620002320D718F58F0F100000C1
:100E200001C53307C50011E637E700E02320F710BE
:100E300082800505A30FB5FEE31DE5FEF5B7B7E615
:100E400000E09C42370620002A87F18F23A0C618B5
:100E50000F1000000145B306A7008386060091E647
:100E600037E700E02320F71082800505EDB7011178
:100E7000B7E700E026CA84434AC83707200006CEF9
:100E800022CC2A892E86F98C23A0E7180F100000A7
:100E90009305F00432C633450608EF10F0142A8497
:100EA00001C53246CA85FD3DF24022856244B7E75E
:100EB00000E023A097104249D2440561828037E7C1
:100EC00000E01C43B70620002320D718F58F0F1031
:100ED000000001C599C1014711EA37E700E023206E
:100EE000F710054582800507E309E6FE3308E500B3
:100EF000B386E500034808009422E306D8FE37E7EE
:100F000000E02320F7100145828037E700E01C4312
:100F1000B70620002320D718F58F0F100000130705
:100F2000F6FFBA952A966317C50037E700E023203D
:100F3000F71082809821FD150505A30FE5FEE5B7A2
:100F400037E700E01C43B70620002320D718F58FB1
:100F50000F10000001C53307C50019E637E700E0B0
:100F60002320F7100145828014210505E398B6FE81
:100F7000E31CE5FE37E700E02320F71005458280FB
:100F8000797126D29384C19422D4804006D64AD067
:100F90004ECE52CC56CA5AC85EC662C44DC437C97A
:100FA000C901814B138B41941309F937176A00006B
:100FB000130A4A64976A0000938A4A61976900009D
:100FC000938949683E2099EF5C44639A0B009CC06A
:100FD000032CC4002285EF10900D628489A823A6FB
:100FE000FB00FDB783270B0082971C443307F540B5
:100FF0006376F50003A789001D8F2A976368E906C9
:101000002E200820EF10F06D5C405844A9CB0C4412
:101010001766000003268663AE97BE8663E4B700BA
:1010200063E4C700B386C74014C4A28B3A8459F85E
:10103000176700000327875A894763E6E700976729
:10104000000023AD0758B250225492540259F2497D
:10105000624AD24A424BB24B224C45618280639431
:101060000B0098C0B5B723A6EB009DB703274A0233
:101070001DCB63EDA7023385A7401C2099EF0347E2
:101080009A0183A689006117B307A7003E8563E430
:10109000E70063E4D7003385D74083A70A01637470
:1010A000F50023A8AA00A28B404451B703A78900EA
:1010B000BA97D1B7011126CA06CE9764000093846F
:1010C000645822CC4AC84EC652C49C288844D9CF02
:1010D000B7E700E003A907003707200023A0E718BF
:1010E0003379E9000F10000003C7C19319CB23A087
:1010F0002711F2406244D2444249B249224A056172
:101100008280177700001307A7858357C70AA1CBF2
:101110009C440324870A6304F404976900009389BC
:10112000E94A03A709012285630BF702138A419458
:1011300083270A0082976368A40C83270A00098C1E
:10114000829783A7090198443354F40AB307A40093
:101150003E8563E4870063E4E7003385E740B7E753
:1011600000E023A027119C44639BA70217640000A2
:101170001304C445184883A741946319A7088297AC
:101180009444374736FE130707C83697B307A700BE
:101190003E8563E4E70063E4D7003385D7401774E6
:1011A00000001304E49E5C5C89CB83A6C1A69C4628
:1011B0003707CDFF7D17F98F9CC611E1884485471D
:1011C0005CD09767000083A72745829715E15C5C98
:1011D00099CF5C5089CF97F002E0E780E04497F028
:1011E00002E0E780E0CB9777000023A5079C493B0E
:1011F0005C5CE38007F003A7C1A61C47B706330079
:10120000D58F1CC7FDB59C443E9405BF82971448FA
:101210009844B387A6003E8563E4D700E3E1E7F88E
:101220003385E740ADBF23ACA19201C58547238E2E
:10123000F1928280AA8799E51767000003478741EA
:1012400009C7D5B711476369B700176700001307CF
:10125000273EB3C5E5209CC1828083A7819381CFBF
:10126000411106C6829783C7C19399E323AC0192CB
:10127000B2404101828083C7C19381E723AC0192D0
:1012800082808280411122C426C206C64AC0977459
:1012900000009384E48F83C73402176400001304B2
:1012A0002439B9C31764000013044432138901952B
:1012B000032709001C2014300146B3A5E7208E2126
:1012C000B5C911C21CA00820636DD5069767000040
:1012D000238E072E83A74194D5E7B240224492443F
:1012E00002494101828082971C40F5FF9767000008
:1012F00083C7473685E3DC48858B89CFD84C99472F
:10130000631EF7009777000023AE0788EF10E01008
:101310005C4482971C44D9D7829769B7D84C9D47C3
:10132000E31AF7FE9777000023AE0786EF10E00E72
:101330001C48C5B7850793F7F70F0546E3EFD7F6C7
:1013400051B73327E5200E2323100700239F019276
:1013500083A78194B347F5209C4382971C20832662
:10136000090003D7E1933377E540B3A6D720922253
:10137000518F9AA299C385071CA018201C30E36ED8
:10138000F7F4A9B79767000083A7472C1CC8CD3E88
:1013900083C73402B9F383C7140299CBDC4C89EBC1
:1013A00097770000A386078097F002E0E780A0CB44
:1013B0009767000083A747268DD31C4899DF183014
:1013C00083260900814763C7E702D84C9147E3E6CB
:1013D000E7F09767000083C7E756918BE39F07EE1E
:1013E00083C7C193E39B07EE2244B2409244024973
:1013F0004101C9B133A6D7201222E31006EE8507BA
:10140000D9B7B7C700401387C7201443139626499E
:1014100010C301000100938787261765000003258C
:10142000A51C9C436A0514C393C7F7FF99835D8D80
:10143000828023ACA1948280176600001306C64DFB
:10144000976600009386464FDC36383E4C4ABA9782
:10145000FD8B33D7F5001CB2DCB6058B0DE7943A53
:1014600013050002B3F7D702814633D8E548630974
:1014700008006394D70018B28280850693F6F60FB1
:101480000507E314A7FE8280011126CA83A74194B1
:1014900006CE22CC4AC84EC652C48297976400003A
:1014A000938484499844AA870145630DF70463E354
:1014B000E706998F176900001309094693F9F701A8
:1014C00013D457008347A901636AF402176A000026
:1014D000130A4A1795370347A9018C4403268A004B
:1014E00093175700AE97198CBE8663E4B70063E488
:1014F000C700B386C74094C4E37EE4FC13155400D0
:1015000033653501F2406244D2444249B249224A2D
:10151000056182809766000083A646133387E64004
:10152000BA9749BF411122C41764000013044466EE
:101530001C4426C206C6858B9764000083A4844899
:1015400091EBEF20F0362244B240268592444101CF
:101550006F10B03298289767000023AF0762894761
:10156000E301F7FE0146930550020145EF10201BF1
:101570008145178502E0130565D06D390146814527
:101580000545EF1060005C44858BC5DFB240224406
:101590009244410182809767000083A76746639B5E
:1015A0000716011122CC2A84094506CE26CA4AC84C
:1015B0004EC6EF2010379389C1A503A609009307F3
:1015C00080071389C1A47CD2238E0192832709004E
:1015D0009384C1A6B7053300D8572285719B136742
:1015E0001700D8D798431377F7CF98C3984313774A
:1015F000F7CF1367072098C398401447CD8E14C7C0
:10160000B70603009386862534CA5457F59A54D7F3
:1016100098433424137707F893F6F607558F98C349
:10162000EF10D03C83A60900370500827D15DC420F
:1016300093E71700DCC203260900030784065C5603
:101640009375F703E605E98FCD8F5CD69305A0036C
:101650009C4063D5E508F84FB70500074D8FF8CFDC
:10166000B7C7898E938767ED1CC6B7575500938718
:1016700057555CC28347A40683444406DD8C8947E2
:10168000176700002324F7529767000023A807502C
:101690007C44BCDE9767000083C7C7FB99C7FC5238
:1016A000FDFF9767000023A9074E18289D47814535
:1016B00017250000130505F36306F7001705000062
:1016C000130585E6853E10386244F2404249B2492E
:1016D000A685D244014505616F00106B9305200279
:1016E00063DAE500F84FB70500F9FD156D8FB70512
:1016F0000005ADB7B70500F96945FD156357E5006D
:10170000F84F6D8FB705000391BFF84F6D8F13171A
:101710008729B1B782809767000093876724E853D1
:10172000054754256390E60203C747079147631AAC
:10173000F700011106CE2AC6EF1030103245F240F4
:10174000056191BD828083278511E5CB411122C4BB
:1017500006C658258345E5049437D2272A84137793
:10176000C70F1395466063F7C506635105068827C2
:1017700093F6F60794B70546936627006314C500F1
:101780009366170054A4D8430907D8C3032504114E
:101790004CB82E86CC430905EFF0CFE083278411A7
:1017A0005438D8433697D8C3DA27158FDAA7894734
:1017B0003CBC034764039767000083C7C7E46369C1
:1017C000F706B240224401454101828013671700A9
:1017D00058A46DBF9376F60F63550502882785459B
:1017E000136627006314B5001366170050A454B89D
:1017F000A384070085473CBC832784119C43D5FB09
:10180000C9B71367170058A454B8A3840700032569
:101810000411CC430905EFF0EFD883278411543825
:10182000D8433697D8C3DA27158FDAA78D47E1B7A3
:101830005C2493E707015CA469B7054582804111E8
:1018400083A741A322C406C6858B2A84C5E74165C8
:10185000130525F5979002E0E780006C41CD3C250B
:101860003EA583270412ADE32320A4122322A41251
:1018700085472311F404232005007C2854415EA5EC
:10188000583418A5054718B51385170217670000C7
:101890000327C73315811C437D151375F50F9CC2B3
:1018A0005C43DCC21C479CC65C47DCC61C4B9CCA24
:1018B0005C4BDCCA1C4F9CCE5C4FDCCE0DC19386CA
:1018C000060213070702C1BF8327441288C3835748
:1018D00024042322A4128507B3C7070859BF17673A
:1018E00000001307E7071E2785071EA7B240224402
:1018F000410182805C2423090400054593C7470009
:101900005CA4EDB7142D854763ECD70A1C3D2A87EC
:101910000145CDEB5C2713F507013C2B99CB8346A2
:1019200067039767000083C717CE63ECF60001E5F5
:10193000828049E582808357271E0357671EBA9726
:1019400021A08357271E75F90145ADCF9387C71294
:10195000176500000355C5CFB3B5A70237460F0082
:10196000411113060624814622C426C206C67D54B0
:101970003385A702976003E0E780A0A99764000081
:1019800083C4D4C8AA949767000083A7A70603A7B7
:1019900007099C433354E40AFDFB83A741948297D3
:1019A00081476364A400B307A440B240224433B526
:1019B0009700134515009244410182808147B5BFCD
:1019C00001458280828003A7C1A53C5BFDFF010029
:1019D0000100828039C901116C0022CC06CE2A8414
:1019E000EF20E03A15C9FD57630DF502B247976540
:1019F000000083C5B5C163EBB700034594026244A0
:101A0000F240B385B74005616F10005217670000C0
:101A10000327C7C3BA97D5B76244F24005616F1078
:101A2000907BF2406244056182808280797152CC61
:101A3000176A0000130ACAF226D283244A0906D67E
:101A400022D44AD04ECEC5C897670000938747146A
:101A5000D44F15476384E604DC532A8989CF97F075
:101A600002E0E78060BC97E002E0E78060439767B0
:101A7000000023A10714FD596C002685EF202031BA
:101A80001DE517250000130545F5EFF0CFF983A7F5
:101A9000C1A53707100098C70547B8DB0D45B25000
:101AA000225492540259F249624A45618280637419
:101AB00035013244AA898440E1F0FD571305F00F47
:101AC000E38FF9FC914763F187029307B4FF23206A
:101AD000F9002324FA0A99E79767000083A707B75C
:101AE0002320F900014565BF9767000083A707B66B
:101AF000ED17A297E9BF09455DB7797126D206D6E1
:101B000022D44AD04ECE52CC56CA5AC85EC683475B
:101B1000550303447513AA843E941374F40F93077A
:101B2000400263F687001304B4FD1374F40F03A995
:101B3000841383A9C413A38B841222864A85CE857D
:101B4000975003E0E780804A058915E503CBD4125E
:101B5000014A814A337B6403930B500252864A85C3
:101B6000CE85975003E0E780604805890DC56391F5
:101B70006A031374FA0F238B8412B25022549254C6
:101B80000259F249624AD24A424BB24B45618280C5
:101B9000850A939A4A60050AE3127AFDE9BF832712
:101BA000850903560504797193D60701BD8EB3C626
:101BB0000608358E93575640898B135776485D8FAC
:101BC00093573640918B5D8F93571640A18B5D8F55
:101BD00093171600C18B5D8F9317360093F707029A
:101BE0005D8F9317560093F707045D8F9317760068
:101BF00093F7F70F22D45D8F2A849357D60013559D
:101C0000B6001189898B93558600C98F1355F6004C
:101C10002582C98F218AD18F13961500418AD18FD1
:101C20001396350013760602D18F1396550013765E
:101C30000604D18F139675001376F60FD18FA20785
:101C4000C5455D8F3307B70226D24AD04ECE032951
:101C500084138329C4135AC806D652CC56CA369761
:101C60003347070813565740098A93577748D18F4F
:101C700013563740118AD18F13561740218AD18FBE
:101C800013161700418AD18F1316370013760602F8
:101C9000D18F1316570013760604D18F13167700D1
:101CA0001376F60FD18F1358B7001356D700137859
:101CB0004800098A13558700336606011358F70058
:101CC000258333660601218B518F13161500418A37
:101CD000518F1316350013760602518F13165500D7
:101CE00013760604518F131675001376F60F518F75
:101CF0002207D98FB387B7025EC6B697B3C7070866
:101D000013D55740098913D77748498F13D53740E2
:101D10001189498F13D517402189498F13951700D1
:101D20004189498F1395370013750502498F139523
:101D3000570013750504498F139577001375F50F38
:101D4000598D13D8B70013D7D70013784800098BE3
:101D500013D687003367070113D8F700A5833367CD
:101D60000701A18BD98F13171600418BD98F131739
:101D7000360013770702D98F13175600137707041D
:101D80001E06D98F1376F60FD18FA2073367F500A1
:101D90003307B702130650024A85CE853697B98EAF
:101DA000B3C4060833F6C402137BF60F975003E062
:101DB000E780C023058905E9834AD412014A930BC1
:101DC0005002B38A9A02814493DA0A0126864A8530
:101DD000CE85975003E0E780602105890DC56391AA
:101DE0004A0313FBF40F230B6413B2502254925492
:101DF0000259F249624AD24A424BB24B4561828053
:101E0000050A137AFA0F8504E39274FDE9BF83276C
:101E1000C50803568508797193D60701BD8EB3C6F0
:101E20000608358E93575640898B135776485D8F39
:101E300093573640918B5D8F93571640A18B5D8FE2
:101E400093171600C18B5D8F9317360093F7070227
:101E50005D8F9317560093F707045D8F93177600F5
:101E600093F7F70F22D45D8F2A849357D60013552A
:101E7000B6001189898B93558600C98F1355F600DA
:101E80002582C98F218AD18F13961500418AD18F5F
:101E90001396350013760602D18F139655001376EC
:101EA0000604D18F139675001376F60FD18FA20713
:101EB000C5455D8F3307B70226D24AD04ECE0329DF
:101EC000040A8329440A5AC806D652CC56CA369701
:101ED0003347070813565740098A93577748D18FDD
:101EE00013563740118AD18F13561740218AD18F4C
:101EF00013161700418AD18F131637001376060286
:101F0000D18F1316570013760604D18F131677005E
:101F10001376F60FD18F1358B7001356D7001378E6
:101F20004800098A13558700336606011358F700E5
:101F3000258333660601218B518F13161500418AC4
:101F4000518F1316350013760602518F1316550064
:101F500013760604518F131675001376F60F518F02
:101F60002207D98FB387B7025EC6B697B3C70708F3
:101F700013D55740098913D77748498F13D5374070
:101F80001189498F13D517402189498F139517005F
:101F90004189498F1395370013750502498F1395B1
:101FA000570013750504498F139577001375F50FC6
:101FB000598D13D8B70013D7D70013784800098B71
:101FC00013D687003367070113D8F700A58333675B
:101FD0000701A18BD98F13171600418BD98F1317C7
:101FE000360013770702D98F1317560013770704AB
:101FF0001E06D98F1376F60FD18FA2073367F5002F
:102000003307B702130650024A85CE853697B98E3C
:10201000B3C4060833F6C402137BF60F975003E0EF
:10202000E780C0FC058905E9834A1408014A930B3F
:102030005002B38A9A02814493DA0A0126864A85BD
:10204000CE85975003E0E78060FA05890DC563915E
:102050004A0313FBF40F230F6407B2502254925427
:102060000259F249624AD24A424BB24B45618280E0
:10207000050A137AFA0F8504E39274FDE9BF7971BA
:1020800022D426D22E84AA844146977503E09385F4
:10209000E5B20A8506D6972000E0E7808020414619
:1020A000977503E0938585B10808972000E0E780E5
:1020B000401F3C3010088A85DC875C2026855C87C1
:1020C0005C30DC8697E002E0E780E0B50347F10191
:1020D0001C200145631EF7000347E1011C30014548
:1020E0006318F7000345D1013C201D8D1335150001
:1020F000B2502254925445618280011122CC26CAEA
:102100004AC84EC606CEAA841764000003248491F0
:1021100013092500854905C09C303830858B630440
:10212000F700405CCDBF1946930544004A85EFE0B7
:102130001FD9E31835FFF24022856244D244424958
:10214000B24905618280411122C426C24AC006C636
:10215000176400000324048D93042500054901E859
:10216000B240228522449244024941018280A685E0
:102170001305A4022937E30525FF405CCDB7011103
:1021800022CC26CA06CE2AC42EC617640000032419
:10219000E488854419E001450DA09C841830858BA6
:1021A0006304F7000044FDB719469305A100130529
:1021B0002400EFE0DFD0E31795FEF2406244D24402
:1021C00005618280EFF06F8973000000000000005D
:1021D0009382C1930383020023800200630F0300F4
:1021E000F32510342EC0970500009385E5FD73900C
:1021F0001534EF00405B7300203086DCEF00A05AFE
:10220000E6508280000041114AC01389C1A403270F
:10221000090026C206C61C5F22C4938481A493D7FA
:102220006748B5CF930700061CDF1764000013044E
:102230002496184C930700086317F7009C409C43B2
:1022400093F707041CCC1C4093F7070489CB83A7A2
:102250004194829748D81C4093F7F7FB1CC01C4060
:1022600093F7070289CF1C4003A7C1A5B706080052
:1022700093F7F7FD1CC05C5414C786077CD71C4835
:1022800093F7070489EF85475CC83707020083A7E7
:10229000C1A598C71307000C18C81854F8D3832792
:1022A0000900985F1357474811CF985F13670701DC
:1022B00098DF83A7C1A523A20706854717670000FB
:1022C0002320F78E9C40D8431357174819C7D8438B
:1022D000759BD8C3D843799BD8C3B240224492445B
:1022E0000249410182800537730020309767000062
:1022F0009387078A3707040088DB698F01CF03A71C
:10230000C1A5FD5634D7975600009386262CD84E8B
:102310000507D8CE1377850019CF984783A6C1A4A7
:102320001367170098C71307000898CBD856719BFE
:1023300013671700D8D61377150001CFD84383A6AB
:10234000C1A413671700D8C3D856719B1367170031
:10235000D8D61377650019CF1377450059C3984332
:102360001367170098C383A6C1A4D856719B13673F
:102370001700D8D64167698F0DC39756000083C6F2
:102380006665C18A175700001307875DA5C283469B
:10239000470793E60602230AD70637070200698F2C
:1023A00001CF984B1377070819C3054798CB83A72C
:1023B000C1A53707020098C7B70708007D8D0DC17A
:1023C0001757000003471761058B97570000938745
:1023D00027591DCB03C7570713672700A38AE706B2
:1023E0008280D84713671700D8C7B5BF8346470711
:1023F0000946BD8A6388C600834647070D46BD8AE5
:10240000E39DC6F8914641BF03C75707118B69DBAF
:1024100003C7570713678700D1B783A6C1A517570E
:1024200000001307E7761C43858B91E75C43858B9F
:1024300099E3FC52EDFB9757000023A507768280B5
:102440009386C1A42A8788421C5D93D75748D1E759
:1024500081C51C59BD839CA115C69C42945BC606D0
:1024600093D7660163D6060093E707C0B3C7070892
:102470008316060093975760B9C6BE968947B3C6C0
:10248000F60216A283A7C1A5BC4B083393D75748C1
:102490008DCF29C59756000083A6067193F60604D2
:1024A0009307950009459DCABA979C23054719458E
:1024B00093F6F7066394E60201459397476063DF5E
:1024C0000700394582801EA275BF2A9748331375CD
:1024D000F5077D153335A00082800545828083A7EE
:1024E00041A599CB944BD04B9842518F98C29443BD
:1024F0009C479842D98F9CC21386C1A505481842B3
:1025000083A6C1A4975700009387876863120505C7
:1025100003A806001368080823A0060183C6270243
:10252000B3C5D52054479385A50C13981649232687
:1025300007010F100000184237060200860510C779
:102540001306000890CB6CD354C72388A1A48280C3
:1025500088421375F5F788C283C62702B3E5D520F4
:1025600054479385E50E1395164948C70F10000090
:10257000184237060200860510C71306000890CBE4
:102580006CD354C70945D1B7411122C4AA8706C6E6
:1025900026C22E851384C1A5B285DDE71C40F85301
:1025A0007DFF3707020098C79757000023A6075EF4
:1025B0009754000093840404DC5085C7B7E700E01B
:1025C0003707200023A0E728B7F700E0938707D05C
:1025D000984B6D9B98CB984B1367870398CB7300F0
:1025E0005010F53D83A7C1A498431317772998C3CA
:1025F000D857719BD8D79757000023A5075A9757EC
:10260000000023A907581C40094798C3DC5099CB08
:1026100037F700E0832707D193E787002328F7D017
:1026200073005010144017570000130767561C47DB
:10263000858B91E75C47858B99E3FC52EDFBB240BB
:1026400022449244410182800D47639EE7049757DC
:10265000000023A307549757000023A10754975461
:102660000000938424F9DC5085C7B7E700E0370702
:10267000200023A0E728B7F700E0938707D0984B06
:102680006D9B98CB984B1367870398CB73005010C2
:10269000B93583A7C1A498431317772998C3D8578E
:1026A000719BD8D7A5B70547E39EE7F6975600007C
:1026B000938646F4DC5285C7B7E700E03707200071
:1026C00023A0E728B7F700E0938707D0984B6D9BCE
:1026D00098CB984B1367870398CB730050101C401E
:1026E000D04713171649D8C70F1000001C403707F2
:1026F000020098C7130700089755000023A2E54A77
:1027000003A7C1A418431357774819C71307E01844
:10271000F8D3D0C7DC52E5BD1307E01AD5BF83A7B5
:1027200041A589CFD44303A88700984233670701A6
:1027300098C2D447DC4B9842D98F9CC2054783A7E7
:10274000C1A49505631EE50298431367070898C363
:10275000984F137707C01367A71398CF1307800705
:10276000B8BB939735009387C7031757000013072B
:1027700027421CD72388A1A419C2060610D782803D
:10278000984309451377F7F798C3984F137707C015
:102790001367271398CF1307F007B8BB939745002B
:1027A0009387C703D9B783A7C1A58847D847798D31
:1027B00011C588C783A781A591C382878280896755
:1027C00003A7C1A5938707F47CD383A6C1A683A7DB
:1027D000060993D7A74991C783A7060993D79749B5
:1027E00099E37C53EDF782804111B7E700E022C402
:1027F00080433707200006C6798C23A0E7180F1006
:10280000000011C199E5B7E700E023A0871001455A
:1028100049A80D0533450508130740037199B347CF
:1028200005086362A70203A5C1AF83A641AF639FFA
:10283000A600175700000327E7DE71D7C207DD8D1A
:1028400005450297C9B703A581AFC5B77A2131EF16
:102850005A21636CF704B306F7402148175600006D
:102860001306C6D66375D802832805000358660090
:10287000938687001D8FAA966117DAA223A01601FE
:102880002393060014C15EA1130788FF7AA27A225F
:102890006EA12105B307F7407EA2B7E700E023A0B1
:1028A0008710B240224441018280084149B7B7E70E
:1028B00000E08C433707200023A0E718F98D0F10A4
:1028C000000001E523A0B710828003A3C1AF83A855
:1028D00041AF9A87814663F8170903A80700636729
:1028E000F5086365A80813878700636EE506F22381
:1028F000216705076317E600138631A11822050733
:1029000018A217550000130565CCD2237A21239312
:1029100007003297334707087AA16383670203A34E
:1029200081AF630FF30003D36600631B0300DE2255
:1029300023A0060121073E962106D2A27AA1B687DE
:1029400098436302170383A681AF630ED7007623F3
:1029500099EAD62352231843A106B296D6A398C368
:102960007E21A1077EA1B7E700E0A9BFBE86C2878E
:102970009DB7AA8703A7C1AF03A641AFB305B54072
:102980006314E6003E8529A8930687001843E3E90F
:10299000D7FEE3F7E7FE2E85E3E4D5FEE3F2E5FE9E
:1029A0008280411126C206C622C44AC09754000044
:1029B00083A484006383041003A4C40AAA86054583
:1029C00035C03C241307700A6390E70858301C3464
:1029D00017590000130909C703268900B387E702C6
:1029E0000357C900B387E70213070032938707191B
:1029F000B3D7E70203A744093E97BA846364F7009C
:102A00006364C700B304C74083A7419484C282971C
:102A1000B387A44063F5A40003278900BA9789EB24
:102A20001305F00FB24022449244024941018280D2
:102A300058309306204E3307D702E3F3E7FE93079F
:102A400080FA3CA40145F9BF1307800AE39AE7FC2A
:102A500083A7419482972A893545EF10806CAD4752
:102A6000175700002324F71458301C341756000061
:102A7000130646BDB387E7025A261046B387E7021E
:102A80001307003293870719B3D7E70203A7440956
:102A90003E97BA866364F7006364C700B306C74015
:102AA000E310D9F8173503E013050543EFE0AFF75E
:102AB00083A7C1A50947F8D7A5B70545A5B73971BB
:102AC00056D2975A0000938AAA0C83A70A033707A5
:102AD000080026DA06DE22DC4AD84ED652D45AD076
:102AE0005ECE62CC66CA6AC86EC6F98F9754000083
:102AF00083A484EC6384071C83A9C40A83C7990058
:102B000003A4C90092073E942820B1470505330568
:102B1000F5025E203E9533450508EFE08F99AA8CBB
:102B20006305051A130DC5002324A5013420314681
:102B3000370B0300B386C602231304000149138A2E
:102B4000C1A5938BC1A4938DC1A6130B8B15054C06
:102B5000EA9654C483C679009307D00783250A00F8
:102B6000B386F602C1679CC5370833008606B4D128
:102B700083A60B0090421376F6CF90C29042137654
:102B8000F6CF1366062090C203A50D0010453366EC
:102B9000060110C503A6090023A865059305500288
:102BA00090C672205444B2962324DD0014300146AE
:102BB000CA96A301DD0003C504089756000023ABA5
:102BC00006FCB13E83260A00CC4613961549D0C6B2
:102BD0000F10000083260A003706020090C6130675
:102BE000000823A8CA0003A60B001042135676481B
:102BF000631F860B1306E018F0D2CCC617560000F0
:102C0000232206FA17560000232606F823A0860181
:102C1000EFF0BF80EF10C04983A64A00858AD9CA69
:102C2000EA852685974003E0E78020310DE90346D9
:102C30005D0049C276204E20B29663DDB606B42808
:102C4000AC4803258D00918E8906B695EFE08F95EF
:102C500023020D0003465D007620B29676A003267F
:102C60000A00310D3452FDFE342005091379F90FA5
:102C7000E362D9EE9C246685A381FC001C20A3821C
:102C80000C002383DC002382FC006254F250D254F7
:102C90004259B259225A925A025BF24B624CD24CC0
:102CA000424DB24D2161173302E06700E30B13067A
:102CB000E01A99B7FD562302DD0055B783A7C1A5D9
:102CC000FC5781C78547238EF192F2506254D2544B
:102CD0004259B259225A925A025BF24B624CD24C80
:102CE000424DB24D21618280411122C406C626C2E6
:102CF0004AC02E848DCD13F91500814741476302E8
:102D00000904131745003E97B1463307D70283A441
:102D10004195B317F02833C90708BA949C40C840BE
:102D2000829723A0040023A2040033448900B24008
:102D3000228522449244024941018280B356F448DC
:102D4000E9F28507E39CE7FECDB7011126CA06CE5E
:102D500022CC4AC84EC6AE84A1C593F715000144E3
:102D60004147B1CB93174500A2973147B387E7029C
:102D70009389419503A909003E998327090081C7DA
:102D800003254900829731473307E40283A70900EE
:102D9000BA979C478DC733148028B3470408BD8C6D
:102DA000F24062444249B2492685D244056182809C
:102DB000B3D68448C5FA0504E31CE4FECDB723204E
:102DC000090023220900C1BFAA8703A5C19411E10C
:102DD00082803A216315B7001821E30BF7FE4845BE
:102DE000FDB77971B7E700E022D4804352CC06D614
:102DF00026D24AD04ECE56CA5AC85EC662C43A8A55
:102E000037072000798C23A0E7180F10000005E198
:102E100023A087100945B250225492540259F24916
:102E2000624AD24A424BB24B224C4561828083A710
:102E30004194B6892A89AE8A328B938B41958297C9
:102E400003A70B008144B146C147338CD40233063B
:102E50008701104235EEC165938505F04145EFF0DD
:102E6000BF9819ED9747000083A7C77B81C78145AD
:102E700011458297B7E700E023A087102D4561BF79
:102E80001387C1941C43A1E308C323000500B317B3
:102E900090283EA183A70B0023260500232465016B
:102EA00023224501E29723A0270123A2570123A44F
:102EB00047016384090023809900B7E700E023A05D
:102EC0008710014589BF3E87DC47F5FF48C775BFBE
:102ED0008504E39CF4F6B7E700E023A087102145C2
:102EE0001DBFB7E700E09843B706200023A0D7181E
:102EF000758F0F1000009746000083C6366D637112
:102F0000D50283A601953325D5201621D58D0EA196
:102F10009746000023A4066C23A0E7100145828099
:102F200023A0E7100D4582800111B7E700E022CC15
:102F300080433707200006CE26CA4AC8798C23A0D2
:102F4000E7180F100000BD4763E7A70431473307B8
:102F5000E50283A74195BA979C4395CF3315A028E6
:102F60002E89B345050801452EC6B93DAA8409C975
:102F7000B2450145976001E0E780E02223A42401E7
:102F8000B7E700E023A087100145F2406244D24435
:102F9000424905618280B7E700E023A08710094518
:102FA000EDB79757000083C7F796AA86850703A554
:102FB000419E014712216307D60005071905E36BFF
:102FC000F7FE014582802A8703A5C19E11E1828018
:102FD0001C45B227636BC70003584500B306C80001
:102FE0006355D7008146639406010841C5B703D3F2
:102FF000A700938807016316E30091C192A13E8563
:1030000082808506C687B3C60608F1BF97560000C2
:1030100083C6469083A781A101476394E6000145DA
:103020008280AE231386C7036394A5003E85828009
:1030300005071377F70FB287CDB7411122C406C633
:10304000975700002388079803A481A205C06C3914
:103050000145B315B028B3C50508976001E0E780C6
:103060002060930710273305F50202942244B240F2
:103070008145014541016FE0EF9B411106C6383D96
:1030800019C73425631ED702B24041017DB73C2DDC
:10309000E5DF3825E30AF7FE3CA5814517E5FFFF8C
:1030A0001305A567EFE00F999747000083C7875A7C
:1030B00089C783A7C1A55147F8D3B2404101828097
:1030C0003C2D89C7E39AF6FC38A5C1BFD5FEEDBFFC
:1030D00041114AC017590000130989AB83278900A1
:1030E00022C426C206C69754000093846487858B49
:1030F000E0509DCB9757000023A007AA83C7440741
:10310000C18B85CFEF00D07A83C7440793F70702BE
:10311000E5DF83C74407228593F7F70C238AF4067B
:10312000975002E0E780E035EF0090782285224456
:10313000B24092440249410109B783C75407858BC5
:1031400091CBEF00F0768D47230EF406BC58228514
:103150008297D9BF83C744071547BD8B6395E704A2
:103160008347B406034534060146930550025D8D3E
:10317000EFF0EFDA014681450545EFF0EFC0832718
:10318000C900858BD5D322859757000023A807A0B7
:10319000975002E0E780A01641F9B24022449244E1
:1031A00002494101828083C744071947BD8BE39DD3
:1031B000E7F68347B40603453406014693055002FB
:1031C0005D8DEFF0CFD5014681450545EFF0CFBBD2
:1031D0008327C900858BA9DB22859757000023AF81
:1031E000079A975002E0E78000EB7DB7411122C4B7
:1031F00026C206C67C2578452A84BD8B1CA91CA343
:103200001D4764456395E7340547B8A08347F50536
:103210008D466393D7185E2DCDE37C491147B18B62
:10322000638DE70831476398E70003471506834736
:10323000F5076304F7088547BCB019469305640396
:1032400013854400EFD01FB6BC20990793F7F70F02
:10325000BCA0034704061377070401CFB8301367F7
:103260000704B8B07844BA975838B8B3BC2085077B
:10327000BCA097470000238F0774BC2013F7F70307
:10328000050718B80347E4051A07D98FBCA0834780
:103290005403858B91E70347440389476317F7007D
:1032A00078441C2393E707041CA37C44183898B384
:1032B000B2402244924441018280A147BCB083576E
:1032C000C406974500009385A5691386C1A5DCA0B7
:1032D0008357C406034714067444A1831207BD8BA9
:1032E000D98FDCB2B4208547890693F6F60FB4A0D7
:1032F000174700000347076E631EF706183C9387C5
:10330000E6008E07231AF4069387C708B387E702FF
:10331000794510420948238A0507C1650CC6938781
:1033200007FBB3C7070893877716B3C7A70233C74E
:103330000708B387A70286073CD2BC3093E7070192
:10334000BCB07C44B6978346240693E60604B4B327
:10335000B4207C44B697D8A3B4207C4421837D8BD1
:10336000B697834634069606558FD8B3BC208D0792
:10337000BCA021B71042F947385205833357F702F2
:103380003C5268528583FD8BAA977CD28D47238A55
:10339000F5063347070855B71946639BC7125E2DDC
:1033A000C1E393056503B8B013854400EFD09F9F38
:1033B000BC201385A4009907BCA0BC3093E727006C
:1033C000BCB083475403898B95CF0C58BC299DCB47
:1033D0001946D105EFD01F9D78441C2393E707F8C9
:1033E0001CA3BC20990793F7F70FBCA00347040662
:1033F00013770704E30F07E6B430784493E6060436
:10340000B4B095B58347D40391C778441C2393E7A0
:1034100007F81CA319469305E403EFD0BF98D1B772
:10342000A147BCB08357C506DCA08357C506034639
:1034300015066C45A1831206BD8BD18FDCB1B0207F
:10344000174500001305C5519385C1A509061376DC
:10345000F60FB0A09747000083C7C7576398E704EB
:10346000183C9307E6008E07231AF4069387C708D3
:10347000B387E70279488946230AD5069441C16596
:103480008CC6938707FBB3C7070893877716B3C724
:10349000070333C70708B38707038607BCD2BC30CE
:1034A00093E70701BCB07C44B29771BD8C41B85121
:1034B000F94705833357F702BC5103A845068583B6
:1034C000FD8BC297FCD1230AD50633470708C1BF3D
:1034D000A147BCB08357C506DCA08357C506034689
:1034E00015066C45A1831206BD8BD18FDCB1B020CF
:1034F000174500001305C54609061376F60FB0A060
:103500009747000083C7074D83A5C1A5E391E7FA5C
:10351000183C9307E6008E07231AF4069387C70822
:10352000B387E702F9460948230A0507416588C5BC
:10353000938707FBB3C7070893877716B3C7D702EC
:1035400033C70708B387D7028607BCD189BF0547B1
:10355000639EE706B1471CB983475503898BA1CB0E
:103560000C59BC29A9C71946D10513858400EFD091
:103570007F8378441C2393E707F81CA3684419460B
:10358000930564030905EFD0FF8111679747000099
:1035900083A7074AF98FE38C07CE7C24B98BE39885
:1035A00007CE78441C2393E707021CA3CDB18347C1
:1035B000D40389C79C2093E707F89CA06844194668
:1035C0009305E4032105EFD0EFFD4DBF522D0C55BF
:1035D0009307660093F7F7031CB913858400E5B7DA
:1035E000011126CA974400009384845A9C4422CC3B
:1035F00006CE174400001304A436858B6850C9C357
:103600002AC69747000023A90758EF00702A0347EE
:103610004407894732456307F700034744078D474E
:10362000631CF70283A6C1A5BC52035745078583D7
:103630001307C71263F2E702BC528583B1C39147F7
:1036400003474407E31EF7FE6244F240D24405619B
:10365000175302E06700030B382D3C3D09CF34259A
:103660006309D7026388F60238A56244F240D24467
:1036700005616FD05FF299CF382509EF3CA5F5B70A
:103680002AC6EF00F02262443245F240D24405617E
:103690006DB2EDF7DC4CEDF703474407894763074C
:1036A000F700034744078D47E31CF7FC91470347A6
:1036B0004407E31EF7FE49BF630E0530011122CC1B
:1036C00006CE26CA4AC84EC652C456C25825854799
:1036D0002A846316F72C974700009387674BD44FD3
:1036E0001547638AE600D44F0D476386E600D84F3E
:1036F000AD476312F7026C386244F240D24442494B
:10370000B249224A924A01450561B315B028B3C5B2
:1037100005086FF00FFD1631130700649744000091
:10372000938404243347D7029C20E8D0850793F77D
:10373000F70F9CA063CAE700976001E0E78080353F
:1037400097470000238E072078249D47631FF704C6
:1037500083479406B1C38356040763ECF6020C2436
:10376000930730041CAC1305300493F6F60F0146A2
:1037700097F002E0E780806922856244F240D244FB
:103780004249B249224A924A0561176302E0670042
:10379000E3A585062318D4069305300205459760F6
:1037A00001E0E78000282301A4060549238A2407B5
:1037B000183C8D47631CF70E976001E0E780E095A9
:1037C0000D89630F051463162517930760023CA447
:1037D000930750023CAC9307700278243CBC8547A9
:1037E0006302F70889659385F57013051027174A5A
:1037F0000000130A2AE583497401976001E0E7801D
:10380000C0240E30835ACA002A8913060064B38587
:103810005503814613850532B335B500974003E063
:10382000E78020BFAA84B335590337460F0013063B
:103830000624814633055903974003E0E78060BDC5
:1038400083270A00AA948297B307950003278A006A
:10385000BE8563E4A70063E4E700B385E7404E85D7
:10386000EFF08FEC83475403898BE9CB8347C40384
:10387000F1C70C58E1C5BC25F1C38947230AF402FE
:103880001946B10513056403EFD0CFD10347C40730
:10389000894763E9E70A22856244F240D2444249FB
:1038A000B249224A924A05616FD0FFCE89467C34E4
:1038B0006315D70213F7170019CB898B1307500232
:1038C00091EB9307700238A43CAC814739B71307DA
:1038D0006002C5BF93076002FDB799CF93F617004A
:1038E0001307500291E6898B13B71700130767027D
:1038F00038A4230D0400D1BF3C2C13074002636899
:10390000F700930750023CAC3C2C3CA47DBF8507DC
:1039100093F7F70F3CAC13077002E364F7FEEDB7C3
:1039200013077002930750023CAC38A4930760025F
:103930006DB51307500293077002FDB78547230A40
:10394000F402A9B70327C40A83A641943C27ADC358
:103950001C375833974400009384C4CE9044B387F7
:10396000E702DA24B387E7021307003293870719C7
:10397000B3D7E702032744093E973A896364F70007
:103980006364C7003309C7408296B307A9406374D4
:10399000A9009844BA9703576407E3FEE7EEF240A4
:1039A0006244D2444249B249224A924A0561828025
:1039B00083248409829663E9A400835764073385CE
:1039C000A440E37AF5ECE1BF9747000083A707C85E
:1039D000BE94E5B7828001114EC6974900009389D5
:1039E00029F822CC03A4C9094AC8174900001309C1
:1039F00069C50357C90026CA83546408832704098C
:103A000006CEB384E40237470F009306F72313076B
:103A1000072452C456C25AC0B694B3D4E40263EE2B
:103A20009702138A4194B384974083270A008297B0
:103A300063E9A4023385A440634905028357040463
:103A4000A30F040085072310F40483470414639E26
:103A500007102285EFE06F8A21AA03278900BA9711
:103A6000C9B783278900BE94F1B783270A008297DC
:103A7000032784086366E50A198D7E3C0357C90055
:103A80008E07B387E7021307003293870719B3D76E
:103A9000E70263ECA708B74A0F00138BFA23938A57
:103AA0000A248357040485072310F404834704146D
:103AB00081E72285EFE06F842285976002E0E7804E
:103AC000E05863130524032604090327C40883264A
:103AD00089003297BA876364C7006364D700B3076D
:103AE000D740783C0356C9002328F408050778BC62
:103AF000035764083307C7025A9733575703B384F1
:103B0000E74063F5E700998EB384F60083270A0047
:103B1000829763E6A4043385A440E34405F839BFE3
:103B200083278900998F3E9589BFA145228597609B
:103B300002E0E780C049A305A4029747000083A7DD
:103B400067AE6383071C6244F240D2444249B249E3
:103B5000224A924A024B894515450561828783278F
:103B60008900A6973385A7404DBF2285EFE02F83BC
:103B70002285976002E0E780604D631705180355C2
:103B8000C90083576408B7460F001386F623B3872E
:103B9000A7029386062403270409230B0402832A21
:103BA0008900B297B3D7D702636AF716B307F74015
:103BB0008326C4082324F408014BB387E600BE849F
:103BC00063E4D70063E45701B38457411E302328D0
:103BD0009408A1CB835604045A3037460F0056B0E0
:103BE0003387E640B387E7023A301306062481465E
:103BF0008145BA97B3C707083385A7023EB09740FF
:103C000003E0E780008111CD2695B3349500A69599
:103C1000AA876314BB0063645501B3075541232889
:103C2000F40883270A008297AA8483270A008297D0
:103C3000E30D95FE83270A0083248408829763E4BA
:103C4000A40E3385A440630B050E035AC9008357A5
:103C50006408B7440F001387F423B38747039384A2
:103C60000424BA97B3D79702174700000347179A5F
:103C7000BA9763E5A70CB3359502835A240252869E
:103C8000814633059502973003E0E78080783389D9
:103C9000AA0033854A0337460F00130606248146DF
:103CA0008145973003E0E780C07615C1B3379502B0
:103CB00052868146B385B4023385A402BE959730FF
:103CC00003E0E7800075B38AAA4023115403354509
:103CD000892923AE890838348547631AF704930786
:103CE00000FD7CA4814503A501A4EFD0AFD4954786
:103CF00017470000232CF7EA3707100083A7C1A558
:103D000098C7060923A82707F2406244D2444249D3
:103D1000B249224A924A024B05618280B30657019A
:103D2000B387F64071B583278900BE9419BF930706
:103D300010FC7CA4814503A581A345BF97470000E3
:103D400023AE07CA834709018DC303A5C1A2EFD0E3
:103D50004FEE624483274900F240D2444249B249BF
:103D6000224A924A024B056182878345940262444B
:103D7000F240D2444249B249224A924A024B01459A
:103D80000561B315B028B3C505086FF08F95011113
:103D900022CC26CA4EC606CE4AC852C456C25AC003
:103DA00038358547832405092A84AE896314F70CC6
:103DB00083570508835AC503174A0000130A8A88E7
:103DC000035BCA0063FC571914296399E61803279B
:103DD0008511631507180327450A63110718743501
:103DE0001D47639DE6162A3DB38AFA409307204E8D
:103DF000330555030329440937460F0013060624EB
:103E000081463305F5029747000083C72780335961
:103E10002503B335AB023E9933490908231324091E
:103E20003305AB02973003E0E780A05EB30795004F
:103E300033B5A7002E9503278A00BE8419E163E4F9
:103E4000E700B384E740B307690337470F009306E1
:103E5000F7231307072423A09900B697B3D7E702E7
:103E6000D69763E4F4009D8C31A003278A00B30742
:103E7000F740BE94138941948327090023A0990039
:103E8000829763E2A4103385A440635D050A83270B
:103E90000900173B0000130BEB7A829703A7090078
:103EA0006369E50E198D7E3C0357CB008E07B387FF
:103EB000E7021307003293870719B3D7E70263EFCE
:103EC000A70C374A0F00930AFA23130A0A248357D0
:103ED000040485072310F4048347041481E7228532
:103EE000EFD0BFC12285976002E0E780201661E530
:103EF000832604098327C40803278B00B697BE8452
:103F000063E4D70063E4E700B384E7407C3C835676
:103F1000CB002328940885077CBC83576408B387AB
:103F2000D702D697B3D7470363E6F40A9D8C83275D
:103F3000090023A09900829763E1A40A3385A44075
:103F4000E34705F89737000083C7576C63E6A70679
:103F50009747000023A487AA0145B9A8835764089E
:103F600037470F009306F723B38767031307072428
:103F7000B697B3D7E702E3F8F4EE03278A00269753
:103F8000B304F740C5BD9737000083A7276CBE94E4
:103F9000DDBD83278B00998F3E9531B7A1452285E2
:103FA000976002E0E780A002A305A4029737000013
:103FB00083A7476781EF7D55F2406244D24442496E
:103FC000B249224A924A024B0561828089451545D1
:103FD0008297D5B71D8FBA9499BF83278B00BE9463
:103FE000B1BF83A7C1A498433706CEFF7D161377D0
:103FF000F7CF1367071098C303A7C1A61447370864
:1040000003001375F51FF18E14C783A6C1A523A85D
:10401000060523A40700904B93F5F50713088815B0
:104020001366F60390CB90431366060890C3F04FD7
:10403000137606E0498EF0CF23AC070423A00706D1
:104040005057759A50D79043137606F84D8E90C30B
:104050001306401FF0D217460000232506B417466A
:104060000000232906B2054690C29043B7053300ED
:104070001376F6CF90C390431376F6CF13660620DF
:1040800090C310474D8E10C723A80605D8531317A9
:10409000F728D8D32547F05201C6B04FE37DC7FEBD
:1040A000D8531317F748D8D3A85313354500828047
:1040B0009386C1A59C42B84B1377F78FB8CB984332
:1040C0001367870098C39C4393D7374889C701007B
:1040D00001000100010003A7C1A41C4393F7F7CF1F
:1040E00093E707101CC303A6C1A61C463707CEFFE3
:1040F0007D17F98F1CC69C4237070300B8CB83A7F6
:1041000041A599CBD44390479842518F98C2944B84
:10411000DC4B9842D98F9CC29747000023A807A880
:10412000828083A7C1A59C438D8BE9C74111B7E766
:1041300000E04AC003A9070026C23707200006C6D0
:1041400022C4AA843379E90023A0E7180F100000E5
:10415000174400001304C4A3584C8D47631AF7009A
:104160009737000083A7477C0146814545458297E4
:1041700019476391E4048347140289CB83470402FF
:104180006396970097470000A38407A2584CA14765
:104190006315F700930780101EB0238E0192093F2C
:1041A000B2402244B7E700E023A02711924402491D
:1041B000410182809D47639BF40083471402F9D735
:1041C000034704028D47E313F7FC6DBF544C63892A
:1041D000E600584C6306F700584CA147E31FF7FA76
:1041E00083471402DDFB5C4C2300F4028547A300E7
:0841F000F40265B782800000B3
:1041F80097110020938101DF17C10120130101E00D
:104208001305400097C5FF1F938545DF17C6FF1F9D
:10421800130686FE63FAC5008322050023A0550015
:1042280011059105E3EAC5FE17C5FF1F130505F241
:104238000285397101436EC619A0397141536AC8A4
:1042480066CA62CC5ECE19A0397101535AD056D2D3
:1042580052D44ED64AD826DA22DC06DE3301614033
:10426800828241114AC026C222C406C68282B24D49
:104278004101024D924C224CB24B4101024B924AF1
:10428800224AB2494101024992442244B2404101C2
:1042980082802A8309CA83830500230073007D1660
:1042A800050385056DFA82802A8311C62300B300B1
:1042B8007D16050365FE828010219421050585057C
:1042C8006313D60075FA3305D6408280B7170040CD
:1042D80003C777051377E70FA38BE704130700F8E5
:1042E800A38DE7043D47238CE70413075003A38CF1
:1042F800E70403C7A7051377D70F238DE704828048
:10430800371700408347E70412054111BD8BC98F59
:1043180093F7F70F93068008F3B6068093F686089E
:1043280036C60F100000930670052300D7049306C5
:1043380080FA2300D7040F1000002307F704230096
:104348000704B247F3A707800F10000041018280DD
:10435800B717004003C7E7020D8941111377C70F4C
:10436800498F93068008F3B6068093F6860836C60A
:104378000F100000930670052380D704930680FA77
:104388002380D7040F1000002387E7022380070447
:10439800B247F3A707800F10000041018280411146
:1043A8002A830148930E407E130F0019930F40068D
:1043B800B348030863EF1E01130300193373650242
:1043C8008542FD4363F6B2088D4F214F930E400698
:1043D800A1A07D13336EE3039308E016630E0E006D
:1043E800336EF3039308D01663080E0093783300F6
:1043F80093B818009388D816C29833C808084DBFD8
:1044080093F81500138EF5FF637CBF02F908C29874
:1044180033C80808B3450E08E394F5FF8545630BD8
:104428000300B378D503814563860800937535008A
:1044380093B51500F105C29533C805088945E9BF4C
:10444800B3881341C29833C80808B3450E089DBF06
:104458007D16329879463307C70213D61700BE0770
:104468003348080832976146B3F6C60213068070CF
:10447800B386C6023697A166F58F4207D98FB7165D
:10448800004003C7F60213770708D883908303C751
:10449800F60213770708E316E6FE9883B71600407E
:1044A8004DCF1307800873370780137787083AC4FE
:1044B8000F10000037170040930670052300D7043B
:1044C800930680FA2300D7040F100000232A07035D
:1044D8008346170393E60608A308D70223000704B8
:1044E8002247732707800F10000011663717004016
:1044F8007D16545B4C5FAD8EF18EE5FE9306800809
:10450800F3B6068093F6860836C60F1000009306A9
:1045180070052300D704930680FA2300D7040F10F0
:1045280000005CDB8347170393E70704A308F7023F
:1045380023000704B247F3A707800F1000004101CA
:10454800828003C7F60213770708D883908303C7CE
:10455800F60213770708E316E6FE98837DD391B732
:1045680055714EDF86C7A2C5A6C3CAC152DD56DB48
:104578005AD95ED762D566D36AD16ECFAA8982C06E
:10458800EF00B01593078008F3B7078093F7870803
:10459800BEC20F100000B717004013077005238034
:1045A800E704130780FA2380E7040F10000003C70D
:1045B800F7021377770FA387E70203C7F70213679A
:1045C8008700A387E702238007049647F3A707809D
:1045D8000F100000130B80C1334B6503916793875D
:1045E80007E8130A30029546B347F502330A4B032E
:1045F8003EC8FD873ED2BD67938707A6334AFA02B5
:104608001357FA413ACA330740413AD47D873ACC26
:104618001307A0FB3307EB02B347F702056713073D
:1046280007FA3ECEFD873ED6938729003319F70057
:1046380063E436013319370161671307076A3345A5
:10464800E50213070010B317F0288D873EC495477D
:104658003309A9023349E902130740063309E9027D
:104668001307D0073349E9021357F9413AD83317EA
:1046780030290D873AC663EF374993075047B30788
:10468800F7023D67130707A6116C814A814B130493
:104698008008371D0040930480FA7D1CB3876703A8
:1046A800B307F040B3C7E7023ED0FD873EDA733761
:1046B800048013778708BAC40F1000001307700529
:1046C8002300ED04930D0D0423009D040F1000003A
:1046D80003473D051377870FA309ED0403473D05FD
:1046E80013671700A309ED0423000D042647732759
:1046F80007800F100000930C700573370480137740
:104708008708BAC60F100000930770052380FD00C4
:1047180023809D000F10000003473D051367070223
:10472800A309ED0403570D051317E7282318ED0413
:1047380003570D051317F7282318ED0423800D00E0
:104748003647732707800F10000003473D0513778E
:1047580007026305073C03473D05218B6DDF880091
:1047680097C0FF1FE780E0FD733704801377870841
:10477800BACA0F10000023809D0123809D000F10EE
:10478800000003473D051377F70DA309ED04034720
:104798003D0513670702A309ED0403570D05131719
:1047A800E7282318ED0403570D051317F7282318D6
:1047B800ED0423800D005647732707800F10000073
:1047C80003473D05137707026301073803473D0593
:1047D800218B6DFF97C0FF1FE78080DB2A873ADCBB
:1047E80097C0FF1FE780C0DA6257E30AE5FE035768
:1047F8000D0506451317E7282318ED0497C0FF1F7A
:10480800E780E0F503473D05218B6DDF03570D0574
:1048180083462D05C24733778701B386860313D6AF
:10482800F641BA96B388F640925733B7E600329706
:104838001D8FD247B3B61601158F63C6E700631CF8
:10484800F700637A1A01E2476348F7326395E70095
:10485800A25763E3F832894663F2763373370480EC
:1048680013778708BAD00F100000130770052300CC
:10487800ED0423009D040F10000003473D0593F647
:10488800F90F1377870FA309ED0403473D05558FEB
:10489800A309ED0423000D040657732707800F10A2
:1048A80000001306700503473D051D8B631037375D
:1048B8007337048013778708BAD40F1000001307E2
:1048C80070052300ED0423009D040F10000003472A
:1048D8003D051377F70DA309ED0403473D0513675D
:1048E8000702A309ED0403570D051317E72823183A
:1048F800ED0403570D051317F7282318ED042300BB
:104908000D042657732707800F10000093067005C3
:1049180003473D05137707026304073203473D0544
:10492800218B6DDF880097C0FF1FE78080E1733718
:10493800048013778708BAD80F1000001307700592
:104948002300ED0423009D040F10000003473D05DC
:104958001377F70DA309ED0403473D051367070215
:10496800A309ED0403570D051317E7282318ED04D1
:1049780003570D051317F7282318ED0423000D041A
:104988004657732707800F100000930670050347EA
:104998003D05137707026300072E03473D05218B6A
:1049A8006DFF97C0FF1FE780A0BEAA8C97C0FF1FAE
:1049B800E78000BEE30C95FF03570D050645131766
:1049C800E7282318ED0497C0FF1FE78040D9034765
:1049D8003D05218B6DDF7337048013778708BADCB8
:1049E8000F100000130770052300ED0423009D0439
:1049F8000F10000003473D051377F70DA309ED04D9
:104A080023000D046657732707800F100000035713
:104A18000D0583462D05C25733778701B386860374
:104A280013D6F641BA9633B7E60032973388264153
:104A3800B3B606011D8F158F6346E000631807267D
:104A4800630608261305800C3307E5020256D25682
:104A5800B335050333050503BA95EF20E35C9306E8
:104A6800150033B5A6002E951357F501BA9633B73E
:104A7800E6002A971316F70185820587D18E6346CB
:104A8800E000631F072C638D062C0356CD021582A8
:104A9800B305D60033B6C50032976348E00063100B
:104AA80007361307F00F637CB7340947637157273C
:104AB80093078008F3B7078093F78708BEDE0F10C7
:104AC8000000B7170040130770052380E704130799
:104AD80080FA2380E7040F100000DA378966811610
:104AE800558F33470708DAB723800704F657F3A72B
:104AF80007800F100000BE402E449E440E49FA590C
:104B08006A5ADA5A4A5BBA5B2A5C9A5C0A5DFA4DC1
:104B18006961828022479307504795B673370480AE
:104B280013778708BAC80F10000023809D012380DF
:104B38009D000F10000003473D0513670702A309F6
:104B4800ED0423800D004647EDBE733704801377CC
:104B58008708BACC0F10000023809D0123809D0098
:104B68000F10000003473D0513670702A309ED0472
:104B780023800D00664789B1E3920BCE7246B25688
:104B88009315170013D3F80113951800B365B300F4
:104B98003ADE46DCEF2043497257850B93FBFB0F47
:104BA8006346E00031EFE258638C08049306150071
:104BB80033B5A600AA9513D7F501BA9633B7E60020
:104BC8002E9785827E07558FF336048093F68608E4
:104BD800B6CE0F10000023809D0123809D000F108A
:104BE80000008356CD023697334707082316ED0297
:104BF80023800D007647732707800F100000F5BC4F
:104C08009306F5FF13351500898D75B77337048042
:104C180013778708BAD20F1000002300CD042300B1
:104C28009D040F10000003473D05558FA309ED04AF
:104C380023000D041657732707800F100000A5B135
:104C48007337048013778708BAD60F100000230043
:104C5800DD0423009D040F10000003473D05136782
:104C68000702A309ED0423000D04365773270780B4
:104C78000F10000071B97337048013778708BADA08
:104C88000F1000002300DD0423009D040F10000016
:104C980003473D0513670702A309ED0423000D042C
:104CA8005657732707800F100000D5B19305800C65
:104CB8003387E50233850503B3B50503BA95154770
:104CC80063733705A247130750473387E702330654
:104CD80060413306E6023D67130707A63346E6023E
:104CE8009356F641EF2043341306F5FF13351500AC
:104CF800898D13D7F5013A963337E6002E97931628
:104D0800F70105829DBBB247130750477DBF1307C4
:104D1800800873370780137787083AC10F1000009F
:104D2800B7160040130770052380E604130780FABE
:104D38002380E6040F100000DA36056601161377A3
:104D4800F70F518F33470708DAB6238006040A475E
:104D5800732707800F100000850A93FAFA0F81BAAB
:104D680033E6E60049CE0356CD02B335D00033070B
:104D7800E0400D8F3305D04015826345E00041E3E4
:104D8800637FA6060947637E570393078008F3B736
:104D9800078093F787083EC30F100000B71700403D
:104DA800130770052380E704130780FA2380E704BC
:104DB8000F100000DA377D8BDAB7238007049A4793
:104DC8003DB373370480137787083AC50F10000086
:104DD800130770052300ED0423009D040F10000045
:104DE8000357CD02856681161377F70F558F334722
:104DF80007082316ED0223000D042A4791BF9307E5
:104E08008008F3B7078093F787083EC70F100000A4
:104E1800B7170040130770052380E704130780FACB
:104E28002380E7040F100000DA37960636973347D9
:104E38000708DAB723800704BA4755B9914763ECE6
:104E4800B704974703009387A7D8B3C5F5209841BF
:104E58003E97B71700409387470B0287944337174D
:104E68000040B3F6A64094C39306070B9C42B3F7E1
:104E7800A74019A8944337170040B3F6A64094C337
:104E88009306070B9C42C98F9CC29307070A984355
:104E98003377A74098C38280944337170040C98E60
:104EA800D9B798433377A74098C3B717004093877B
:104EB800070A9843498FF9BF9843498FF5B719C531
:104EC800371700401E2FCD8F1EAF8280B7170040C6
:104ED8009A2FB375B7408EAF8280B71700409A27D4
:104EE8009306000C1377070C630AD7049A271377E5
:104EF80007100DC79A279E277D8B09EB93F707208C
:104F0800B1C33755E80113050580828037C598126B
:104F1800FD8B130505E03345F50282809A279E270D
:104F280013770720FD8B11C73755E8011305058056
:104F3800DDB73725F40013050540F1BF21651305DA
:104F480005D082803725F400130505408280B7F725
:104F580000E0884782803285814737370040A14684
:104F680063C3A70082803037E30FD6FE3386F5008F
:104F78001022850710A7EDB797060020938686862E
:104F8800AA878842173700201307C7C9AA9763E979
:104F9800E7000A87130707FC6364F7009CC2828056
:104FA8007D558280411122C406C62A843D3729478F
:104FB800B307E502B2408D83B3D787022244950731
:104FC800B3D7E70237370040B3C707085EA74101E8
:104FD8008280716541111305052006C6E137B73790
:104FE8000040130770F8B8A30D47B8B313070004BF
:104FF80098B30547F8A7B24041018280AD4735EF25
:10500800982189476318F706DC41411106C69823A1
:105018009C333285A207D98F4167130647FE638701
:10502800C704636DF600130617FE6380C7020917ED
:10503800638AE70223900600A9470DA01517E39B92
:10504800E7FE95479EA2154621A0D5479EA2554644
:10505800CC4597C0FF1FE78060D48147B2403E85AA
:105068004101828085479EA20546DDB7CD479EA2B5
:105078004D46F9BF2390060085473E858280011181
:1050880006CE22CC26CA4AC84EC68025137404020E
:1050980055E083C905000948AE87639F090903A83D
:1050A8004500B284368903430800034818002208E3
:1050B800336868004163130E13FE6304C8030D13BD
:1050C800630E68048D679387279029446310F8045A
:1050D8006244F240D2444249B249854705616F9023
:1050E800911429EF5547636DD704C8475546A685DF
:1050F80097C0FF1FE78080CA814983A7818F99C71E
:105108009C4389C74A86A6854E858297F2402285A8
:105118006244D2444249B2490561828005E3554759
:105128006360D702C8475546A68597C0FF1FE7802A
:10513800E0C6E1B72144D9BF0544C9BF2D44F9B73A
:105148003544E9B7C167F917630CF502411122C468
:1051580006C685472A84639AF50022852244B24010
:105168009385018F41016FB0613789476396F500D8
:105178008545EFD0A12B75D1B240224441018280F0
:105188008280411122C42A8441659385018F7D154F
:1051980006C6EFB0A134170500001305E5FA058827
:1051A800EFD0E11F05C02244B24097F6FF1F938657
:1051B80066044146C54517F5FF1F130565044101FF
:1051C8006FB0C127B240224401454101828009C520
:1051D80023ACA18E01458280454582801147636ECC
:1051E800A706974603009386E69F3345D5201841C6
:1051F8004111AE87369706C6B28502875547614585
:10520800639AE7005546138581B497C0FF1FE7806E
:10521800E0B80145B2404101828005476145E39B02
:10522800E7FE05461385418FCDB755476145E393A2
:10523800E7FE5546138501B3C9BF4D476145E39B5A
:10524800E7FC4D461385C1B1C9B715476145E393DE
:10525800E7FC15461385818E4DBF094582804111B3
:1052680022C42E849385018F26C206C6AA84EF9095
:105278008176058919CD97F7FF1F83D707041EA0EC
:10528800A2852244B24026859244014641016FA07E
:105298000145B2402244924449454101828023801D
:1052A800019023AE018EB71700401387070C1443F3
:1052B8009387070D9396664914C39443939666297A
:1052C80094C31443BD9A14C398431367070198C342
:1052D800828023AEA18E13064006894503C58190BE
:1052E8006F30F17C371700401307470C1C43B70693
:1052F8004000F58F1443138701901023C18A13B51A
:10530800170091EA13652500630DA60008A383A77B
:10531800C18F81CB82876306A60008A399E3054560
:10532800FDB7828011456FF0AFA341119396250018
:10533800AA852D4506C697B0FF1FE780E063B240F7
:10534800014541018280011122CC06CE371400406C
:1053580026CA4AC84EC652C483447405034AB405D3
:105368008349840503499405EFE05FF68347A40564
:1053780093F4F40F137AFA0F93E71700230DF4044C
:1053880093F9F90F1379F90FB717004003C7A70569
:10539800058B6DFF03D5C705A38D4705238C3705FE
:1053A800A38C2705A38B9704F2406244D244424958
:1053B800B249224A05618280411122C406C62E8460
:1053C8009397556063DF070097C0FF1FE78000943D
:1053D80019C1EF3031441315F468B2402244410139
:1053E800828093F7150013C51500E5FB93F7250098
:1053F80081CFCD3D1306000A894503C58190EF3062
:10540800116B13452400D1BF8967ED8F85C3EFB0B9
:10541800C208093F37F60200130606E0896503C58E
:105428008190EF30D1681315D46845BF11656D8D33
:105438004DD5173503001305257CEF20035A1306B5
:105448000064916503C58190EF3071661315E468B7
:1054580069B72D71232A9110FD74E98C232C8110D2
:1054680023282111232631112A84AE8932899306F3
:1054780000100A86A6852D45232E111097B0FF1F10
:10548800E780804F13154401498113962900CA8586
:105498000A9597C0FF1FE7806090A685856601463C
:1054A800254597B0FF1FE780204D0A86A6859306FD
:1054B8000010294597B0FF1FE780004C8320C111D9
:1054C8000324811183244111032901118329C11067
:1054D80015618280B7F70700DC53011106CE22CC94
:1054E80026CABD8B21476399E700A537F24062447D
:1054F800D244014505618280939625002A84B284AE
:10550800AA850146254536C697B0FF1FE780C046E5
:10551800B2462686A285294597B0FF1FE780C04579
:10552800F1B71D714946973503009385256D1755C9
:1055380003001305A5FF86CEA2CC97C0FF1FE78006
:10554800809701E9173503001305856CEF20E348C0
:1055580001A037F700E023240700F9571CCB0564A6
:10556800B7E700E023A08710BD4614C323A087181F
:105578000F10000017D7FF1F130707C523A2E190DC
:10558800130700F8A38AE7401306C00381454808BB
:1055980097C0FF1FE7800087970700209387075B66
:1055A8003ECA93070440FC849D673ECEB7070105B9
:1055B800938707103ED0ED472312F1028547230356
:1055C800F10297070000938787D6BEC497070000AB
:1055D800938787F0BEC6930754D12314F102970727
:1055E8000000938707973EDAB7F507009707000092
:1055F8009387A7D53EDE8146970700009387C7D2D9
:105608007000E1051945BEC097B0FF1FE780C0369E
:1056180019466C001305E102EFE0BFC7D24781C706
:10562800BC8463F3870001A04808EF40C11EAA8527
:1056380001C9173503001305E55EEF20631801A0C3
:10564800F640664425618280411117050000130564
:10565800E5D606C622C4EF4061191384819008A0DC
:105668001928353908202244B240130600328965CA
:1056780041016F30D143397106DE13078008F337D3
:10568800078093F787083EC20F100000B717004045
:10569800930570052380B704130680FA2380C70496
:1056A8000F10000083C6F70293F6A60FA387D70250
:1056B800238007049246F3A606800F100000733774
:1056C8000780137787083AC40F1000002380B704B7
:1056D8002380C7040F10000003C7F70213672700D1
:1056E800A387E70223800704A247F3A707800F10C8
:1056F80000000545EFE0DFC53531814701478146A8
:10570800054685451305407EEFE07FC9680013060E
:105718004002814597B0FF1FE780C06EB707C0A859
:105728003ECAB787E803938707D03ECC97B7FF1FD9
:10573800938767143EC6680097B7FF1F938727159E
:105748003EC8EF40E139F25021618280138741B7AA
:105758008147BA8513069002162381CE1395470018
:105768002E95544113D8C6496315080093D6D649D7
:1057780091C685074107E391C7FE0145828093865C
:1057880041B781473687130690028E226396A5009B
:1057980092073305F70082808507C106E397C7FEA5
:1057A80001458280D8414111A16722C406C626C29C
:1057B8009386B7012A846302D7089387D7036303C4
:1057C800F7045DE7974503009385C59017350300F7
:1057D80013054547EF10D37E17350300130585479A
:1057E800EF10137E2945EF2043017E207D77F98F46
:1057F80093E757007EA08947B2401CC422449244D4
:1058080041018280974503009385C58C17350300B5
:1058180013054543EF10D37A1735030013054545A3
:10582800EF10137A2945EF10537D7E207D77F98F8D
:1058380093E757007EA08D47C1B79745030093852E
:105848006589173503001305E53FEF1073771735A2
:1058580003001305A543EF10B3762945EF10F3793C
:105868007E207D77F98F93E757007EA0914769B72F
:10587800AE84173503001305E53C9745030093856F
:105888006585EF10F373CC401735030013054542C7
:10589800EF1013732244B2409244294541016F101E
:1058A800D375D841411122C406C626C22A841DCF09
:1058B800A1679387D703630BF706AE8417350300F8
:1058C80013054538973503009385057DEF10536F11
:1058D800CC40173503001305A53DEF10736E224425
:1058E800B2409244294541016F1033719735030046
:1058F8009385857A173503001305C534EF10536C6B
:10590800173503001305453CEF10936B2945EF103D
:10591800D36E7E207D77F98F93E717007EA08947A5
:10592800B2401CC42244924441018280973503004E
:1059380093858576173503001305C530EF10536836
:10594800173503001305053AEF1093672945EF1043
:10595800D36A7E207D77F98F93E717007EA0914761
:10596800C1B7411197350300938585711735030039
:105978001305452D06C6EF10B364B2402945410111
:105988006F10B367411122C4973503009385857A58
:105998002A84173503001305E52A06C6EF1053625B
:1059A8002945EF1093655840A167938797046318BA
:1059B800F704138421910A2045CDEFF040780A209E
:1059C8007D3B7E2123240500231005009397C748BB
:1059D80097350300938505767EA1173503001305D7
:1059E8006526EF10F35D1735030013056531EF10D9
:1059F800335D2244B240294541016F101360B93329
:105A080005E1973503009385E57217350300130503
:105A18006523EF10F35A173503001305A52FC1BFEF
:105A280014201307F00F6390E6049735030093855D
:105A38006570173503001305E520EF1073584C40C7
:105A4800173503001305C52EEF1093572945EF109E
:105A5800D35A2244B24003C5A1911306803E85451E
:105A680041016F30D1045C45A2859C438297D5B72C
:105A7800B240224441018280411122C406C62A84D0
:105A8800138541B719EC2A87814713089002835878
:105A980007006394080692073384A7004EA012A05B
:105AA80036A0938641B78147930590029A2211CF79
:105AB800630DE600139747002A9758431358C749C0
:105AC800631508001357D7492DC78507C106E39FFB
