:040000006F00903CC1
:10000400000000000000000000010020AC050020FA
:10001400A9BDF9F300010020000000000000000069
:10002400000100200001002000000000000000008A
:100034008C06002000000000C00600200000000024
:100044002C0600202C0600202C0600202C06002064
:100054002C060020000100202C06002000000000D7
:100064002C0600202C0600202C0600202C06002044
:100074002C0600202C0600202C0600202C06002034
:100084002C0600202C0600202C0600202C06002024
:100094002C0600202C0600202C0600202C06002014
:1000A40000010020CE0300200001002000010020F8
:1000B40000010020000100200001002000000000D9
:1000C40000010020000100200001002000010020A8
:1000D4000001002000010020000100200001002098
:1000E4000001002000010020000100200001002088
:1000F4000001002000010020000100200001002078
:100104006F000000B7170040984B411113670701B7
:1001140098CB982B1377E70F98AB130780087337A6
:100124000780137787083AC60F100000130770057D
:100134002380E704130780FA2380E7040F100000EC
:10014400B847B70600069506558FB8C703C7B70466
:100154001377F70DA385E704B82713672701B8A71A
:10016400130750149AA7372700408346578093F605
:10017400F60EA302D7808946A303D78003C7E704FA
:100184001377C70F136717002387E70403C7F70222
:1001940013672700A387E702982B1367170098AB10
:1001A40023800704B247F3A707800F100000410122
:1001B4008280EFF03FF513054027970500009385F3
:1001C400650B17160000130626A063FCC5008322E6
:1001D400050023A055001305450093854500E3E879
:1001E400C5FE174500E013052541971500009385CA
:1001F400A59D1386818163FCC5008322050023A08D
:1002040055001305450093854500E3E8C5FE1385B5
:100214008181973500009385E5CB6378B500232071
:10022400050013054500E36CB5FE9302500273907C
:1002340002BC9302300073904280930200007390DA
:1002440012BCB7220000938202807390023097029E
:100254000000938222DB93E23200739052309712B3
:1002640000E0938242A8739012347300203000009F
:1002740031712ED332D536D72A865411930500080E
:10028400080806CF22CD3AD93EDB42DD46DF36C62A
:100294001384C181973000E0E78080B60840FD55A3
:1002A400972000E0E78020860C08174500E013053E
:1002B400E507973000E0E780009A08408146014650
:1002C4008145971000E0E7802038FA406A442961AC
:1002D4008280411122C426C206C6974400E093845A
:1002E4002405174400E01304A4052685513713059B
:1002F400D007972000E0E780A00F2285953F1305E3
:10030400D007972000E0E780A00EC5B7411122C4B2
:1003140026C206C6974400E093848403174400E091
:10032400130404042685A9371305A00F972000E0C1
:10033400E780000C22852D3F1305A00F972000E0D5
:10034400E780000BC5B701110D468145054522CC58
:1003540006CE26CA4AC84EC613848181971000E08F
:10036400E780402708C029C985450565971000E046
:10037400E78040A989450565971000E0E780A0B0B3
:10038400B7E700E03707020023A0E71005499744C8
:1003940000E0938424FF974900E0938969FD0840B5
:1003A400FD55971000E0E7800076631525014E8522
:1003B400C135F5B72685EDBF6244F240D2444249C7
:1003C400B249174500E0130565FD056155B5B7173A
:1003D400004083D7C7090111056722CC06CE33C478
:1003E4000708F98F99CF6C0003A58181971000E06D
:1003F400E7802048B24791C7B7E700E0116723A020
:10040400E720B7170040F240239E87086244056145
:100414008280B7170040984B41111367070198CBAE
:10042400982B1377E70F98AB13078008733707806F
:10043400137787083AC60F1000001307700523804E
:10044400E704130780FA2380E7040F100000130762
:10045400000C6315E5029A271367070C9AA7B717D0
:100464000040982B1367170098AB23800704B2470A
:10047400F3A707800F10000041018280B82793760C
:100484000520ADCA118B29E303C7E70403C6E704BB
:100494001377F70F136636002387C704B027136654
:1004A4004600B0A792278E273346060893E5050C2D
:1004B4008EA7A5470100FD1793F7F70FE5FFB717C0
:1004C400004092A72387E70493770510DDC337170D
:1004D40000403C2793E707013CA79377F50199EF88
:1004E400B727004003C7578013670701A382E7803B
:1004F4001D470DA013672700B8A7F9B72547636602
:10050400F704B727004003C757801377F70EA38279
:10051400E7800547A383E78033450508B717004004
:100524001367050C9AA78AA7B5CE03C7570483C6D9
:100534005704418B858A558F1DF3B82B418B05D306
:10054400B8271377D70FB8A719BF9377050199EB8D
:10055400B727004003C757801377F70EA382E780BD
:1005640009474DBFB727004003C757801377F70EDD
:10057400B5BF9377850181EFB727004003C7578044
:100584001377F70EA382E7801307100561B7B72727
:10059400004003C757801377F70EA382E780130741
:1005A40070058DBFB8271377B70F71BF411181460E
:1005B400014681451145D52C13078008F337078080
:1005C40093F787083EC40F100000B71700401306C6
:1005D40070052380C704930680FA2380D7040F1084
:1005E4000000FD55CEB723800704A245F3A505807E
:1005F4000F10000073370780137787083AC60F106F
:1006040000002380C7042380D7040F10000003C711
:100614006704136717002383E70423800704B247A2
:10062400F3A707800F10000001A00000F325203479
:1006340093952500170500001305C5A23305B500E1
:1006440003250500F32210BC13F31200631C0302FC
:100654007310013403A1018173E010BC7360043092
:10066400E70005007370043013000000130000005D
:100674001300000073F010BC130000007321003459
:1006840073002030E700050073002030972000E05D
:10069400E78040AD11C5B7E700E0116723A0E7206C
:1006A400B7F700E023A20700730020307370043012
:1006B4000100010001008280736004308280000028
:1006C400197106C216C41AC61EC822CA26CC2ACE5E
:1006D4002ED032D236D43AD63ED842DA46DC4ADE7E
:1006E400CEC0D2C2D6C4DAC6DEC8E2CAE6CCEACEEE
:1006F400EED0F2D2F6D4FAD6FED892DA93050002FE
:1007040073A0458083A2018823A02200F32510341E
:100714002EC0EF00400503A3018803210300824299
:10072400739012349240A2423243C2435244E24490
:10073400724582551256A2563257C2575258E25841
:1007440072598649164AA64A364BC64B564CE64C55
:10075400764D865D165EA65E365FC65F56520961AB
:1007640073002030000083A7818489C7854723AEA6
:10077400F184828023AE0184138581861C419726EF
:1007840000009386E65F5148338707033386E6000B
:100794000C4285C54C4221073697CC414CC2639428
:1007A400E500D84158C251473387E702BA96D84288
:1007B400584723A0E1881CC1828085EB411106C6FD
:1007C400737004300100010001008565174600E0E4
:1007D4001306C6CC938575BF174500E0130505C6FF
:1007E400972000E0E780204701A0FD1771BF230395
:1007F400048015472303E48001002302A48082803F
:1008040083076480E3CE07FE23030480828083078A
:100814006480E3CE07FE03454480828083076480BE
:10082400E3CE07FE2302A4808280411126C44AC27B
:100834004EC006C61377F50BAD47AA892E89954499
:100844006306F70019456537653F8D444E85453786
:10085400FD59FD1463983401B240A24412498249FF
:1008640041018280135509011375F50F453F220993
:10087400CDB7011126CC06CEB70408005137154573
:10088400BD37713769372AC6A53F324593771500BE
:1008940089EB136515001375F50FF240E244056109
:1008A4008280FD14E9FC0145CDBF3971B7F707001B
:1008B40006DE26DC4ADA4ED852D656D45AD25ED058
:1008C40062CE03AB47027D57B7E700E083AA070077
:1008D40022C603AA470023A0E71823A2E718B71BE0
:1008E4000040930770052380FB04930780FA23805C
:1008F400FB0483C74B041147AA8993E7070E23829D
:10090400FB04372400401305F00F2303E4802E8CEE
:100914003289B684E93DED35938779FF93F7F70F74
:100924000947137BFB006362F712A14737070800EE
:100934006307FB00B70707003E9C3787070079551C
:10094400637EEC02B3878401636AF702A947639864
:10095400F90689E481446D3526850DA0E2850945B3
:10096400E93505090345F9FFFD14050C453D81C42E
:100974009377FC0FFDF7F53D69FD7D55B7170040F2
:10098400130770052380E704130780FA2380E70424
:1009940003C74704418B2382E704F250B7E700E022
:1009A40023A0571123A24711E25432445259C25989
:1009B400325AA25A125B825B724C21618280A54733
:1009C400639AF906A1478569631DFB029387F9FFC2
:1009D400B3869700B374FC00B69493C7F7FFFD8CFD
:1009E40033FC8701416B856B9387F9FFB3F787016C
:1009F40099E363FF340193D94900C147E3E637FF24
:100A040091BF9307F00FE9B78567C169FD17C9B7AF
:100A14001305800D6388690113050002638479015D
:100A240013051008E2851135A93521D94E9CB384EC
:100A34003441C1B7E2852D45CD3BCA94E30C99F00E
:100A44000509F133A30FA9FED5BF9387F9FF93F7E7
:100A5400F70F636FF70AA1476319FB06B70708008E
:100A64003E9C83C75B043707070093F7070299E3AB
:100A740037870700B70708003E977955E370ECF015
:100A8400B3079C00E36CF7EE8947639AF904898005
:100A9400D549E38104ECE2850945413B110903276B
:100AA400C9FF91472320E48003076480E34E07FED7
:100AB40023033481FD17EDFBFD14110C81C49377DE
:100AC400FC0FE9FF7D3371F54DBD83C75B04370728
:100AD400070093F70702D5F33787070079BF8547E7
:100AE400E384F9F2E2852D4589339389F4FFE383A6
:100AF40004E6313B93F7390091EB83260480032706
:100B0400090093074900E398E6E43E89CE84F1BFE7
:100B1400B5476396F9001305900BD13925BDB1474C
:100B24001305B00AE38BF9FE99476394F904A147CE
:100B34006315FB00B70708003E9CE2852D45F5319F
:100B440081440D4BA149E1316396640183270480FC
:100B54002320F9008504E39834FF832704801317C6
:100B64002C01635507002312F900EDB32322F90089
:100B7400D5B39D476399F90281451305B0047531D6
:100B8400BD442320090023220900FD59493193F76C
:100B94007400CA9703C70700FD14398D2380A7008A
:100BA400E39634FF45BB91476399F900130560064A
:100BB4003D39B931130590098DB7E38D09D8F15446
:040BC40059BB000019
:100BC800971100209381018617F101201301014339
:100BD8001305400097F5FF1F9385454217F6FF1F41
:100BE8001306C66863FCC5008322050023A05500D0
:100BF8001305450093854500E3E8C5FE17F5FF1F7B
:100C08001305E55A6700050003A1018802418240E7
:100C18003243C2435244E244724582551256A256A8
:100C28003257C2575258E25872598649164AA64A4C
:100C3800364BC64B564CE64C764D865D165EA65E28
:100C4800365FC65FD652A10273900230A242096194
:100C580082800100F322003093F272FF13038018A0
:100C68001203B3E26200711523205500130585FABB
:100C780010C12115232005008142638702007115E8
:100C880023200500FD12D5BF71150CC182802A836F
:100C980009CA83830500230073007D1605038505B3
:100CA8006DFA82802A8311C62300B3007D160503DE
:100CB80065FE828015C22A8385466367B500FD56A6
:100CC8001307F6FF3A93BA95838305002300730050
:100CD8007D163693B6956DFA82804111114506C688
:100CE80022C4D9201305503497F0FF1FE7802072E3
:100CF800B7170040116723ACE70AC1450545C52A67
:100D080085452165D5288D451165FD20FD241735BC
:100D180000001305A569EF2040070545EF00B03135
:100D280023AEA18001E9173500001305A568EF205F
:100D3800C00501A093870182394781461306001038
:100D4800973500009385456817F5FF1F1305655F04
:100D5800EF10C0159387418215478146130600108E
:100D6800973500009385C56617F5FF1F1305C5590C
:100D7800EF10C01393878182154781461306001030
:100D8800973500009385456517F5FF1F1305255412
:100D9800EF10C011EF102032173400001304446420
:100DA8002285EF10907EEDBF371700408347E70498
:100DB80012054111BD8BC98F93F7F70F9306800871
:100DC800F3B6068093F6860836C60F100000930621
:100DD80070052300D704930680FA2300D7040F1068
:100DE80000002307F70423000704B247F3A707808E
:100DF8000F10000041018280914763ECB7049737D8
:100E080000009387675FB3C5F52098413E97B717F1
:100E180000409387470B0287944337170040B3F687
:100E2800A64094C39306070B9C42B3F7A74019A8A2
:100E3800944337170040B3F6A64094C39306070BB4
:100E48009C42C98F9CC29307070A98433377A740EF
:100E580098C38280944337170040C98ED9B7984306
:100E68003377A74098C3B71700409387070A98437A
:100E7800498FF9BF9843498FF5B789473347050824
:100E8800638BF50463E2B7021346F7FF9DE9B717D2
:100E9800004083D64709F18E239AD7089387C70A5B
:100EA8009443C98E94C321A08D47638CF502B7176C
:100EB8000040239EE70883D60709558F2398E70843
:100EC8008280B717004083D64709F18E239AD70846
:100ED8009387870AF1B7B717004083D64709D98E99
:100EE80065BFB717004083D64709D98EC5B719C55E
:100EF800371700401E2FCD8F1EAF8280B7170040D6
:100F08009A2FB375B7408EAF8280B71700409A27E3
:100F18009306000C1377070C630AD7049A271377F4
:100F280007100DC79A279E277D8B09EB93F707209B
:100F3800B1C33755E80113050580828037C598127B
:100F4800FD8B130505E03345F50282809A279E271D
:100F580013770720FD8B11C73755E8011305058066
:100F6800DDB73725F40013050540F1BF21651305EA
:100F780005D082803725F40013050540828032852C
:100F8800814737370040A14663C3A70082803037C6
:100F9800E30FD6FE3386F5001022850710A7EDB7BC
:100FA80097060020938606C8AA878842172700203C
:100FB8001307C7F1AA9763E9E7000A87130707FC35
:100FC8006364F7009CC282807D558280411122C4EF
:100FD80006C62A841D3F2947B307E502B2408D8320
:100FE800B3D7870222449507B3D7E70237370040C3
:100FF800B3C707085EA741018280716541111305D7
:10100800052006C6E137B7370040130770F8B8A3C4
:101018000D47B8B31307000498B30547F8A7B240C3
:1010280041018280938701843E879C43E3EEA7FEBB
:1010380050435441B305C700631AB500B29654C370
:101048003306D7006394C7023A8529A03306D50032
:10105800639FC70003A6C1836386C700D043B296C7
:10106800904354C110C16303A70008C382801CC108
:10107800DDBF011122CC06CE26CA4AC84EC62A8434
:10108800EF10000C1386C1831C42B9E71707002034
:10109800130747C49376F700896799CA1707002092
:1010A800130737C4419B972700209387A7C2998FBE
:1010B800BA97C117C19B23A2018423A0E18423A26C
:1010C800070023A00700B386E7401CC21CC354C313
:1010D80023AAD18223ACD18219C49377F400138751
:1010E800F7FD637D8700EF10801B0149F2406244E1
:1010F800D244B2494A8542490561828013050402F7
:10110800B306F540E351D0FE9389818383A4090097
:10111800E3EBD4FC1387018400434C4063F6D5000D
:1011280003280400631608041042E30E86FA1040F0
:10113800898F03290700AE9710C313070002637F46
:10114800F7023305D4001377F50015C77370043020
:10115800010001000100173600001306262B930535
:10116800C00D173500001305E52CEF10102E01A057
:10117800228742845DB75CC154C06D355840938660
:1011880041839042B387E44023A0F90063F3C7008A
:101198009CC21317F72958C0138701831C432320C7
:1011A8000400410985071CC3EF10600F9377F9000D
:1011B80095DF73700430010001000100173600004C
:1011C8001306C6249305C01117350000130585269C
:1011D800EF10B02701A051C9832745FF411122C450
:1011E80006C62A8463C40702737004300100010034
:1011F800010017360000130666219305F012173513
:10120800000013052523EF10502401A0032705FF34
:101218001DC373700430010001000100173600007F
:101228001306C61E93050013173500001305852005
:10123800EF10B02101A09397F749232AF5FEEF009C
:101248003070138781831443832744FF130504FFF9
:10125800B6971CC3C13B1387C1821C432244B240CA
:1012680085071CC341016F1080038280B7E700E047
:1012780039472388E70417F7FF1F13072744136725
:101288001700B8D33147A388E70417F7FF1F1307E0
:10129800A73F13671700F8D3130700F82387E74021
:1012A80093860710116690C22386E740B7F700E0DF
:1012B800796723A407001307F77798CB056798C2C7
:1012C8003D4798C38280011106CE02C6F3275030ED
:1012D8003EC6B2470D478D8B6384E70273700430B6
:1012E800010001000100173600001306E6169305F9
:1012F8003007173500001305E513EF10101501A08E
:1013080097F70120938787CFBD8B9DC373700430F7
:10131800010001000100173600001306E6139305CB
:101328008007173500001305E510EF10101201A013
:10133800353FD938F2400145056182809307850021
:101348007D575CC118C55CC51CC923200500828077
:101358002328050082809441FD5713078500639D6B
:10136800F6001C49D843D8C10CC79CC5CCC31C4146
:1013780088C985071CC18280BA8758431043E3FD9A
:10138800C6FECDB7544118451C4998C654C3D4432A
:101398006393A600D8C39843232805007D1798C3F4
:1013A80088438280411122C42A8406C697F0FF1F11
:1013B800E780802F005C97F0FF1FE780A02FB240E6
:1013C8001335140022444101828041114AC03289F8
:1013D800304126C2045D22C406C62A8405E21C41A7
:1013E80095EB0845EF10603723240400850404DCDE
:1013F800B2402244924402494101828063110902A9
:101408004841EFF0DF885C403840BA9718445CC028
:1014180063F4E7000145D9BF1C405CC0E5BF4845FF
:10142800EFF0FF8638405C44B306E040998F1840DF
:101438005CC463F5E7001C44B6975CC48947014562
:10144800E316F9FAC5D4FD1455B7AA87B0432E851B
:1014580001CED84794473297D8C76364D7009843DA
:10146800D8C7CC476FF0BF828280411122C42A843A
:1014780026C24AC006C697F0FF1FE780E0228344D1
:101488005404130944029394446063419004FD5743
:10149800A302F40497F0FF1FE780C02197F0FF1F15
:1014A800E780802083444404130904019394446032
:1014B800634A9002FD572302F4042244B240924446
:1014C8000249410117F3FF1F6700C31E5C50E1D3B7
:1014D8004A85EF10C00119C1EF10401BFD14939409
:1014E800446065B71C48F9D74A85EF10400019C118
:1014F800EF10C019FD14939444605DBF411106C6F6
:1015080022C426C21DE173700430010001000100ED
:10151800173600001306C6F69305E01217350000CB
:10152800130545F1EF10607201A05C5D2A84BDCB04
:101538003841B3B7E702BDE7AE8497F0FF1FE780F5
:10154800A01634405C5C1840232C0402B387F602D2
:1015580058C03306F700958F3E97FD572302F404D1
:1015680010C458C4A302F4049DE41C4899CB130585
:101578000401EF00D07711C5B7E700E0116723A099
:10158800E72097F0FF1FE780E012B2402244924420
:10159800054541018280130504014D3313054402BA
:1015A800713BC5B7737004300100010001001736A4
:1015B80000001306E6EC93053016173500001305F6
:1015C80065E7EF10806801A0411106C622C426C253
:1015D8004AC039C1B337B5022A89AE8495EF3305BD
:1015E800B502930770FB63E9A7021305850451341C
:1015F8002A8401CDAA8799C0930785041CC0232E8D
:10160800240324C085452285D53DB2402285224445
:101618009244024941018280737004300100010044
:101628000100173600001306A6E59305401E17357E
:101638000000130525E0EF10406101A0397106DEB6
:1016480022DC26DA4AD84ED652D456D25AD032C6DE
:101658001DE173700430010001000100173600001D
:10166800130606E29305C03417350000130585DC20
:10167800EF10A05D01A02A842E89B6848DE53C4137
:101688009DC373700430010001000100173600008B
:10169800130606DF9305D03417350000130585D9E6
:1016A800EF10A05A01A089476398F402585C854757
:1016B8006304F7027370043001000100010017365B
:1016C80000001306E6DB9305E03417350000130528
:1016D80065D6EF10805701A0EF00D07B19E1B24723
:1016E800A1EB97F0FF1FE78020FC185C5C5C63733C
:1016F800F7062686CA852285C9395C5089C713052D
:101708004402EF00D05E11C5B7E700E0116723A0DF
:10171800E72097F0FF1FE780E0F90545F250625493
:10172800D2544259B259225A925A025B216182809C
:101738007370043001000100010017360000130621
:1017480026D493051035173500001305A5CEEF10E4
:10175800C04F01A08947E38EF4F88147FD59130B68
:10176800040137EA00E0916A71A081E72808EF00D8
:10177800306597F0FF1FE780E0F3EF00701C97F0EB
:10178800FF1FE78060F283474404939747606394A0
:1017980037012302040483475404939747606394F2
:1017A8003701A302040497F0FF1FE780A0F06C0044
:1017B8002808EF00D0613DE997F0FF1FE780C0EEF1
:1017C800185C5C5C6310F70497F0FF1FE78080EEFD
:1017D800B2455A85EF00D04622854139EF00302CBA
:1017E80039C197F0FF1FE78020EC1C5C585CE3E2EE
:1017F800E7F08547324735FB97F0FF1FE78080EB1E
:10180800014529BF97F0FF1FE780C0EA2285B1395B
:10181800EF00F02897F0FF1FE78000E9185C5C5C98
:10182800E379F7FCF9B523205A21EDB7228535393C
:10183800EF00F026F1B741112A868145054522C4FB
:1018480006C659332A8419C9232405002320050014
:1018580023260500814601468145CD33B2402285C5
:10186800224441018280411106C622C426C24AC0D0
:101878001DE17370043001000100010017360000FB
:10188800130606C09305904C17350000130585BA5A
:10189800EF10A03B01A03C412A849DC37370043023
:1018A80001000100010017360000130666BD93050C
:1018B800D04C173500001305E5B7EF10003901A02B
:1018C8001C412E898DE71C459DC3737004300100AF
:1018D8000100010017360000130686BA9305204D53
:1018E80017350000130505B5EF10203601A01C5C64
:1018F800585C63FEE7068344540485071CDCFD57E7
:10190800939444606395F4025C5099CB13054402A8
:10191800EF00F03D11C56305090085472320F90054
:101928000545B24022449244024941018280EF00B9
:101938005002E3F7A4FE9307F0076394F402737070
:10194800043001000100010017360000130646B3F9
:1019580093051055173500001305C5ADEF10E02E9F
:1019680001A0850493944460A302940455BF0145E3
:101978004DBF397106DE22DC26DA4AD84ED632C689
:101988001DE17370043001000100010017360000EA
:10199800130606AF9305B05617350000130585A941
:1019A800EF10A02A01A02A842E898DE53C419DC311
:1019B800737004300100010001001736000013069F
:1019C80026AC9305F056173500001305A5A6EF10B1
:1019D800C02701A0EF00104C0DE5B2479DC37370FE
:1019E800043001000100010017360000130646A963
:1019F80093054057173500001305C5A3EF10E024E1
:101A080001A097F0FF1FE78020CA045C95CCCA8527
:101A18002285FD141D3C04DC1C4899CB13050401E8
:101A2800EF00F02C11C5B7E700E0116723A0E7200D
:101A380097F0FF1FE78000C80545F2506254D25462
:101A48004259B25921618280B24799E797F0FF1F46
:101A5800E78040C60145D5B72808EF007036FD5924
:101A680097F0FF1FE78000C5EF00806D97F0FF1F1C
:101A7800E78080C3834744049397476063943701A2
:101A880023020404834754049397476063943701FF
:101A9800A302040497F0FF1FE780C0C16C00280868
:101AA800EF00F03231E12285EFF0DF8F0DC9B2454A
:101AB80013054402EF00D0182285453AEF00207E36
:101AC80011E5B7E700E0116723A0E72097F0FF1FB3
:101AD800E78080BD045C85FCB247D9F385BF2285C9
:101AE8006932EF00C07BDDB722854132EF00207BF1
:101AF8002285EFF03F8B79D9B1BF397106DE22DC40
:101B080026DA4AD84ED652D456D25AD02EC61DE11D
:101B1800737004300100010001001736000013063D
:101B280026969305D05F173500001305A590EF1092
:101B3800C01101A03C412A849DC373700430010088
:101B48000100010017360000130686939305106004
:101B5800173500001305058EEF10200F01A0EF00C8
:101B68007033AA842DC101498144FD59130A4402E6
:101B7800B7EA00E0116B97F0FF1FE780E0B21C5C4A
:101B8800A5CBFD171CDC1C4081E7EF00505708C4AB
:101B98001C4899CB13050401EF00701511C5B7E770
:101BA80000E0116723A0E72097F0FF1FE78080B0CF
:101BB8000545F2506254D2544259B259225A925AA7
:101BC800025B21618280B2470149C5D3737004303A
:101BD800010001000100173600001306668A93050C
:101BE8006060173500001305E584EF10000601A0BA
:101BF800B24799E797F0FF1FE780C0AB014555BF93
:101C080081E42808EF00D01B97F0FF1FE78080AA27
:101C1800052B97F0FF1FE78020A98347440493977B
:101C2800476063943701230204048347540493975D
:101C3800476063943701A302040497F0FF1FE7800D
:101C480060A76C002808EF00901829E52285EFF0BE
:101C58006FF505CD1C4089EF97F0FF1FE780C0A402
:101C68000844EF0070242A8997F0FF1FE78080A4BA
:101C7800B2455285EF00C07C2285EFF00FFF0525A5
:101C880019E123A06A218544FDB52285EFF0EFFD17
:101C98003925D5BF2285EFF04FFD11252285EFF0BC
:101CA8006FF075D1E30C09F497F0FF1FE780C09F30
:101CB8004C5089C51C58BD459C439D8D0844EF0078
:101CC80030360DBF15E5411106C6737004300100AA
:101CD800010001008565172600001306667A9385C2
:101CE80085AD172500001305E574EF00107601A0F7
:101CF8008DCD171700201307E7FD814781463A88E5
:101D08002146832847006397A800B3E706218CC3C0
:101D1800C8C321A891E78328070063930800BA87FE
:101D280085062107E39FC6FCFDF38280411122C48A
:101D380026C24AC02A8406C6AE84328997F0FF1F9D
:101D4800E7808096834744047D5793974760639460
:101D5800E70023020404834754047D5793974760A0
:101D68006394E700A302040497F0FF1FE7808094C0
:101D78001C5C99E74A86A68513054402EF00C070EB
:101D880022852244B2409244024941016FF0EFEDAE
:101D9800011122CC1384018826CA4EC6AA8483A9BD
:101DA800C1861C4008404AC806CEA388070411050E
:101DB8002E89EFF02FDDFD576390F404630E0902BE
:101DC80097170020938707F51440D84398C6104703
:101DD8001440D0C61440910654C21440910614C74A
:101DE80018405CCB9843050798C3F2406244D2443C
:101DF8004249B249056182801C40CE94C4C363FE47
:101E0800340103A581870C406244F240D244424920
:101E1800B249910505616FF00FD403A5C1870C4045
:101E28009105EFF04FD3938701859843E3FFE4FAD8
:101E380084C365BF1387C1871C4394439387018577
:101E480081E67D5798C38280184358471843DDBF01
:101E5800011122CC4AC84EC606CE26CA1384418731
:101E680097190020938949EC138901871C40FDDFED
:101E780097F0FF1FE780408383A7C900C4471385F5
:101E88004400EFF02FD083270900FD172320F90025
:101E98001C40FD171CC097F0FF1FE780A0818858E1
:101EA800EFF06FB32685EFF00FB3C9B7797126D27B
:101EB800931426005AC82A8B26854ECE52CC56CA71
:101EC8005EC606D622D44AD02E8AB68BBA89BE8A76
:101ED800EFF02F9A09ED7D55B250225492540259D1
:101EE800F249624AD24A424BB24B456182802A8902
:101EF80013054005EFF0EF972A84630A051A1306C5
:101F080040058145EFE01FDA2328240363020A0213
:101F18000147C146B307EA00838707003306E40098
:101F2800230AF60281C70507E316D7FEA3010404B6
:101F3800B94763F4370373700430010001000100EE
:101F480017260000130606559305203917250000AB
:101F58001305454EEF00704F01A0130A4400528547
:101F68002326340323223405EFF08FBE13058401A2
:101F7800EFF00FBEBD47F114B3873741CA9400C8CC
:101F88001CCC40D05E86DA8513F504FFEFE09FCCC9
:101F980008C063840A0023A08A0097E0FF1FE78037
:101FA800A0709387018798431389018897140020AC
:101FB800938484DC050798C303270900631D070C75
:101FC80023208900984385476317F706A689971A3F
:101FD8000020938A2AED4E85D109EFF02FB6E39CB5
:101FE8003AFF171500201305E5D7EFF02FB51715A1
:101FF80000201305E5D5EFF06FB417150020130581
:10200800E5D3EFF0AFB3171500201305E5D1EFF0D6
:10201800EFB2171500201305E5CFEFF02FB2971791
:102028000020938727D423AEF18697170020938743
:1020380027D223ACF186138741851C4385071CC32F
:10204800138781865C54144363F3F6001CC351471D
:10205800B387E702A697D843144718C454C423A2E9
:1020680046012324470198435CC8050798C397E0B5
:10207800FF1FE780206483A7418681CF832709005B
:10208800D8575C546377F700B7E700E0116723A0DF
:10209800E720054591B503A741865C5449FF03270E
:1020A80009005857E3E9E7F82320890069B74A850A
:1020B800EFF06F920DB541119387C18401478146B6
:1020C80013060008972500009385053E17050000B4
:1020D800130545D822C406C60544C93B631C8502BE
:1020E800EF0050316318850273700430010001005D
:1020F8000100FD5723A8F18423A2A18623A6018607
:10210800EFF06F9CB240224497F7FF1F83A7C7B137
:1021180041018280FD57E317F5FE7370043001001A
:10212800010001008565172600001306A636938571
:102138002581172500001305E52FEF00103101A0B8
:10214800138781841C4385071CC3828003A5C1862D
:10215800828003A50187828083A781846398071200
:1021680041119387C18622C4804306C6050480C3F3
:1021780029E49387C1879843184305C773700430CF
:10218800010001000100856517260000130686304E
:10219800938575AB172500001305C529EF00F02AB4
:1021A80001A0138781879443104390C314C31387F6
:1021B80081851C4385071CC3B539138601851C42DC
:1021C80001456379F40083A7C185E1EBB24022445D
:1021D800410182809388C18713838186971E0020DE
:1021E800938E8EB9514F938F018851A883A7080009
:1021F800DC47DC47D8436374E40018C2E9B78C476E
:10220800D447D84B1388470094C5CCC24C4363933A
:10221800050154C3144323AA0700FD1614C3985795
:102228000DC3CC4F9453032E470094C5CCC293855D
:1022380087016313BE0054C3144323A40702FD1689
:1022480014C3D457032703006374D7002320D30093
:102258003387E60376974C4303AE85008CC723A6E5
:10226800C70123220E0123A40501D8CB1C438507EF
:102278001CC383A70F00DC5763F3D700054583A76A
:1022880008009C43A5F7FD571CC235BF138701867C
:102298001C43014585071CC38280054505BF011104
:1022A80022CC138481841C4006CE26CA4AC885E7FE
:1022B80073700430010001000100856517260000D5
:1022C8001306461D938555881725000013058516A6
:1022D800EF00B01701A097E0FF1FE780E03C1C402B
:1022E800FD171CC01C4091CF01452AC697E0FF1F6F
:1022F800E780403CF24062443245D244424905619D
:10230800828083A70187EDD3814717150020130525
:10231800E5A213888186171300201303E3A5514E05
:10232800938E0188138FC185854FBDA85C45DC4716
:102338009857D04F94534C4314C6D0C21386870184
:102348006393C50054C3144323A40702FD1614C3A2
:102358009047D447D84B9385470014C6D0C2504302
:102368006313B60054C31443FD1614C303270800AF
:10237800D4576374D7002320D8003387C6031A972D
:1023880050438328860090C723A6170123A2B800CC
:102398000CC61043D8CB050610C303A70E00585728
:1023A80063E4E6002320FF01184149F399C3EFF0E5
:1023B8007FA803A4018601CC9384C1850549693BA4
:1023C80019C123A024017D147DF823A0018683A7C9
:1023D800C185E38B07F0B7E700E0116723A0E7208A
:1023E800054521B719E5B7E700E0116723A0E72005
:1023F8008280011106CE83A781849DC37370043047
:10240800010001000100172600001306A608930525
:10241800C051172500001305E501EF00100301A0C6
:102428002AC6393B32458145EFF09F968D3D11E52F
:10243800B7E700E0116723A0E720F240056182803A
:10244800411106C622C405E573700430010001007D
:1024580001008565172600001306C6039385F5C09D
:1024680017250000130505FDEF00207E01A02E842E
:1024780083A50188E105EFE01FEE22852244B240E2
:10248800854541016FF0DF90AA8715E5411106C621
:1024980073700430010001000100856517260000F3
:1024A800130646FF938555C417250000130585F8C4
:1024B800EF00A07901A013870188D4432E85B28547
:1024C800104303A8860054CE10432320060310436C
:1024D80061062322C80010431843610690C61CD722
:1024E8009843050798C391C17D556FF07F8A5C4575
:1024F800DC4795E7411106C67370043001000100FE
:1025080001008565172600001306C6F8938555C790
:1025180017250000130505F2EF00207301A0D04F26
:10252800945398579385870114C6D0C250436313B8
:10253800B60054C3144323A40702FD1614C303A70B
:102548008184D45735E3D84B8C47D047484390C54E
:102558004CC2938547006313B50050C310437D16E2
:1025680010C31387818610436373D60014C3514682
:102578003386C60217170020130707803297504387
:10258800084690C7C8C74CC10CC6D8CB1C430145E8
:1025980085071CC383A70188DC5763F6D7008547E6
:1025A80023AEF184054582801707002013070779B9
:1025B80050430846D0CF88D34CC10CC698D7F9B73A
:1025C80083A781851CC183A7C1865CC18280011154
:1025D80006CE22CC1DE17370043001000100010019
:1025E8008565172600001306E6EA938505CF1725AB
:1025F8000000130525E4912D01A02E849DE1737040
:10260800043001000100010085651726000013064B
:1026180066E8938515CF172500001305A5E1352534
:1026280001A02AC697E0FF1FE7800008938701886A
:1026380083A6C1869043324503461605584119CEF4
:102648009C43A388070405452AC697E0FF1FE78037
:102658006006F24062443245056182801C407D5626
:102668006384C7020C4103A681856387C50063E5BF
:10267800E60023200400C1BF3386E640E37BF6FE74
:10268800958FBA971CC02D3F01457DBF854723AE66
:10269800F184828083A74186054591C703A581847B
:1026A80013351500060582805DC501114AC81389D6
:1026B8000188032709005C5522CC585706CE26CA44
:1026C8004EC62A8463F2E708184D634807000327BB
:1026D800090054573D47158F18CD5147B387E70276
:1026E80058489704002093842469A6976319F7042F
:1026F800930944004E85EFE0FFC88327090013873C
:1027080081861443DC575CD463F3F6001CC351473D
:10271800B387E702A697D843144718C454C423A222
:1027280036012324370198435CC8050798C305453B
:10273800F2406244D2444249B2490561828083270B
:102748000900DC575CD4E5B7832709006841DC57EA
:102758003335F500F1BF0145828009E901458280E2
:102768000145B2402244924441018280411122C471
:1027780006C626C283A701882A846384A7027370C9
:1027880004300100010001008565172600001306CA
:1027980066D093859504172500001305A5C97521F2
:1027A80001A0BC479DE373700430010001000100E3
:1027B8008565172600001306E6CD9385A504172521
:1027C8000000130525C7512101A054557841FD1774
:1027D8003CC5E387E6F8C9F7930445002685EFE092
:1027E8007FBA7C403D471D8F18CC138781861443E0
:1027F8005CD463F3F6001CC35147B387E70217079D
:102808000020130767570545BA97D843144718C4DB
:1028180054C4C4C204C798435CC8050798C391B799
:1028280071CD3845411122C406C626C24AC02A8441
:102838001DE373700430010001000100856517264F
:102848000000130626C59385950917250000130572
:1028580065BEE52E01A07C41B3F5F50A5C55638998
:10286800B70885466316D70803A701886314A7022B
:10287800737004300100010001008565172600000F
:10288800130646C19385450B17250000130585BA25
:102898006D2E01A0184D4CD5634507003D470D8F9F
:1028A80018CD5147B387E70258489704002093840E
:1028B800A44CA697631EF702130944004A85EFE06B
:1028C8007FAC138781865C54144363F3F6001CC302
:1028D8005147B387E702A697D843144718C454C48E
:1028E80023A226012324270198435CC8050798C31F
:1028F800B2402244924402494101828082809387F7
:102908000188984309C79443B8460507B8C6884361
:102918008280411106C64CC108C9AA876361B60204
:10292800184D158E05456379E6009385470003A584
:102938000189EFE05FA20145B240410182806375E1
:10294800D6000545E3FAD5FE9385470003A54189DE
:10295800CDB7411122C426C24AC006C62A84AE8415
:1029680032890C4CA6864A86A69522855D3719E5DC
:10297800B240224492440249410182801C4C228583
:10298800BE941C508297F1BF83A74189DC4701118F
:1029980022CCC04726CAAA841305440006CE2EC6F8
:1029A800EFE05F9E83474402324613F7470019CB96
:1029B800A6852285793F1C5022856244F240D24484
:1029C80005618287F99B2302F402F5B7011122CC35
:1029D80026CA4AC84EC606CEAA8413894188EFF093
:1029E800EFF6832709002A84938941896362F502F7
:1029F800814723208900F240228562449CC04249D5
:102A0800D244B24905618280DC47FD558843AD3F19
:102A180083A7090098436DFB1387018914431CC3DE
:102A2800854723A0D900F1B75D71A6C2CAC04EDEA2
:102A380052DC86C6A2C4938941899384C188138ACB
:102A4800018917290000130929A883A70900054649
:102A5800804301C4DC470146804332C6EFF04FEEA5
:102A68000810AD378257AA85B5EB324629E6636967
:102A780085042AC6EFF0BF82B245228531378840E7
:102A880001460C10EFE0FFEE69D18257225563CA68
:102A9800070422545C48A9EF68080D3F8257214774
:102AA8002A86FD17E36DF7FCB3C7272198438347B0
:102AB80044024A97028783270A0090431336160078
:102AC8008840B305B440EFF06FA6EFF04FFD45F92D
:102AD800B7E700E0116723A0E72055B7EFF02FFC18
:102AE80079BF9257B25582978257E3CA07F855B70C
:102AF80013054400EFE01F8945B793E71700230249
:102B0800F4020C4C92562AC62285B695193525D959
:102B180083474402324613F7470011CB1C4C9255A9
:102B28002285BE953D351C502285829789BFF99B29
:102B38002302F402CDBF93E717002302F402925553
:102B48000CCC95E1737004300100010001001726D8
:102B580000001306E6959305E035172500001305D8
:102B6800658DE52001A0AA86AA9522855D3301BF5F
:102B780013F7270009E72285EFE0EFE509B7F99B8E
:102B88002302F402EDBD411122C406C61384C18894
:102B980097E0FF1FE78040B11C40B1E71705002010
:102BA80013058531EFE08FF9170500201305852FF0
:102BB800EFE0CFF8970700209387073023AAF18822
:102BC8000146970700209387E72DC145114523A8A3
:102BD800F188EFE07F9F08C019C59725000093850D
:102BE800E590EFF02F8E2244B240410117E3FF1F1A
:102BF800670043AC411106C6793783A7C18895E3BE
:102C0800737004300100010001001726000013064C
:102C1800268A93059011172500001305A5813520F4
:102C280001A09387818839478146130600089725B4
:102C380000009385258C17050000130525DFEFF0AC
:102C4800EFA65DDDB240410182805D7122D406D6D7
:102C58002A842EDA32DC36DEBAC0BEC2C2C4C6C688
:102C680003A5818011C51C4D81E72AC6D9233245A9
:102C78000C455418228636CEEF102014B250225438
:102C880061618280011126CA06CE22CC4AC84EC68E
:102C980052C4AA8419E11C4502901C4D2E89B5E343
:102CA800492B9C4C8044A5C397270000938707892C
:102CB800631EF404C0407C50858B81EB5E2493F73F
:102CC800072081E7284CEF00406E5E24A18B99C352
:102CD8001C48D5E3A2852685DD2251CDFD547C50C4
:102CE800858B99E75E2493F7072099E3284C7D2D7F
:102CF800F24062444249B249224A2685D2440561DB
:102D08008280004555B726852D2379BF9727000077
:102D18009387C7806314F400804471BF971700003D
:102D28009387C77DE319F4F8C04471B71CC405093B
:102D380063C807021C401387170018C08CA31C44E3
:102D480083450900FD17FDF11CC463D907022286DB
:102D5800A94526857D20FD57E302F5F8A94441B72A
:102D6800184C63C4E700E39745FD22862685512861
:102D7800E31735FDA5B7FD59294AD1B71C4013877C
:102D8800170018C0294798A3D1BFAA8503A5818039
:102D9800D5BD1971A2DCA6DA86DECAD8AA84328427
:102DA800635C06009307B0081CC17D55F650665455
:102DB800D65446590961828093078020FC822EC42C
:102DC8002ECC36868147BA8619C09307F4FF7D5901
:102DD8002C0026853EC83ECE231B2101EF00101A89
:102DE800635525019307B0089CC069D0A24723808A
:102DF80007006DBF3687B2862E86AA8503A5818017
:102E080049BF011122CC26CA4AC806CE4EC6AA849A
:102E18002E89328401C51C4D91E3212997170000A2
:102E28009387C7716317F402C0401C4C1CC45E240E
:102E3800A18B99C31C4895EFA2852685492015C901
:102E48007D59F2406244D244B2494A8542490561FB
:102E58008280971700009387676C6314F40080449E
:102E6800E9B79717000093876769E310F4FCC0443B
:102E78006DBF1C4808409379F90F1379F90F1D8D20
:102E88005C486346F500A2852685912C55F91C44BB
:102E98000505FD171CC41C401387170018C02380A4
:102EA80037015C486388A7005E24858BD9DBA94776
:102EB800E319F9F8A28526851D2441D551B741119A
:102EC80022C426C24AC006C683A481802A892E84C9
:102ED80089C49C4C99E32685A92E971700009387EF
:102EE800E7656313F402C0408317C40013F7870033
:102EF80025E713F707010DEB25472320E90093E7A2
:102F080007045EA47D5571A0971700009387076199
:102F18006314F4008044C9BF971700009387075EC5
:102F2800E314F4FCC044C9B7918B9DC34C5889C9BC
:102F3800930744046384F5004A858D23232A0402F9
:102F48005E242322040093F7B7FD5EA41C481CC02E
:102F58005E2493E787005EA41C4899EB5E24130760
:102F6800002093F707286385E700A2854A85692929
:102F78008317C40013F717001DC3584823240400FF
:102F88003307E04018CC1848014501E713F7070854
:102F98003DF7B2402244924402494101828013F72E
:102FA8002700814611E3544814C4F1BF8397C50034
:102FB800011122CC26CA06CE4AC84EC613F787008E
:102FC800AA842E8479E3D8416345E000B84163566A
:102FD800E008585459C303A9040023A004000C5066
:102FE80093D7C748A9CB70485E24918B99C75C409A
:102FF8001D8E5C5899C33C401D8E5C540C50814614
:1030080026858297FD57630CF5041C480567232223
:1030180004001CC05E24F98F91C368C84C5823A0D3
:10302800240185CD930744046384F5002685BD21DA
:10303800232A04021DA00146854626850297FD57CE
:103048002A86E313F5FA9C40C5D375476385E700E4
:1030580059476395E70623A024010145B5A0984088
:103068008317C40001CFF5466305D700D946631915
:10307800D7041C48232204001CC04DB7184823223B
:10308800040093D7C74818C041BF83A90501E38648
:1030980009FC03A905008D8B23A0350133093941AB
:1030A800014791E3D84918C4E35920FB1C540C503C
:1030B800CA864E8626858297634FA0008317C40070
:1030C80093E707045EA47D55F2406244D244424926
:1030D800B24905618280AA993309A940F1B79C4990
:1030E800411106C622C426C281EB8144B240224463
:1030F8002685924441018280AA842E8401C51C4DF4
:1031080091E3052A9717000093874743631CF4024D
:10311800C0408317C400F1DB7850058B11E793F7A3
:10312800072099E3284C51242685A28541357C50F7
:10313800AA84858BC5FF5E2493F70720C5FB284C1E
:10314800B5246DB7971700009387473D6314F400C3
:103158008044C1B7971700009387473AE31BF4FAF6
:10316800C04445BF411122C406C62A844EA572A593
:103178002320050023220500232405002322050619
:1031880023280500232A0500232C05002146814514
:103198001305C505EFD01FB197170000938727F0D7
:1031A8005CD097170000938727F21CD4971700006C
:1031B8009387E7F55CD497170000938727F8B24008
:1031C80000D01CD8224441018280970500009385D5
:1031D80045F1BDA2411126C2930780069384F5FFED
:1031E800B384F4024AC02E8922C406C693854407D4
:1031F80065262A8401CD23200500232225013105D7
:1032080008C4138684068145EFD0DFA9B240228521
:10321800224492440249410182801385C18971A2E6
:103228001385C18961A21385018A41A21385018A88
:10323800B5AA411122C406C62A84F5371C4C89C791
:103248002244B2404101DDB797070000938727F871
:103258001CD423240404232604042328040483A759
:1032680041816394870085471CCC22853D2048C056
:103278002285252008C422850D2048C448400146DF
:103288009145CD3508440546A545E93D48440946DC
:10329800C945C93D85471CCC65B7411126C24AC0FE
:1032A80006C622C42A89953F83A441819C4C99E390
:1032B80026854137938484048044DC40FD1763D617
:1032C80007009C40BDC38440C5BF0317C40039EB49
:1032D800C17785075CC41305840523220406E92009
:1032E80081372146232004002324040023220400DC
:1032F80023280400232A0400232C040081451305F5
:10330800C405EFD03F9A232A0402232C0402232465
:10331800040423260404B24022852244924402492C
:10332800410182801304840651BF91454A855D3569
:1033380088C02A8449F9ED35B1472320F900E1BF57
:10334800797122D44AD04ECE52CC5AC85EC606D61F
:1033580026D256CA2A892E8A130485048149054B28
:10336800FD5B0444832A4400FD1A63D00A0200402E
:103378006DF8B250225492540259624AD24A424BD2
:10338800B24B4E85F24945618280DE24637BFB00A7
:103398008397E40063877701A6854A85029AB3E993
:1033A800A90093848406C9B782808280828059717B
:1033B800A2D42E848395E500A6D2CAD086D6B2843C
:1033C800368963D205025E2493F7070895EB130745
:1033D8000040B65026542320F90098C00659965448
:1033E8000145656182803000EF00905AE34D05FC8D
:1033F8003247BD67F98F7977BA9793B71700C1BF7E
:10340800814713070004F1B7DE25797122D406D667
:1034180026D24AD04ECE898B2E8491CF930774043E
:103428001CC01CC885475CC8B2502254925402592B
:10343800F2494561828074003000AA848D3FA24918
:103448002A892685CE85892A19E98317C40013F7A6
:10345800072079FBF19B93E727005EA4C1B7970784
:1034680000009387C7D69CD45E2408C008C893E799
:1034780007085EA4B247232A340181CF8315E400EC
:103488002685EF00705311C55E24F19B93E7170062
:103498005EA45E2433E527014AA479B7C5C183A792
:1034A800C5FF011122CC06CE1384C5FF63D30700E4
:1034B8003E942AC6EF00D0561387818A1C433245B2
:1034C80089EB2322040000C36244F24005616F00C7
:1034D800B055637DF4001040B306C4006396D7006E
:1034E8009443DC43B29614C05CC0F1BF3E87DC4312
:1034F80099C3E37DF4FE14433306D700631F8600A7
:103508001040B29614C33306D700E39FC7FA90431E
:10351800DC43B29614C35CC345BF6375C400B147AE
:103528001CC15DB71040B306C4006396D70094432E
:10353800DC43B29614C05CC040C379B782804111A5
:103548004AC01389418A8327090022C426C206C6B5
:10355800AA842E8491E78145EF00B0312320A90089
:10356800A2852685EF00F0307D59631A25017D5428
:10357800B2402285224492440249410182801304C8
:1035880035007198E30685FEB305A4402685EF0053
:10359800502EE31F25FDE1BF011126CA9384350093
:1035A800F1984AC8A104B14706CE22CC4EC62A8952
:1035B800B3F4F40A63C4040063FDB400B1472320E4
:1035C800F9000145F2406244D2444249B2490561DA
:1035D8008280EF00F0449389818A83A709003E84A2
:1035E80039E4A6854A85A13FFD572A846319F50A5F
:1035F80003A40900A287D1EB8329040081454A85E9
:10360800A299EF0010276395A9081C408D044A85EC
:103618009D8CF198B147A104B3F4F40AA685053747
:10362800FD576307F5061C40A6971CC015A014405B
:10363800858E63C906042D47637ED70204C033070D
:1036480094006397870223A0E9005C4014C35CC31D
:103658004A85EF00703D1305B40093074400619953
:103668003307F540E300F5F63A94898F1CC099BFFB
:10367800D8C3E1BF58406395870023A0E900C9BFBC
:10368800D8C3F9B7A2874040A1BF3E84DC43A5B7A1
:10369800B1472320F9004A85EF0010391DB704C14E
:1036A80045BF01114AC803A9850022CC4EC652C4A1
:1036B80056C206CE26CA5AC003AA05002E84B28A6C
:1036C800B68963E426078397C50013F7074821CF17
:1036D80058488D448C49B384E4020947330ABA40F8
:1036E80093F707402A8BB3C4E40213871600529756
:1036F800B3F4E40ABDC3A68545352A893DC50C48FF
:103708005286EFD0CFD85E2493F7F7B793E7070830
:103718005EA42328240144C85299B3844441232039
:10372800240104C44E8963F329014E8908404A865E
:10373800D685EFD02FD81C440145B38727411CC438
:103748001C40CA971CC0F2406244D2444249B24964
:10375800224A924A024B056182802686EF00502D4C
:103768002A8945F90C485A85153BB1472320FB00A7
:103778005E247D5593E707045EA4F1B7DE25357115
:1037880022CD26CB4AC952C506CF4EC756C35AC109
:10379800DEDEE2DC93F707082A8A2E89B2843684B3
:1037A8009DCF9C498DEF93050004FD332320A9008C
:1037B8002328A9000DE1B1472320FA007D55FA40DE
:1037C8006A44DA444A49BA492A4A9A4A0A4BF65B91
:1037D800665C0D61828093070004232AF900930731
:1037E8000002A304F1029307000302D22305F102A9
:1037F80022C6930B5002971A0000938A2AD6294BA7
:1038080026841C2099C363987709330C9440630D70
:103818009400E2862686CA8552856135FD5763077E
:10382800F5189257E2973ED21C2063810718FD577E
:103838009304140002C802CE3ECA02CCA3090104B4
:1038480082D48C2015465685EF00101CC24713847D
:10385800140021E513F7070109C713070002A3099C
:10386800E10413F7870009C71307B002A309E104AD
:1038780094201307A0026389E602F2472684814652
:103888002546182093051400130707FD6372E60602
:1038980085C63ECE15A00504ADB733055541B3978F
:1038A800A728A2843EC871BF324793064700184331
:1038B80036C6634807023ACE18209307E002631C15
:1038C800F70418309307A002631AF702B2470904F5
:1038D800138747009C433AC67D57B3E7E70A3ECAB9
:1038E8001DA83307E04093E727003ACE3EC8E9B762
:1038F800B38767032E848546BA9761B7050402CA61
:10390800814681472546182093051400130707FDB3
:103918006374E606E9F60C200D461715000013053A
:1039280065C4EF00700E11CD97170000938787C309
:103938001D8DC247130700043317A700D98F05044C
:103948003EC80C201946171500001305E5C193045D
:1039580014002304B102EF00300B2DC193070000BF
:1039680095E74247B2471377071009CF91073EC63C
:103978009257CE973ED269B5B38767032E848546A2
:10398800BA9751B79D07E19BA107D5B7780097066D
:103998000000938646D14A860C085285970000009D
:1039A800E7000000FD57AA89E314F5FC8357C90016
:1039B80093F70704E39407E0125511B578009706CA
:1039C8000000938646CE4A860C0852853922D9BF14
:1039D800797156CA9C49BA8A984522D44AD04ECEA3
:1039E80052CC06D626D25AC85EC6B3E7E70A1CC22E
:1039F80003C73504AA892E843289368A19C38507F4
:103A08001CC21C4093F7070291C783270900890746
:103A18002320F9000440998891E8130B9401FD5B79
:103A28005C4403270900998F63CCF404834734046A
:103A3800B336F0001C4093F70702A5EB13063404D5
:103A4800D2854E85829AFD576303F5041C401147C1
:103A58008144998B6399E7008327090044449D8C2E
:103A68008147B3E4F40A1C4418486354F700998F5B
:103A7800BE94014969047D5B63982405014509A842
:103A880085465A86D2854E85829A631E75017D5574
:103A9800B250225492540259F249624AD24A424BD5
:103AA800B24B456182808504A5BF3307D400130655
:103AB8000003A301C7040347540493871600A29781
:103AC8008906A381E7049DBF85462286D2854E8557
:103AD800829AE30E65FB050945B7797122D44AD06D
:103AE8004ECE52CC06D626D256CA5AC803C885012D
:103AF800930780072A892E84B289368A63E20703EE
:103B0800930720069386350463E10703630B081CBB
:103B18009307800517160000130686A56307F81497
:103B2800930424042301040515A89307D8F993F7EF
:103B3800F70F5546E366F6FE171600001306C6A5EE
:103B4800B3C7C7209C43B29782871C43938425043C
:103B5800938647009C4314C32381F504854765A2D7
:103B680090411C43137506089385470029C19C435F
:103B78000CC3584063DE07129305D002A301B404B6
:103B880018C4635E0702B307F04017160000130657
:103B9800269E2948B68433F70703FD143297182365
:103BA80098A03E87B3D70703E37707FF85A09C4318
:103BB800137506040CC355DD939757605DBF6D9A66
:103BC80010C0D1B790411C43137506089385470070
:103BD80001C50CC39C4331A0137606040CC37DDADF
:103BE8009E231307F0061716000013066698631F36
:103BF800E80A2148A3010404584018C4E34C07F814
:103C08000C40ED990CC0D9F7B68449F7A147631E5B
:103C1800F8001C40858B91CB58401C4863C7E700CF
:103C280093070003A38FF4FEFD14858E14C85287F2
:103C3800CE867000A2854A85613BFD5A6319550DF1
:103C48007D55B250225492540259F249624AD24ADE
:103C5800424B456182809C4193E707029CC113084F
:103C68008007171600001306E691A30204050C400E
:103C78001C4313F80508138547006305080008C3AB
:103C88009C4339A013F8050408C3E30B08FE9E23E0
:103C980013F7150001C793E505020CC099C3414805
:103CA80091BF18401377F7FD18C0D5BF294899B7B9
:103CB800171600001306C68B29483DBF90411C43C8
:103CC800CC4913780608138547006306080008C323
:103CD8009C438CC339A008C3137606049C4375DA49
:103CE8008EA323280400B68499B71C43D04181458C
:103CF8009386470014C384432685392301C5B30737
:103D080095405CC05C401CC8A30104040DB714486E
:103D18002686CE854A85029AE30455F31C40898B92
:103D280085E74844B2473365F50A21BF854656867C
:103D3800CE854A85029AE30565F185045C443247DD
:103D4800998FE3C5F4FEF1BF8144930A94017D5B2A
:103D5800F5B71C46FD171CC663DA0700184E63C585
:103D6800E700A9476394F5006FF0AF891C422E85E0
:103D78001387170018C28CA38280011122CC26CA8F
:103D88004AC84EC652C406CE2A89AE893284B304C4
:103D9800D6007D5A63149400014501A80C204E8674
:103DA8004A85453F0504E31745FFF2406244D24483
:103DB8004249B249224A05618280357122CD26CB1B
:103DC8004AC94EC706CF52C556C35AC1DEDEE2DC29
:103DD800AA892E843289B68409C51C4D99E3EFF06F
:103DE8004FC597070000938767756318F40403A409
:103DF80049007C50858B81EB5E2493F7072081E78F
:103E0800284CEFF08FDA5E24A18B99C31C48A5E3F8
:103E1800A2854E85EFF0AF8A39C97C50858BA1C346
:103E28007D55FA406A44DA444A49BA492A4A9A4AC4
:103E38000A4BF65B665C0D618280970700009387EA
:103E4800E76D6315F40003A4890065B797070000C0
:103E58009387C76AE31FF4F803A4C90059BF5E2417
:103E680093F70720D5FF284CEFF04FD455BF9307A1
:103E78000002A304F1029307000302D22305F10212
:103E880026C6930B5002970A0000938A2A6D294B85
:103E9800CA849C2099C363997709338C2441638D24
:103EA8002401E2864A86A2854E85C13DFD576306F8
:103EB800F5189257E2973ED29C2063800718FD5769
:103EC8001389140002C802CE3ECA02CCA309010419
:103ED80082D483450900154656853D26C24793047A
:103EE800190029E513F7070109C713070002A309F9
:103EF800E10413F7870009C71307B002A309E10417
:103F0800834609001307A0026389E602F247CA84C0
:103F180081462546982093851400130707FD637290
:103F2800E60685C63ECE15A08504A5B733055541DE
:103F3800B397A72826893EC869BF3247930647002A
:103F4800184336C6634807023ACE98209307E00222
:103F5800631CF70498309307A002631AF702B2476C
:103F68008904138747009C433AC67D57B3E7E70A9D
:103F78003ECA1DA83307E04093E727003ACE3EC863
:103F8800E9B7B3876703AE848546BA9761B78504F6
:103F980002CA814681472546982093851400130755
:103FA80007FD6372E606E9F68C200D46170500004A
:103FB8001305455B912C11CD970700009387875A0D
:103FC8001D8DC247130700043317A700D98F850436
:103FD8003EC88C201946170500001305E5581389BB
:103FE80014002304B1020D2435C99307000095E796
:103FF8004247B2471377071009CF91073EC6925739
:10400800D2973ED271B5B3876703AE848546BA9717
:1040180061B79D07E19BA107D5B778009706000017
:104028009386E6D522860C084E8597000000E700A7
:104038000000FD572A8AE314F5FC7C50858B81EB40
:104048005E2493F7072081E7284CEFF02FB65E2413
:1040580093F70704E39607DC1255E1B37800970657
:1040680000009386C6D122860C084E85EFF0FFA685
:10407800C9B7411122C42A842E8523A6018A06C6FF
:10408800EFC01FF2FD576316F50083A7C18A91C3DD
:104098001CC0B240224441018280411122C42E84B6
:1040A8008395E50006C60124634905007C48AA9764
:1040B8007CC8B2402244410182805E249397C7485D
:1040C8005EA4C5BFDE25011122CC26CA4AC84EC649
:1040D80006CE93F70710AA842E843289B68991C731
:1040E8008395E50089460146DD285E248315E400B2
:1040F800F2409397C7485EA46244CE864A86B24986
:1041080042492685D24405611DA8411122C42E8446
:104118008395E50006C6E1207D575E246319E50016
:104128009397C7485EA4B240224441018280939786
:10413800C72868C85EA4C5BF8395E5003DA04111A6
:1041480022C42A842E85B285368623A6018A06C60D
:10415800EFC0FFE2FD576316F50083A7C18A91C33C
:104168001CC0B240224441018280411122C42A84E9
:104178002E8523A6018A06C6B522FD576316F500CB
:1041880083A7C18A91C31CC0B240224441018280E6
:10419800411122C42A842E85B28523A6018A06C627
:1041A800812AFD576316F50083A7C18A91C31CC0F5
:1041B800B240224441018280411122C42A842E85C2
:1041C80023A6018A06C61D2AFD576316F50083A794
:1041D800C18A91C31CC0B24022444101828041116E
:1041E80022C42A842E85B285368623A6018A06C66D
:1041F800212AFD576316F50083A7C18A91C31CC005
:10420800B24022444101828093F5F50F2A96631447
:10421800C500014582801C21E38EB7FE0505C5BF98
:10422800138581896FF06F98138581896FF00F98D6
:10423800011126CA06CE22CC4AC84EC652C4B28440
:1042480099E96244F240D2444249B249224AB285CD
:1042580005616FF06FB409EEEFF04FA40144F2402E
:1042680022856244D2444249B249224A0561828089
:104278002A8A2E84B1282A896366950093571500E7
:10428800E3EF97FCA6855285EFF00FB1AA8979D59F
:10429800A28533D6240BEFC09F9FA2855285EFF0ED
:1042A800EF9F4E846DBF411122C42A842E85B285AA
:1042B800368623A6018A06C6B128FD576316F5007F
:1042C80083A7C18A91C31CC0B240224441018280A5
:1042D80083A7C5FF1385C7FF63D50700AA959C412F
:1042E8003E9582809307800523A6F18A7D558280BA
:1042F8009307800523A6F18A7D5582809307800560
:1043080023A6F18A014582809307800523A6F18AB6
:104318007D5582809307800523A6F18A7D5582808A
:10432800257300007461736B3120656E7472792097
:10433800310A00007461736B3120656E74727920E4
:10434800320A00007461736B3220656E74727920D2
:10435800310A00007461736B3220656E74727920C3
:10436800320A00007461736B332073656D206765D2
:1043780074206F6B0A0000007461736B33207365DF
:104388006D20676574206661696C65640A000000C9
:104398007461736B332073656D20696E6974206670
:1043A80061696C65640A000073746172742E0000A0
:1043B8007072696E744D75746578206572726F726B
:1043C800000000007461736B330000007461736B4C
:1043D800320000007461736B3100000073686F7500
:1043E8006C646E27742072756E2061742068657223
:1043F8006521210024CAFFFF3CCAFFFF60CAFFFFF6
:104408006ACAFFFF80CAFFFF2E2E2F4672656552CB
:10441800544F532F706F727461626C652F4D656DC8
:104428004D616E672F686561705F342E6300000010
:10443800657272206174206C696E65202564206F36
:10444800662066696C6520222573222E200D0A20BD
:10445800000000002E2E2F4672656552544F532FD0
:10446800706F727461626C652F4743432F524953D2
:10447800432D562F706F72742E6300002E2E2F4618
:1044880072656552544F532F71756575652E6300BB
:104498002E2E2F4672656552544F532F7461736BDD
:1044A800732E630049444C45000000002E2E2F4611
:1044B80072656552544F532F74696D6572732E631C
:1044C8000000000036E6FFFF36E6FFFFBAE6FFFF12
:1044D80072E6FFFFACE6FFFF36E6FFFF36E6FFFFBA
:1044E800BAE6FFFF72E6FFFF546D7251000000004C
:1044F800546D722053766300000000000000000035
:1045080000000000000000000000000000000000A3
:104518000000000000000000000000000000000093
:104528000000000000000000000000000000000083
:104538000000000000000000000000000000000073
:104548000000000000000000000000000000000063
:104558000000000000000000232D302B2000000088
:10456800686C4C0065666745464700003031323359
:104578003435363738394142434445460000000057
:1045880030313233343536373839616263646566C1
:1045980000000000B6F5FFFFCCF5FFFF8CF5FFFF2C
:1045A8008CF5FFFF8CF5FFFF8CF5FFFFCCF5FFFFC7
:1045B8008CF5FFFF8CF5FFFF8CF5FFFF8CF5FFFFF7
:1045C80028F7FFFF30F6FFFFC2F6FFFF8CF5FFFF6D
:1045D8008CF5FFFF56F7FFFF8CF5FFFF30F6FFFF66
:0C45E8008CF5FFFF8CF5FFFFCAF6FFFF0B
:1045F4000000000040450000204500000045000088
:1046040000000000000000000000000000000000A6
:104614000000000000000000000000000000000096
:104624000000000000000000000000000000000086
:104634000000000000000000000000000000000076
:104644000000000000000000000000000000000066
:1046540000000000D02E00200E000000C40B00203B
:0C4664000000000000000220C40B002039
:00000001FF
