:040000006F10805E9F
:100004000000000000000000A000002050110020AB
:10001400A9BDF9F3A00000200000000000000000CA
:10002400A0000020A000002000000000000000004C
:10003400A000002000000000A0000020000000003C
:10004400A0000020A0000020A0000020A0000020AC
:10005400A0000020A0000020A0000020000000005C
:10006400A00000200C020020A0000020A00000201E
:10007400A0000020A0000020A0000020A00000207C
:10008400A000002034020020A0000020A0000020D6
:10009400A00000202E030020A0000020A0000020CB
:1000A40001A0B7170040984B41111367070198CB83
:1000B40003C707011377E70F2388E70013078008B6
:1000C40073370780137787083AC60F1000001307A9
:1000D40070052380E704130780FA2380E7040F10D8
:1000E4000000B847B70600069506558FB8C703C782
:1000F400B7041377F70DA385E70403C7A7001367B5
:1001040027012385E700130750142394E7003727BA
:1001140000408346578093F6F60EA302D7808946A3
:10012400A303D78003C7E7041377C70F1367170028
:100134002387E70403C7F70213672700A387E702AF
:1001440003C70701136717002388E7002380070408
:10015400B247F3A707800F10000041018280EFF03F
:100164005FF413050021970500009385650A1716AF
:1001740000001306664763FAC5008322050023A026
:10018400550011059105E3EAC5FE172500E01305A6
:10019400A55397150000938525451386418063FA7E
:1001A400C5008322050023A0550011059105E3EA4B
:1001B400C5FE171500001305A55497250000938567
:1001C400A57C6377B500232005001105E36DB5FE1A
:1001D40093025002739002BC8D4273904280854218
:1001E400739012BC9302800873900230970200004F
:1001F400938242E193E2320073905230972200E0FE
:0C0204009382A295739012347300203096
:100210003737004083476780858B89CF8547230325
:10022000F780138741028357C7008507B3C70708C4
:100230002316F70073002030411102C42316010079
:100240002307010037470040834747809946BD8B0D
:100250006384D7063147638DE70611476397E70646
:10026000371600201D47938741023745004013068B
:10027000C6711308F03F83D6470093851600B3C5B7
:1002800005082392B70083458580B2962380B60087
:1002900083D647006374D800239207007D17137735
:1002A000F70F71FB03D767001D0733470708239338
:1002B000E7002396070011A88345578009651305B9
:1002C000C548972000E0E780600D410173002030B1
:1002D0002800972000E0E78020B33716002013782D
:1002E000F50F0147938741021306C6719308F03F4B
:1002F0009376F70F63E8060103D767001375F50FD0
:100300002A9765B783D6470093851600B3C50508BD
:100310002392B7002C00BA9583C50500B2962380BE
:10032000B60083D6470063F4D80023920700050780
:10033000C1B7011122CE26CC4ACA4EC852C656C4F5
:100340005AC2379400400347840083479400937651
:10035000F70F418BE304072A0347940093F7F70F45
:1003600013F97700418BE315070E8947E306F9027D
:100370009147E307F906631309428347F409A18B08
:1003800063870772372A002093074A7403C7070060
:10039000238BE18003C7170013064A74A38BE18007
:1003A00003D767002398E18003D7270083D747004E
:1003B000239AE1802399F18083CA618193FA0A0626
:1003C00063880A1683C7618193F70702638707145E
:1003D00083C571812D4593F7F50F6360B50285CB19
:1003E000FD1793F7F70FA94563E3F5028965938538
:1003F0004541B3C7B7209C4382871307100263812E
:10040000E7066369F70013070002638CE70013092E
:10041000F00F01A89387E7FD93F7F70F0547E3680F
:10042000F7FE03D701819307F003930A000463E604
:10043000E70083DA0181B3CA0A0803A481815686E2
:1004400013054A74A285971000E0E7808024569433
:10045000CA8A23AC81809307F00F639BFA2EE9AE22
:100460009387210323ACF1806DBFB7170020239E33
:10047000076E45BF83D72181D9FBB71A0020239E81
:100480000A6E03D701819307F0031304000463E6A7
:10049000E70003D401813344040883D5CA6FB7272A
:1004A000002093874778BE95228613054A749710DB
:1004B00000E0E780001E83D7CA6FA297B3C7070882
:1004C000239EFA6EB9BF83D72181B1F383D74181CF
:1004D00037170020A183A30FF76EA1B783D721811F
:1004E0009DF783D741813717002093F7F70F230F2C
:1004F000F76E05BF83D7218199FBB717002083C70B
:10050000F76F2300F60031BF83D72181E39107F015
:10051000B717002083C7E76FEDB703C9618113499F
:10052000090413596948330920411379F90FD5BDDE
:1005300083C571812D4593F7F50F636FB52E8965DE
:1005400093850544B3C7B7209C43828783D74181F5
:100550001D4613D487006361860205C89307F4FF24
:1005600093F7F70F19476361F70209671307074706
:10057000B3C7E7209C438287930710026307F40CFC
:10058000930720026304F40A0144930AF00F81A840
:1005900089679387C76303C4070023ACF18081A0F8
:1005A000B797004003C7A7001317476063570706B4
:1005B00005472385E180130700202396E18003C7C8
:1005C000A18085476310F70689679387475603C460
:1005D000370003C7270023ACF1802204598C83D74E
:1005E00001816374F4002398818003D7018193070C
:1005F000F003130B000463E6E70003DB0181334BD8
:100600000B0803A481815A8613054A74A2859710AA
:1006100000E0E78000085A942DBD23850180130770
:10062000000461BF89679387075D55B703C7A18041
:1006300085476318F70089679387C75123ACF1801A
:1006400079BF896793870754D5BF03D7218189472D
:10065000E31CF7F203C7A18085476319F700896798
:100660009387875B23ACF180254495BF8967938787
:100670004762CDBF83D74181094793F7F70F638A5C
:10068000E702636DF70095E3B71700209387876F44
:1006900003C4070023ACF180814A91B70D47E3956D
:1006A000E7EE89679387C74DFDB589679387C75084
:1006B000DDB589679387474FF9BD89679387074DF4
:1006C000D9BD83C6A1800547639DE60289679387EC
:1006D000075D03C4370003C7270089652204598CCE
:1006E000371500201306E4FF9385255D1305E561AA
:1006F000971000E0E780E0F9B71700209387C76103
:1007000035BF83C7A18093FAF70FE39F07E6896798
:100710009387475603C4370003C72700896522041F
:10072000598C371500201306E4FF93856556130591
:10073000A568971000E0E780C0F5B7170020938701
:100740008768EDBD83D7418193F7F70F2387F18049
:1007500083C761819397476063DC073203D70181C8
:100760009307000463E6E70083D70181B3C7070856
:1007700003D701811D8F334707082398E1803797FE
:100780000040231EF7089947230FF70837970040CA
:100790008347F70993F7F707A30FF7087244E2447A
:1007A0005249C249324AA24A124B056173002030B5
:1007B00083C7F1802300F60003D701818547E3F961
:1007C000E7F82398F18069B783D7418193F7F70F52
:1007D000A387F180B717002005472380E7708DBFFE
:1007E00083C76181FD8B99EF83D74181054793F7DB
:1007F000F70F6393E70483C7918093F7E70FA38410
:10080000F180B9B703C6618189477D8A6316F60214
:1008100083D7418193F7F70F85E383D721811307AE
:10082000200893F7F70F638EE702636FF700638F7B
:10083000C70211476386E704B79700401547238F27
:10084000E708A38FE70899B7130730086385E70225
:1008500013074008E392E7FEB79700402387070A93
:10086000C5BDB79700402383070ADDB53797004021
:10087000A303F70AF1BDB79700402385070AC9BD56
:10088000B7970040A387C70AE1B583C76181FD8B95
:10089000D1E783D74181054693F7F70F639AC702E3
:1008A00083C6A1806398F600896783C7B75693F71C
:1008B000070291EB83C7A180C1F3896783C7775D86
:1008C00093F70702B5DB83C7918093E7170005BF55
:1008D00083D74181894693F7F70FE39FD7F483D6F7
:1008E0002181930700106384F60283D62181930748
:1008F0000020638EF60083D6218193070030638841
:10090000F60003D7218193070040E313F7E483C780
:10091000C18193E70708238EF1801DBD03C6618165
:1009200089477D8AE316F6E283D7418193F7F70F73
:10093000E39007E283D721811307200893F7F70F8D
:100940006387E7046362F702638EC7041147E39588
:10095000E7EE379700408347F70A93F7C70F93E70F
:100960001700A307F70AEDB3130730086385E70400
:1009700013074008E392E7EC379700408347E70A04
:1009800093F7C70F93E717002307F70AD1B33797F9
:1009900000408347670A93F7C70F93E717002303C5
:1009A000F70A7DB3379700408347770A93F7C70F5D
:1009B00093E7170075BD379700408347A70A93F761
:1009C000C70F93E717002305F70A59B32300060062
:1009D000E5B383C6618123120A748947FD8A639E49
:1009E000F60883D721811307200893F7F70F638E4A
:1009F000E702636FF700638BD7041147638AE7064A
:100A000003D701818947E3F9E7E22398F1802DB507
:100A1000130730086389E70413074008E392E7FEF1
:100A2000B797004083C7E70A29A0B797004083C75C
:100A3000670A8D8B05476394E7002300F60083D790
:100A40000181E3F7F6D02398D18019B3379700409E
:100A50000347770A85460D8B6314D7002300E60011
:100A600003D70181A9BBB797004083C7A70AD1B7B5
:100A7000B797004083C7F70A6DBF03C761817D8BBD
:100A800065F303C79180058B61DF2300F600C9BFC2
:100A900083D7018189EBB7970040239E0708194748
:100AA000238FE708E5B1B7970040194759BBA30F5B
:100AB00004080359C40783C761813349090893F7C0
:100AC0000706B5C32398018083C67181130700020E
:100AD0006390E60637270020130747748346070014
:100AE000938741022387D70083461700A387D70047
:100AF000834627002388D70083463700A388D70082
:100B0000834647002389D700834657000347670081
:100B1000A389D700238AE7007947A38AE7009710C3
:100B200000E0E780C0C983D70181E39107C6A5B77C
:100B300003C77181A547E318F7FEB719002003D555
:100B4000C96FB727002093874778B72500203E95C7
:100B50004A8693854574971000E0E78080B383D779
:100B60000181B3872741B3C707082398F18083D752
:100B7000C96FCA97B3C70708239EF96E8347F40964
:100B800093C74700A30FF4088347F409918B93E7B9
:100B90002700A30FF40841BF03574408938741027D
:100BA0009376F70F03C6870021832384D70083C67B
:100BB0009700A384E7000347740A13474700A30381
:100BC000E40A0347740A1377C70FA303E40AA38553
:100BD00007008347740A93F7F707A303F40A7DBE5F
:100BE0008347F40A93C74700A307F40A8347F40A2C
:100BF0009386C1241386C10493F7C70FA307F40A91
:100C00000357C408814733470708B3C5070863E59E
:100C1000E502B79700402396E70A03C7E70A137770
:100C2000C70F136727002387E70A03C7F70A13775D
:100C3000F707A387E70A9DB6B385C70083C50500FC
:100C40003385D700850793C5F5FF2300B50075BF31
:100C50000D47630AE916918BB9E7630C09088947C8
:100C6000E31EF9B22312040A8347640A93C74700BC
:100C70002303F40A8347640A93F7C70F2303F40A94
:100C80009387C10303C727001377E70F2381E7008A
:100C900093874102238507008347640A93F7F70788
:100CA0002303F40AE5BC9147E31AF9AE8347E40A4B
:100CB00093C747002307F40A8347E40A93F7C70F53
:100CC0002307F40A9387C10303C747001377E70F8D
:100CD0002382E7008347F40A93F7C70F93E72700BF
:100CE000A307F40A8347E40A93F7F7072307F40AF4
:100CF00075B483D7018181E79947A30FF40883C7AF
:100D0000618193F70706BDEF83C77181954613F79D
:100D1000F70F638CD70899476312F70A03D701814D
:100D20009307F0031304000463E6E70003D4018192
:100D30003344040803A98181372500202286CA850F
:100D400013054574971000E0E780A09483D70181D4
:100D5000229923AC2181818FB3C707082398F180A2
:100D6000B7970040239E870803C7E709134747004A
:100D7000238FE70803C7E7091377C70F1367270017
:100D8000238FE70883C7C1819397476063D6070025
:100D9000971000E0E78020BB379700408347E709C2
:100DA00093F7F707230FF708D5BA83C7E180379782
:100DB000004093F7F70FA301F700E9B7B79700409A
:100DC000239E0708C1B78347A40A93F7C70F2305DB
:100DD000F40A8347A40A93C747002305F40A9387BC
:100DE000C10303C737001377E70FA381E7008347E9
:100DF000A40A93F7F7072305F40A4DB2834784004A
:100E000093F7070491C7930700042304F40079B211
:100E100093F7260085CB89472304F4000347A400F9
:100E2000118B11CB03C7918013672700A384E18046
:100E300083C79180A5B203C791801377D70FA3848E
:100E4000E180A9BA93F716009DC3A3870180238789
:100E50000180A3840180B717002023800770A301BD
:100E60000400971000E0E78000BB854779BF2304AA
:100E7000D4002DB2411122C683A7018291C783A756
:100E80000182829723A00182324441017300203005
:100E9000B7170040984B41111367070198CB03C760
:100EA00007011377E70F2388E700130780087337DC
:100EB0000780137787083AC60F10000013077005E4
:100EC0002380E704130780FA2380E7040F10000053
:100ED0001307000C6319E50203D787001367070C9B
:100EE0002394E700B717004003C7070113671700F3
:100EF0002388E70023800704B247F3A707800F1079
:100F000000004101828003C7A70093760520C9C273
:100F1000118B39E703C7E70403C6E7041377F70F1C
:100F2000136636002387C70403C6A700136646006E
:100F30002385C70003D6870083D58700334606087C
:100F400093E5050C2394B700A5470100FD1793F71F
:100F5000F70FE5FFB71700402394C7002387E70486
:100F600093770510DDCB371700408347A70093E741
:100F700007012305F7009377F50185E3B7270040C4
:100F800003C7578013670701A382E7801D4715A099
:100F9000136727002385E700E1B72547636BF70454
:100FA000B727004003C757801377F70EA382E78067
:100FB0000547A383E78033450508B717004013674B
:100FC000050C2394E7002394A700C9C203C7570464
:100FD00083C65704418B858A558F09F703C72701BC
:100FE000418B09D303C7A7001377D70F2385E700E9
:100FF000D5BD9377050199EBB727004003C757800C
:101000001377F70EA382E780094765B7B72700403B
:1010100003C757801377F70E85BF9377850181EF5C
:10102000B727004003C757801377F70EA382E780E6
:1010300013071005BDBFB727004003C757801377BC
:10104000F70EA382E78013077005A5B703C7A700B3
:101050001377B70F61BF37E700E01C4354437D5659
:10106000A183E206D58F9306071890C2D0C2B706B7
:1010700000203716002093850600130606E703A814
:10108000850390DD23A0A1829165130507100CC193
:10109000130707200CC39386060003A7018275FF80
:1010A00037E700E011662320C7180F10000023ACBB
:1010B0000603939687002320D710E1832322F7109D
:1010C0008280170300E0E702C359411181460146BF
:1010D00081451145F52A93078008F3B7078093F7F8
:1010E00087083EC60F100000B717004013077005B1
:1010F0002380E704130780FA2380E7040F10000021
:1011000003C76704136717002383E70423800704DA
:10111000B247F3A707800F1000004101170300E05A
:101120006700635637E700E01C435443A183E2069F
:10113000D58F1CC1FD572320F7182322F718828072
:1011400013178500B7E700E023A0E710618123A211
:10115000A7108280411181460146814511458D2AA3
:1011600013078008F337078093F787083EC40F10F2
:101170000000B7170040130670052380C7049306CC
:1011800080FA2380D7040F100000FD552396B70284
:1011900023800704A245F3A505800F1000007337D4
:1011A0000780137787083AC60F1000002380C70412
:1011B0002380D7040F10000003C7670413671700CC
:1011C0002383E70423800704B247F3A707800F10A7
:1011D000000001A09307E0043305F502954733555D
:1011E000F50201007D1575FD8280170300E0E7021E
:1011F00043472A841305803E7D14E93F33440408A5
:1012000075F8170300E0670003482E96AA870F7051
:10121000B67882802303048015472303E48001000D
:101220002302A480828083076480E3CE07FE230329
:101230000480828083076480E3CE07FE03454480F8
:10124000828083076480E3CE07FE2302A48082802D
:10125000411126C44AC24EC006C61377F50BAD47EE
:10126000AA892E8995446306F70019456537653FBD
:101270008D444E854537FD59FD1463983401B240C5
:10128000A244124982494101828013550901137514
:10129000F50F453F2209CDB7011126CC06CEB70484
:1012A000080051371545BD37713769372AC6A53F44
:1012B00032459377150089EB136515001375F50F0B
:1012C000F240E24405618280FD14E9FC0145CDBF96
:1012D0003971B7F7070006DE26DC4ADA4ED852D657
:1012E00056D45AD25ED062CE03AB47027D57B7E7E1
:1012F00000E083AA070022C603AA470023A0E7183C
:1013000023A2E718B71B0040930770052380FB0456
:10131000930780FA2380FB0483C74B041147AA89F3
:1013200093E7070E2382FB04372400401305F00FD8
:101330002303E4802E8C3289B684E93DED35938712
:1013400079FF93F7F70F0947137BFB006362F712EE
:10135000A147370708006307FB00B70707003E9C5B
:10136000378707007955637EEC02B3878401636A8F
:10137000F702A9476398F90689E481446D3526850B
:101380000DA0E2850945E93505090345F9FFFD147E
:10139000050C453D81C49377FC0FFDF7F53D69FDD4
:1013A0007D55B7170040130770052380E704130726
:1013B00080FA2380E70403C74704418B2382E704B4
:1013C000F250B7E700E023A0571123A24711E254DF
:1013D00032445259C259325AA25A125B825B724C41
:1013E00021618280A547639AF906A1478569631D3B
:1013F000FB029387F9FFB3869700B374FC00B694A1
:1014000093C7F7FFFD8C33FC8701416B856B938796
:10141000F9FFB3F7870199E363FF340193D94900DA
:10142000C147E3E637FF91BF9307F00FE9B7856740
:10143000C169FD17C9B71305800D638869011305DC
:1014400000026384790113051008E2851135A9357E
:1014500021D94E9CB3843441C1B7E2852D45CD3BA3
:10146000CA94E30C99F00509F133A30FA9FED5BF87
:101470009387F9FF93F7F70F636FF70AA147631993
:10148000FB06B70708003E9C83C75B0437070700CD
:1014900093F7070299E337870700B70708003E97DD
:1014A0007955E370ECF0B3079C00E36CF7EE8947E5
:1014B000639AF9048980D549E38104ECE285094502
:1014C000413B11090327C9FF91472320E48003070B
:1014D0006480E34E07FE23033481FD17EDFBFD140A
:1014E000110C81C49377FC0FE9FF7D3371F54DBD7D
:1014F00083C75B043707070093F70702D5F33787E5
:10150000070079BF8547E384F9F2E2852D458933E9
:101510009389F4FFE38304E6313B93F7390091EBC1
:10152000832604800327090093074900E398E6E433
:101530003E89CE84F1BFB5476396F9001305900B41
:10154000D13925BDB1471305B00AE38BF9FE9947A0
:101550006394F904A1476315FB00B70708003E9C9C
:10156000E2852D45F53181440D4BA149E13163966A
:101570006401832704802320F9008504E39834FF65
:101580008327048013172C01635507002312F900E9
:10159000EDB32322F900D5B39D476399F902814544
:1015A0001305B0047531BD4423200900232209002E
:1015B000FD59493193F77400CA9703C70700FD141A
:1015C000398D2380A700E39634FF45BB914763998B
:1015D000F900130560063D39B931130590098DB73F
:0815E000E38D09D8F15459BB59
:1015E800971100209381019117F10120130101A1A6
:1015F8001305400097F5FF1F938545A017F6FF1FB9
:10160800130686C063FAC5008322050023A055008F
:1016180011059105E3EAC5FE17F5FF1F1305E5B3AC
:101628000285397101436EC619A0397141536AC8E0
:1016380066CA62CC5ECE19A0397101535AD056D20F
:1016480052D44ED64AD826DA22DC06DE330161406F
:10165800828241114AC026C222C406C68282B24D85
:101668004101024D924C224CB24B4101024B924A2D
:10167800224AB2494101024992442244B2404101FE
:1016880082802A8309CA83830500230073007D169C
:10169800050385056DFA8280938741022390070030
:1016A800239107002392070023930700238507004F
:1016B8000547A385E700239607000DC52387070084
:1016C800930620FCA387D7002388E700A388070098
:1016D80023890700A38907002147238AE700794760
:1016E800A38AE7008280EFF23FF5B717004013079F
:1016F800000823ACE70AAE89AA84854513050004CF
:10170800328936846D218D45130500084D214E859B
:10171800992DB7470040130770F82381E7800D47DC
:10172800A381E78013070004A380E7800547238788
:10173800E7806318E90003C7378013674700A38170
:10174800E78085476317F4023747004083473780AF
:1017580093E78700A301F7800D451D2D95450545A5
:10176800A925B7E700E0094723A2E71026852D370A
:10177800F5BD89476319F400374700408347378030
:1017880093E78701C1BF8D476319F40037470040CD
:101798008347378093E7870275BF9147E31EF4FAC2
:1017A800374700408347378093E7870365B7EFF2F1
:1017B8005FEA9387410203C7170183C6070183C500
:1017C800F70003C6E700C20662073697329703C6DA
:1017D800270183C63701A205BA9501452937B7976E
:1017E8000040138741C298D703C7770A1377C70FFA
:1017F800A383E70A03C7770A13672700A383E70AC7
:101808009DBDEFF21FE59387410283D787001384BC
:1018180041028DC703550400854593071500B3C7DA
:1018280007082310F400938741C23E955D23835730
:101838008400FD17B3C707082314F4008347B400D6
:1018480095E7835784009DE3231004008547A3058B
:10185800F40037970040938741C21CD78347770A23
:1018680093F7C70F93E72700A303F70A29B5EFF209
:101878005FDE9387410283C7A700CDEF93844102BF
:1018880083D7640033C40708D5C703D7C1807D1741
:101898006357E40083D6C4007947637DD70803D72C
:1018A800240093060040229763D9E60003D724005A
:1018B80013040040198C3344040803D7C1806367BC
:1018C800E40003D4C1807D143344040883D7640042
:1018D800372500202286818FB3C707082393F40099
:1018E80083D52400B71700209387C771BE951305C9
:1018F8004554413B83D72400A297B3C707082391D7
:10190800F40003D724009307F03F63F4E700239122
:10191800040085472385F400379700402312870A7F
:101928008347670A93F7C70F93E727002303F70A4C
:101938002396040089B383C7C18193F7F707238EE1
:10194800F18083D62181130700106399E602B797C7
:10195800004003C757001377070FA382E70003C7A8
:10196800570013671700A382E700379700408347A3
:10197800570093E70708A302F700828083D62181E6
:1019880013070020639FE600B797004003C757007E
:101998001377070FA382E70003C7570013672700D1
:1019A800D9B783D6218113070030639FE600B79724
:1019B800004003C757001377070FA382E70003C748
:1019C80057001367870045B703D721819307004065
:1019D800E31DF7F8B797004003C757001377070FC1
:1019E800A382E700371700201307475EF8C71307DD
:1019F80050032396E70A09472387E70A03C75700D6
:101A0800136747008DB7B797004075472398E700DD
:101A180055472399E70013070004F8CF1307002060
:101A2800F8D3B8D7F8D7372700201307477498D3C7
:101A3800138741C298D73727002013074754F8C3A4
:101A48001387C144D8D71387C124F8C71387C104A3
:101A580098DB239E0708238F07080947A38FE70809
:101A68002392070A2383070AA383E70A2394070A12
:101A78002385070A2396070A2387070AA387E70A05
:101A880081471387C103C1463306F70023000600C8
:101A98008507E39BD7FE828031C5EFF29FBB379461
:101AA800004091472300F420371700408357A701CF
:101AB80093E70702231DF700A5472300F4009307C7
:101AC800F0052301F40081378547A300F40093074C
:101AD80080FB2300F40013070002B7E700E023A20D
:101AE800E71051BEB797004003C70720B71600405C
:101AF8001377B70F2380E720984E1377F7FD98CE1A
:101B080003C70700136727002380E70003C7070000
:101B18001377D70F2380E700B7E700E01307000229
:101B280023A2E7180F1000008280EFF29FB2B717C8
:101B38000040116723ACE70AC1450545C52885451E
:101B48002165B5208D4511659D20FD222DB6EFF24A
:101B58005FB01305503497F0FF1FE780E032F1378C
:101B6800096513058549EF00900409651305058685
:101B78006122373700408347278037E400E0F1656A
:101B880093E717002301F780B70700022320F4101A
:101B980081460146938505200545B1360545ED3D4D
:101BA800930700022322F410D931A139F5BF9147D8
:101BB80063EAB704896793870765B3C5F520984139
:101BC800B71700409387470B0287944337170040A5
:101BD800B3F6A64094C39306070B9C42B3F7A740FD
:101BE80019A8944337170040B3F6A64094C3930648
:101BF800070B9C42C98F9CC29307070A9843337707
:101C0800A74098C38280944337170040C98ED9B73C
:101C180098433377A74098C3B71700409387070ABC
:101C28009843498FF9BF9843498FF5B709C93717C2
:101C3800004083578701CD8F231CF7008280B71798
:101C4800004003D78701B375B740239CB700828053
:101C5800B717004003D787009306000C1377070CCB
:101C6800630FD70403D78700137707101DC703D75F
:101C7800870083D787007D8B09EB93F70720A1C7DF
:101C88003755E80113050580828037C59812FD8B0A
:101C9800130505E03345F502828003D7870083D713
:101CA800870013770720FD8B11C73755E801130507
:101CB8000580CDB73725F40013050540E1BF216540
:101CC800130505D082803725F4001305054082806E
:101CD8003285814737370040A14663C3A700828019
:101CE8000346B700E30ED6FE3386F500034606002A
:101CF80085072304C700D5B7B73700401387C780C7
:101D080008C309472380E78011472380E780828042
:101D1800EFF23F942A842D3F2947B307E5028D83CC
:101D2800B3D787029507B3D7E70237370040B3C761
:101D380007082316F70081B2EFF2BF91716513050A
:101D48000520F937B7370040130770F82381E700FB
:101D58000D47A381E70013070004A380E7000547A8
:101D68002387E70009BAEFF2DF8E2A84D5352947A1
:101D7800B307E5028D83B3D787029507B3D7E70288
:101D880037470040B3C707082316F7806FF0BF8EA8
:101D980037470040834727801A0593F7F703C98F11
:101DA80093F7F70F2301F7808280B747004003C7F6
:101DB800178019C94D8FA380E78003C70780136771
:101DC80087002380E7808280B375B740A380B780FF
:101DD8008280AA95B74700402147B7460040631361
:101DE800B500828003C6B780E30BE6FE0346050014
:101DF80005052384C680E5B78147374700408346F9
:101E0800A78081E633C50708828003468780B3062A
:101E1800F50085072380C600DDB7011106CE2EC662
:101E280015CD1841AA8705C358417D5511CB854664
:101E3800631BD70098472300070023A20700054526
:101E4800F240056182809847B2462300D700984740
:101E5800050798C7D8437D17D8C3D5B705466C0082
:101E6800853DF1BF011122CC26CA52C456C25AC0C0
:101E780006CE4AC84EC62A8AAE8A3284BA8413FB72
:101E88001600634A06082E853689852BAA8963526F
:101E98008508635D9502058C63190B08130B000216
:101EA8002289634F200701493369240B33042441F5
:101EB80063D99902B3843441A689930500035285F6
:101EC800FD19A13FE39B09FE269921A8098C1379E6
:101ED8002900E30309FCE9F063010B040149130B32
:101EE8000003CA84B3872441D69783850700B1E1EC
:101EF8002289634420058147F2403365F40A62442D
:101F08004249B249224A924A024B2695D244056177
:101F1800828001446DBF814941B7130B000349B763
:101F2800DA855285DD3D7D19ADBF130B00020149ED
:101F380041B75285DD35850475B7DA855285F13D9F
:101F48007D1945BF397126DA4ED606DE22DC4AD81D
:101F580052D456D25AD0BA84BE8985E59307000375
:101F68000147CE8626862C002314F100E53DF25069
:101F78006254D2544259B259225A925A025B216190
:101F880082802A893684C28A468B91CAA94701442D
:101F98006317F60063D50500B305B0400544A30FE9
:101FA80001001307F101A54613856AFCB3F7C502C2
:101FB80063D3F600AA9793870703A30FF7FE130AC4
:101FC800F7FFB3D7C50263F5C50411C8A9C493F7D1
:101FD8002900B1C39305D0024A858135FD1493F7D2
:101FE800490099CF93071006930500034A85639C1F
:101FF800FA022535930580074A8505350904F91441
:102008005A87CE862686D2854A85A93D229585B7E8
:10201800BE85528761BF9307D002A30FFAFE014421
:10202800130AE7FF6DBFD53B93058005F1B701455E
:1020380082800145828039715AD0096B22DC26DA08
:102048004AD84ED652D456D25ECE66CA6AC806DE82
:1020580062CCAA892E893284014A8144930B5002AA
:10206800930AD002A54C294D130BCB6683050900B2
:102078008DE56385090081454E854533F2506254EC
:102088004259B259225A925A025BF24B624CD24CD4
:10209800424D2685D25421618280638775014E8521
:1020A800AD3B85040509D9B783071900130C19003E
:1020B80063997701930550024E85853385046289BB
:1020C800D5B7C5DB6386570363CCFA001307300224
:1020D8006387E7041307B0026380E704814721A8F8
:1020E80013070003E39CE7FE130C2900894721A08E
:1020F800130C2900854703070C00630D570363C4BD
:10210800EA0293063002630AD7029306B002630814
:10211800D7026289014625A8130C2900C1B7130C00
:1021280029009147C9BF93060003E314D7FE93E73C
:10213800270031A0050C8547E9BF93E74700050C48
:10214800C9BF3306A6031317476005093A968306E5
:102158000900138706FD9375F70FE3F4BCFE130718
:10216800E0029945639FE60005098145A54629488F
:1021780003070900130707FD1375F70F63F9A60294
:102188002E8A830609001307C0066380E6046347A6
:10219800D70213078006638BE6061307A006638E33
:1021A800E6061307C004638AE60601473DA0B38527
:1021B8000503131747600509BA955DBF1307400764
:1021C800638DE6041307A007F9BF030519000D473F
:1021D8006314D5000509114705098306090013058D
:1021E8000006635ED50213058007E34DD5EA1305A3
:1021F8002006E359D5EA9386D6F993F6F60F5545A6
:10220800E362D5EAB3C666219442828603051900C3
:102218000147E314D5FC0909C9B7050979B71305BE
:1022280070046345D50213074004634ED7121307A1
:102238003004E399E6E61840130C4400A3060100B5
:102248002306E100BE8601476C0099A0930580052E
:1022580013081004E398B6E49146631ED706930565
:102268007400E19913848500C2883E880147B287CB
:10227800C146D0418C414E855D3BAA9425B50C40A2
:10228800130C440081E58965938545665287BE86AF
:102298004E85C93E1DA89146631ED700930574005C
:1022A800E1993E881384850093081006B287054794
:1022B800A946C1B7130C4400D28813081006328708
:1022C800854629460C404E85B539AA946284D9BB07
:1022D8001308100651B7130C4400D2883287814680
:1022E8004146CDB79146631DD70093057400E19927
:1022F8003E881384850093081006B28701474DBFB6
:10230800130C4400D288130810063287814655BF43
:10231800914693E74700631AD70093057400E19943
:10232800138485009308100689B7130C4400D288DB
:102338001308100665B79146631ED700930574000D
:10234800E1993E881384850093081006B2870147F7
:10235800A14605B73287130C4400D288130810062B
:102368008146214685B793081004130574006199C6
:102378003E883287AE8750410C4113048500A94638
:102388004E854539DDBD93081006C5B739712ED283
:1023980032D4AA855010014506CE36D63AD83EDA50
:1023A80042DC46DE32C64139F240216182800111A9
:1023B80022CC26CA06CE83070500AA840144A307B7
:1023C800F100050485E3A9479305F1000546014599
:1023D800A307F100EFF0DF8FF24022856244D24478
:1023E8000561828005469305F1000145EFF05F8E97
:1023F800B387840083870700D9B7AA8703C7070074
:1024080085076DFF3385A7407D1582807004002005
:10241800F0040020040500200A0400200A0400201B
:102428000A0400200A0400200A0400206604002090
:10243800C2040020D8040020CE090020DC070020B8
:1024480034080020860800203408002040070020B7
:102458004805002034080020AC070020C4070020ED
:10246800C80900204C0700208C0500209C0500208E
:10247800700600208405002084050020B606002090
:10248800BE0600206572726F723A25780A00000055
:1024980053696D756C617465204344432D48494404
:1024A800204465766963652072756E6E696E672073
:1024B8006F6E20555342485320436F6E74726F6C91
:1024C8006C65720D000000000A060002FFFFFF4065
:1024D80001000000160330003100320033003400E0
:1024E8003500360037003800390000001603550063
:1024F800530042002000530065007200690061002B
:102508006C0000000E037700630068002E00630073
:102518006E0000000600FF0901A101090226FF0064
:1025280075201500958081060902150026FF0075A3
:102538002095809106C000000600FF0901A101094D
:102548000226FF007508150095408106090215004E
:1025580026FF00750895409106C0000009026B002F
:102568000301008032080B00020202010009040086
:1025780000010202010005240010010524010001E8
:102588000424020205240600010705830300020152
:1025980009040100020A0000000705020200020007
:1025A800070582020002000904020002030000007D
:1025B800092100010001222200070584030002010D
:1025C800070504030002010009026B0003010080F3
:1025D80032080B0002020201000904000001020295
:1025E8000100052400100105240100010424020251
:1025F80005240600010705830340000109040100C2
:10260800020A0000000705020240000007058202D6
:102618004000000904020002030000000921000133
:102628000001222200070584034000010705040376
:10263800400001001201000200000040861A0CFE52
:102648000100010203010000D21B0000EA1B000088
:102658000E1C0000181C00002E1C0000286E756C53
:102668006C2900003E2200009E2200008E230000FC
:102678008E2300008E230000AC200000AC20000058
:10268800AC200000AC200000AC200000AC20000012
:10269800AC2000003E23000018230000AC200000FE
:1026A800AC20000086220000AC200000EC220000D4
:0C26B800AC200000AC200000D822000084
:1026C400000000000000000000AAAAAAAAAAAAAA60
:1026D400AAEEEEEEEEEEEEEEEEFEFFFFFFFFFFFFE4
:1026E400FFFFFFFFFF7FBFDFEFF7FBFDFC7EBFDFD8
:1026F400EFF7FBFD7E00000009070000000000006A
:1027040000000000000000000000000000000000C5
:1027140000000000000000000000000000000000B5
:1027240000000000000000000000000000000000A5
:102734000000000000000000000000000000000095
:102744000000000000000000000000000000000085
:102754000000000000000000000000000000000075
:102764000000000009070000000000000000000055
:102774000000000000000000000000000000000055
:102784000000000000000000000000000000000045
:102794000000000000000000000000000000000035
:1027A4000000000000000000000000000000000025
:1027B4000000000000000000000000000000000015
:1027C4000000000000000000000000000000000005
:0827D4000000000004030904E9
:00000001FF
