:040000006F00D07548
:10000400000000000000000000010020180900208A
:10001400A9BDF9F300010020000000000000000069
:10002400000100200001002000000000000000008A
:1000340068060020000000009C0A00200000000068
:100044004C0B00204C0B00204C0B00204C0B0020D0
:100054004C0B0020000100204C0B0020000000008D
:100064004C0B00204C0B00204C0B00204C0B0020B0
:100074004C0B00204C0B00204C0B00204C0B0020A0
:100084004C0B00204C0B00204C0B00204C0B002090
:100094004C0B00204C0B00204C0B00204C0B002080
:1000A400000100204803002000010020000100207E
:1000B40000010020000100200001002000000000D9
:1000C40000010020000100201A0600200001002089
:1000D4000001002000010020000100200001002098
:1000E4000001002000010020000100200001002088
:1000F4000001002000010020000100200001002078
:100104006F000000B7170040984B411113670701B7
:1001140098CB982B1377E70F98AB130780087337A6
:100124000780137787083AC60F100000130770057D
:100134002380E704130780FA2380E7040F100000EC
:10014400B847B70600069506558FB8C703C7B70466
:100154001377F70DA385E704B82713672701B8A71A
:10016400130750149AA7372700408346578093F605
:10017400F60EA302D7808946A303D78003C7E704FA
:100184001377C70F136717002387E70403C7F70222
:1001940013672700A387E702982B1367170098AB10
:1001A40023800704B247F3A707800F100000410122
:1001B4008280EFF03FF51305C02797050000938573
:1001C400E50B17160000130666D963FCC5008322ED
:1001D400050023A055001305450093854500E3E879
:1001E400C5FE175500E0130525809715000093857B
:1001F400E5D617160000130666DB63FCC5008322F0
:10020400050023A055001305450093854500E3E848
:10021400C5FE17150000130565D9973500009385B1
:10022400659D6378B5002320050013054500E36C44
:10023400B5FE93025002739002BC93023000739097
:10024400428093020000739012BCB7220000938294
:10025400028073900230970200009382A2DA93E244
:10026400320073905230971200E09382A2EF7390A1
:08027400123473002030000079
:10027C00411122C406C6174400E01304A4A222852F
:10028C00971000E0E780007E1305803E972000E089
:10029C00E780201CEDB7411122C406C6174400E0CC
:1002AC001304C4A02285971000E0E780A07B1305FF
:1002BC000032972000E0E780C019EDB741110146EC
:1002CC008145174500E01305E59E22C406C626C2EB
:1002DC0017140000130404CD971000E0E78020FCF5
:1002EC0008C039C185450565973000E0E78080740A
:1002FC0089450565973000E0E780E07BB7E700E0D3
:10030C003707020023A0E710974400E09384449B36
:10031C000840FD55971000E0E78020FB26859710DC
:10032C0000E0E7802074EDB72244B24092441745B8
:10033C0000E01305E5994101171300E06700837293
:10034C00B717004083D7C7094111056722C406C6F9
:10035C0033C40708F98F89CB17150000032585C412
:10036C00971000E0E78040FFB7170040B240239E93
:10037C008708224441018280171500000325C5C25D
:10038C008280411122C42A8406C689259717000051
:10039C0023AC87C02244B24041013DAD1717000089
:1003AC00130787C01C43411106C685071CC339229D
:1003BC003C41FD173CC181E75C5D3CC11922B24058
:1003CC00410185AA18415C415CC398C348C108C16E
:1003DC0082805C418CC3DCC14CC188C182801C41D1
:1003EC003385A7401335150082809717000083C70B
:1003FC00E7BB850717170000230AF7BA8280971707
:10040C00000083C7A7BAFD17171700002300F7BA1F
:10041C00828018415C415CC398C348C108C182808A
:10042C005C418CC3DCC14CC188C1828018415C41E9
:10043C005CC398C348C108C182801C413385A74066
:10044C00133515008280411122C406C641238397BF
:10045C00C1832A84A1E303A50184971000E0E780FF
:10046C00606A7D159387812FB367F520138781838D
:10047C008C431C439386C5FE638ED700238AA182CE
:10048C0014C317170000034767B21385C701A105F2
:10049C0019E78D2322852244B240410135ABA122BC
:1004AC00D5BF5C418CC3DCC14CC188C18280184172
:1004BC005C415CC398C348C108C1828003A5818399
:1004CC008280011122CC26CA06CE092303A4818383
:1004DC00834744030547AA84BD8B639CE7025848B5
:1004EC001C4C6308F702930544012E852EC6C137B8
:1004FC0003455403B2459387812F3365F520553757
:10050C002685D9298937F2406244D24401450561D8
:10051C0082802685D121C5BF18415C415CC398C33C
:10052C0048C108C182801C413385A7401335150092
:10053C00828079713C0006D626D24AD04ECE52CC5F
:10054C005AC83EC63EC422D456CA3D35AA84B70901
:10055C000080AD292A89138A8184F9190D4B5285A3
:10056C00D93709CD4A858D29B2502254925402595B
:10057C00F249624AD24A424B4561828003240A0006
:10058C005C48930AC4FEB387F440E3EDF9FC56854E
:10059C00972000E0E78020F5834754FF13F72700EE
:1005AC0001E7F99BA30AF4FEA2474844C0C31CC050
:1005BC003C005CC01C4422C482977D3BAA8428006A
:1005CC009D3751FD2285893F834754FF13F7370030
:1005DC00E31767F9F99BA30AF4FE5685972000E010
:1005EC00E78060F9ADBF93870185984319E323AC8D
:1005FC00A18423AAB184054798C3B7E700E011672B
:10060C0023A0E72082801C413385A74013351500B9
:10061C008280B7360040DC22194613F7F70FBD8BEA
:10062C006386C702937777001147639AE7024111FB
:10063C0022C426C206C6373400409384C1433C24EE
:10064C0081EBB2402244924441018280DC328280B0
:10065C000C242685973000E0E780C001CDB782805E
:10066C0069332D3BB7F700E023A20700493B730029
:10067C00203093874187984309C79C43829723AACC
:10068C00018673002030B7170040984B4111136757
:10069C00070198CB982B1377E70F98AB13078008BB
:1006AC0073370780137787083AC60F1000001307BB
:1006BC0070052380E704130780FA2380E7040F10EA
:1006CC0000001307000C6315E5029A271367070C4B
:1006DC009AA7B7170040982B1367170098AB238085
:1006EC000704B247F3A707800F1000004101828076
:1006FC00B82793760520ADCA118B29E303C7E7040D
:10070C0003C6E7041377F70F136636002387C70475
:10071C00B02713664600B0A792278E2733460608EB
:10072C0093E5050C8EA7A5470100FD1793F7F70F6E
:10073C00E5FFB717004092A72387E70493770510CE
:10074C00DDC3371700403C2793E707013CA793779D
:10075C00F50199EFB727004003C7578013670701CE
:10076C00A382E7801D470DA013672700B8A7F9B730
:10077C0025476366F704B727004003C757801377F4
:10078C00F70EA382E7800547A383E780334505086E
:10079C00B71700401367050C9AA78AA7B5CE03C7F5
:1007AC00570483C65704418B858A558F1DF3B82B8C
:1007BC00418B05D3B8271377D70FB8A719BF9377F9
:1007CC00050199EBB727004003C757801377F70E45
:1007DC00A382E78009474DBFB727004003C7578066
:1007EC001377F70EB5BF9377850181EFB7270040DC
:1007FC0003C757801377F70EA382E7801307100502
:10080C0061B7B727004003C757801377F70EA38251
:10081C00E780130770058DBFB8271377B70F71BF2B
:10082C0037E700E01C4354437D56A183E206D58F85
:10083C009306071890C2D0C2170600001306A6E351
:10084C0097F6FFFF9386867B8C5E90DE23AAA186AB
:10085C0011661305071010C1130707201388418771
:10086C0010C30327080075FF37E700E0116623204B
:10087C00C7180F1000008CDE939687002320D7102A
:10088C00E1832322F71082800111814601468145C4
:10089C00114506CE552693078008F3B7078093F7CA
:1008AC0087083EC60F100000B717004013077005ED
:1008BC002380E704130780FA2380E7040F1000005D
:1008CC0003C76704136717002383E7042380070417
:1008DC00B247F3A707800F100000F2400561828039
:1008EC0037E700E01C435443A183E206D58F1CC1BB
:1008FC00FD572320F7182322F71882801317850041
:10090C00B7E700E023A0E710618123A2A710828043
:10091C0041118146014681451145392E1307800846
:10092C00F337078093F787083EC40F100000B71702
:10093C000040130670052380C704930680FA2380B9
:10094C00D7040F100000FD55CEB723800704A24535
:10095C00F3A505800F100000733707801377870805
:10096C003AC60F1000002380C7042380D7040F1051
:10097C00000003C76704136717002383E704238071
:10098C000704B247F3A707800F10000001A09307DC
:10099C00E0043305F50295473355F50201007D154A
:1009AC0075FD8280411122C406C62A841305803E3F
:1009BC007D14F13F3344040875F8B24022444101E0
:1009CC0082802E96AA870F70B67882807375043059
:1009DC00010001008280000073100530828000004D
:1009EC0003210500896293820288739002306F00A4
:1009FC002005000019712320250006C006C212C470
:100A0C0016C61AC81ECA22CC26CE2AD02ED232D452
:100A1C0036D63AD83EDA42DC46DECAC0CEC2D2C4A2
:100A2C00D6C6DAC8DECAE2CCE6CEEAD0EED2F2D432
:100A3C00F6D6FAD8FEDA03A105006F0060000000BC
:100A4C0009651305058873100530024573101534BC
:100A5C0092402242B2424243D2436244F244025593
:100A6C0092552256B2564257D2576258F2580649FE
:100A7C009649264AB64A464BD64B664CF64C065D12
:100A8C00965D265EB65E465FD65F096173002030C8
:100A9C0000000000197106C212C416C61AC81ECA7C
:100AAC0022CC26CE2AD02ED232D436D63AD83EDA22
:100ABC0042DC46DECAC0CEC2D2C4D6C6DAC8DECA52
:100ACC00E2CCE6CEEAD0EED2F2D4F6D6FAD8FEDA02
:100ADC009305000273A04580138401852320040034
:100AEC00732510342AC013848185044023A024006C
:100AFC0013844185044003A104000245731015348E
:100B0C0092402242B2424243D2436244F2440255E2
:100B1C0092552256B2564257D2576258F25806494D
:100B2C009649264AB64A464BD64B664CF64C065D61
:100B3C00965D265EB65E465FD65F09617300203017
:100B4C0000000000EFF07F8AF325203493952500F8
:100B5C0017F5FFFF130585503305B5000325050078
:100B6C007310013417F1010013014149E70005002E
:100B7C0073210034EFF0BF8873002030230304800E
:100B8C0015472303E48001002302A480828083079D
:100B9C006480E3CE07FE2303048082808307648095
:100BAC00E3CE07FE03454480828083076480E3CE56
:100BBC0007FE2302A4808280411126C44AC24EC083
:100BCC0006C61377F50BAD47AA892E8995446306A3
:100BDC00F70019456537653F8D444E854537FD59FE
:100BEC00FD1463983401B240A24412498249410178
:100BFC008280135509011375F50F453F2209CDB7B6
:100C0C00011126CC06CEB704080051371545BD3767
:100C1C00713769372AC6A53F32459377150089EBA2
:100C2C00136515001375F50FF240E24405618280DF
:100C3C00FD14E9FC0145CDBF3971B7F7070006DE9D
:100C4C0026DC4ADA4ED852D656D45AD25ED062CE70
:100C5C0003AB47027D57B7E700E083AA070022C623
:100C6C0003AA470023A0E71823A2E718B71B0040EC
:100C7C00930770052380FB04930780FA2380FB0401
:100C8C0083C74B041147AA8993E7070E2382FB0401
:100C9C00372400401305F00F2303E4802E8C328997
:100CAC00B684E93DED35938779FF93F7F70F094744
:100CBC00137BFB006362F712A14737070800630739
:100CCC00FB00B70707003E9C378707007955637E0A
:100CDC00EC02B3878401636AF702A9476398F906AB
:100CEC0089E481446D3526850DA0E2850945E935F9
:100CFC0005090345F9FFFD14050C453D81C49377A7
:100D0C00FC0FFDF7F53D69FD7D55B7170040130746
:100D1C0070052380E704130780FA2380E70403C7D8
:100D2C004704418B2382E704F250B7E700E023A08D
:100D3C00571123A24711E25432445259C259325A24
:100D4C00A25A125B825B724C21618280A547639A26
:100D5C00F906A1478569631DFB029387F9FFB386EA
:100D6C009700B374FC00B69493C7F7FFFD8C33FC6B
:100D7C008701416B856B9387F9FFB3F7870199E383
:100D8C0063FF340193D94900C147E3E637FF91BFB4
:100D9C009307F00FE9B78567C169FD17C9B713054C
:100DAC00800D6388690113050002638479011305C2
:100DBC001008E2851135A93521D94E9CB3843441F4
:100DCC00C1B7E2852D45CD3BCA94E30C99F00509DA
:100DDC00F133A30FA9FED5BF9387F9FF93F7F70F54
:100DEC00636FF70AA1476319FB06B70708003E9C1F
:100DFC0083C75B043707070093F7070299E337872C
:100E0C000700B70708003E977955E370ECF0B3077D
:100E1C009C00E36CF7EE8947639AF9048980D54905
:100E2C00E38104ECE2850945413B11090327C9FF25
:100E3C0091472320E48003076480E34E07FE2303DD
:100E4C003481FD17EDFBFD14110C81C49377FC0F5D
:100E5C00E9FF7D3371F54DBD83C75B043707070090
:100E6C0093F70702D5F33787070079BF8547E384EB
:100E7C00F9F2E2852D4589339389F4FFE38304E687
:100E8C00313B93F7390091EB83260480032709004B
:100E9C0093074900E398E6E43E89CE84F1BFB54759
:100EAC006396F9001305900BD13925BDB147130595
:100EBC00B00AE38BF9FE99476394F904A1476315D3
:100ECC00FB00B70708003E9CE2852D45F5318144B7
:100EDC000D4BA149E13163966401832704802320E3
:100EEC00F9008504E39834FF8327048013172C0141
:100EFC00635507002312F900EDB32322F900D5B393
:100F0C009D476399F90281451305B0047531BD44C1
:100F1C002320090023220900FD59493193F774005D
:100F2C00CA9703C70700FD14398D2380A700E396E9
:100F3C0034FF45BB91476399F900130560063D39B1
:100F4C00B931130590098DB7E38D09D8F15459BB0C
:100F5C00971100209381C18417F101201301C1095D
:100F6C001305400097F5FF1F9385050917F6FF1F22
:100F7C001306063063FCC5008322050023A0550030
:100F8C001305450093854500E3E8C5FE17F5FF1FE3
:100F9C001305A521670005002A8311C62300B300A1
:100FAC007D16050365FE828017350000130585CD7F
:100FBC006F00D02A411106C6EF104015D1481148D8
:100FCC0093070020138701DE814617F6FF1F1306D7
:100FDC00262A973500009385A5D0138581D6EF106E
:100FEC00A025138581D6EF10404CD14811489307AA
:100FFC000020138781B6814617F6FF1F1306A6291A
:10100C0097350000938545CE138501AFEF10C022B4
:10101C00138501AFEF106049D148114893070020A8
:10102C00170700201307C706814617F6FF1F130684
:10103C00E628973500009385A5CB170500201305EE
:10104C00A5FDEF10601F170500201305E5FCEF1040
:10105C00C045EF10C00DB240014541018280634094
:10106C0005029306803EB367D5023307F5403385FE
:10107C00D7021305753E3345D5023A9582807D55CE
:10108C008280014582800145828001458280014534
:10109C008280411122C426C206C6174400001304E4
:1010AC00A492974400009384A49263679400B24086
:1010BC0022449244410182801C4011048297F5B76E
:1010CC00411122C426C206C61744000013044490E2
:1010DC00974400009384449063679400B240224488
:1010EC009244410182801C4011048297F5B7411152
:1010FC0006C6F937B240410175BD4111D1470947C8
:10110C0093060020014697050000938585FE173550
:10111C000000130525C106C6EF10E01CB2404101CA
:10112C006F10A038411106C697000020E780008A96
:10113C00EF207004EF00B018EF108056EF00B06C89
:10114C006D3FEF1080565120EF00D06EB24001453C
:10115C0041018280411106C6F137B240014541017F
:10116C00828001114AC806CE22CC26CA4EC61389EB
:10117C00C18297000020E7806085832709002A84BC
:10118C00639C27016244F240D2444249B249056152
:10119C00170300206700438483240900268597F0F9
:1011AC00FF1FE7802022C8489389C4FEEF00D03D82
:1011BC004E85EF00F05B228597000020E780C08110
:1011CC004DBF411106C6713FFDBF4111930800028E
:1011DC001D4893070020138701FE81461706000067
:1011EC00130666FE97350000938545B41385011EE2
:1011FC0006C6EF106004B2401385011E41016F104A
:10120C00C02A411126C24AC0AA8432892E8522C422
:10121C0006C62E84EF10A018630E090085476308DC
:10122C00F900B24022449244024941018280884034
:10123C006396A40093054401268509A8034754032B
:10124C0083471502637DF700930544012244B240A5
:10125C0092440249410117F3FF1F670083170841AD
:10126C00C1BF41114AC032892E86894522C426C28B
:10127C002A8406C6B684EF00303F9307440104B4B9
:10128C00231E2401B2401CCC5CC822449244024967
:10129C00014541018280411126C2AE84AA850945CF
:1012AC0022C406C63284EF00504619C59307450187
:1012BC001CCD5CC946AD00B5B240224492444101FC
:1012CC008280011126CA06CEAA8422CC4AC82EC618
:1012DC0097F0FF1FE780806FDE2C91CFFD17DEACFF
:1012EC0097F0FF1FE780406F0145F2406244D24403
:1012FC00424905618280B24799E797F0FF1FE7806A
:10130C00A06D7955DDB72A8997F0FF1FE780001B88
:10131C00232805029034AA852A8413854401D535E7
:10132C00B247635CF0009304440470008145268549
:10133C00EF10E02F2685EF1080234A8597F0FF1FD2
:10134C00E780806997F0FF1FE780E00F085871BFB6
:10135C00411122C426C206C62A8497F0FF1FE780DB
:10136C00E066AA841305440197F0FF1FE78020076D
:10137C0005E548483115EF10400E268597F0FF1F04
:10138C00E780806597F0FF1FE780E00B0145B240D6
:10139C0022449244410182805E2C41677D17638A0E
:1013AC00E70085075EAC268597F0FF1FE780C062DB
:1013BC00F1BF268597F0FF1FE78000627555C1BF0E
:1013CC0017050020034545BE82809378080441111F
:1013DC0097320000938282A4638608009732000043
:1013EC00938202A5937F080163840F001378E8FFB2
:1013FC0093781800130F000363940800130F000276
:10140C0093782800638A0806635806023306C040A6
:10141C009308D0028A8E014EA943639176063373EA
:10142C00D6023356D602169303430300050E850EDF
:10143C00A38F6EFE7DF239A8137348009308B00297
:10144C006315030093583848960869F69306000311
:10145C005480054E137818013366FE0A118F6312FF
:10146C000804638508006353E0007D17AA863303E4
:10147C00E500930E000221A88148C1BF1373F6004A
:10148C00118255B763F4B6002380D6018506330864
:10149C00D340E34900FF8146B366D70A7D173695E2
:1014AC00158F638808006374B500230015017D1740
:1014BC00050563880F02AA86B308C5001303000351
:1014CC0015A863F4B6002380E60185063388D8405E
:1014DC00E34900FF8146B366D70A7D173695158F11
:1014EC00D9BFAA86B308E500D5B763F4B60023804C
:1014FC00660085063388D840E3490EFF8146634475
:10150C00C601B306C6413695FD567D1E6301DE024B
:10151C0099CF13061500637BB5023308C10103484C
:10152C0008007D1E230005013285E314DEFEAA8728
:10153C003306E50013080002B306F640634AD000F8
:10154C0081473367F70A41013A958280328575BF2E
:10155C0063F4B700238007018507F9BF411122C44A
:10156C0006C62A84B13D19C523A88180B240224405
:10157C004101828097F0FF1FE78040F475D500D9B8
:10158C00F5B78D4763E7C700AA873E966398C706F1
:10159C00828013773500AA876DFBB707010193870B
:1015AC00171013F7F50F3307F702B308C500AA8716
:1015BC00BD463388F84063EA060393574600C1568C
:1015CC000D48B387D7023E96B307F540BE863383EA
:1015DC00C700B308D3406360180313572600F156B5
:1015EC003307D7023A96998F4DB798C3D8C398C78B
:1015FC00D8C7C1077DBF98C29106E1BF8507A38FED
:10160C00B7FE69B763E6A50081476318F6028280CE
:10161C00B386C500E37AD5FE9345F6FF8147FD17E7
:10162C006393F50082803387F600030807003307C5
:10163C00F6002A9723000701DDB73387F5008306F0
:10164C0007003307F500850714A3C1B7411122C465
:10165C0006C62A8419CA8387050085050505A30FCC
:10166C00F5FE7D1681EB8145053AB2402285224478
:10167C00410182806DF2D5BFAA8601476314E60052
:10168C00014505A0B387E60003880700B387E50092
:10169C009C23B307F8401395476001E50507E31F4A
:1016AC0008FC8280AA870387070001E73385A740DF
:1016BC0082808507CDBF797156CA5AC85EC606D6D8
:1016CC0022D426D24AD04ECE52CC62C4B30AB50034
:1016DC002A8BB688AE8B63F5AA00934BF5FFFD5AA7
:1016EC005A851304B00293040002130930029309C3
:1016FC00000331A8130750026382E704637355019A
:10170C001CA193071500328A13061A003E85830725
:10171C000600EDF363860B00637C55332300050054
:10172C00B250225492540259F249624AD24AB24BF4
:10173C00224C33056541424B4561828001481307B9
:10174C00D00231A0639E870013684800528683073D
:10175C001600130A1600E397E7FE13680801FDB79D
:10176C006395970013688800D5B7639527011368B4
:10177C000802E9BF6395370113681800C1BF1387CE
:10178C0007FDA54663E6E6040147A546A94539A031
:10179C003307B702050A3E97130707FD83070A00B4
:1017AC00138607FDE3F6C6FE03060A009306E00265
:1017BC00FD576310D60683071A00254693061A00B8
:1017CC00938507FD6368B60A8147A545294E05A890
:1017DC009306A0027D57E399D7FC03A70800130AD0
:1017EC0026009108E35207FC3307E0401368080118
:1017FC0065BFB387C7038506B297938707FD03863A
:10180C000600130306FDE3F665FE0146368AB3E7D0
:10181C00C70A83060A0093058006014613F3B6FF38
:10182C006315B30013F6F60F050A83060A00930539
:10183C00800763C0D5029305200663CAD5049305BF
:10184C0050026389B61E9305800513680804638FE4
:10185C00B61E63755501930750021CA103070A00BD
:10186C00930715006302071E63F3570118B1930722
:10187C00250059BD1306A0026398C70083A7080072
:10188C0093062A00910851B7368A814759B7938637
:10189C00D6F993F6F60FD545E3EDD5FA972500006A
:1018AC009385C549B3C6B6209442AE968286A146AE
:1018BC009305C006138C4800630BB616930580067F
:1018CC006317B61683A80800937528001396586002
:1018DC0099E133C60808D685CD3CAA87E2882DB598
:1018EC0013780801631B0802BA86AA871306000244
:1018FC0029A063F3570190A38507FD16E34BD0FE97
:10190C009306F7FF81476353E000B6873E95854702
:10191C003367F70A998F3387F6001386480063758F
:10192C00550183A708001CA193071500BE863A95A4
:10193C0013080002B305D540634AB00081466354D6
:10194C00E0009306F7FFB697B2887DBB63F45601AF
:10195C00238006018506F9BF03A6080013834800FF
:10196C0009E6172600001306E63C81466387E6006D
:10197C00B305D6008385050099ED6354F000B3C61A
:10198C00F60A1378080163130804AA873308E500E4
:10199C009308000201A88506D1BF63F45701238088
:1019AC0017018507B305F840E3C9B6FEB305D74068
:1019BC0081476343D700AE873E951308F7FF8147F5
:1019CC006344D700B307B0403307F80081476395F1
:1019DC00D702B307D5003E863385E7001308000213
:1019EC00B305C54063C6B60201466344D70033064F
:1019FC00D740B2979A8809BBB305F50063F8550137
:101A0C003308F60003080800238005018507C1B7D9
:101A1C0063745601230006010506D9B7FD566315FC
:101A2C00D700136818002147138C4800C14603A641
:101A3C00080055B56373550114A193071500E9B15E
:101A4C0013682800A946ADB57D1A7DB9C1468DB580
:101A5C00A38F0AFEF1B103A5C180828039712ED209
:101A6C0032D436D62A8654109305F0071385812577
:101A7C0026CA36C606CE22CC3AD83EDA42DC46DE40
:101A8C009384C1800D39AA86884011E9138581257C
:101A9C00EF103063F2406244D24421618280222DE7
:101AAC00138681258145936704043EAD9307F007A7
:101ABC00B3D6F60AEF10F0579C40A2AFE1BF41112C
:101ACC00172500001305052D06C6493F17250000F4
:101ADC001305052D6137172500001305652F1727F2
:101AEC0000001307272E954605468D45853FB240CD
:101AFC00172500001305C52F41018DB739C5137784
:101B0C00F50F972700009387E73309C7BA97882307
:101B1C00050582804167130707F0698F01CB21858A
:101B2C001375F50FAA978823250582803707FF00C8
:101B3C00698F01CB41851375F50FAA97882345054D
:101B4C0082806181AA97882365058280584183A78A
:101B5C0081823E976304E50236238DE283A641829F
:101B6C00638EE6009386018290426313E60088C27E
:101B7C005843B306F54058C13E9714C714453387F4
:101B8C00D700630EE500322319EA138601820C425A
:101B9C006393A50018C2504150C3B29794C782807A
:101BAC00411183A5C181172500001305A53906C66F
:101BBC00753583A58181172500001305E539793D1D
:101BCC00B24083A54181172500001305253A410138
:101BDC0071B513F7C5FFE1462E8663F6E60693074B
:101BEC003500F19B930687FE63EFF6041D8F930679
:101BFC0087FE411123AED180896622C406C65117D7
:101C0C0013848182938606EA94C3D8C31CC023A490
:101C1C000700BA9723A2F182C966938606EA94C399
:101C2C00D8C398C78146054697250000938505368D
:101C3C001385812DEFF0EFE21C40B240224423A02B
:101C4C00F18241018280AA85172500001305853495
:101C5C0031B563060510411126C29384C1819C40A5
:101C6C0022C41304350006C6719863EB8702B14792
:101C7C00FD551385812D3374F40AEFF08FE4138333
:101C8C00018283270300884083A58182B386B740F5
:101C9C003307854063E8E6001385812DEFF04FEBA9
:101CAC00014569A8B384D500B22003A8440055E6C9
:101CBC003306D840930846FF63E1880A938E8181EE
:101CCC00138E4181130F840103A70E00832F0E0086
:101CDC0063EBE8071306C4003696096FB388C5009A
:101CEC00130F0FEA23A2080123A4D80023A0E801B4
:101CFC008546D0C0B6A083A6480031056384A600F3
:101D0C00AE9690C63107229723A0EE0063F4EF0045
:101D1C002320EE000967130707EA9AA0639A97003D
:101D2C0083A641820147B2231DE219C32320F3008D
:101D3C001385812DEFF0CFE11385C400B24022440E
:101D4C009244410182808546B6A0329775BFE38EDE
:101D5C00D7FCDC430547AE97F9B7C28625BF0145D2
:101D6C0082803306B502011122CC06CE328532C6F2
:101D7C00CD352A8409C532468145EFF09F80F2406B
:101D8C0022856244056182805DC941114AC0138974
:101D9C0081828327090022C406C626C22A84636A6C
:101DAC00F50883A741826376F508930445FFFD553A
:101DBC001385812DEFF0EFD0835764FF81CB035750
:101DCC0044FF8967938707EA6301F7021725000030
:101DDC00130505206131835644FF035664FFA68525
:101DEC00172500001305852095398967938707EA25
:101DFC00231AF4FE938701829843231B04FE63F39A
:101E0C00E40084C393868181032784FF9C4226854A
:101E1C00998F032709003387E440BA979CC23D335E
:101E2C002244B240924402491385812D41016FF046
:101E3C002FD2B240224492440249410182808280D6
:101E4C0097F6FF1F9386C6108147368715468C423E
:101E5C006396A50092073305F70082808507C106BB
:101E6C00E397C7FE01458280011122CC2A842E857E
:101E7C0006CE26CA4AC84EC652C42E89B289C93764
:101E8C00AA846924DC40138A44006313FA044524B1
:101E9C00136909F823042401CE8521462285EFF02D
:101EAC00EFFA97F0FF1FE78060B2D8409307C400A9
:101EBC00F2405CC358C4DCC0232844016244D244C1
:101ECC004249B249224A056117F3FF1F6700C3B0AC
:101EDC009C4365BF411106C622C426C223040500DB
:101EEC002A8497F0FF1FE78060AEAA841305C40014
:101EFC0097E0FF1FE780E0512244B24026859244D0
:101F0C00410117F3FF1F670023AD011106CE22CC50
:101F1C0026CA4AC84EC62E89AA891D37AA844845A6
:101F2C000D3B2A8415CDD04481459104EFF06FE52B
:101F3C002146CA8523043401A30404002285EFF052
:101F4C00EFF097F0FF1FE78060A898409307C4005C
:101F5C005CC358C49CC004C897F0FF1FE780C0A79F
:101F6C00F24022856244D2444249B24905618280E2
:101F7C00411106C622C426C2230405002A8497F008
:101F8C00FF1FE780A0A4AA841305C40097E0FF1FDD
:101F9C00E7802048268597F0FF1FE780E0A3228585
:101FAC002244B24092444101C5B3030585007D81B2
:101FBC00828001114EC6AA892E8506CE22CC26CA55
:101FCC004AC8BD3D638B09002A8401C981221104D2
:101FDC000329040063158900992A814411A89304EC
:101FEC0049FF2146CE852685EFF00FE911E98122C4
:101FFC00F24062444249B2492685D244056182804E
:10200C0003290900C1BF239E01829387812F138767
:10201C008133DCC39CC3A107E39DE7FE9D47238A64
:10202C00F18223AC018223A001849387C182DCC39B
:10203C009CC38280411103A5018406C6C1349387D9
:10204C00812F3365F520032585FF9307C5FE2105F8
:10205C0023ACF18297F0FF1FE780809801A041111B
:10206C0006C622C426C22A8497F0FF1FE78000967A
:10207C0083474403AA8403455403C19B93E7170089
:10208C00230AF402930544019387812F3365F520CD
:10209C0097E0FF1FE780C038138701841C5C144352
:1020AC002244B240D58F268592441CC3410117F3BC
:1020BC00FF1F67006392411106C622C426C22A8400
:1020CC0097F0FF1FE7808090AA841305440197E0E6
:1020DC00FF1FE780A035034554039387812F336599
:1020EC00F52097E0FF1FE780403501C91387018475
:1020FC0014431C5CB3F7F6401CC32244B240268543
:10210C009244410117F3FF1F6700038D411106C66E
:10211C0097F0FF1FE780808B1387C1831E23B2408B
:10212C0085071EA3410117F3FF1F6700E38A4111C6
:10213C0006C697F0FF1FE78060891387C1831E23B3
:10214C00FD17939757601EA36341F002239E0182F3
:10215C0097F0FF1FE780408883A7818389CFB24027
:10216C00410117E3FF1F6700032EB240410117F333
:10217C00FF1F67006386B24041018280411122C477
:10218C0026C22A8406C697F0FF1FE78020843C589D
:10219C00AA8499C3228582972244B2402685924410
:1021AC00410117F3FF1F67002383411106C622C4A8
:1021BC0026C203A4818397F0FF1FE7802081AA84A5
:1021CC0022856D3F2285C53D9147230AF4021305F4
:1021DC0044048D262285D13B85476311F502228567
:1021EC00D53997E0FF1FE78000262244B2402685B0
:1021FC009244410117E3FF1F6700037E9387C1825E
:10220C0094431307440198C3D8C254C81CCCD1BF03
:10221C00411106C622C4F9571CD92A84510597E0EE
:10222C00FF1FE780C02822851D3D2244B24041019A
:10223C0017E3FF1F6700232101115AC0328B2E8632
:10224C00854506CE22CC26CA2A844AC84EC652C41C
:10225C0056C2BA894289C684B68A3E8A31319307FE
:10226C0044011CCC5CC82320640323225403232484
:10227C003403232644035286930530024E85EFF037
:10228C004FB05C5410544C500850F1173E969706C2
:10229C0000009386C6F1192948CC230B2403A30A0A
:1022AC00240344DC24C013054404232C04022328F7
:1022BC000402230A040223280406232A0406A28605
:1022CC00A28581470147170600001306A6F4292CA6
:1022DC00F2406244D2444249B249224A924A024BE9
:1022EC00014505618280011156C2AE8AAA85054559
:1022FC0026CA4AC84EC652C406CE22CC328AB684EE
:10230C00BA893E89193101C92A842685EFF07F9458
:10231C0011ED2285B1390144F24022856244D24448
:10232C004249B249224A924A05618280130744010C
:10233C0018CC58C82686232054032322440308D4DF
:10234C0044D493053002EFF0CFA35C5410544C509E
:10235C000850F1173E9697060000938646E5B9267D
:10236C0048CC230B3403A30A3403232C0402232E5E
:10237C0024032320240523280402230A04022328EF
:10238C000406232A040681470147A286170600008B
:10239C00130646E8A28513054404B922B5BF83474A
:1023AC0045030547BD8B6393E704411106C622C460
:1023BC0026C22A8497E0FF1FE7804061AA84228509
:1023CC00DD398347440313054404C19B93E727007D
:1023DC00230AF402312C268597E0FF1FE780C05FAB
:1023EC00B240224492440145410182807D55828055
:1023FC00011106CE22CC26CA4AC82AC697E0FF1F76
:10240C00E780C05C03A48183AA842285493F130919
:10241C004404700081454A85192C4A85892A2685F1
:10242C0097E0FF1FE780405B97E0FF1FE780A0016C
:10243C001858F9576314F70023280402F240624439
:10244C00D24442490145056182805DB7411106C6FF
:10245C00EFE0FFC0B240410161BF8347450309472C
:10246C00BD8B6392E704411106C622C426C22A849E
:10247C0097E0FF1FE7808055AA841305440197E07D
:10248C00FF1FE780C002130544049D22268597E0B8
:10249C00FF1FE78060542285D936B2402244924413
:1024AC000145410182807D558280411106C603475A
:1024BC006503A30AE5023317E02818DD0947230A50
:1024CC00E502613F97E0FF1FE78040FF09C597E0F9
:1024DC00FF1FE78040F7B240014541018280510562
:1024EC0017E3FF1F67004303011126CA52C4BE84C1
:1024FC00328A2E86A94522CC4AC84EC62A8406CEDC
:10250C00B6893A89F998EFF03F969307440104B4E1
:10251C00232E44012320340323222403F2402324BA
:10252C0004021CCC5CC86244D2444249B249224ADF
:10253C0005618280411106C622C426C22A8497E016
:10254C00FF1FE780A048AA842285513F1C342685B2
:10255C00F99B1CB497E0FF1FE78000482285EFF041
:10256C007F97B2402244924401454101828041113F
:10257C0006C622C426C22A8497E0FF1FE7800045C6
:10258C00AA842285A93F1C34F99B1CB497E0FF1F39
:10259C00E78080DE5C50B7050080F9153307F50045
:1025AC0093878184C84318D43E869C436308C50036
:1025BC00D44BE30BD7FE998EE3E8D5FE938641848A
:1025CC0098422685050798C213074401D8C35CC8F6
:1025DC0018C21C3410CC93E717001CB497E0FF1FF3
:1025EC00E780803FB2402244924401454101828001
:1025FC001C35858B9DCB411106C622C426C22A846C
:10260C0097E0FF1FE780803CAA842285C93D1C34DB
:10261C002685F99B1CB497E0FF1FE780E03BB24096
:10262C00224492440145410182807D5582804111B2
:10263C0022C426C24AC006C62A842E89B28497E0D8
:10264C00FF1FE780A038914763E12703172700009D
:10265C001307879F3349E92083270900BA9782879C
:10266C005C509CC019A09C405CD097E0FF1FE78099
:10267C00A036B24022449244024901454101828075
:10268C001C34F59B1CB4D5B71C3493E72700DDBF75
:10269C001C34858B99C38547E9B723A00400F1B797
:1026AC0093878184DCC39CC3828082801106719ADB
:1026BC002A8737C8ADDE130506F8AA871308F8EE8B
:1026CC0023A007019107E31DF6FE2322D6F8232051
:1026DC00B6FA2320E6F88280411117250000130575
:1026EC00E59706C6EFF08FB7B240014541018280F5
:1026FC00011126CA044122CC4AC84EC606CE2A84F1
:10270C00172900001309C996972900009389899607
:10271C0063998400F2406244D2444249B249056153
:10272C0082809385C4FE4A85EFF04FB39C4063854D
:10273C0087004E85EFF08FB28440D9BF411106C699
:10274C00EFF0EFB7B240014541018280DC45011149
:10275C0006CE22CC26CA4AC84EC623A80500ADC355
:10276C009C25AE84B1CF83A905002A8415E997E096
:10277C00FF1FE780A025AA874E84D840014900405E
:10278C0063898904D44400C305091107E39926FF22
:10279C003E8597E0FF1FE780202423A8240115A085
:1027AC0097E0FF1FE78080220347C4FF9424AA8789
:1027BC001377F7F7E303D7FC97E0FF1FE780C021FF
:1027CC000144F24022856244D2444249B249056137
:1027DC008280014475BF0111172500001305C589BE
:1027EC0022CC4AC84EC652C406CE26CA1389C1860C
:1027FC00EFF0CFA6972900009389498903A401879C
:10280C00172A0000130ACA8883270900636BF40097
:10281C00F2406244D2444249B249224A0145056120
:10282C00828004400946CE852685EF10C04011C534
:10283C005040A6855285EFF06FA23104F1B74111DB
:10284C0022C426C206C621449724000093844485E2
:10285C0026857D14EFF08FA065FCB2402244924493
:10286C00410182805971294586D6A2D4D2CCD6CAD0
:10287C00DAC8DEC6A6D2CAD0CECEEFF06FDC110518
:10288C00A947172600001306E681A1452AC6230A8C
:10289C00F1001725000013056581A147130A0102F9
:1028AC003ECC52C802CEEFF06F9B513F1725000073
:1028BC0013054582EFF08F9A0144972A0000938A02
:1028CC00AA83172B0000130B6B85972B0000938B9F
:1028DC002B8422856C009D3D2A84D2890149F247C4
:1028EC00634AF9027DF497E0FF1FE780E0A8AA8510
:1028FC001725000013058583EFF04F96B65026542C
:10290C0096540659F649664AD64A464BB64B01458B
:10291C006561828083A4090097E0FF1FE780000BAC
:10292C000347410183C7C4FF93F7F7F76389E700B7
:10293C0097E0FF1FE780400A050991094DB797E022
:10294C00FF1FE7806009DC4C984C5685938644FF4A
:10295C002146A145EFF08F9083C7D4FF5E85858B10
:10296C0091E35A85EFF08F8FC1BF5971054586D61B
:10297C00A6D2D2CCD6CADAC8DEC6E2C4E6C2A2D48B
:10298C00CAD0CECEEAC0EFF0AFCB110585471716F3
:10299C0000001306267BA1452AC6230AF100171551
:1029AC0000001305A57AA147130A01023ECC52C8B8
:1029BC0002CEEFF0AF8A6135171500001305457D87
:1029CC00EFF0CF898144972A0000938A6A80054BE7
:1029DC00930B3002130C4006972C0000938CCC8385
:1029EC0026856C00A533AA84D2890149094DF2478A
:1029FC006342F902F5F4B650265496540659F6493A
:102A0C00664AD64A464BB64B264C964C064D01456B
:102A1C006561828003A4090097E0FF1FE78000FB3B
:102A2C00034741018347C4FF93F7F7F76389E70036
:102A3C0097E0FF1FE78040FA050991094DBF97E029
:102A4C00FF1FE78060F9034794025685930644FF05
:102A5C002146A145EFF08F808347840217150000B3
:102A6C001305C577BD8B638B670317150000130522
:102A7C00A5776385A703171500001305A57799CFD4
:102A8C001147171500001305A5776389E7000D475B
:102A9C006398E7001715000013054577EFE01FFC5E
:102AAC004C4CAE869C2263827703105008485C50D5
:102ABC00B295B386D540B38686035858898D668502
:102ACC00B3D6C602EFE09FF985BF8506E1BF597109
:102ADC00254586D6A2D4D2CCD6CADAC8DEC6E2C484
:102AEC00A6D2CAD0CECEEFF0AFB51105A5471716BA
:102AFC00000013066675A1452AC6230AF1001715B6
:102B0C0000001305E574A147130A01023ECC52C81C
:102B1C0002CEEFE0BFF42533171500001305C57581
:102B2C00EFE0DFF30144D54A171B0000130B4B7188
:102B3C00971B0000938B8B76172C0000130CCCB9D1
:102B4C0022856C0021312A84D2890149F2476340E5
:102B5C00F9027DF4B650265496540659F649664A45
:102B6C00D64A464BB64B264C01456561828083A400
:102B7C00090097E0FF1FE78060E50347410183C729
:102B8C00C4FF93F7F7F76389E70097E0FF1FE7802F
:102B9C00A0E4050991095DBF97E0FF1FE780C0E342
:102BAC009C44938644FF5A8763E5FA00B3C7872198
:102BBC0098439C282146A1455E85EFE03FEAD1BFB2
:102BCC001971154586DEA6DAD6D2DAD0DECEE2CC85
:102BDC00A2DCCAD8CED6D2D4EFF08FA61105954779
:102BEC00171600001306C66CA1452ACE2302F1026B
:102BFC00171500001305456CA147930A01033ED439
:102C0C0056D002D6EFE09FE51D39171500001305CD
:102C1C00E56CEFE0BFE48144171B0000130B4B6F16
:102C2C00971B0000938B4B6D171C0000130C0C446E
:102C3C0026856C08213EAA84568A8149B25763C006
:102C4C00F902FDF4F6506654D6544659B659265A34
:102C5C00965A065BF64B664C014509618280032946
:102C6C000A0097E0FF1FE78060D6034741028347C5
:102C7C00C9FF93F7F7F76389E70097E0FF1FE78039
:102C8C00A0D58509110A5DBF97E0FF1FE780C0D46E
:102C9C0013048900930649FF228536C697E0FF1F6F
:102CAC00E78060960357690183574901B246228633
:102CBC0001481DE11042631EC4002146A1455E85FA
:102CCC00EFE0DFD92285EFF0BFA26285EFE01FD9DC
:102CDC004DBF0508C5B705081042E31EC4FE2146CA
:102CEC00A1455A85EFE09FD769BF1971094586DE6A
:102CFC00A6DAD6D2DAD0DECEE2CCA2DCCAD8CED6D8
:102D0C00D2D4EFF0EF931105894717160000130684
:102D1C00A661A1452ACE2302F10217150000130566
:102D2C006561A147930A01033ED456D002D6EFE069
:102D3C00FFD231361715000013058561EFE01FD265
:102D4C008144171B0000130B2B63971B0000938B04
:102D5C00AB61171C0000130C6C3126856C08EFF06E
:102D6C00FF9EAA84568A8149B25763C0F902F5F4D2
:102D7C00F6506654D6544659B659265A965A065B9E
:102D8C00F64B664C01450961828003290A0097E0E5
:102D9C00FF1FE780A0C3034741028347C9FF93F796
:102DAC00F7F76389E70097E0FF1FE780E0C285092A
:102DBC00110A5DBF97E0FF1FE78000C21304890072
:102DCC00930649FF228536C697E0FF1FE780A08354
:102DDC0003570901B246228681471DE11042631E4A
:102DEC00C4002146A1455E85EFE05FC72285EFF068
:102DFC003F906285EFE09FC65DBF8507C5B785072D
:102E0C001042E31EC4FE2146A1455A85EFE01FC5C2
:102E1C0079BF0111172500001305859122CC4AC8F2
:102E2C004EC652C406CE26CA1389C186EFE01FC314
:102E3C00972900009389899103A40187172A000020
:102E4C00130A4A91832709006361F40217150000E5
:102E5C001305C521EFE09FC0F2406244D2444249C1
:102E6C00B249224A01450561828004401946CE854B
:102E7C002685EF00505C19E550409385640052851F
:102E8C00EFE0DFBD31047DBF411106C6EFF0FFADB1
:102E9C00B240014541018280411106C6EFE05FD08E
:102EAC00B24001454101828005458280397122DCA6
:102EBC0026DA06DE4AD84ED652D456D25AD0AA8436
:102ECC002E849306000225476302041A83870400AC
:102EDC006387D70E6385E70E014913070002A546E9
:102EEC00B3872401838707006380E70E638ED70CBA
:102EFC00631A240D83A9018783AAC186172B0000AE
:102F0C00130BCB8463F4590D03AA09001946DA8517
:102F1C005285EF00505261ED4A86A68513056A0072
:102F2C00EF00705169E54A9A83076A00E9E383A9C7
:102F3C008900638D09081306000281450A85EFE0BC
:102F4C00AF850A898A86A6870147014513080002C6
:102F5C00A548214313062002130EC00583850700E4
:102F6C0063840501639C150963658708A147631792
:102F7C00F50A171500001305A57EEFE03FAE001013
:102F8C00971400009384C47F8325090026851109BA
:102F9C00EFE0DFACE31A24FF171500001305050D55
:102FAC00EFE0DFAB21458A858299F2506254D2540E
:102FBC004259B259225A925A025B2161828085048D
:102FCC007D1419B7050929BFE31609F2A6870387F3
:102FDC0007001377F7FD49EB171500001305857AE9
:102FEC0023800700A685EFE07FA77D557DBFB10943
:102FFC0011BF23800700050785078DB7E30B65F626
:10300C00637E870005056392C504850705079CC28E
:10301C00838507006381C5026364870049F57DB72A
:10302C006398C501838517006394C5008507050760
:10303C0085070507F1BFE37387FE238007000507AB
:10304C0085079106E36C87F0D1BF9CC2838507008E
:10305C006389050163871501E302E4FC8507050715
:10306C00F5B7E36087FE5DBF850795B7014535BFB2
:10307C008307050081E78145014561BB797126D243
:10308C004AD04ECE52CC56CA5AC85EC606D622D4A8
:10309C002A8903AA018781498144938AC186171B17
:1030AC000000130BAB6A971B0000938B2B6B83A751
:1030BC000A006363FA02638009082254B250624A20
:1030CC00D24A424BB24B2686CE859254F2494A855F
:1030DC00025945616FE08FD703240A001946DA853F
:1030EC002285EF00503515ED4A85EF00D0331904D9
:1030FC002A86A2854A85EF00103405E591E42285E5
:10310C00EF007032AA84A289CE872287038607003B
:10311C0019EAB3873741A2855E85B3C4F40AEFE0A0
:10312C00FF93310A69B783060700E5D6E313D6FE91
:10313C0085070507E1BFB250225492540259F24957
:10314C00624AD24A424BB24B45618280411103A57F
:10315C00018606C6EFE0CF9FB24001454101828057
:10316C00971700009387C77723A8F186972700004D
:10317C009387478523A6F18697270000938787843A
:10318C00411123A4F186930500089727000093872B
:10319C006783054526C206C622C423A2F186938402
:1031AC000186EFE01FBC88C009ED17150000130560
:1031BC00E566EFE0BF8A7D55B2402244924441015E
:1031CC008280A947194793060040014697050000E5
:1031DC009385A512171500001305C565EFF0AF9088
:1031EC002A84884081460146971500009385056521
:1031FC00EFE02F8798408347470293E7270023028D
:10320C00F70219E001454DBF2285EFF00FAADDBF93
:10321C0083A7018683C74702898B91E7238C0132F0
:10322C00138581338280411106C683A5C18581CD6A
:10323C001306000813858133EF007022B24013850A
:10324C008133410182808D31971500009385855F14
:10325C0009E5971500009385655F13858133EF00B1
:10326C00901B971500009385E55E13858133EF0065
:10327C001019E9B7011106CE22CC26CA2AC6E121C3
:10328C00B24519E96244F240D24417150000130507
:10329C00A55C05616FE08FFC938401869C402A84B9
:1032AC00FC5F6385A704930530144D2121E19C40FC
:1032BC00E85F11C5292B9C408145E85F692B844050
:1032CC0081451306000513855402EFD0FFCC2285EF
:1032DC00E0DC6244F240239B0406239C0406D244A7
:1032EC00970500009385C5E60561B5A3F2406244DD
:1032FC00D24405618280397122DC138401861C4022
:10330C0006DE26DA03C747024AD84ED652D456D226
:10331C005AD05ECE62CC136717002382E702FC5FA3
:10332C0089E7EFE04FF311C1B137DD35EFE00FF373
:10333C006D49A549130AF007971A0000938A4A555C
:10334C00171B0000130B4B54971400009384C452AA
:10335C001C40A3070100FC5F81EB552BAA850DA037
:10336C000840FD55EFD0FFF51C4085461306F100D3
:10337C00E85FFD5569298547E314F5FE8305F100E7
:10338C00E3C805FC1C400547638B25019453054796
:10339C006390E6021307B0056395E500094798D3DF
:1033AC0045BF23A00702CDD56398350D014C95A8D8
:1033BC000946E39AC6FE23A007029386F5FBE37940
:1033CC00D7F8130740046392E50283D78707C9D364
:1033DC00171500001305454AEFE04FE818408357D6
:1033EC008707FD17231CF706A5B713073004E39CCA
:1033FC00E5FA03D7870783D66707E37BD7F43E97B5
:10340C00830557021715000013054547EFE00FE53C
:10341C001840835787078507F1B72685EFE00FE43F
:10342C00050C832B040083D78B07E348FCFE171590
:10343C0000001305A5C3EFE06FE2EFF0FFA6854790
:10344C00938B5B026314F5005E851D31D133AA8525
:10345C005E86171500001305A542EFE02FE0832BC5
:10346C00040013855B02EF00007C33450508239BA9
:10347C00AB06239CAB06E9BD6385450121476394EC
:10348C00E50883D58707E38505EC03D76707138623
:10349C00F5FF334606087D1733470708239CC706FC
:1034AC00239BE7066377E6041305560293855502C2
:1034BC003306C740BE953E95EFE0CF941C405A852D
:1034CC0003D767073E97A302070283D58707938527
:1034DC005502BE95EFE08FD81C4083DB87071C405C
:1034EC0083D76707E3C677E72685EFE02FD7850BF1
:1034FC00FDB75685EFE08FD61C4003D76707BA9708
:10350C00A3820702B1B535476385E5002947639A65
:10351C00E504EFF07F9985476314F5021C4083C7DF
:10352C004702858B99C717150000130525B4EFE0EA
:10353C00EFD208408355650713055502EFF01F972E
:10354C00C139EFE0AFD1832B040013060005814590
:10355C0013855B02EFD05FA4239B0B06239C0B0609
:10356C00C5BB83D667071307F0046374D700239B8E
:10357C00070603D6870703D76707939B45606377D6
:10358C00E6089305560213056602BE953306C7403E
:10359C003E95EFE02F870C4083D785073387F500E6
:1035AC00A302770303C74502058B11CB9387570200
:1035BC00BE95171500001305A5ABEFE02FCA1C40F4
:1035CC00171C0000130C4C2B83DB87071C4083D784
:1035DC00670763C8FB021C4003D7670783D68707BE
:1035EC0005078506239CD706334707089306F00486
:1035FC00239BE706E3FEE6D4239B0706239C0706E2
:10360C0081BB6285EFE08FC5850BC9B73E97A302DE
:10361C00770383C74702858BDDDF17150000130581
:10362C00E525EFE0AFC345BF719A232205000CC11D
:10363C0012A582805841AA8693170701C583135699
:10364C001701638BC7003305F64063E6C70003958B
:10365C00860032951D8D8280937717000145135794
:10366C000749E38AE7FE039586008280411122C454
:10367C0026C22A8406C6AE84753F831784006389EC
:10368C00A70458401C404583BA9784A3584083161E
:10369C00840093571701FD166398D7029357074977
:1036AC0093C71700C207131707495D8F58C081478E
:1036BC005840C60705453E073D83D98F5CC0B240D4
:1036CC0022449244410182808507C607C583CDB749
:1036DC000145F5B7411122C426C206C62A84AE8420
:1036EC00913F21C95C401840A166FD168583F58F7A
:1036FC00B3C70708BA979C239CA0584003168400B4
:10370C0093571700F58F7D16B3C707086398C70248
:10371C009377170093C71700799B5D8F58C081472B
:10372C005840C176C6078506C183758FD98F5CC09A
:10373C000545B24022449244410182808507F58FB1
:10374C00B3C70708F1BFA5456FE0BF861E2D011159
:10375C0022CC06CE26CAC18B2A8495EB1C5585C774
:10376C002EC68297B245AA8419CD2A86A285171532
:10377C00000013052512EFE06FAEF240624426857F
:10378C00D244056182801E2C93E707011EAC1E2CCF
:10379C00A18B89C73E2CE554A18BE5F35C5491CFEA
:1037AC0022858297AA8405E181443E2C93E7870009
:1037BC003EAC5C2C85075CACC9B785679387F7F08A
:1037CC00FD8D2EACD5B7E957E319F5FAF9BF582D95
:1037DC0005CF41117D1722C406C61377F70F58ADDC
:1037EC002A84814709EF1C5989E78147231D04006E
:1037FC0039A08297AA8775D96957E309E5FEB240CB
:10380C0022443E8541018280FD573E8582804111D4
:10381C0006C6582D01EB7D55EFD05FD4B240014563
:10382C00410182805C5981C7B24041018287695550
:10383C00E5B7411106C6582D01EB7D55EFD01FD2CF
:10384C00B2400145410182801C5D81C7B2404101FB
:10385C0082876955E5B70CD1014582804111130669
:10386C0000089385C13B1385C14306C6753BB7174A
:10387C000040116723ACE70AC14505455D24854529
:10388C0021656D228D451165552271651305052045
:10389C000D26B73700401D47B8A30D47B8B3130723
:1038AC00000498B30547F8A705459545152EB24079
:1038BC00B7E700E03707000423A0E71001454101FA
:1038CC008280411122C406C62A84EFD0BFDDA287B4
:1038DC002295294637370040A146B5456396A70087
:1038EC00B240224441018280038807006317C8005C
:1038FC000348B700E30ED8FE0CA70348B700E30E4D
:10390C00D8FE03C80700850723040701C1BF0111B6
:10391C009305F1001385C14306CE6D3B11C503051C
:10392C00F100F240056182802945EFE03FB27D5500
:10393C00CDBFB7E700E0130700F82387E740916697
:10394C0023A0D7102386E74037F700E02324070095
:10395C007D1508CB856623A0D710BD471CC3014538
:10396C00828017E5FF1F13052528828017F5FF1F9E
:10397C001305852782804111114506C622C4B9283A
:10398C001305503497D0FF1FE780E0CFB7E700E076
:10399C0039472388E70417D7FF1F1307A70F1367AF
:1039AC001700B8D33147A388E70417D7FF1F1307B5
:1039BC0027CB13671700F8D359229307803E335552
:1039CC00F502853FEFD0EFEC693F2A844537AA8595
:1039DC0022852244B24041016FE0AF9F371700406F
:1039EC008347E70412054111BD8BC98F93F7F70F7D
:1039FC0093068008F3B6068093F6860836C60F1039
:103A0C000000930670052300D704930680FA230068
:103A1C00D7040F1000002307F70423000704B24754
:103A2C00F3A707800F10000041018280914763ECDF
:103A3C00B70497170000938767E9B3C5F520984141
:103A4C003E97B71700409387470B0287944337176D
:103A5C000040B3F6A64094C39306070B9C42B3F701
:103A6C00A74019A8944337170040B3F6A64094C357
:103A7C009306070B9C42C98F9CC29307070A984375
:103A8C003377A74098C38280944337170040C98E80
:103A9C00D9B798433377A74098C3B717004093879B
:103AAC00070A9843498FF9BF9843498FF5B789475F
:103ABC0033470508638BF50463E2B7021346F7FF3F
:103ACC009DE9B717004083D64709F18E239AD70892
:103ADC009387C70A9443C98E94C321A08D47638CE6
:103AEC00F502B7170040239EE70883D60709558FC8
:103AFC002398E7088280B717004083D64709F18ED8
:103B0C00239AD7089387870AF1B7B717004083D653
:103B1C004709D98E65BFB717004083D64709D98EA0
:103B2C00C5B719C5371700401E2FCD8F1EAF828029
:103B3C00B71700409A2FB375B7408EAF8280B71776
:103B4C0000409A279306000C1377070C630AD704DE
:103B5C009A27137707100DC79A279E277D8B09EBA1
:103B6C0093F70720B1C33755E80113050580828010
:103B7C0037C59812FD8B130505E03345F50282809D
:103B8C009A279E2713770720FD8B11C73755E8011D
:103B9C0013050580DDB73725F40013050540F1BF8B
:103BAC002165130505D082803725F40013050540E7
:103BBC008280411122C406C62A8451372947B30793
:103BCC00E502B2408D83B3D7870222449507B3D761
:103BDC00E70237370040B3C707085EA74101828070
:103BEC00B7370040983301C94D8F98B398231367AA
:103BFC00870098A38280B375B7408CB38280AA8764
:103C0C0094233E878507EDFE9C2185050507A30FB0
:103C1C00F7FEFDFB8280AA87982185078505A38F77
:103C2C00E7FE7DFB8280AA879823850775FF338585
:103C3C00A7407D15828015C27D160147B307E500AC
:103C4C00B386E5009C2394226396D7006304C700D7
:103C5C000507EDF73385D740828001458280AA871E
:103C6C0001CA982185058507A38FE7FE7D166DFB9C
:103C7C003E966393C70082808507A38F07FED5BF4E
:103C8C00746869732069732061207465737420668D
:103C9C006F72206D73682E0A000000007461736BE4
:103CAC00310D0A007461736B320D0A006770696F15
:103CBC00612073656D0000006770696F612073652A
:103CCC006D206765740D0A0073656D206372656104
:103CDC007465206661696C65640D0A007461736BB0
:103CEC00310000007461736B320000007461736BFF
:103CFC0033000000746869732069732061206D7350
:103D0C0068207465737400005F5F636D645F6D732E
:103D1C00685F746573745F7072696E740000000084
:103D2C006D61696E000000007469646C65000000D0
:103D3C00284E554C4C290000A8DBFFFF08DDFFFF87
:103D4C001ADBFFFF1ADBFFFF1ADBFFFF1ADBFFFF9B
:103D5C0008DDFFFF1ADBFFFF1ADBFFFF1ADBFFFF9B
:103D6C001ADBFFFF1ADBFFFF76DBFFFFE4DCFFFF54
:103D7C001ADBFFFF1ADBFFFF20DCFFFF1ADBFFFF64
:103D8C000CDDFFFF1ADBFFFF1ADBFFFF14DDFFFF6B
:103D9C000A205C207C202F0A000000002D205254A9
:103DAC00202D2020202020546872656164204F70E3
:103DBC0065726174696E672053797374656D0A005E
:103DCC004A756E202033203230323500202F207C73
:103DDC00205C202020202025642E25642E256420A4
:103DEC006275696C642025730A0000002032303043
:103DFC0036202D203230323020436F707972696753
:103E0C0068742062792072742D7468726561642004
:103E1C007465616D0A000000303132333435363749
:103E2C0038396162636465660000000030313233FA
:103E3C00343536373839414243444546000000009A
:103E4C00000001000200010003000100020001005B
:103E5C000400010002000100030001000200010047
:103E6C000500010002000100030001000200010036
:103E7C000400010002000100030001000200010027
:103E8C000600010002000100030001000200010015
:103E9C000400010002000100030001000200010007
:103EAC0005000100020001000300010002000100F6
:103EBC0004000100020001000300010002000100E7
:103ECC0007000100020001000300010002000100D4
:103EDC0004000100020001000300010002000100C7
:103EEC0005000100020001000300010002000100B6
:103EFC0004000100020001000300010002000100A7
:103F0C000600010002000100030001000200010094
:103F1C000400010002000100030001000200010086
:103F2C000500010002000100030001000200010075
:103F3C000400010002000100030001000200010066
:103F4C00746F74616C206D656D6F72793A202564A5
:103F5C000A00000075736564206D656D6F727920C1
:103F6C003A2025640A0000006D6178696D756D203A
:103F7C00616C6C6F6361746564206D656D6F7279D3
:103F8C003A2025640A00000068656170000000009A
:103F9C006D656D20696E69742C206572726F72206C
:103FAC00626567696E206164647265737320307832
:103FBC0025782C20616E6420656E642061646472C7
:103FCC0065737320307825780A000000746F2066C2
:103FDC007265652061206261642064617461206295
:103FEC006C6F636B3A0A00006D656D3A2030782572
:103FFC003038782C207573656420666C61673A20C4
:10400C0025642C206D6167696320636F64653A20B9
:10401C003078253034780A006C697374206D656DC6
:10402C006F727920757361676520696E666F726D4A
:10403C006174696F6E0000006C6973745F6D656DFF
:10404C000000000022E6FFFF1CE6FFFF3CE6FFFF3E
:10405C0044E6FFFF4CE6FFFF48656C6C6F20525442
:10406C002D546872656164210A00000025730000FC
:10407C002F0000002D2D46756E6374696F6E204CF9
:10408C006973743A0A0000005F5F0000252D313619
:10409C0073202D2D2025730A000000002D00000038
:1040AC0074696D6572000000252D2A2E7320207016
:1040BC006572696F64696320202074696D656F7522
:1040CC007420202020202020666C61670A000000EC
:1040DC00202D2D2D2D2D2D2D2D2D2D202D2D2D2D1E
:1040EC002D2D2D2D2D2D202D2D2D2D2D2D2D2D2D01
:1040FC002D2D0A00252D2A2E2A73203078253038B4
:10410C00782030782530387820000000616374699D
:10411C0076617465640A0000646561637469766134
:10412C007465640A0000000063757272656E742019
:10413C007469636B3A3078253038780A00000000D7
:10414C007468726561640000252D2A2E73207072CC
:10415C0069202073746174757320202020202073D3
:10416C00702020202020737461636B2073697A6542
:10417C00206D61782075736564206C65667420749D
:10418C0069636B20206572726F720A00202D2D2DD1
:10419C0020202D2D2D2D2D2D2D202D2D2D2D2D2D6A
:1041AC002D2D2D2D202D2D2D2D2D2D2D2D2D2D204D
:1041BC00202D2D2D2D2D2D20202D2D2D2D2D2D2D4A
:1041CC002D2D2D202D2D2D0A00000000252D2A2E01
:1041DC002A732025336420002072656164792020C5
:1041EC00000000002073757370656E6400000000A1
:1041FC0020696E69742020200000000020636C6F21
:10420C0073652020000000002072756E6E696E6769
:10421C0000000000203078253038782030782530A8
:10422C00387820202020253032642525202020308D
:10423C00782530387820253033640A00556E6B6E43
:10424C006F776E006465766963650000252D2A2EF4
:10425C0073202020202020202020747970652020BD
:10426C002020202020202072656620636F756E74DC
:10427C000A000000202D2D2D2D2D2D2D2D2D2D2D19
:10428C002D2D2D2D2D2D2D2D2D202D2D2D2D2D2D5F
:10429C002D2D2D2D0A000000252D2A2E2A732025C8
:1042AC002D32307320252D38640A00006D61696C45
:1042BC00626F7800252D2A2E7320656E747279201A
:1042CC0073697A652073757370656E642074687297
:1042DC006561640A00000000202D2D2D2D20202D5D
:1042EC002D2D2D202D2D2D2D2D2D2D2D2D2D2D2DFF
:1042FC002D2D0A00252D2A2E2A73202530346420DA
:10430C0020253034642025643A000000252D2A2E07
:10431C002A73202530346420202530346420256411
:10432C000A00000073656D6170686F7265000000B3
:10433C00252D2A2E73207620202073757370656EC0
:10434C0064207468726561640A000000202D2D2DB4
:10435C00202D2D2D2D2D2D2D2D2D2D2D2D2D2D0AB1
:10436C0000000000252D2A2E2A73202530336420CE
:10437C0025643A00252D2A2E2A73202530336420FB
:10438C0025640A006C69737420616C6C2073796D00
:10439C00626F6C20696E2073797374656D00000018
:1043AC006C697374000000006C697374206465762A
:1043BC0069636520696E2073797374656D00000004
:1043CC005F5F636D645F6C6973745F64657669636A
:1043DC00650000006C697374206465766963652000
:1043EC00696E2073797374656D0000006C69737469
:1043FC005F646576696365006C6973742074696DBC
:10440C00657220696E2073797374656D000000000D
:10441C005F5F636D645F6C6973745F74696D657203
:10442C00000000006C6973742074696D65722069FA
:10443C006E2073797374656D000000006C69737481
:10444C005F74696D657200006C697374206D6169CD
:10445C006C20626F7820696E2073797374656D00BF
:10446C005F5F636D645F6C6973745F6D61696C62CF
:10447C006F7800006C697374206D61696C20626FD9
:10448C007820696E2073797374656D006C69737430
:10449C005F6D61696C626F78000000006C69737409
:1044AC002073656D6170686F726520696E20737919
:1044BC007374656D000000005F5F636D645F6C6911
:1044CC0073745F73656D00006C6973742073656D34
:1044DC006170686F726520696E2073797374656D95
:1044EC00000000006C6973745F73656D0000000060
:1044FC006C69737420746872656164005F5F636DCE
:10450C00645F6C6973745F74687265616400000049
:10451C006C69737420746872656164006C6973747F
:10452C005F7468726561640073686F772052542DF4
:10453C005468726561642076657273696F6E206968
:10454C006E666F726D6174696F6E00005F5F636D94
:10455C00645F76657273696F6E00000073686F77C5
:10456C002052542D546872656164207665727369AB
:10457C006F6E20696E666F726D6174696F6E00008C
:10458C0076657273696F6E007361792068656C6C07
:10459C006F20776F726C640068656C6C6F00000044
:1045AC004368617261637465722044657669636502
:1045BC0000000000426C6F636B2044657669636594
:1045CC00000000004E6574776F726B20496E746545
:1045DC0072666163650000004D5444204465766941
:1045EC006365000043414E204465766963650000B5
:1045FC0052544300536F756E64204465766963654D
:10460C000000000047726170686963204465766938
:10461C0063650000493243204275730055534220B4
:10462C00536C617665204465766963650000000013
:10463C0055534220486F737420427573000000007C
:10464C005350492042757300535049204465766994
:10465C00636500005344494F20427573000000000D
:10466C00504D2050736575646F20446576696365A1
:10467C00000000005069706500000000506F7274FB
:10468C00616C2044657669636500000054696D6552
:10469C007220446576696365000000004D697363A0
:1046AC00656C6C616E656F757320446576696365C6
:1046BC000000000053656E736F7220446576696369
:1046CC0065000000546F7563682044657669636506
:1046DC0000000000AC450000C0450000D0450000C3
:1046EC00E4450000F0450000FC45000000460000D9
:1046FC001046000020460000284600003C46000002
:10470C004C46000054460000604600006C46000019
:10471C00804600008846000098460000A84600002D
:10472C00C0460000D04600004842000052542D54B0
:10473C006872656164207368656C6C20636F6D6D65
:10474C00616E64733A0A00005F5F636D645F000022
:10475C00252D313673202D2025730A00546F6F20C0
:10476C006D616E7920617267732021205765206F0F
:10477C006E6C79205573653A0A0000002573200091
:10478C0025733A20636F6D6D616E64206E6F7420BB
:10479C00666F756E642E0A0053686F7720746865B7
:1047AC00206D656D6F727920757361676520696E18
:1047BC00207468652073797374656D2E0000000099
:1047CC005F5F636D645F6672656500004C6973744E
:1047DC00207468726561647320696E20746865204A
:1047EC0073797374656D2E005F5F636D645F7073B6
:1047FC000000000052542D54687265616420736887
:10480C00656C6C2068656C702E0000005F5F636DDA
:10481C00645F68656C7000006E6F206D656D6F7203
:10482C007920666F72207368656C6C0A000000005A
:10483C00747368656C6C000073687278000000001B
:10484C006D7368200000000066696E7368200000BC
:10485C003E00000066696E73683A2063616E206EDC
:10486C006F742066696E64206465766963653A20AE
:10487C0025730A00080000002563000025732573CA
:10488C000000000008257320200800000820080004
:10489C00546F20696E697469616C697A652064650E
:1048AC00766963653A2573206661696C65642E20B0
:1048BC00546865206572726F7220636F646520693D
:1048CC00732025640A00000084F1FFFF9CF1FFFFB8
:1048DC00C0F1FFFFCAF1FFFFE0F1FFFF143D000044
:1048EC00003D0000B40F00004440000024400000D4
:1048FC00AC1B0000AC43000090430000E22700001A
:10490C00CC430000B4430000DA2A0000F843000056
:10491C00E0430000DA2A00001C44000004440000BC
:10492C00702800004844000030440000702800004B
:10493C006C44000054440000CC2B00009844000050
:10494C0080440000CC2B0000C4440000A8440000AC
:10495C00F62C0000F0440000D4440000F62C0000BB
:10496C0008450000FC4400007629000028450000A2
:10497C001C45000076290000584500003445000015
:10498C00482700008C4500006845000048270000BF
:10499C00A445000094450000E4260000CC4700002C
:1049AC00A4470000A42E0000F4470000D8470000E4
:1049BC00942E000018480000004800001E2E000035
:1049CC008E10000096100000683800009A1000004D
:0849DC006C3100009210000094
:1049E400010000005C0F00205C0F00207800000034
:1049F400020000006C0F00206C0F0020200000005B
:104A0400050000007C0F00207C0F00203000000017
:104A1400090000008C0F00208C0F002044000000CF
:104A24000A0000009C0F00209C0F00202C000000B6
:00000001FF
