:040000006F00501627
:100004000000000000000000A0000020CE0400203A
:10001400A9BDF9F3A00000200000000000000000CA
:10002400A0000020A000002000000000000000004C
:10003400A000002000000000A0000020000000003C
:10004400A0000020A0000020A0000020A0000020AC
:10005400A0000020A0000020A0000020000000005C
:10006400A0000020A0000020A0000020A00000208C
:10007400A0000020A0000020A0000020A00000207C
:10008400A0000020A0000020A0000020A00000206C
:10009400A0000020A0000020A0000020A00000205C
:1000A40001A0B7170040984B41111367070198CB83
:1000B40003C707011377E70F2388E70013078008B6
:1000C40073370780137787083AC60F1000001307A9
:1000D40070052380E704130780FA2380E7040F10D8
:1000E4000000B847B70600069506558FB8C703C782
:1000F400B7041377F70DA385E70403C7A7001367B5
:1001040027012385E700130750142394E7003727BA
:1001140000408346578093F6F60EA302D7808946A3
:10012400A303D78003C7E7041377C70F1367170028
:100134002387E70403C7F70213672700A387E702AF
:1001440003C70701136717002388E7002380070408
:10015400B247F3A707800F10000041018280EFF03F
:100164005FF413058020970500009385E5091706C1
:1001740000001306267F63FAC5008322050023A02E
:10018400550011059105E3EAC5FE175500E0130576
:10019400A508970500009385E57C1386418363FADF
:1001A400C5008322050023A0550011059105E3EA4B
:1001B400C5FE13854183938501CA6377B500232067
:1001C40005001105E36DB5FE93025002739002BC65
:1001D4008D42739042808542739012BC93028008D2
:1001E40073900230970200009382C2E193E23200DE
:1001F40073905230970200E09382027F739012341E
:040204007300203033
:1002080093874183984309C79C43829723AA018215
:1002180073002030B7170040984B4111136707014E
:1002280098CB03C707011377E70F2388E700130765
:10023800800873370780137787083AC60F100000C5
:10024800130770052380E704130780FA2380E70467
:100258000F1000001307000C6319E50203D787008D
:100268001367070C2394E700B717004003C707017B
:10027800136717002388E70023800704B247F3A712
:1002880007800F1000004101828003C7A700937602
:100298000520C9C2118B39E703C7E70403C6E70481
:1002A8001377F70F136636002387C70403C6A70022
:1002B800136646002385C70003D6870083D58700C9
:1002C8003346060893E5050C2394B700A5470100BB
:1002D800FD1793F7F70FE5FFB71700402394C70002
:1002E8002387E70493770510DDCB37170040834752
:1002F800A70093E707012305F7009377F50185E346
:10030800B727004003C7578013670701A382E78018
:100318001D4715A0136727002385E700E1B7254788
:10032800636BF704B727004003C757801377F70EAE
:10033800A382E7800547A383E78033450508B717FD
:1003480000401367050C2394E7002394A700C9C253
:1003580003C7570483C65704418B858A558F09F70D
:1003680003C72701418B09D303C7A7001377D70F0A
:100378002385E700D5BD9377050199EBB7270040A2
:1003880003C757801377F70EA382E780094765B73D
:10039800B727004003C757801377F70E85BF9377B9
:1003A800850181EFB727004003C757801377F70E01
:1003B800A382E78013071005BDBFB727004003C716
:1003C80057801377F70EA382E78013077005A5B748
:1003D80003C7A7001377B70F61BF37E700E01C43D7
:1003E80054437D56A183E206D58F9306071890C221
:1003F800D0C2170600001306E6E0970600009386B1
:1004080026C08C5E90DE23AAA18211661305071010
:1004180010C1130707201388418310C3032708005E
:1004280075FF37E700E011662320C7180F1000009A
:100438008CDE939687002320D710E1832322F710C0
:1004480082800111814601468145114506CEDD2A8B
:1004580093078008F3B7078093F787083EC60F1005
:100468000000B7170040130770052380E70413073F
:1004780080FA2380E7040F10000003C7670413679E
:1004880017002383E70423800704B247F3A70780F4
:100498000F100000F2400561828037E700E01C433E
:1004A8005443A183E206D58F1CC1FD572320F718BA
:1004B8002322F718828013178500B7E700E023A0EE
:1004C800E710618123A2A71082804111814601466D
:1004D80081451145852A13078008F337078093F76C
:1004E80087083EC40F100000B717004013067005B8
:1004F8002380C704930680FA2380D7040F100000D6
:10050800FD552396B70223800704A245F3A505806D
:100518000F10000073370780137787083AC60F104B
:1005280000002380C7042380D7040F10000003C7EE
:100538006704136717002383E70423800704B2477F
:10054800F3A707800F10000001A09307E00433050C
:10055800F50295473355F50201007D1575FD82803A
:10056800411122C406C62A841305803E7D14F13F3A
:100578003344040875F8B2402244410182802E9623
:10058800AA870F70B6788280230304801547230357
:10059800E48001002302A480828083076480E3CE84
:1005A80007FE23030480828083076480E3CE07FE6E
:1005B80003454480828083076480E3CE07FE2302DC
:1005C800A4808280411126C44AC24EC006C6137751
:1005D800F50BAD47AA892E8995446306F70019459E
:1005E8006537653F8D444E854537FD59FD14639841
:1005F8003401B240A2441249824941018280135514
:1006080009011375F50F453F2209CDB7011126CC15
:1006180006CEB704080051371545BD37713769371D
:100628002AC6A53F32459377150089EB1365150057
:100638001375F50FF240E24405618280FD14E9FC70
:100648000145CDBF3971B7F7070006DE26DC4ADA67
:100658004ED852D656D45AD25ED062CE03AB470299
:100668007D57B7E700E083AA070022C603AA470020
:1006780023A0E71823A2E718B71B004093077005CB
:100688002380FB04930780FA2380FB0483C74B0471
:100698001147AA8993E7070E2382FB0437240040F9
:1006A8001305F00F2303E4802E8C3289B684E93DCC
:1006B800ED35938779FF93F7F70F0947137BFB0015
:1006C8006362F712A147370708006307FB00B70703
:1006D80007003E9C378707007955637EEC02B38795
:1006E8008401636AF702A9476398F90689E481449B
:1006F8006D3526850DA0E2850945E93505090345CF
:10070800F9FFFD14050C453D81C49377FC0FFDF7F7
:10071800F53D69FD7D55B717004013077005238027
:10072800E704130780FA2380E70403C74704418BD3
:100738002382E704F250B7E700E023A0571123A271
:100748004711E25432445259C259325AA25A125BE2
:10075800825B724C21618280A547639AF906A147A2
:100768008569631DFB029387F9FFB3869700B3740D
:10077800FC00B69493C7F7FFFD8C33FC8701416BEF
:10078800856B9387F9FFB3F7870199E363FF34011A
:1007980093D94900C147E3E637FF91BF9307F00FAC
:1007A800E9B78567C169FD17C9B71305800D638867
:1007B8006901130500026384790113051008E285B5
:1007C8001135A93521D94E9CB3843441C1B7E2858E
:1007D8002D45CD3BCA94E30C99F00509F133A30FDD
:1007E800A9FED5BF9387F9FF93F7F70F636FF70A51
:1007F800A1476319FB06B70708003E9C83C75B0443
:100808003707070093F7070299E337870700B70709
:1008180008003E977955E370ECF0B3079C00E36C51
:10082800F7EE8947639AF9048980D549E38104EC96
:10083800E2850945413B11090327C9FF9147232058
:10084800E48003076480E34E07FE23033481FD1729
:10085800EDFBFD14110C81C49377FC0FE9FF7D3388
:1008680071F54DBD83C75B043707070093F707028F
:10087800D5F33787070079BF8547E384F9F2E28526
:100888002D4589339389F4FFE38304E6313B93F7DD
:10089800390091EB83260480032709009307490058
:1008A800E398E6E43E89CE84F1BFB5476396F90044
:1008B8001305900BD13925BDB1471305B00AE38B59
:1008C800F9FE99476394F904A1476315FB00B7073C
:1008D80008003E9CE2852D45F53181440D4BA14928
:1008E800E13163966401832704802320F90085049D
:1008F800E39834FF8327048013172C0163550700FE
:100908002312F900EDB32322F900D5B39D4763996B
:10091800F90281451305B0047531BD44232009004F
:1009280023220900FD59493193F77400CA9703C778
:100938000700FD14398D2380A700E39634FF45BBDB
:1009480091476399F900130560063D39B9311305DC
:0C09580090098DB7E38D09D8F15459BB0C
:10096400971100209381C18517F10120130141697A
:100974001305400097F5FF1F93858568170600202F
:100984001306468863FAC5008322050023A0550098
:1009940011059105E3EAC5FE17F5FF1F1305257C34
:1009A40002852A8309CA83830500230073007D1608
:1009B400050385056DFA82802A8311C62300B300DE
:1009C4007D16050365FE828019C94111AA85174564
:1009D40000001305E55906C6EF30001601A0828019
:1009E4003971114506DE22DC26DA4AD84ED652D4B5
:1009F40056D25AD05ECE62CC66CA6AC86EC64D2143
:100A04001305503497000020E7800081371400401C
:100A140011679307840B98C3C1450545992B8545F8
:100A24002165F9218D451165E121B525834514041E
:100A3400174500001305C554D174EF30E00F9387B8
:100A4400019023AEF1829387018C23ACF182EF00F5
:100A54003047CD2605492380018493890184138A74
:100A6400C1C4974A0000938A2A53174B0000130B02
:100A7400AB53974B0000938B2B5A9384246B37878B
:100A8400004083476700858B85EB83C7090081CFCE
:100A94001305800C2380018497000020E78080AC3C
:100AA400EF0090470DC11305400697000020E78032
:100AB40060AB0545692DE1B723032701112DD54707
:100AC400E315F5FCF1B791472300FA002944568554
:100AD400EF30A029EF10D007AA8511CD5A85EF3049
:100AE400A0057D14130520031374F40F9700002050
:100AF400E78040A769FC03470A009147E3F5E7FA5A
:100B0400174500001305C54AEF302026974500001D
:100B14009385854A138501B4EF300026EF209014A5
:100B24006535174500001305254AEF300024974525
:100B340000009385254A17050020130525EEEF30A4
:100B4400A023014C138401B4930D1004170D00204D
:100B5400130DCDECA94C2310B4012322A401EF20E2
:100B6400B04D9D35E2855E85050CEF20F07CE314E5
:100B74009CFF174500001305654BEF30001FFD5720
:100B84001CC02304F40044C0EF20703C353D1745DD
:100B940000001305254AEF30401D23002401EF20F7
:100BA400C0751D351745000013054549EF30E01B9E
:100BB4009745000093850549138501B4EF30C01BA8
:100BC400EF20007EAA85E30005EE1745000013051B
:100BD400253AEF207076C1BD6F00301D797122D4A3
:100BE40026D24AD04ECE52CC56CA5AC85EC662C429
:100BF40066C26AC006D6AA842E89814C1384018CED
:100C0400938911C9130C00F8138AC1C7A94A130B9D
:100C14008002938B81C4138D41C583C709004A8523
:100C240023068401B397F40013D787002304F40048
:100C3400A304E40013D70701E183A305F400834769
:100C44000A002305E40023075401A306F4002388C3
:100C5400018C83A70B00A3076401A30B940013D793
:100C64008701A308E40013D707012309E40013D77D
:100C74008700230AF400A309E400A38A018C238BD0
:100C8400018C238C018CEF00706383470D0013F5F6
:100C9400F70F89CF6685EF10602E2300AD008347E0
:100CA4000D009DC303450D001375F50FB25022547A
:100CB40092540259F249624AD24A424BB24B224CF4
:100CC400924C024D45618280850C93FCFC0F8D474C
:100CD400E395FCF4FD472300FD007D45C1BF397158
:100CE40022DC26DA4AD84ED652D456D25AD05ECE18
:100CF40062CC66CA6EC606DE6AC8AA842E89814C96
:100D04001384018C138A11C9938AC1C7294C130B0C
:100D1400A002938B81C4938D41C58D4983470A00FA
:100D24004A8523078401B397F40013D7870023046B
:100D3400F400A304E40013D70701E183A305F4003E
:100D44002386018C83C70A002305E400A3076401FA
:100D5400A306F4002388018C83A70B00A30B940043
:100D640013D78701A308E40013D707012309E4007C
:100D740013D78700230AF400A309E400A38A018C93
:100D8400238B018C238C018CEF00505383C70D00FF
:100D940013FDF70F9DE71305800C97F0FF1FE78005
:100DA400007BF2506254D2544259B259225A925A98
:100DB400025BF24B624CD24CB24D6A85424D2161CA
:100DC40082806685EF10801B2380AD0083C70D00F1
:100DD40091C703CD0D00137DFD0FE1B7850C93FC86
:100DE400FC0FE39D3CF3FD472380FD007D4D55BF83
:100DF4003787004083473700094693F7F707A30175
:100E0400F700834757000347370093F7F70F9376AC
:100E1400F70F631BC70013F7170019C7918B99C30A
:100E24002386D1C40145828085472386F1C4594570
:100E340082808280411106C6EF0070463D479307C9
:100E4400F00F637BA70497070020938767CB23AA3F
:100E5400F1C223AEF1C0238601C4A547A388F1C81B
:100E6400930700202390F1C623A801C6930700042A
:100E7400239BF1C6B78700401387C70123A8E1C2AB
:100E84001387870123ACE1C81387C702A10723A8EE
:100E9400E1C023AEF1C28147B2403E854101828068
:100EA400371700408347E70412054111BD8BC98FF2
:100EB40093F7F70F93068008F3B6068093F6860837
:100EC40036C60F100000930670052300D70493065E
:100ED40080FA2300D7040F1000002307F70423002F
:100EE4000704B247F3A707800F1000004101828076
:100EF400914763ECB7049747000093872715B3C560
:100F0400F52098413E97B71700409387470B028717
:100F1400944337170040B3F6A64094C39306070BD7
:100F24009C42B3F7A74019A8944337170040B3F67F
:100F3400A64094C39306070B9C42C98F9CC2930797
:100F4400070A98433377A74098C38280944337179E
:100F54000040C98ED9B798433377A74098C3B717D1
:100F640000409387070A9843498FF9BF9843498FF4
:100F7400F5B709C93717004083578701CD8F231C64
:100F8400F7008280B717004003D78701B375B740D5
:100F9400239CB7008280B717004003D787009306CD
:100FA400000C1377070C630FD70403D7870013775C
:100FB40007101DC703D7870083D787007D8B09EBF4
:100FC40093F70720A1C73755E801130505808280F0
:100FD40037C59812FD8B130505E03345F502828071
:100FE40003D7870083D7870013770720FD8B11C7AA
:100FF4003755E80113050580CDB73725F4001305EF
:101004000540E1BF2165130505D082803725F40032
:101014001305054082803285814737370040A14659
:1010240063C3A70082800346B700E30ED6FE33866F
:10103400F5000346060085072304C700D5B79706C5
:1010440000209386E697AA878842138701CAAA9745
:1010540063E9E7000A87130707FC6364F7009CC28F
:1010640082807D558280411122C406C62A84253798
:101074002947B307E502B2408D83B3D787022244E0
:101084009507B3D7E70237370040B3C707082316DD
:10109400F70041018280716541111305052006C6E0
:1010A400D937B7370040130770F82381E7000D479D
:1010B400A381E70013070004A380E7000547238703
:1010C400E700B2404101828085472386F1C48280D3
:1010D400411106C637870040034557009387C1C4B2
:1010E40005891DC903C6070085466307D600034763
:1010F40017000145058B11EF05472380E7001745CD
:1011040000001305E5F509472380E700EF20F045CB
:101114005545B2404101828083C607000547E37A02
:10112400D7FE17450000130565F42380E700EF2080
:10113400D0435945F9BF37870040834737001375BB
:10114400F50793F70708C98FA301F700828082800F
:101154004111A147014506C622C4A380F184378406
:101164000040D13F834714003D4593F7E70FA300A8
:10117400F4008347140093F7970F93E72700A30025
:10118400F40097F0FF1FE780E03D83471400130548
:10119400A00F93F7D70FA300F40097F0FF1FE78089
:1011A400003B85472303F400B2402244410182807E
:1011B40003C7C1C4854763E5E70089472386F1C4B3
:1011C400B787004003C757005945058B01CB03C7B8
:1011D4001700014513671700A380E7008280397167
:1011E40022DC26DA4AD84ED652D456D25AD05ECE13
:1011F40062CC66CA6AC86EC606DEB787004023871B
:10120400B70237890040AA8932842385B702935AEA
:1012140045008144930B6900094C894C054A554D9E
:10122400138BC1C4FD5D2304390323809B01130781
:10123400003283C60B00898A89E67D173347070885
:101244006DFB2304090203C70B00098B3DCF03C7C1
:101254000B00058B15C723804B019D3D6314A5012D
:101264002380418503470B00630E470B03470B00A4
:10127400630C870B1305800C97F0FF1FE780202D6C
:1012840003C70B00098B41CF034779001377070489
:1012940051EF0345790039473D89630BE508294738
:1012A400631DE50049C87D576303E4007D143D4593
:1012B40097F0FF1FE780A029BDB72547638CEA029A
:1012C40035476385EA0263834A031305E00FF2504E
:1012D4006254D2544259B259225A925A025BF24B86
:1012E400624CD24C424DB24D2161828019C91365C2
:1012F4000502F1BF0567130797803357A700058BD5
:101304007DD73D4597F0FF1FE7806024850493F463
:10131400F40F8D47E399F4F0130500024DBF2380C9
:10132400BB01C5B7594565B7554555B7014545B7DF
:101334001305E00269BF1305A00251BF011126CABB
:101344004AC8AE842A891305800C06CE22CC4EC628
:1013540052C456C25AC097F0FF1FE780401F99C07D
:101364002380040037840040A147096A2306F4025D
:1013740013060A7181451305000D9535631E051684
:10138400930700FD2307F4022305F402854723068F
:10139400F402938A818383A70A001745000013058A
:1013A400A5CD03C4770003C767002204598CA28526
:1013B400EF20807863000410630E090E83A70A00EF
:1013C40017450000130545CC83C50700EF20C07600
:1013D40083A70A008387070063C90706138B118458
:1013E400B7890040130A0A711305800C97F0FF1F98
:1013F400E780E01583470B006374F4009377F40FE0
:101404002386F902814703C7C9026395E71283C59E
:10141400E90252864145E13365E183C7C902B30756
:10142400F44033C4070881C883C7C90203C7040052
:10143400BA972380F4004DF883C5040017450000D3
:101444001305C5C5EF20406FB5A0B7890040130A46
:101454000A71938AC183138B11841305800C97F04E
:10146400FF1FE780C00E83C5A90252861305000939
:10147400BD3359E103C789009377F40F637687007E
:1014840083C7890093F7F70F1D8C3344040891C474
:1014940003C704003E972380E40001479376F70FC7
:1014A4006396D7063E9983C78900A5EFB7870040A6
:1014B400238607021305800C97F0FF1FE78020099D
:1014C400B787004083C7C702414599C31305000984
:1014D4000966130606719305000C113311EDB787E5
:1014E400004003C7C7021375F70F19C783C78700E6
:1014F40013F5F70F91C35D45F2406244D24442496B
:10150400B249224A924A024B0561828083A60A00AC
:10151400BA9603C60600B306E90005072380C60091
:10152400B5BF83470B0003C78900FD17F98FBDFFC3
:101534000DF4ADBF03A70A008346090005093E97D1
:1015440085072300D70093F7F70F75BD814793856F
:101554008183A1463307F5000346070098413E976F
:101564002300C7008507E397D7FE8280011122CCB0
:1015740006CEA14713858182138411842300F400CD
:10158400F1379305F100138501B94D3B19E9034780
:10159400F10083C771B92300F400C54763E3E70092
:1015A4005D45F24062440561828001111385018228
:1015B40006CE22CC26CA593F9305F100138501B902
:1015C400B53B2A8425E10347F1008D475D4463FB65
:1015D400E704938401B903C4340083C7240013854A
:1015E400018222045D8CA30781008D3783A7818348
:1015F40023838700A38307009305F10026853D3BE1
:101604002A840DE10347F1009307000463F4E70023
:10161400A307F1000346F100938501B91385018CFA
:10162400EFF02FB8F24022856244D24405618280F3
:10163400411126C2AA841385818106C622C4393782
:1016440083A7818323819700A381070081450145F6
:10165400F5312A8401E92685F93C294597F0FF1FD5
:10166400E78040F0B24022852244924441018280C6
:10167400411122C42A841385018106C6C13D83A772
:101684008183238187002244B240A38107008145DE
:101694000145410165B1411122C42A8417F5FF1F98
:1016A4001305853206C65D3583A7818323828700AF
:1016B4002244B240A3820700814501454101BDB9DE
:1016C400B7870040130700F82380E700A3800700D2
:1016D400A381070013078004A386E70003A7C1833F
:1016E40098CF03A78183D8CF2385070223870702D6
:1016F400130790F82380E700130700042383E7020D
:101704007D572383E70005472386E1C40D472381E2
:10171400E70023800184828001111745000013052E
:10172400A59806CE22CC26CA4AC84EC652C4EF207B
:10173400C063393C8144014413094006054597F0D0
:10174400FF1FE78020E2AD3401E9850493F4F40F30
:101754006366990E0544DDB705041374F40FE31FA3
:1017640024FDEFF07F96174500001305E597EF2061
:10177400C05F59445DA8B387840083C507005285C0
:101784000504EF20603B1374F40FE36624FF29453E
:10179400EF20603E83D7840003C9A1814A85239248
:1017A400F90083D7A40003CA44002393F900493500
:1017B4002A8405E11745000013058590A3802901BB
:1017C400EF208037DD332A84174900001309C98EBE
:1017D4000DC9A285174500001305858FEF20C0357C
:1017E400894705452386F1C4EFF07F963DA8B3876A
:1017F400840083C507004A850504EF20E033137491
:10180400F40F83D72400E364F4FE2945EF20A036C7
:101814001304B00F631B0A0003C7E400A147631657
:10182400F70091472386F1C40144F24022856244C3
:10183400D2444249B249224A05618280938901B85F
:1018440003C52900EFF0BF90174500001305458C30
:10185400EF20802E213B2A842DFD9387818203C9AA
:10186400770003C76700938401B922093369E9004B
:10187400174A0000130A4A8409BF4111094506C6E4
:1018840022C426C297F0FF1FE780C0CD83C741C59D
:10189400A38FF1C8EFF0CFD5AA873DE503C7C1C434
:1018A4008D469307300863F1E60683C6C1C9130663
:1018B40010022380C18C7D569387018CA380C18C38
:1018C40023810700A38107002382D700A382070096
:1018D40023830700A383070081458D34238AA1C491
:1018E4005947AA876302E50203C501C43D896533EC
:1018F40003C501C93D8913650508713B83C7F1C957
:10190400A38F01C8238AF1C4B240224492443E8585
:10191400410182804111054706C62386E1C4EFF0E8
:101924002FCD19E113053008B240410182804111E5
:1019340022C483A781C403A741C806C601456384A2
:10194400E70283A5C1C103A741C323A2F1C8630869
:10195400B7020545EFF08FA8238AA1C409E903C59E
:1019640041C51375F50FB2402244410182807D5771
:1019740023AAE1C823A2E1C8238001C2CDB705454B
:1019840023AAF1C8EFF08FA5238AA1C469D9C5B7EA
:10199400411122C483A781C403A741C906C60145D6
:1019A4006384E70283A541C303A7C1C123AAF1C885
:1019B4006308B7020545EFF06FA2238AA1C409E9C1
:1019C40003C541C51375F50FB2402244410182801D
:1019D4007D5723AAE1C823A2E1C8238001C2CDB761
:1019E400054523A2F1C8EFF06F9F238AA1C469D9EA
:1019F400C5B783A781C483A5C1C1411103A741C34E
:101A040022C406C623A2F1C86305B7020545EFF058
:101A14000FAD238AA1C401C97D5723AAE1C823A21B
:101A2400E1C8238001C2B240224403C541C541013B
:101A3400828023AAF1C8D9BF83A781C483A541C3E7
:101A4400411103A7C1C122C406C623AAF1C8630574
:101A5400B7020545EFF0AFA8238AA1C401C97D5799
:101A640023AAE1C823A2E1C8238001C2B2402244D0
:101A740003C541C54101828023A2F1C8D9BF03C671
:101A840081C183A781C603C7D1C983A681C8F917B9
:101A9400B397C7003697BA9723A4F1C4828041450F
:101AA400828083C7C1C493F7F70F63E6A700238638
:101AB400B1C401458280E38EB7FEA9BD797126D2F7
:101AC4001307500556CA2380E18C13073005A38001
:101AD400E18C83A701C1130720042381E18C130740
:101AE400300422D44AD04ECE52CCA381E18C06D607
:101AF4007D475AC85EC662C42390E7002A8483C522
:101B0400F1C903C501C437060200EFF04FED238A83
:101B1400A1C45947630FE514938B018C15CD9387AA
:101B2400018C9384018E98439107D8CFE39D97FE4F
:101B3400A933DE879853910723AEE7FEE39C97FE13
:101B440083C5F1C903C501C437060200EFF02FE9CC
:101B5400238AA1C4631B051683C49B0003C68B00A0
:101B640083C7AB0003C7F1C983C6BB00A204D18CF1
:101B7400C207C58F1347070493948601A38FE1C856
:101B8400DD8C638404108386CB0083D761C763D460
:101B94000608138B019091A000C383C5F1C903C546
:101BA40001C937060200EFF08FE3238AA1C4631E44
:101BB400051403C7F1C983A6C1C383D761C71347FB
:101BC4000708A38FE1C883D6060063E1F4189D8C4F
:101BD400639ED7143E94638B041403A781C9E3FD69
:101BE400F4FA2320670155BF23A088002390F60050
:101BF40083D761C79D8C3E94EFF06FDE238AA1C426
:101C04002DE103C7F1C913470704A38FE1C8638615
:101C1400040E83D761C703C801C4BA85370602001E
:101C240083A801C383A601C14285E3FFF4FA23A07C
:101C3400780123909600814703460400B386770118
:101C44008507C2072380C600C1830504E39697FE77
:101C540037060200BA854285EFF06FD8238AA1C403
:101C640079C903A701C39307E00223207701630F17
:101C7400F506B250225492540259F249624AD24AA9
:101C8400424BB24B224C4561828003C501C93706E1
:101C94000200BA85EFF0AFD4238AA1C479F983C7CF
:101CA400F1C903A7C1C393C707F8A38FF1C8FD47C0
:101CB400238AF1C403570700B5476314F70203C529
:101CC400C19029C1854763FEA7002254B2509254A3
:101CD4000259F249624AD24A424BB24B224C456104
:101CE40069BE03C541C51375F50F61B703C501C4CA
:101CF4003D89EFF05F9A03C7F1C983A701C323A00D
:101D0400770161B7238A01C4ADB783A681C91307DC
:101D1400E00223A06601E31EE5F403C501C93D8981
:101D240013650508EFF03F9703C7F1C983A781C97D
:101D340023A0670199BF03C7F1C983A701C3134750
:101D44000704A38FE1C823A0770181B763E5D40218
:101D5400F1DE9387F6FFC207C1838507A2975A87EE
:101D64008346070005040507A30FD4FEE39A87FE04
:101D740003C7F1C965BF93960401C182D9BF41115C
:101D8400294506C697E0FF1FE780C07D03C7C1C78A
:101D94009387018CA386E700C94619472384D7009B
:101DA4002387E700930600F80D47A387E700A38481
:101DB4000700494723850700A38507002386D7002A
:101DC4001385018EA389E70023880700A3880700F1
:101DD40023890700238A0700A38A0700238B0700AF
:101DE400A38B0700238C0700D139154597E0FF1F0B
:101DF400E780407783C741C5014593F7F70F81CF4B
:101E040003C541C5D9471375F50F6309F500D547D7
:101E1400630CF5000145B2404101828005472386E9
:101E2400E1C423A801C6C5BF09472386E1C4E5B7B9
:101E34003971A54722DCA388F1C8BD472386F1C2C6
:101E440026DA4AD84ED652D456D25AD05ECE62CC76
:101E540066CA6AC86EC606DE938D018C9384C1C2BD
:101E6400214B930A00F8130A5002A949854C4D4DA1
:101E740081A063FADC0A6308A70BA380E40001379E
:101E840003C5C1C203C7140072057D85137585F7A8
:101E94001305850C238AE1C497E0FF1FE780806C5B
:101EA40003C7C1C27D171377F70F2386E1C225CF7D
:101EB40003C7C1C71385018E23846D01A386ED007A
:101EC400A3840D0023850D00A3850D0023865D01E9
:101ED400A3874D0123880D00A3880D0023890D00DD
:101EE400238A0D00A38A0D00238B0D00A38B0D0004
:101EF400238C0D0023873D01A3890D00C13603C740
:101F040041C51377F70F9306B7FE93F6F60F35F333
:101F140083C76D0211476382E70421476384E704A2
:101F240041476388E70403C711C98547B397E700AE
:101F3400C207C183F25062542390F1C603C5140052
:101F44004259D254B259225A925A025BF24B624C11
:101F5400D24C424DB24D21618280A38831C993078E
:101F64000040C9BFAD47A388F1C885679387078040
:101F7400D1B7B147A388F1C885676DBF411126C2A7
:101F8400AA84054506C622C497E0FF1FE780805D4A
:101F9400854763F3970683C7C1C4C94693F7F70F10
:101FA4006388D700C14663F8F6002386D1C421A014
:101FB40095472386F1C483C741C593F7F70FAD173F
:101FC40093F7F70F05476374F700553B05C10945BF
:101FD40097E0FF1FE780005903C541C5D947137532
:101FE400F50F630CF502D5476303F504B2402244B0
:101FF400924401454101828083C741C593F7F70F9D
:10200400DDFC094597E0FF1FE780C05503C541C5C6
:10201400D9471375F50FE318F5FCB2402244054780
:102024002386E1C423A801C6924441018280B240C0
:10203400224409472386E1C49244410182803971D4
:102044006EC606DE22DC26DA4AD84ED652D456D2E2
:102054005AD05ECE62CC66CA6AC8EFE07FD9AA8D38
:1020640071E983C7C1C40D476376F70E9147238690
:10207400F1C4EFE07FB6238AA1C4AA8D45ED938C09
:10208400018C83C6EC002147639DE60C03C6FC006B
:10209400238201C699466315D60085462382D1C69C
:1020A40003C77C0183C5BC0003C66C0183C6EC0175
:1020B40003C8DC0103D361C72207A206238EB1C87B
:1020C400518F238601C2B3E6060103C64C0183C5C2
:1020D400BC0103C801C403CE01C9631067086206CA
:1020E40061861373F600634606081368030101460C
:1020F40005436390E6201397850161879376F70083
:10210400138BC1C26346070809472386E1C2A300B3
:10211400BB0013E806016311061A238001C561A000
:1021240083C641C51306E0026300D62203C741C536
:10213400937DF70FF25062546E85D2544259B259CE
:10214400225A925A025BF24B624CD24C424DB24D2F
:1021540021618280930D3008F1BF1389C1C2A300AD
:10216400C900FD47238AF1C403C741C5937DF70F16
:10217400D1B7136E030905460143E38EE6F6938750
:10218400C1C22386C1C2A380B7002388C1C9D1BFFD
:1021940093E606F909472386E1C2A300BB0023881E
:1021A400D1C8E31C03F603C55C00EFF06FCC238AAF
:1021B400A1C4AA8D41F183C6C1C9130610FA03A5AF
:1021C40041C32380C18C7956A380C18C854A9385F1
:1021D400D1C2238601C223810C00A3810C00238277
:1021E400DC00A3820C0023835C01A3830C00EFF0CA
:1021F400EF94238AA1C40DF583461B00639856010E
:1022040083A641C383C606002386D1C2154597E041
:10221400FF1FE7802035FD5623AAD1C823A2D1C8C9
:1022240003A541C3238001C2A38F01C8238E01C625
:102234000146130C4002930B00F8194BC94A130AC8
:102244004002A386CC0023848C01A3840C00238544
:102254000C00A3850C0023867C0123876C01A387D3
:102264005C0123880C00A3880C0023890C00A3893B
:102274004C01238A0C00A38A0C00238B0C00A38B33
:102284000C00238C0C00EFF07F8383C641C5054608
:1022940093F6F60F8DE683C6C1C2B9C283C6C1C721
:1022A400A1E203A541C3954783460500639AF6025C
:1022B4008547238EF1C671B72388C1C9B9BD83C6CA
:1022C400C1C2A9C283C6C1C7894713861600137643
:1022D400F60F63E9D702238EC1C603A541C395B7A0
:1022E40083C7C1C48D4663F1F60495472386F1C4C0
:1022F40091B59387C1C2238661C2A380B7002380AE
:1023040001C585B56254238E01C6F250D254425998
:10231400B259225A925A025BF24B624CD24C424D51
:10232400B24D0545216199B96254F250D2544259D3
:10233400B259225A925A025BF24B624CD24C424D31
:10234400B24D21616FF00FDD0145EFF0CFB47DBDDB
:10235400411126C222C406C623A001B4EFE05FA93E
:102364002A8441E183C7C1C411476372F708938784
:10237400018C03C7C1C723840700A386E70019475C
:10238400A384070023850700A3850700238607008D
:102394002387E7001385018EA3870700238807009E
:1023A400A388070023890700A3890700238A07005D
:1023B400A38A0700238B0700A38B0700238C070045
:1023C400EFF0CFEF83C741C593F7F70F99CB83C7DE
:1023D40041C52386F1C2EFF09F9A03C4C1C2238A88
:1023E40081C42285B24022449244410182808139D1
:1023F40019C91305000497E0FF1FE780A016813177
:1024040019C12A84F9BFEFF0BFA205E59387018CB7
:1024140003C6170283C5070283C6270203C7370210
:1024240022064D8EC206D18E6207558F23A0E1B4D9
:1024340089B703C441C51374F40F65B783C7C1C416
:10244400397106DE22DC26DA4AD84ED652D456D268
:102454005AD05ECE62CC66CA6AC86EC6114763742F
:10246400F73803A701C7FD5723AAF1C823A2F1C86F
:10247400238001C2B7573412937607FF9387076707
:10248400638AF636938401C5A3800400238A01C6B7
:10249400A38E01C823AE01C42D6A130A5AA5138D55
:1024A400C1C223A401C4930B900E930D0004EFF05A
:1024B4002FCE6314051283C6140003A641C399E604
:1024C4008347060093F7D70F638B77178357E61F6D
:1024D4006398473183CE41C72388D1C5638FBE2F0C
:1024E4009387EE1BB29783C5A70003C7B70003C841
:1024F400870003C59700A301ED00238601C3A30051
:10250400AD002301BD0083A5C1C283C747001547A1
:1025140023A4B1C42386F1C26387E72A3D476384B9
:10252400E72A7687014F01433545054E1548BD48D6
:102534009DA083C7C1C2FD1793F7F70F930F07013F
:102544009382F6FF6367F500637EDE0E93F6F20F67
:10255400054F13F7FF0F9307E71BB2976306B70BFB
:1025640003C3A70083C5B70083CF970023016D0081
:10257400A301BD00A300FD0183C5870083C74700F5
:1025840005432386B1C283A5C1C22386F1C2638FEA
:102594000701638D1701939F870193DF8F4193F7A1
:1025A400F703E3D80FF82386F1C271B723A4B1C4AB
:1025B40063040F00A380D4002388E1C483A7C1C5AA
:1025C40083C6D1C9BE9523A4B1C4E39206EE4107E4
:1025D400A38EE1C823AEB1C4F9B5EFF00FAAEFF0B2
:1025E4003F85EFF0EFBAE30805ECF2506254D254A1
:1025F4004259B259225A925A025BF24B624CD24C63
:10260400424DB24D216182806304030023A4B1C40E
:1026140063040F00A380D40083C7D1C91307000447
:102624002388E1C4638B071A63990E1A03C7140045
:10263400238AF1C623AE01C4BD47E314F7E683A59C
:1026440081C405A06302031E23A4B1C463040F0064
:10265400A380D4002388E1C483A741C9BE9523A4E1
:10266400B1C423A8B1C6EFF0AFB241F183A541C311
:102674001307900E83C7050093F7D70F6390E71AEB
:1026840083C7D50013978701238AF1C66187634204
:10269400071819478607238CE1C093F7F70F014504
:1026A400194793968701E1861306F7FF860763C7E8
:1026B40006101377F60F93F7F70F05457DF385475B
:1026C400238C01C0238AF1C603D5650123ACA1C4C0
:1026D40001E5C85123ACA1C483C7450103C6350134
:1026E400A207D18F23ACF1C281E79C5123ACF1C284
:1026F40003C6250183C8150183D601C603C311C9C6
:10270400220633661601958283D8E500B296FD163B
:102714001306B3FFB3D6C6403386160103CF0501B3
:102724002A9623A2D1C223A211C523A6C1C28946D7
:10273400630DDF0823AC01C483A681C4918F33D712
:10274400E700369623A4C1C823A0E1C8C167D11706
:1027540063EBE704239D01C68567D11763EBE706A6
:102764000547A380E1C26383080283A741C299CFCE
:1027740085476305FF0083A781C589CB03C5B500E1
:1027840011E503C7C500854763E5E70A83C714005D
:10279400C9EB8547A380F400238A01C6A38E01C830
:1027A40023AE01C4D5B9DC5503D6050323A2F1C277
:1027B400239DC1C60D47A380E1C275B7E30605F0AA
:1027C400238CE1C011B77687D5BB2A9623A6C1C254
:1027D400A5B70947A380E1C279B71305200931B52C
:1027E4001305100919B5EFF09F85E31005E0EFF02C
:1027F4002FE485B93D8B938401C5A380E400238A2B
:1028040001C6A38E01C823AE01C4BD47E316F7C8B1
:102814003DB51D47238CE1C01D477DB51305100A46
:10282400E9B31305300AD1B3E3080FE2A380D4005F
:1028340025B583C7C1C4B69823A211C511476376D1
:10284400F700C1472386F1C44DB36254F250D25409
:102854004259B259225A925A025BF24B624CD24C00
:10286400424DB24D21616FF0EF8A01114AC883A72E
:1028740041C826CA22CC06CE4EC623A4F1C4EFF02A
:102884004F972A8411E583A781C599EB238001C260
:102894002285F2406244D2444249B24905618280B1
:1028A40003A781C483A5C1C1BA97054523A4F1C474
:1028B400EFE0EFC203A781C4238AA1C403A681C5A4
:1028C40083C741C5118F23A4E1C493F7F70FDDDF5C
:1028D40003C441C5FD5723AAF1C823A2F1C823802C
:1028E40001C21374F40F6DB7797152CC03C811C2CD
:1028F40022D426D24AD006D64ECE56CA5AC85EC66E
:1029040089472A89014403A741C16300F8128D470E
:10291400630BF81093571700137417003E9783D670
:1029240001C683C711C983A5C1C103A641C4FD164D
:10293400F98EB357F70003A741C8AE96B29723A800
:10294400D1C423AAF1C06382E70203C701C209C745
:10295400293F5DED83A741C123A4F1C4EFE03FFD0E
:1029640045E903C811C283A601C5630F0900914755
:102974006308F9168547630FF90E83A781C623AA56
:10298400F1C005472380E1C2238C01C68947630057
:10299400F80A0D4783A741C16301E80E03C5060089
:1029A40013F8F70F83D501C61377F5009318480081
:1029B40003A6C1C1336717019384C1C291831377FE
:1029C400F70FFD15A380F4002381A4002386E1C240
:1029D400B307B600638AF61083C71600A381F40018
:1029E400631009086309040E83D7240091830567E3
:1029F4002391F4005917636CF70A03C781C723A610
:102A0400F1C23369E900631B090423A4F1C601453B
:102A1400B250225492540259F249624AD24A424B69
:102A2400B24B456182800A07DDBD0607CDBD03D7E1
:102A3400060023A6E1C2C167D91763FDE7008547F5
:102A4400238CF1C6630C090083A741C1014523907F
:102A5400F6007DBFE31A09FE23A4E1C601454DBF7C
:102A640031CC2380E60083A701C503C71400A380EB
:102A7400E7009DBF23AA01C029B79842370600107A
:102A84001305F6FFB70500F0F98DE98FCD8F698F37
:102A940023AAF1C023A6E1C25916637CE6060547C2
:102AA400238CE1C6E30C09FA9CC2014595B705479E
:102AB400238CE1C623A6F1C2014599BF23800601F8
:102AC40083C7340003C7140083A601C5C19B1183C7
:102AD400D98FA380F60083D72400D207D18301BF06
:102AE400FD5723AAF1C071BD6318090283C701C24F
:102AF40085EB83A741C8850723A4F1C4EFE03FE336
:102B0400E31805F083A7C1C183C70700A381F400BC
:102B1400D1BDE31B09F889B711E042872380E600A1
:102B2400A933E31705EE83A741C8850723A4F1C49D
:102B3400EFE0FFDFE31E05EC83A6C1C103C7060077
:102B4400A381E400E30009EA83C7140001E4419B84
:102B54009183D98F2380F60005472380E1C259B5BC
:102B6400797122D466C262C403A801C803AC81C6C9
:102B74006AC026D24AD04ECE52CC56CA5AC85EC675
:102B840006D68549938AC1C263648813050C01453E
:102B940023AA81C1EFF05FD523A481C759ED83A790
:102BA400C1C26380071403A801C89367FC0F1367AD
:102BB400F80FE38BE7FC83C611C2E38736FD83A7D6
:102BC400C1C1094603D701C623A8F1C46385C60859
:102BD40093562700FD16C206C182370E00102396B5
:102BE400D1C22391DA003687814E7D1E39A0131796
:102BF40003014183AE87854E5DCFD0431303F7FFB6
:102C040093854700B378C601E39308FE23A8B1C4B3
:102C140063850E0C2396E1C2B7050010B3E6860166
:102C2400FD153387E6404D8E0507D0C323A4E1C6C6
:102C34006360E80805472380E1C2B25022549254ED
:102C44000259F249624AD24A424BB24B224C924C4C
:102C5400024D45618280135617007D16420641825B
:102C64002396C1C22391CA003287014339A0139726
:102C740008014183AE87054321CB83D627009308FF
:102C8400F7FF93852700E5F623A8B1C4630903047D
:102C94002396E1C2FD562391D70083D62A00B3E6DA
:102CA40086013387E640050723A4E1C6E374E8F808
:102CB4001305100B59B7336CDC0023A8B1C4239659
:102CC40001C223A481C7C9B5336CCC0023A8B1C405
:102CD400239601C223A481C745BD368735BF3287F9
:102CE40055BF225423AA81C1B25092540259F249C9
:102CF400624AD24A424BB24B224C924C024D11458D
:102D040045616FF07FBE411106C6993D9307100BD4
:102D14006305F500B24041018280B24023A401C69C
:102D240041013DBD5D7156DA83C7C1C486C6A2C4E4
:102D3400A6C2CAC04EDE52DC5AD85ED662D466D26F
:102D44006AD06ECE3D47637CF72C83C7C1C43D4730
:102D5400637DF710C1472386F1C483C601B4238F72
:102D640001C8638606301307C0056387E63013077E
:102D7400F0026383E630138701B403461700930718
:102D8400A0036306F62A3EC483A681C283A781C832
:102D940032C623A6E1C81384C1C2638D061C83C551
:102DA40081C103C641C71387E6FF3317B700BA973B
:102DB400A38EC1C823A6F1C66302062423A4F1C4CA
:102DC400EFE01FBD5DE583D701C6239101C663848F
:102DD400072083A541C323A8B1C483C70500B9CB89
:102DE400930D500E2D45930BC0056381B703154712
:102DF4006394E7009307500E03A8C1C883460800F4
:102E04006388F6081307A0026384E60883D721C603
:102E140003D701C693870702C207C1832391F1C672
:102E240063FBE71A83A541C3BE9523A8B1C483C736
:102E34000500C5FF83A6C1C881471306A0029305F8
:102E4400C0051305F00239A0630EC7006303B7225F
:102E54006301A7223387F60003470700850793F72A
:102E6400F70F7DF31305200429A0EFE0BFAAE306C2
:102E740005EEB640264496440649F259625AD25A9F
:102E8400425BB25B225C925C025DF24D61618280C6
:102E94009D8E93B6160036872301D4003386D50061
:102EA400B307E80083C70700034606009308F0024F
:102EB4001303E002214E930E0002130F1700638EDA
:102EC400C702F9C76386770D6384170D639D670C8A
:102ED4006304C701631AD6152301E401A14603471D
:102EE40024003386D50003460600B307E80083C7F1
:102EF4000700130F1700E396C7FC05078506137731
:102F0400F70F2301E40093F6F60FE39AA6FC429729
:102F140083470700A301F40083C7B500A18BE3979F
:102F240007EE238C01C683A701C5A24583D6A7015A
:102F340003C611C20D4723A4D1C26318E60003D708
:102F440047014207D98E23A4D1C203473400630B3F
:102F5400072403C781C7631707240347240083A7F3
:102F6400C1C80507BA9723A6F1C8B24783A781C889
:102F7400E39706E203A741C29376F70F958F137781
:102F8400F70FA38EE1C823A6F1C6E31907E25DB5E6
:102F940013070002631EE6021D47E36DD7F603C75D
:102FA4008500E309C7F6A301F4001307A002E39F19
:102FB400E7E483C7B500A18BE39A07E483A7C1C5FF
:102FC4006389071463C10712FD1723AEF1C43DBD25
:102FD400A301F40025BD03C7D1C983A7C1C67D17CA
:102FE40085071377F70F23A6F1C6A38EE1C8E3176D
:102FF40007DCA24783A681C2E38E06E2014523AA29
:10300400D1C0EFF07F8EE31605E683C781C7E39353
:1030140007E283A6C1C2A24723A4D1C2B9B7EFF085
:10302400EFC1E30405D2B1B5A3016400C5B39307AE
:103034002004E3FAD7D4138731B423A6E1C89387D5
:1030440031B489A0D84F23AEE1C491E67D57A38E55
:10305400E1C823AE01C483C7C1C43D476378F718F0
:10306400D1472386F1C483C781C7639907160145F5
:1030740009B51305300BF5BB138711B423A6E1C8BA
:10308400938711B483C611C20D476384E60603C750
:1030940007003EC436C623A401C283A781C8814663
:1030A400E31B07CE83A641C203C611C9A24513F789
:1030B400F60F998F3317C700094623A4C1C2238A88
:1030C400D1C6B24623A4F1C823AEE1C4894623A4E1
:1030D400D1C623AC01C2A38E01C8C9472386F1C45B
:1030E4001305100479B3EFD0DFD483A7C1C52D45F0
:1030F400E1BD83A641C283C707003AC423A4D1C259
:1031040089C73EC683A781C879B17D5723AEE1C480
:103114007DBF238601C283A7C1C8014713050002EE
:103124002148154E15539308E002AD451DA8230010
:10313400D60083C7C1C283A6C1C899EB03C60600E3
:103144006318C6012380660083C7C1C283A6C1C8B1
:10315400850793F7F70F2386F1C2B6970507630D2A
:10316400B70283A601C53E86BA9683C60600E387E6
:10317400A6FEE31E07FB2380170183C7C1C283A6F3
:1031840001C503A6C1C8850793F7F70F2386F1C2CB
:1031940083C686003E9661BF238007008547238C43
:1031A400F1C651B303C7B70023A4D1C623AC01C2EF
:1031B400A38E01C8418BE30707E883C7C1C4FD564A
:1031C40023AED1C43D47637EF700CD472386F1C4C7
:1031D40083C781C713051004E38D07C813053004A2
:1031E40049B9EFE02FF3E31605C8DDB7EFE08FF23E
:1031F400E31105C88DBD411106C622C4EFF05F96E8
:1032040011CD9307100B6306F500B240224441012F
:10321400828023A401C6EFF0BF9465F9EFF0EFE4D8
:103224006DF583A781C603A7C1C623A4F1C223A455
:10323400E1C4EFE0EFF571F903D621C683A741C3DA
:1032440003A781C22244B29793560701239DE70046
:10325400B2400546D0CF239AD70023A8F1C4410138
:103264006FE08FFD411183D7A1C722C423A6A1C259
:1032740006C6014589E7B24022444101828003A782
:1032840001C7BA9723A4F1C4EFE08FF06DF503A74B
:1032940041C383A6C1C222448327871EB240B69786
:1032A4002324F71E41016FE02FF983C7C1C4238F84
:1032B40001C84D476364F7000145828003A7C1C676
:1032C400411106C623A4E1C4EFE08FEC09ED03D756
:1032D40021C683A741C30145BA9703C7B70023A8F2
:1032E400F1C4418B01C7B2404101828003A7C1C52B
:1032F400B240D8CF41016FE02FF4411122C483C7FB
:10330400C1C406C6454793F7F70F6371F7084947E9
:10331400638AE70483C7C1C44D4793F7F70F63611A
:10332400F702238F01C883C7C1C43D476377F702FF
:10333400C1472386F1C40145B24022444101828041
:103344005147638BE70483C7E1C9F1DFB93F6DF5EA
:1033540083C7C1C43D47E36DF7FC2244B240410139
:103364006FE04FDB03C711C28D47E305F7FA83C54E
:1033740081C103A681C883C741C205473317B7007B
:10338400B297238AE1C623A4F1C869B7B2402244A4
:103394001305400B4101828083C701B4CDF751B7B7
:1033A400011122CC83C7C1C406CE26CA4AC84EC660
:1033B4004947637FF70883C7C1C43D476370F70873
:1033C400C1472386F1C403A7C1C623A4E1C4EFE027
:1033D4002FDC25E903D721C683A741C3BA97155724
:1033E4002380E700EFE04FE529ED83A781C223A600
:1033F400F1C2A1CB9386F7FF23A4D1C223A401C6B3
:1034040019A083A7C1C2054523AAF1C0EFF0CFCD0F
:103414000DE983A781C603C781C7850723A4F1C625
:103424006DD3EFF08FC411ED03A581C66244F24061
:10343400D2444249B24905616FF0DFE2EFE08FCD3B
:1034440059D1F2406244D2444249B2490561828072
:10345400EFF05F8D2DD1F2406244D2444249B2492B
:1034640005618280797122D406D626D24AD04ECE06
:1034740052CC56CA5AC85EC6EFF0DF8AA38EA1C8E2
:10348400630F051093072004630DF500B250225416
:1034940092540259F249624AD24A424BB24B4561B4
:1034A400828083D621C683D701C603A781C263E085
:1034B400F6086319071083A741C2A38EF1C8130A43
:1034C400500E83A7C1C6FD1723A6F1C623A4F1C4D9
:1034D400EFE00FCC45FD03D601C6239101C60DCA0A
:1034E40083A541C383C7050063884725930700026A
:1034F40001A883C606004207418363864603BA8750
:10350400B386F50013870702E3E5C7FE2391F1C6EE
:1035140083C7D1C9FD1793F7F70FA38EF1C8D5F36D
:103524001305200BA5B703A781C22391F1C623A4D9
:10353400E1C6EFF0EFE29307100B6300F50839F5ED
:10354400EFF0AFB221F583A781C67D5523A4F1C264
:10355400EFF05FD105FD03A7C1C623A4E1C4EFE0EA
:103564002FC3E31505F283D621C603A741C38147C0
:10357400369723A8E1C4A945930800027D4801A811
:10358400230007006380061103A701C585073E9742
:1035940093F6F70FE3E6F5FE23001701F5B7EFF016
:1035A4003FE0E31505EE03A781C223A4E1C6EFF0D3
:1035B4002FDB9307100BE314F5F823A401C6EFF0F7
:1035C4002FDAB5BF014523AAE1C0EFF0EFB1E31F45
:1035D40005EA83C781C703A781C2B1DB23A4E1C67F
:1035E400EFF00FD89307100B6309F508E31005EA11
:1035F40083A781C2094523AAF1C0EFF0EFAEE31718
:1036040005E8EFF08FA6E31305E883D601C689CE5B
:1036140003A641C381473307F6009107C20723205D
:103624000700C183E399D7FE83A781C603C681C17E
:1036340083A681C8F91703C741C7B397C700B697D4
:10364400A38E01C823A4F1C4239101C623A6F1C605
:103654002386E1C219EFE5A083C7C1C203A781C4D1
:10366400FD17050793F7F70F23A4E1C42386F1C2DE
:10367400F9C7EFE06FBC6DD111BD23A401C6EFF013
:103684002FCEADB703A601C58D6793871702231C00
:10369400F60085475CCE83A7C1C89308E0022D439A
:1036A40003C70700B305A60005051375F50F09CF79
:1036B40093861700630917052380E50023A6D1C864
:1036C40063046500B687E9BF83A781C213D70701E6
:1036D400231DF600231AE600EFE00FB6E31805DA1F
:1036E40083A681C203C7C1C423A4D1C623AE01C427
:1036F40023AC01C2A38E01C8BD4663F3E602514761
:103704002386E1C461B323A6D1C803C717009386F7
:10371400270023A6D1C82304E6002545B68749B768
:103724002254B25092540259F249624AD24A424B4C
:10373400B24B45616FE00F9E03A781C2CDBB7D559F
:10374400EFF05FB2E31405D403A781C2CDB383C7FE
:10375400C1C44947637FF70A03A7C1C6411106C61E
:1037640023A4E1C4EFE0CFA255E183D621C683A709
:1037740041C3138701B4B69783C5B7008346870056
:103784002304B70023A8F1C49305F00F814863858F
:10379400B600A385D700854883D667010358670020
:1037A4002313D700C166239601C3FD166305D80011
:1037B400239B0701854883D687010358470003A349
:1037C400C7012312D7004167239601C37D1783A63F
:1037D40001B46304E802239C070123A6D1C223A0F9
:1037E40061B47D576387E600D4CF23AED1C4238F61
:1037F40001C8B24041016FE02FA423A6D1C223A087
:1038040061B47D57E392E6FEE39508FEB2404101C0
:1038140082801305400B828003A781C2D54593376C
:10382400170023A4E1C6B307F04023AC01C25145FD
:10383400A38EF1C86FE0EFA639715AD083C7C1C413
:1038440006DE22DC26DA4AD84ED652D456D25ECED2
:1038540062CC66CA6AC86EC65547630BF70083C755
:10386400C1C45147631FF726EFF01FFB6316051A07
:1038740003D701B4938401B42394E40009E783C714
:10388400E1C963980726239001B4054C6301071826
:1038940003C7D1C99307F00F6312F70683A781C248
:1038A4006385072283C7C1C449476317F70003C769
:1038B40011C28D47631FF72683A781C623ACF1C2CB
:1038C400EFF06FC4631A051403A781C3094523AA43
:1038D400E1C0EFF06F816311051403A7C1C183A791
:1038E40041C36303F7207D55EFF0DF97631605129C
:1038F40083A7C1C5A38E01C823ACF1C2EFE02F9802
:1039040083D501C683A681C303C7D1C983C741C771
:1039140003C811C91385F5FF3376D500998F420684
:1039240003D784004182B3970701918F63F3E700C3
:103934003E87AE8D6361B710630E0610B38DC5402C
:10394400C20D93DD0D01636CB719EFE06F8469E577
:1039540083D501C683A681C31385F5FF03A741C39D
:1039640003D601B4DC40758D93950D012A97B29767
:10397400C18163840D021386F5FF42064182050668
:103984003E96850783C6F7FF0507A30FD7FEE39A84
:10399400C7FE83A681C303D601B483D78400B69D32
:1039A4002E968D8F23ACB1C32394F4002390C1B41D
:1039B400EFE08F8835E103A781C383A6C1C563F611
:1039C400E60023AEE1C4238F81C983D701C6FD1766
:1039D400F98F95EB83C7D1C903C741C7850793F70F
:1039E400F70FA38EF1C863E0E70203A781C6014580
:1039F40023AAE1C0EFE05FEF05E183C781C7F9CBFC
:103A0400FD57A38EF1C803D78400E31307E883C7E7
:103A140001C20145639F070EF2506254D2544259C9
:103A2400B259225A925A025BF24B624CD24C424D2A
:103A3400B24D21618280B38DC540C20D93DD0D016D
:103A44006373B701BA8DE31206F083A7C1C5E3F728
:103A5400F6F0E5BD83D701B4CC40BE9593F73500AD
:103A6400EDF7335A0701937DFA0F6E85EFD02FA738
:103A740045F583C711C903D7840083C6D1C9B317D9
:103A8400FA001396070183A881C303D801B44182C5
:103A9400118FEE96420703A5C1C593F6F60FC6979C
:103AA40041834296A38ED1C823ACF1C22394E4008F
:103AB4002390C1B46376F50023AEF1C4238F81C98A
:103AC40083C741C7E3E4F6DC0DB7EFF0CFF2E30CB4
:103AD40005E099B703D78400A38E01C845BBBA8D0E
:103AE400ADB51305400B0DBFEFE03FD8E30D05DE88
:103AF40025B76254F250D2544259B259225A925ABA
:103B0400025BF24B624CD24C424DB24D21616FF0DC
:103B1400CFF96254F250D2544259B259225A925AAD
:103B2400025BF24B624CD24C424DB24D21616FE0CC
:103B3400DFD31305100BCDB55D7122D406D62A84CC
:103B44002EDA32DC36DEBAC0BEC2C2C4C6C617D54F
:103B5400FF1F032525E711C51C4D81E72AC6BD2D8E
:103B640032450C455418228636CEEF00B036B2509A
:103B7400225461618280AA8517D5FF1F032585E43D
:103B840011CD1C4D81EF011106CE2EC62AC4B925D4
:103B94002245B245F2401045056119A01045F5BF14
:103BA400411122C426C24AC006C62A89AE84328480
:103BB40001C51C4D91E31D25971700009387475AB3
:103BC4006316F406032449007C50858B89EB8357E4
:103BD400C40093F7072081E7284CEF0000791C44C8
:103BE400FD171CC463DA0700184C63C3E70693F798
:103BF400F40F2947638EE7041C401387170018C08D
:103C04002380970093F4F40F7C50858B89EB8357C2
:103C1400C40093F7072081E7284CEF002075B240D9
:103C2400224402492685924441018280971700006C
:103C3400938707516315F4000324890071B797171C
:103C440000009387E74DE311F4F80324C900ADBFE6
:103C5400A68522864A85152AAA847DB7011126CA1B
:103C640006CE22CC4AC84EC652C4AA8419E11C45C9
:103C740002901C4D2E89A5E795239C4C8044B5C326
:103C8400971700009387C74D6310F406C0407C501B
:103C9400858B81EB8357C40093F7072099E3284C65
:103CA400E9258357C400A18B99C31C48C5E7A285A5
:103CB4002685612A45C1FD547C50858B81EB835751
:103CC400C40093F7072099E3284C4D25F240624441
:103CD4004249B249224A2685D24405618280004580
:103CE40045B72685E52969BF97170000938747459F
:103CF4006314F400804461BF971700009387474220
:103D0400E317F4F8C04461B71CC4050963C907028A
:103D14001C401387170018C02380B7001C44834538
:103D24000900FD17F5F11CC463D907022286A945D1
:103D34002685A128FD57E300F5F8A944B5BF184C22
:103D440063C4E700E39645FD228626853D28E317F4
:103D540035FD95B7FD59294AD1B71C401387170083
:103D640018C029472380E700C9BFAA8517D5FF1FBC
:103D7400032545C56FF09FEEAA8703C70500850795
:103D84008505A38FE7FE75FB8280011122CC26CA2C
:103D94004AC806CE4EC6AA842E89328401C51C4D5B
:103DA40091E32D29971700009387873B6318F4024A
:103DB400C0401C4C1CC48357C400A18B99C31C482D
:103DC40095EFA2852685512015C97D59F24062449C
:103DD400D244B2494A85424905618280971700005E
:103DE400938707366314F4008044E1B79717000003
:103DF40093870733E31FF4FAC04465BF1C480840A7
:103E04009379F90F1379F90F1D8D5C486346F5001A
:103E1400A2852685B52455F91C440505FD171CC447
:103E24001C401387170018C0238037015C4863893E
:103E3400A7008357C400858BD1DBA947E318F9F8A1
:103E4400A2852685352C59D149B7411122C426C2F1
:103E54004AC006C697D4FF1F83A4C4B62A892E84F9
:103E640089C49C4C99E32685952E97170000938767
:103E7400272F6314F402C0408317C40013F787008C
:103E84002DEB13F7070115EB25472320E90093E7F2
:103E940007042316F4007D5559A89717000093874B
:103EA400272A6314F4008044C1BF97170000938746
:103EB4002727E313F4FCC044C1B7918B8DC74C583A
:103EC40089C9930744046384F5004A854D23232A52
:103ED40004028357C4002322040093F7B7FD23167A
:103EE400F4001C481CC08357C40093E787002316C2
:103EF400F4001C4881EF8357C4001307002093F794
:103F040007286385E700A2854A85C1218317C40079
:103F140013F717001DC35848232404003307E04057
:103F240018CC1848014501E713F707082DF3B240F0
:103F34002244924402494101828013F727008146BA
:103F440011E3544814C4F1BF8397C500011122CC76
:103F540026CA06CE4AC84EC613F78700AA842E8402
:103F640069E7D8416345E000B8416358E008585414
:103F740049C703A9040023A004000C5093D7C748E1
:103F8400B9CB70488357C400918B99C75C401D8E90
:103F94005C5899C33C401D8E5C540C508146268568
:103FA4008297FD57630DF5041C480567232204001E
:103FB4001CC08357C400F98F91C368C84C5823A010
:103FC400240185CD930744046384F50026854521A7
:103FD400232A04021DA00146854626850297FD5723
:103FE4002A86E311F5FA9C40D1DF75476385E70023
:103FF40059476395E70623A024010145BDA09840D5
:104004008317C40001CFF5466305D700D946631969
:10401400D7041C48232204001CC04DB7184823228F
:10402400040093D7C74818C041BF83A90501E3869C
:1040340009FC03A905008D8B23A0350133093941FF
:10404400014791E3D84918C4E35920FB1C540C5090
:10405400CA864E86268582976340A0028317C400D1
:1040640093E707042316F4007D55F2406244D244DA
:104074004249B24905618280AA993309A940E9B746
:104084009C49411106C622C426C281EB8144B24038
:1040940022442685924441018280AA842E8401C54B
:1040A4001C4D91E3252A971700009387670B631E25
:1040B400F402C0408317C400F1DB7850058B11E78C
:1040C40093F7072099E3284C4D242685A285EFF029
:1040D400BFE77C50AA84858BDDFB8357C40093F72C
:1040E4000720D5F7284C59245DB79717000093870C
:1040F40027056314F400804475BF97170000938765
:104104002702E319F4FAC04475B7411122C406C664
:104114002A842316B5002317C50023200500232273
:104124000500232405002322050623280500232A4D
:104134000500232C0500214681451305C505EFC064
:10414400BF87971700009387C7885CD09717000034
:104154009387078B1CD4971700009387278F5CD411
:10416400971700009387C791B24000D01CD822440F
:1041740041018280970500009385C5F049A2411151
:1041840026C2930780069384F5FFB384F4024AC0E1
:104194002E8922C406C693854407D9262A8401CDD4
:1041A4002320050023222501310508C41386840633
:1041B4008145EFC07F80B240228522449244024967
:1041C40041018280138581844DA21385818479AA5B
:1041D4001385C18459AA1385C18449AA411122C4F3
:1041E40006C62A84EFF0DFFE1C4C91C72244B2407D
:1041F40041016FF05FFE970700009387E7F71CD437
:1042040023240404232604042328040483A7018309
:104214006394870085471CCC2285152848C02285D5
:104224003D2008C42285252048C4484001469145C4
:10423400EFF0BFED08440546A545EFF01FED4844F7
:104244000946C945EFF07FEC85471CCC45B74111C1
:1042540026C24AC006C622C42A89EFF0BFF683A448
:1042640001839C4C81E72685EFF05FF793848404F7
:104274008044DC40FD1763D607009C40A5C78440FA
:10428400C5BF0317C40021EFC17785075CC41305BC
:10429400840523220406C928EFF03FF32146232096
:1042A4000400232404002322040023280400232AD6
:1042B4000400232C040081451305C405EFC0CFEF8F
:1042C400232A0402232C04022324040423260404A2
:1042D400B24022852244924402494101828013045F
:1042E400840649BF91454A85EFF07FE988C02A8456
:1042F40059F5EFF09FEDB1472320F900D1BF797153
:1043040022D44AD04ECE52CC5AC85EC606D626D245
:1043140056CA2A892E8A130485048149054BFD5BFC
:104324000444832A4400FD1A63D00A0200406DF855
:10433400B250225492540259624AD24A424BB24B6E
:104344004E85F2494561828083D7C400637BFB00BC
:104354008397E40063877701A6854A85029AB3E9C7
:10436400A90093848406C1B78280828082805971B7
:10437400A2D42E848395E500A6D2CAD086D6B28470
:10438400368963D305028357C40093F7070895EB76
:1043940013070040B65026542320F90098C006594C
:1043A40096540145656182803000EF00A072E34CB1
:1043B40005FC3247BD67F98F7977BA9793B7170031
:1043C400C1BF814713070004F1B783D7C5007971D2
:1043D40022D406D626D24AD04ECE898B2E8491CFB3
:1043E400930774041CC01CC885475CC8B25022548F
:1043F40092540259F2494561828074003000AA84C3
:10440400EFF0FFF6A2492A892685CE85912A01ED8F
:104414008317C40013F7072071FBF19B93E7270070
:104424002316F40075BF970700009387E7D49CD444
:104434008357C40008C008C893E707082316F4008C
:10444400B247232A340189CF8315E40026857D25CC
:1044540001C98357C400F19B93E717002316F400A6
:104464008357C40033E527012316A40041B7D1CDF7
:1044740083A7C5FF011122CC06CE1384C5FF63D3E5
:1044840007003E942AC6C525138741851C4332453F
:1044940081EB2322040000C36244F2400561C1ADF4
:1044A400637DF4001040B306C4006396D7009443C0
:1044B400DC43B29614C05CC0F9BF3E87DC4399C3A9
:1044C400E37DF4FE14433306D700631F86001040D7
:1044D400B29614C33306D700E390C7FC9043DC4381
:1044E400B29614C35CC34DBF6375C400B1471CC10D
:1044F40065B71040B306C4006396D7009443DC4309
:10450400B29614C05CC040C341BF828041114AC00E
:10451400138901858327090022C426C206C6AA84FA
:104524002E8489E7814541212320A900A28526857F
:104534009D297D59631A25017D54B2402285224468
:104544009244024941018280130435007198E306C4
:1045540085FEB305A4402685B921E31025FFE9BFF4
:10456400011126CA93843500F1984AC8A104B147C1
:1045740006CE22CC4EC62A89B3F4F40A63C40400DE
:1045840063FDB400B1472320F9000145F2406244C1
:10459400D2444249B24905618280F123938941851D
:1045A40083A709003E8421E8A6854A85EFF01FF61B
:1045B400FD572A846317F50A03A40900A287C9EBEF
:1045C4008329040081454A85A299F12E6395A9089F
:1045D4001C408D044A859D8CF198B147A104B3F425
:1045E400F40AA685EFF09FF2FD576306F5061C401A
:1045F400A6971CC015A01440858E63C806042D47D9
:10460400637DD70204C0330794006396870223A016
:10461400E9005C4014C35CC34A85912B1305B400C4
:104624009307440061993307F540E301F5F63A94A2
:10463400898F1CC0A1BFD8C3E9BF584063958700C8
:1046440023A0E900D1BFD8C3C1BFA2874040A1BF06
:104654003E84DC43ADB7B1472320F9004A85012BE2
:104664002DB704C155BF1C46FD171CC663DA0700ED
:10467400184E63C5E700A9476394F5006FF0EFF0A7
:104684001C422E851387170018C22380B70082802E
:10469400011122CC26CA4AC84EC652C406CE2A8963
:1046A400AE893284B304D6007D5A63149400014564
:1046B40011A8834504004E864A85EFF0DFFA05040D
:1046C400E31545FFF2406244D2444249B249224ACA
:1046D40005618280357122CD26CB4AC94EC706CFEB
:1046E40052C556C35AC1DEDEE2DCAA892E84328961
:1046F400B68409C51C4D99E3EFF05FAE971700002F
:10470400938707A6631AF40403A449007C50858B9D
:1047140089EB8357C40093F7072081E7284CEFF017
:10472400DFC48357C400A18B99C31C48ADE3A285A1
:104734004E85EFF08FF121CD7C50858BA1C37D5543
:10474400FA406A44DA444A49BA492A4A9A4A0A4B1C
:10475400F65B665C0D618280971700009387479E25
:104764006315F40003A4890055B7971700009387D5
:10477400279BE31DF4F803A4C90049BF8357C40071
:1047840093F70720CDFF284CEFF05FBE4DBF930792
:104794000002A304F1029307000302D22305F102ED
:1047A40026C6930B5002971A0000938A6A9D294BE0
:1047B400CA8483C7040099C3639C7709338C24415A
:1047C400638E2401E2864A86A2854E85EFF05FEC73
:1047D400FD57630DF5189257E2973ED283C7040044
:1047E40063860718FD571389140002C802CE3ECA17
:1047F40002CCA309010482D48345090015465685D9
:10480400B126C2479304190031E513F7070109C71C
:1048140013070002A309E10413F7870009C713076C
:10482400B002A309E104834609001307A002638AC6
:10483400E602F247CA848146254603C704009385ED
:104844001400130707FD6374E60685C63ECE15A063
:10485400850485B733055541B397A72826893EC8F3
:1048640061BF324793064700184336C6634A0702BE
:104874003ACE03C704009307E002631EF70403C79C
:1048840014009307A002631AF702B247890413873E
:1048940047009C433AC67D57B3E7E70A3ECA25A8BA
:1048A4003307E04093E727003ACE3EC8D9B7B38731
:1048B4006703AE848546BA9749B7850402CA814620
:1048C4008147254603C7040093851400130707FD99
:1048D4006374E606E1F683C504000D46171500006F
:1048E4001305858AA52411CD971700009387C789DE
:1048F4001D8DC247130700043317A700D98F850401
:104904003EC883C504001946171500001305058821
:10491400138914002304B102152C25CD930700003C
:1049240095E74247B2471377071009CF91073EC670
:104934009257D2973ED2ADBDB3876703AE84854606
:10494400BA9749B79D07E19BA107D5B778009706A9
:104954000000938626D422860C084E85970000001A
:10496400E7000000FD572A8AE314F5FC7C50858B90
:1049740089EB8357C40093F7072081E7284CEFF0B5
:10498400FF9E8357C40093F70704E39A07DA12558E
:1049940045BB7800970600009386C6CF22860C0894
:1049A4004E85F92CC1B7411122C42A842E8523AC2B
:1049B400018406C6EFC0AFE8FD576316F50083A770
:1049C400818591C31CC0B2402244410182804111BF
:1049D40022C42E848395E50006C635236349050069
:1049E4007C48AA977CC8B240224441018280835704
:1049F400C4009397C7482316F400F5B783D7C500BE
:104A0400011122CC26CA4AC84EC606CE93F7071017
:104A1400AA842E843289B68991C78395E500894694
:104A2400014601228357C4008315E400F2409397A2
:104A3400C7482316F4006244CE864A86B2494249E6
:104A44002685D244056135A8411122C42E8483955C
:104A5400E50006C6F9207D578357C400631AE500B4
:104A64009397C7482316F400B24022444101828040
:104A74009397C72868C82316F400FDB78395E5000B
:104A84003DA0411122C42A842E85B285368623ACEA
:104A9400018406C6EFC02FD8FD576316F50083A71F
:104AA400818591C31CC0B2402244410182804111DE
:104AB40022C42A842E8523AC018406C69529FD5779
:104AC4006316F50083A7818591C31CC0B2402244BC
:104AD40041018280411122C42A842E85B28523ACEF
:104AE400018406C6A129FD576316F50083A78185B5
:104AF40091C31CC0B240224441018280411122C4AE
:104B04002A842E8523AC018406C63D29FD576316ED
:104B1400F50083A7818591C31CC0B24022444101A2
:104B24008280411122C42A842E85B285368623AC24
:104B3400018406C60521FD576316F50083A7818508
:104B440091C31CC0B24022444101828093F5F50F09
:104B54002A966314C5000145828083470500E38DCE
:104B6400B7FE0505FDB7138541846FF01F801385DB
:104B740041846FF0AFFF797156CA9C49BA8A98454F
:104B840022D44AD04ECE52CC06D626D25AC85EC6BD
:104B9400B3E7E70A1CC203C73504AA892E84328905
:104BA400368A19C385071CC21C4093F7070291C7B4
:104BB4008327090089072320F9000440998891E894
:104BC400130B9401FD5B5C4403270900998F63CCAC
:104BD400F40483473404B336F0001C4093F707020F
:104BE400A5EB13063404D2854E85829AFD576303E0
:104BF400F5041C4011478144998B6399E70083278E
:104C0400090044449D8C8147B3E4F40A1C441848C9
:104C14006354F700998FBE94014969047D5B6398DE
:104C24002405014509A885465A86D2854E85829A6F
:104C3400631E75017D55B250225492540259F249B3
:104C4400624AD24A424BB24B456182808504A5BF79
:104C54003307D40013060003A301C7040347540415
:104C640093871600A2978906A381E7049DBF854612
:104C74002286D2854E85829AE30E65FB050945B7E7
:104C8400797122D44AD04ECE52CC06D626D256CAF8
:104C94005AC803C88501930780072A892E84B289DC
:104CA400368A63E20703930720069386350463E19B
:104CB40007036301081E9307800517060000130607
:104CC400664D630BF814930424042301040515A80A
:104CD4009307D8F993F7F70F5546E366F6FE1706E0
:104CE40000001306A64DB3C7C7209C43B297828722
:104CF4001C4393842504938647009C4314C3238157
:104D0400F50485475DAA90411C43137506089385F5
:104D1400470039C19C430CC3584063D3071493051F
:104D2400D002A301B40418C463500704B307F040CD
:104D340017060000130606462948B68433F707030E
:104D4400FD143297034707002380E4003E87B3D75E
:104D54000703E37507FF8DA09C43137506040CC37A
:104D640045DD939757604DBF6D9A10C0C1B7904110
:104D74001C43137506089385470001C50CC39C4367
:104D840039A0137606040CC37DDA83D70700130712
:104D9400F006170600001306E63F6311E80C2148ED
:104DA400A3010404584018C4E34907F80C40ED99E2
:104DB4000CC0C1F7B68451F3A147631EF8001C4030
:104DC400858B91CB58401C4863C7E70093070003C9
:104DD400A38FF4FEFD14858E14C85287CE8670000E
:104DE400A2854A85EFF03FD9FD5A631C550D7D55C8
:104DF400B250225492540259F249624AD24A424B66
:104E0400456182809C4193E707029CC11308800797
:104E14001706000013064639A30204050C401C4380
:104E240013F80508138547006305080008C39C436D
:104E340001A813F8050408C3E30B08FE83D7070091
:104E440013F7150001C793E505020CC099C3414847
:104E540081BF18401377F7FD18C0D5BF294889B71B
:104E6400170600001306063329482DBF90411C4342
:104E7400CC4913780608138547006306080008C365
:104E84009C438CC301A808C3137606049C4375DABB
:104E94002390B70023280400B68481B71C43D04173
:104EA40081459386470014C384432685EFF01FCAC7
:104EB40001C5B30795405CC05C401CC8A301040451
:104EC40029BF14482686CE854A85029AE30155F304
:104ED4001C40898B85E74844B2473365F50A09BF0E
:104EE40085465686CE854A85029AE30265F1850495
:104EF4005C443247998FE3C5F4FEF1BF8144930AC1
:104F040094017D5BF5B7411122C42A842E85B285B4
:104F1400368623AC018406C6A120FD576316F5002E
:104F240083A7818591C31CC0B24022444101828081
:104F34009307800523ACF1847D5582809307800517
:104F440023ACF1847D5582809307800523ACF184E2
:104F5400014582809307800523ACF1847D558280CE
:104F64009307800523ACF1847D5582804572726F6E
:104F7400723A20253032580A0000000053746172DE
:104F84007420404368697049443D25303258200AF2
:104F94000000000057616974204469736B526561B5
:104FA40064790000253032780A000000437265619C
:104FB400746500002F4E455746494C452E545854AD
:104FC400000000004279746557726974650000003E
:104FD4004E6F74653A200D0AD5E2B8F6B3CCD0F220
:104FE400CAC7D2D4D7D6BDDACEAAB5A5CEBBBDF832
:104FF400D0D055C5CCCEC4BCFEB6C1D0B42C52560C
:1050040033BCF2B5A5D1DDCABEB9A6C4DCA1A30DDB
:105014000A000000B3C9B9A6D0B4C8EB20253032C9
:1050240058B4CE0A000000004D6F64696679000030
:10503400436C6F7365000000457261736500000086
:105044002F4F4C4400000000C8BEFFFFE0BEFFFF2E
:1050540004BFFFFF0EBFFFFF24BFFFFF55534220D5
:1050640064657620696E000055534220646576209D
:105074006F757400774C656E6774683A2025780AFA
:10508400000000006252657175657374547970652F
:105094003A2025780A00000053656E643A2025649E
:1050A4000A000000526573657420686F7374207081
:1050B4006F727400782530325820000047657443BD
:1050C400666744657363723A20000000496E697430
:1050D400526F6F7444657620457272203D202530EE
:1050E40032580A0044697361626C6520686F737496
:1050F40020706F72742062656361757365206F66DA
:1051040020646973636F6E6E6563740047657444ED
:10511400657644657363723A200000000000000065
:10512400000000000000000000000000000000007B
:10513400000000000000000000000000000000006B
:10514400000000000000000000000000000000005B
:10515400000000000000000000000000000000004B
:10516400000000000000000000000000000000003B
:10517400000000000000000000000000232D302B80
:1051840020000000686C4C006566674546470000D7
:105194003031323334353637383941424344454669
:1051A400000000003031323334353637383961622B
:1051B400636465660000000038FBFFFF4EFBFFFFE1
:1051C4000EFBFFFF0EFBFFFF0EFBFFFF0EFBFFFFBF
:1051D4004EFBFFFF0EFBFFFF0EFBFFFF0EFBFFFF6F
:1051E4000EFBFFFFB4FCFFFFB6FBFFFF4CFCFFFF11
:1051F4000EFBFFFF0EFBFFFFE4FCFFFF0EFBFFFFB8
:10520400B6FBFFFF0EFBFFFF0EFBFFFF54FCFFFF8F
:1052140000000000605100004051000020510000D7
:10522400000000000000000000000000000000007A
:10523400000000000000000000000000000000006A
:10524400000000000000000000000000000000005A
:10525400000000000000000000000000000000004A
:10526400000000000000000000000000000000003A
:10527400600E002060090020020100000000000010
:10528400000900000000000000050200000000000A
:1052940080060002000004008006000100001200E5
:0452A400600900207D
:00000001FF
